{
	"data": {
		"bytecode": {
			"linkReferences": {},
			"object": "608060405260006005556001600955670de0b6b3a7640000600a553480156200002757600080fd5b5060405162003db038038062003db08339810160408190526200004a9162000154565b600080546001600160a01b0319166001600160a01b038316908117909155600a546340c10f19903390620000819061271062000186565b6040516001600160e01b031960e085901b1681526001600160a01b0390921660048301526024820152604401600060405180830381600087803b158015620000c857600080fd5b505af1158015620000dd573d6000803e3d6000fd5b505060028054336001600160a01b0319909116811790915560408051606081018252600180825260006020808401828152848601838152968352600e90915293902091518254935161ffff1990941690151561ff0019161761010093151593909302929092178155915191015550620001b4915050565b6000602082840312156200016757600080fd5b81516001600160a01b03811681146200017f57600080fd5b9392505050565b6000816000190483118215151615620001af57634e487b7160e01b600052601160045260246000fd5b500290565b613bec80620001c46000396000f3fe608060405234801561001057600080fd5b50600436106102265760003560e01c80636c53747111610130578063c00ce9ff116100b8578063efa8154e1161007c578063efa8154e146105bc578063f48d9127146105cf578063f74e0eac146105e4578063fc177e3014610612578063ff2187bd1461062557600080fd5b8063c00ce9ff146104e4578063c07cfca914610505578063c6cdbe5e14610556578063daadd00f14610576578063e554a9001461059957600080fd5b806387f7b975116100ff57806387f7b975146104825780638c1b0d5114610495578063a25c891c1461049d578063a6385803146104b0578063a672601d146104d157600080fd5b80636c53747114610419578063764926db146104445780637b56d7f81461045757806383d7ccd01461045f57600080fd5b806332b773a5116101b3578063382872591161018257806338287259146103955780633d42dcdd146103a857806340284753146103bb57806344fb5a1a146103db57806360d205731461040657600080fd5b806332b773a5146103295780633477ee2e1461033c57806334ac0b401461035f5780633721bdae1461037257600080fd5b80630dbce4dd116101fa5780630dbce4dd146102b857806316c38b3c146102cd57806316c61ccc146102e057806319f3a50e146102fd5780632d35a8a21461031257600080fd5b8062d195fd1461022b57806306ead22e14610258578063073b1f59146102835780630b5f42da146102a5575b600080fd5b61023e61023936600461322a565b610638565b60405161024f95949392919061329f565b60405180910390f35b61026b61026636600461322a565b610713565b6040516001600160a01b03909116815260200161024f565b61029661029136600461338f565b61073d565b60405161024f9392919061340b565b60005461026b906001600160a01b031681565b6102cb6102c636600461347c565b610b89565b005b6102cb6102db3660046134e0565b610dec565b600b546102ed9060ff1681565b604051901515815260200161024f565b610305610e29565b60405161024f9190613509565b61031b60055481565b60405190815260200161024f565b61023e61033736600461338f565b610fde565b61034f61034a36600461322a565b611004565b60405161024f94939291906135e8565b61026b61036d36600461322a565b6110b5565b6102ed61038036600461362b565b600f6020526000908152604090205460ff1681565b6102ed6103a336600461362b565b6110c5565b6102cb6103b6366004613646565b611103565b6103ce6103c936600461338f565b611907565b60405161024f91906136e0565b61031b6103e936600461338f565b805160208183018101805160168252928201919093012091525481565b61023e61041436600461322a565b611acb565b61031b6104273660046136f3565b601460209081526000928352604080842090915290825290205481565b6102cb61045236600461338f565b611adb565b610305611e6e565b6102ed61046d36600461322a565b60156020526000908152604090205460ff1681565b60025461026b906001600160a01b031681565b6102cb61201a565b6102ed6104ab366004613715565b612075565b6104c36104be3660046137df565b6121e8565b60405161024f929190613824565b6102cb6104df36600461338f565b6128db565b6104f76104f236600461338f565b612a23565b60405161024f929190613846565b61053961051336600461362b565b600e602052600090815260409020805460019091015460ff808316926101009004169083565b60408051931515845291151560208401529082015260600161024f565b61056961056436600461322a565b612cdd565b60405161024f9190613874565b6102ed61058436600461362b565b60116020526000908152604090205460ff1681565b6102ed6105a736600461362b565b60106020526000908152604090205460ff1681565b61026b6105ca36600461322a565b612d89565b6105d7612d99565b60405161024f9190613887565b6102ed6105f23660046138e9565b601360209081526000928352604080842090915290825290205460ff1681565b61056961062036600461338f565b612e8d565b61026b61063336600461322a565b612f7e565b600d818154811061064857600080fd5b906000526020600020906003020160009150905080600001805461066b90613915565b80601f016020809104026020016040519081016040528092919081815260200182805461069790613915565b80156106e45780601f106106b9576101008083540402835291602001916106e4565b820191906000526020600020905b8154815290600101906020018083116106c757829003601f168201915b5050506002909301549192505060ff808216916101008104821691620100008204811691630100000090041685565b6004818154811061072357600080fd5b6000918252602090912001546001600160a01b0316905081565b60025460009081906060906001600160a01b031633148061077257503360009081526010602052604090205460ff1615156001145b6107975760405162461bcd60e51b815260040161078e90613949565b60405180910390fd5b600b5460ff16156107ba5760405162461bcd60e51b815260040161078e90613997565b6018846040516107ca91906139ce565b9081526040519081900360200190206002015460ff6101009091041615156001146108475760405162461bcd60e51b815260206004820152602760248201527f546869732073657373696f6e206973207374696c6c2061637469766520666f7260448201526620766f74696e6760c81b606482015260840161078e565b60008060008060009050600060055467ffffffffffffffff81111561086e5761086e6132d8565b6040519080825280602002602001820160405280156108ca57816020015b6108b76040518060800160405280600081526020016060815260200160008152602001600081525090565b81526020019060019003908161088c5790505b50905060005b600554811015610ad55760168a6040516108ea91906139ce565b9081526040519081900360200190205460126000610909846001613a00565b81526020019081526020016000206002015403610ac3576012600061092f836001613a00565b8152602001908152602001600020600301548561094c9190613a00565b9450856012600061095e846001613a00565b8152602001908152602001600020600301541115610ac35760126000610985836001613a00565b81526020019081526020016000206003015495506000601260008360016109ac9190613a00565b815260200190815260200160002060000154905080945060006012600083815260200190815260200160002090508060405180608001604052908160008201548152602001600182018054610a0090613915565b80601f0160208091040260200160405190810160405280929190818152602001828054610a2c90613915565b8015610a795780601f10610a4e57610100808354040283529160200191610a79565b820191906000526020600020905b815481529060010190602001808311610a5c57829003601f168201915b5050505050815260200160028201548152602001600382015481525050848681518110610aa857610aa8613a18565b6020908102919091010152610abe600186613a00565b945050505b80610acd81613a2e565b9150506108d0565b50600160188a604051610ae891906139ce565b908152602001604051809103902060020160026101000a81548160ff0219169083151502179055506012600084815260200190815260200160002060178a604051610b3391906139ce565b908152604051908190036020019020815481556001808301805491830191610b5a90613915565b610b65929190612fe7565b50600282810154908201556003918201549101559298939750919550919350505050565b6002546001600160a01b0316331480610bb657503360009081526010602052604090205460ff1615156001145b610bd25760405162461bcd60e51b815260040161078e90613949565b600b5460ff1615610bf55760405162461bcd60e51b815260040161078e90613997565b60055460009081526015602052604090205460ff1615610c6b5760405162461bcd60e51b815260206004820152602b60248201527f43616e64696461746520697320616c72656164792061637469766520666f722060448201526a30b71032b632b1ba34b7b760a91b606482015260840161078e565b601681604051610c7b91906139ce565b908152602001604051809103902054600003610cd95760405162461bcd60e51b815260206004820152601a60248201527f43617465676f727920646f6573206e6f742065786973742e2e2e000000000000604482015260640161078e565b600554600003610cf95760058054906000610cf383613a2e565b91905055505b60405180608001604052806005548152602001838152602001601683604051610d2291906139ce565b90815260408051602092819003830190205483526000928201839052600554835260128252909120825181558282015180519192610d6892600185019290910190613072565b5060408281015160028301556060909201516003909101556005805460009081526015602052918220805460ff19166001179055805491610da883613a2e565b91905055507ff23ce42eb3d2878c26ab610ef7d3edf80e07cfb6568d4028550637f27c73db41600554604051610de091815260200190565b60405180910390a15050565b6002546001600160a01b03163314610e165760405162461bcd60e51b815260040161078e90613a47565b600b805460ff1916911515919091179055565b600b5460609060ff1615610e4f5760405162461bcd60e51b815260040161078e90613997565b600d805480602002602001604051908101604052809291908181526020016000905b82821015610fd557838290600052602060002090600302016040518060c0016040529081600082018054610ea490613915565b80601f0160208091040260200160405190810160405280929190818152602001828054610ed090613915565b8015610f1d5780601f10610ef257610100808354040283529160200191610f1d565b820191906000526020600020905b815481529060010190602001808311610f0057829003601f168201915b5050505050815260200160018201805480602002602001604051908101604052809291908181526020018280548015610f7557602002820191906000526020600020905b815481526020019060010190808311610f61575b50505091835250506002919091015460ff8082161515602080850191909152610100830482161515604085015262010000830482161515606085015263010000009092041615156080909201919091529082526001929092019101610e71565b50505050905090565b805160208183018101805160188252928201919093012091528054819061066b90613915565b6012602052600090815260409020805460018201805491929161102690613915565b80601f016020809104026020016040519081016040528092919081815260200182805461105290613915565b801561109f5780601f106110745761010080835404028352916020019161109f565b820191906000526020600020905b81548152906001019060200180831161108257829003601f168201915b5050505050908060020154908060030154905084565b6001818154811061072357600080fd5b600b5460009060ff16156110eb5760405162461bcd60e51b815260040161078e90613997565b506002546001600160a01b038281169116145b919050565b6002546001600160a01b031633148061113057503360009081526010602052604090205460ff1615156001145b61114c5760405162461bcd60e51b815260040161078e90613949565b600b5460ff161561116f5760405162461bcd60e51b815260040161078e90613997565b806111bc5760405162461bcd60e51b815260206004820152601960248201527f55706c6f6164206172726179206f662061646472657373657300000000000000604482015260640161078e565b60005b818110156118c6576111f084604051806040016040528060078152602001661cdd1d59195b9d60ca1b815250612f8e565b15611437576011600084848481811061120b5761120b613a18565b9050602002016020810190611220919061362b565b6001600160a01b0316815260208101919091526040016000205460ff161515600114611432576000546001600160a01b03166340c10f1984848481811061126957611269613a18565b905060200201602081019061127e919061362b565b600a5461128c906005613a8a565b6040516001600160e01b031960e085901b1681526001600160a01b0390921660048301526024820152604401600060405180830381600087803b1580156112d257600080fd5b505af11580156112e6573d6000803e3d6000fd5b5050505060048383838181106112fe576112fe613a18565b9050602002016020810190611313919061362b565b81546001808201845560009384526020842090910180546001600160a01b0319166001600160a01b0393909316929092179091559060119085858581811061135d5761135d613a18565b9050602002016020810190611372919061362b565b6001600160a01b0316815260208082019290925260409081016000908120805460ff191694151594909417909355805160608101825260018152918201839052810182905290600e908585858181106113cd576113cd613a18565b90506020020160208101906113e2919061362b565b6001600160a01b031681526020808201929092526040908101600020835181549385015161ffff1990941690151561ff001916176101009315159390930292909217825591909101516001909101555b6118b4565b61146084604051806040016040528060078152602001663a32b0b1b432b960c91b815250612f8e565b156116a3576010600084848481811061147b5761147b613a18565b9050602002016020810190611490919061362b565b6001600160a01b0316815260208101919091526040016000205460ff161515600114611432576000546001600160a01b03166340c10f198484848181106114d9576114d9613a18565b90506020020160208101906114ee919061362b565b600a80546114fb91613a8a565b6040516001600160e01b031960e085901b1681526001600160a01b0390921660048301526024820152604401600060405180830381600087803b15801561154157600080fd5b505af1158015611555573d6000803e3d6000fd5b5050505060016010600085858581811061157157611571613a18565b9050602002016020810190611586919061362b565b6001600160a01b0316815260208082019290925260409081016000908120805460ff191694151594909417909355805160608101825260018152918201839052810182905290600e908585858181106115e1576115e1613a18565b90506020020160208101906115f6919061362b565b6001600160a01b031681526020808201929092526040908101600020835181549385015161ffff1990941690151561ff0019161761010093151593909302929092178255919091015160019182015583838381811061165757611657613a18565b905060200201602081019061166c919061362b565b81546001810183556000928352602090922090910180546001600160a01b0319166001600160a01b039092169190911790556118b4565b6116cd84604051806040016040528060088152602001673234b932b1ba37b960c11b815250612f8e565b156118b457600f60008484848181106116e8576116e8613a18565b90506020020160208101906116fd919061362b565b6001600160a01b0316815260208101919091526040016000205460ff1615156001146118b4576000546001600160a01b03166340c10f1984848481811061174657611746613a18565b905060200201602081019061175b919061362b565b600a54611769906014613a8a565b6040516001600160e01b031960e085901b1681526001600160a01b0390921660048301526024820152604401600060405180830381600087803b1580156117af57600080fd5b505af11580156117c3573d6000803e3d6000fd5b505050506001600f60008585858181106117df576117df613a18565b90506020020160208101906117f4919061362b565b6001600160a01b0316815260208082019290925260409081016000908120805460ff191694151594909417909355805160608101825260018152918201839052810182905290600e9085858581811061184f5761184f613a18565b9050602002016020810190611864919061362b565b6001600160a01b031681526020808201929092526040908101600020835181549385015161ffff1990941690151561ff001916176101009315159390930292909217825591909101516001909101555b806118be81613a2e565b9150506111bf565b507fdb5c245ee0521674ade89200cc3647a9590af2330e581dd656dce39d2354107c8383836040516118fa93929190613aa9565b60405180910390a1505050565b6119326040518060800160405280600081526020016060815260200160008152602001600081525090565b8160188160405161194391906139ce565b9081526040516020918190039190910190206002015462010000900460ff1615156001146119c65760405162461bcd60e51b815260206004820152602a60248201527f4f6e6c7920616c6c6f77656420616674657220766f7465732068617665206265604482015269195b8818dbdd5b9d195960b21b606482015260840161078e565b600b5460ff16156119e95760405162461bcd60e51b815260040161078e90613997565b6017836040516119f991906139ce565b908152602001604051809103902060405180608001604052908160008201548152602001600182018054611a2c90613915565b80601f0160208091040260200160405190810160405280929190818152602001828054611a5890613915565b8015611aa55780601f10611a7a57610100808354040283529160200191611aa5565b820191906000526020600020905b815481529060010190602001808311611a8857829003601f168201915b505050505081526020016002820154815260200160038201548152505091505b50919050565b600c818154811061064857600080fd5b6002546001600160a01b03163314611b055760405162461bcd60e51b815260040161078e90613a47565b600b5460ff1615611b285760405162461bcd60e51b815260040161078e90613997565b60005b600c54811015611e3057611beb600c8281548110611b4b57611b4b613a18565b90600052602060002090600302016000018054611b6790613915565b80601f0160208091040260200160405190810160405280929190818152602001828054611b9390613915565b8015611be05780601f10611bb557610100808354040283529160200191611be0565b820191906000526020600020905b815481529060010190602001808311611bc357829003601f168201915b505050505083612f8e565b15611e1e57600c8181548110611c0357611c03613a18565b9060005260206000209060030201601883604051611c2191906139ce565b908152604051908190036020019020815481908390611c3f90613915565b611c4a929190612fe7565b5060018281018054611c5f92840191906130e6565b506002918201805491909201805460ff928316151560ff19821681178355845461010090819004851615150261ff001990911661ffff19909216919091171780825583546201000090819004841615150262ff0000198216811783559354630100000090819004909316151590920263ff0000001990931663ffff00001990921691909117919091179055604051600190601890611cfe9085906139ce565b908152602001604051809103902060020160006101000a81548160ff021916908315150217905550600d600c8281548110611d3b57611d3b613a18565b60009182526020808320845460018101865594845292206003918202909201805490939091029091019081908390611d7290613915565b611d7d929190612fe7565b5060018281018054611d9292840191906130e6565b506002918201805491909201805460ff928316151560ff19821681178355845461010090819004851615150261ff001990911661ffff19909216919091171780825583546201000090819004841615150262ff0000198216811783559354630100000090819004909316151590920263ff0000001990931663ffff000019909216919091179190911790555b80611e2881613a2e565b915050611b2b565b507f226e81a7d3388de1ec48d35e19f2946db8a13c1df85088428a21a00a75fbfcdc816001604051611e63929190613b0a565b60405180910390a150565b600b5460609060ff1615611e945760405162461bcd60e51b815260040161078e90613997565b600c805480602002602001604051908101604052809291908181526020016000905b82821015610fd557838290600052602060002090600302016040518060c0016040529081600082018054611ee990613915565b80601f0160208091040260200160405190810160405280929190818152602001828054611f1590613915565b8015611f625780601f10611f3757610100808354040283529160200191611f62565b820191906000526020600020905b815481529060010190602001808311611f4557829003601f168201915b5050505050815260200160018201805480602002602001604051908101604052809291908181526020018280548015611fba57602002820191906000526020600020905b815481526020019060010190808311611fa6575b50505091835250506002919091015460ff8082161515602080850191909152610100830482161515604085015262010000830482161515606085015263010000009092041615156080909201919091529082526001929092019101611eb6565b6002546001600160a01b031633146120445760405162461bcd60e51b815260040161078e90613a47565b600b5460ff16156120675760405162461bcd60e51b815260040161078e90613997565b612073600c6000613125565b565b6002546000906001600160a01b03163314806120a557503360009081526010602052604090205460ff1615156001145b6120c15760405162461bcd60e51b815260040161078e90613949565b600b5460ff16156120e45760405162461bcd60e51b815260040161078e90613997565b6040805160c08101825284815260208082018590526000928201839052606082018390526080820183905260a08201839052600c805460018101825593528151805192936003027fdf6966c971051c3d54ec59162606531493a51404a002842f56009d7e5cf4a8c7019261215b9284920190613072565b5060208281015180516121749260018501920190613149565b50604082015160029190910180546060840151608085015160a09095015161ffff1990921693151561ff00191693909317610100931515939093029290921763ffff00001916620100009315159390930263ff00000019169290921763010000009115159190910217905550600192915050565b336000908152600e60205260408120546060919060ff166122575760405162461bcd60e51b8152602060048201526024808201527f596f75206d75737420626520612072656769737465726564207374616b65686f604482015263363232b960e11b606482015260840161078e565b600b5460ff161561227a5760405162461bcd60e51b815260040161078e90613997565b60188460405161228a91906139ce565b9081526040519081900360200190206002015460ff1615156001146122c15760405162461bcd60e51b815260040161078e90613b2e565b6018846040516122d191906139ce565b9081526040519081900360200190206002015460ff610100909104161561230a5760405162461bcd60e51b815260040161078e90613b2e565b60008381526015602052604090205460ff1615156001146123845760405162461bcd60e51b815260206004820152602e60248201527f43616e646964617465206973206e6f74207265676973746572656420666f722060448201526d3a3434b9903837b9b4ba34b7b71760911b606482015260840161078e565b60168460405161239491906139ce565b90815260200160405180910390205460126000858152602001908152602001600020600201541461241c5760405162461bcd60e51b815260206004820152602c60248201527f43616e646964617465206973206e6f74205265676973746572656420666f722060448201526b74686973204f66666963652160a01b606482015260840161078e565b6013600060168660405161243091906139ce565b9081526040805160209281900383019020548352828201939093529082016000908120338252909152205460ff16156124b65760405162461bcd60e51b815260206004820152602260248201527f43616e6e6f7420766f746520747769636520666f7220612063617465676f7279604482015261171760f11b606482015260840161078e565b336000818152600e6020526040808220805461ff001916610100179055905490516370a0823160e01b81526004810192909252670de0b6b3a7640000916001600160a01b03909116906370a0823190602401602060405180830381865afa158015612525573d6000803e3d6000fd5b505050506040513d601f19601f820116820180604052508101906125499190613b79565b116125c85760405162461bcd60e51b815260206004820152604360248201527f596f75522062616c616e63652069732063757272656e746c79206e6f7420737560448201527f6666696369656e7420746f20766f74652e204e6f742061207374616b65686f6c6064820152623232b960e91b608482015260a40161078e565b3360009081526010602052604081205460ff16151560011480156126635750600a80546125f491613a8a565b6000546040516370a0823160e01b81523360048201526001600160a01b03909116906370a0823190602401602060405180830381865afa15801561263c573d6000803e3d6000fd5b505050506040513d601f19601f820116820180604052508101906126609190613b79565b10155b15612670575060026127d8565b336000908152600f602052604090205460ff161515600114801561270c5750600a5461269d906014613a8a565b6000546040516370a0823160e01b81523360048201526001600160a01b03909116906370a0823190602401602060405180830381865afa1580156126e5573d6000803e3d6000fd5b505050506040513d601f19601f820116820180604052508101906127099190613b79565b10155b15612719575060036127d8565b6002546001600160a01b03163303612733575060046127d8565b3360009081526011602052604090205460ff16151560011480156127cf5750600a54612760906005613a8a565b6000546040516370a0823160e01b81523360048201526001600160a01b03909116906370a0823190602401602060405180830381865afa1580156127a8573d6000803e3d6000fd5b505050506040513d601f19601f820116820180604052508101906127cc9190613b79565b10155b156127d8575060015b60008160146000878152602001908152602001600020600060168960405161280091906139ce565b9081526020016040518091039020548152602001908152602001600020600082825461282c9190613a00565b9182905550600087815260126020526040808220600301839055519193506001925060139160169061285f908b906139ce565b9081526040805160209281900383019020548352828201939093529082016000908120338083529252829020805460ff191693151593909317909255517f7cf072052f53d68961097943ed95e47f628a7e51e185d0fa17786de527f4d8ee916128c9918990613b92565b60405180910390a15093949293505050565b6002546001600160a01b031633146129055760405162461bcd60e51b815260040161078e90613a47565b600b5460ff16156129285760405162461bcd60e51b815260040161078e90613997565b600160188260405161293a91906139ce565b90815260405190819003602001812060020180549215156101000261ff0019909316929092179091557f094a0eb701f9537e6884c310036f392249d21a74c75e75f5fc9987afc23f775890612993908390600190613b0a565b60405180910390a17f2d2c8fb198803a45177738250b8cf96325af69392f59b7e2aa78433f0d8c40c06018826040516129cc91906139ce565b9081526040519081900360200181206002015460ff16906018906129f19085906139ce565b908152604080516020928190038301812060020154931515815261010090930460ff1615159183019190915201611e63565b612a4e6040518060800160405280600081526020016060815260200160008152602001600081525090565b6002546060906001600160a01b0316331480612a7e57503360009081526010602052604090205460ff1615156001145b80612a9d5750336000908152600f602052604090205460ff1615156001145b612b0f5760405162461bcd60e51b815260206004820152603860248201527f416363657373206772616e74656420746f206f6e6c792074686520636861697260448201527f6d616e2c2074656163686572206f72206469726563746f720000000000000000606482015260840161078e565b6001601884604051612b2191906139ce565b9081526040519081900360200190206002018054821515620100000262ff000019909116179055612bba5760405162461bcd60e51b815260206004820152603c60248201527f546869732073657373696f6e206973207374696c6c206163746976652c766f7460448201527f696e6720686173206e6f7420796574206265656e20636f756e74656400000000606482015260840161078e565b6001601884604051612bcc91906139ce565b908152604051908190036020018120600201805492151563010000000263ff0000001990931692909217909155601790612c079085906139ce565b9081526020016040518091039020838160405180608001604052908160008201548152602001600182018054612c3c90613915565b80601f0160208091040260200160405190810160405280929190818152602001828054612c6890613915565b8015612cb55780601f10612c8a57610100808354040283529160200191612cb5565b820191906000526020600020905b815481529060010190602001808311612c9857829003601f168201915b5050505050815260200160028201548152602001600382015481525050915091509150915091565b60088181548110612ced57600080fd5b906000526020600020016000915090508054612d0890613915565b80601f0160208091040260200160405190810160405280929190818152602001828054612d3490613915565b8015612d815780601f10612d5657610100808354040283529160200191612d81565b820191906000526020600020905b815481529060010190602001808311612d6457829003601f168201915b505050505081565b6003818154811061072357600080fd5b600b5460609060ff1615612dbf5760405162461bcd60e51b815260040161078e90613997565b6008805480602002602001604051908101604052809291908181526020016000905b82821015610fd5578382906000526020600020018054612e0090613915565b80601f0160208091040260200160405190810160405280929190818152602001828054612e2c90613915565b8015612e795780601f10612e4e57610100808354040283529160200191612e79565b820191906000526020600020905b815481529060010190602001808311612e5c57829003601f168201915b505050505081526020019060010190612de1565b6002546060906001600160a01b0316331480612ebd57503360009081526010602052604090205460ff1615156001145b612ed95760405162461bcd60e51b815260040161078e90613949565b600b5460ff1615612efc5760405162461bcd60e51b815260040161078e90613997565b600880546001810182556000919091528251612f3f917ff3f7a9fe364faab93b216da50a3214154f22a0a2b415b23a84c8169e8b636ee301906020850190613072565b50600954601683604051612f5391906139ce565b9081526040519081900360200190205560098054906000612f7383613a2e565b909155509192915050565b6007818154811061072357600080fd5b600081604051602001612fa191906139ce565b6040516020818303038152906040528051906020012083604051602001612fc891906139ce565b6040516020818303038152906040528051906020012014905092915050565b828054612ff390613915565b90600052602060002090601f0160209004810192826130155760008555613062565b82601f106130265780548555613062565b8280016001018555821561306257600052602060002091601f016020900482015b82811115613062578254825591600101919060010190613047565b5061306e929150613183565b5090565b82805461307e90613915565b90600052602060002090601f0160209004810192826130a05760008555613062565b82601f106130b957805160ff1916838001178555613062565b82800160010185558215613062579182015b828111156130625782518255916020019190600101906130cb565b82805482825590600052602060002090810192821561306257600052602060002091820182811115613062578254825591600101919060010190613047565b50805460008255600302906000526020600020908101906131469190613198565b50565b82805482825590600052602060002090810192821561306257916020028201828111156130625782518255916020019190600101906130cb565b5b8082111561306e5760008155600101613184565b8082111561306e5760006131ac82826131d2565b6131ba60018301600061320c565b5060028101805463ffffffff19169055600301613198565b5080546131de90613915565b6000825580601f106131ee575050565b601f0160209004906000526020600020908101906131469190613183565b50805460008255906000526020600020908101906131469190613183565b60006020828403121561323c57600080fd5b5035919050565b60005b8381101561325e578181015183820152602001613246565b8381111561326d576000848401525b50505050565b6000815180845261328b816020860160208601613243565b601f01601f19169290920160200192915050565b60a0815260006132b260a0830188613273565b951515602083015250921515604084015290151560608301521515608090910152919050565b634e487b7160e01b600052604160045260246000fd5b604051601f8201601f1916810167ffffffffffffffff81118282101715613317576133176132d8565b604052919050565b600082601f83011261333057600080fd5b813567ffffffffffffffff81111561334a5761334a6132d8565b61335d601f8201601f19166020016132ee565b81815284602083860101111561337257600080fd5b816020850160208301376000918101602001919091529392505050565b6000602082840312156133a157600080fd5b813567ffffffffffffffff8111156133b857600080fd5b6133c48482850161331f565b949350505050565b8051825260006020820151608060208501526133eb6080850182613273565b905060408301516040850152606083015160608501528091505092915050565b600060608201858352602085818501526060604085015281855180845260808601915060808160051b870101935082870160005b8281101561346d57607f1988870301845261345b8683516133cc565b9550928401929084019060010161343f565b50939998505050505050505050565b6000806040838503121561348f57600080fd5b823567ffffffffffffffff808211156134a757600080fd5b6134b38683870161331f565b935060208501359150808211156134c957600080fd5b506134d68582860161331f565b9150509250929050565b6000602082840312156134f257600080fd5b8135801515811461350257600080fd5b9392505050565b60006020808301818452808551808352604092508286019150828160051b8701018488016000805b848110156135d957603f198a8503018652825160c0815181875261355782880182613273565b838c0151888203898e01528051808352908d019350869250908c01905b808310156135945783518252928c019260019290920191908c0190613574565b508a8401511515888c015260608085015115159089015260808085015115159089015260a0938401511515939097019290925250509487019491870191600101613531565b50919998505050505050505050565b8481526080602082015260006136016080830186613273565b6040830194909452506060015292915050565b80356001600160a01b03811681146110fe57600080fd5b60006020828403121561363d57600080fd5b61350282613614565b60008060006040848603121561365b57600080fd5b833567ffffffffffffffff8082111561367357600080fd5b61367f8783880161331f565b9450602086013591508082111561369557600080fd5b818601915086601f8301126136a957600080fd5b8135818111156136b857600080fd5b8760208260051b85010111156136cd57600080fd5b6020830194508093505050509250925092565b60208152600061350260208301846133cc565b6000806040838503121561370657600080fd5b50508035926020909101359150565b6000806040838503121561372857600080fd5b823567ffffffffffffffff8082111561374057600080fd5b61374c8683870161331f565b935060209150818501358181111561376357600080fd5b8501601f8101871361377457600080fd5b803582811115613786576137866132d8565b8060051b92506137978484016132ee565b81815292820184019284810190898511156137b157600080fd5b928501925b848410156137cf578335825292850192908501906137b6565b8096505050505050509250929050565b600080604083850312156137f257600080fd5b823567ffffffffffffffff81111561380957600080fd5b6138158582860161331f565b95602094909401359450505050565b6040815260006138376040830185613273565b90508260208301529392505050565b60408152600061385960408301856133cc565b828103602084015261386b8185613273565b95945050505050565b6020815260006135026020830184613273565b6000602080830181845280855180835260408601915060408160051b870101925083870160005b828110156138dc57603f198886030184526138ca858351613273565b945092850192908501906001016138ae565b5092979650505050505050565b600080604083850312156138fc57600080fd5b8235915061390c60208401613614565b90509250929050565b600181811c9082168061392957607f821691505b602082108103611ac557634e487b7160e01b600052602260045260246000fd5b6020808252602e908201527f416363657373206772616e74656420746f206f6e6c792074686520636861697260408201526d36b0b71037b9103a32b0b1b432b960911b606082015260800190565b6020808252601c908201527f436f6e74726163742069732063757272656e746c792070617573656400000000604082015260600190565b600082516139e0818460208701613243565b9190910192915050565b634e487b7160e01b600052601160045260246000fd5b60008219821115613a1357613a136139ea565b500190565b634e487b7160e01b600052603260045260246000fd5b600060018201613a4057613a406139ea565b5060010190565b60208082526023908201527f416363657373206772616e74656420746f206f6e6c792074686520636861697260408201526236b0b760e91b606082015260800190565b6000816000190483118215151615613aa457613aa46139ea565b500290565b604081526000613abc6040830186613273565b8281036020848101919091528482528591810160005b86811015613afe576001600160a01b03613aeb85613614565b1682529282019290820190600101613ad2565b50979650505050505050565b604081526000613b1d6040830185613273565b905082151560208301529392505050565b6020808252602b908201527f566f74696e6720686173206e6f7420636f6d6d6d656e63656420666f7220746860408201526a69732043617465676f727960a81b606082015260800190565b600060208284031215613b8b57600080fd5b5051919050565b6001600160a01b03831681526040602082018190526000906133c49083018461327356fea26469706673582212201e2fe1381e2df5e7aec0b3903648f7c57fbb0ef0d418c7a64c199ef88059013f64736f6c634300080d0033",
			"opcodes": "PUSH1 0x80 PUSH1 0x40 MSTORE PUSH1 0x0 PUSH1 0x5 SSTORE PUSH1 0x1 PUSH1 0x9 SSTORE PUSH8 0xDE0B6B3A7640000 PUSH1 0xA SSTORE CALLVALUE DUP1 ISZERO PUSH3 0x27 JUMPI PUSH1 0x0 DUP1 REVERT JUMPDEST POP PUSH1 0x40 MLOAD PUSH3 0x3DB0 CODESIZE SUB DUP1 PUSH3 0x3DB0 DUP4 CODECOPY DUP2 ADD PUSH1 0x40 DUP2 SWAP1 MSTORE PUSH3 0x4A SWAP2 PUSH3 0x154 JUMP JUMPDEST PUSH1 0x0 DUP1 SLOAD PUSH1 0x1 PUSH1 0x1 PUSH1 0xA0 SHL SUB NOT AND PUSH1 0x1 PUSH1 0x1 PUSH1 0xA0 SHL SUB DUP4 AND SWAP1 DUP2 OR SWAP1 SWAP2 SSTORE PUSH1 0xA SLOAD PUSH4 0x40C10F19 SWAP1 CALLER SWAP1 PUSH3 0x81 SWAP1 PUSH2 0x2710 PUSH3 0x186 JUMP JUMPDEST PUSH1 0x40 MLOAD PUSH1 0x1 PUSH1 0x1 PUSH1 0xE0 SHL SUB NOT PUSH1 0xE0 DUP6 SWAP1 SHL AND DUP2 MSTORE PUSH1 0x1 PUSH1 0x1 PUSH1 0xA0 SHL SUB SWAP1 SWAP3 AND PUSH1 0x4 DUP4 ADD MSTORE PUSH1 0x24 DUP3 ADD MSTORE PUSH1 0x44 ADD PUSH1 0x0 PUSH1 0x40 MLOAD DUP1 DUP4 SUB DUP2 PUSH1 0x0 DUP8 DUP1 EXTCODESIZE ISZERO DUP1 ISZERO PUSH3 0xC8 JUMPI PUSH1 0x0 DUP1 REVERT JUMPDEST POP GAS CALL ISZERO DUP1 ISZERO PUSH3 0xDD JUMPI RETURNDATASIZE PUSH1 0x0 DUP1 RETURNDATACOPY RETURNDATASIZE PUSH1 0x0 REVERT JUMPDEST POP POP PUSH1 0x2 DUP1 SLOAD CALLER PUSH1 0x1 PUSH1 0x1 PUSH1 0xA0 SHL SUB NOT SWAP1 SWAP2 AND DUP2 OR SWAP1 SWAP2 SSTORE PUSH1 0x40 DUP1 MLOAD PUSH1 0x60 DUP2 ADD DUP3 MSTORE PUSH1 0x1 DUP1 DUP3 MSTORE PUSH1 0x0 PUSH1 0x20 DUP1 DUP5 ADD DUP3 DUP2 MSTORE DUP5 DUP7 ADD DUP4 DUP2 MSTORE SWAP7 DUP4 MSTORE PUSH1 0xE SWAP1 SWAP2 MSTORE SWAP4 SWAP1 KECCAK256 SWAP2 MLOAD DUP3 SLOAD SWAP4 MLOAD PUSH2 0xFFFF NOT SWAP1 SWAP5 AND SWAP1 ISZERO ISZERO PUSH2 0xFF00 NOT AND OR PUSH2 0x100 SWAP4 ISZERO ISZERO SWAP4 SWAP1 SWAP4 MUL SWAP3 SWAP1 SWAP3 OR DUP2 SSTORE SWAP2 MLOAD SWAP2 ADD SSTORE POP PUSH3 0x1B4 SWAP2 POP POP JUMP JUMPDEST PUSH1 0x0 PUSH1 0x20 DUP3 DUP5 SUB SLT ISZERO PUSH3 0x167 JUMPI PUSH1 0x0 DUP1 REVERT JUMPDEST DUP2 MLOAD PUSH1 0x1 PUSH1 0x1 PUSH1 0xA0 SHL SUB DUP2 AND DUP2 EQ PUSH3 0x17F JUMPI PUSH1 0x0 DUP1 REVERT JUMPDEST SWAP4 SWAP3 POP POP POP JUMP JUMPDEST PUSH1 0x0 DUP2 PUSH1 0x0 NOT DIV DUP4 GT DUP3 ISZERO ISZERO AND ISZERO PUSH3 0x1AF JUMPI PUSH4 0x4E487B71 PUSH1 0xE0 SHL PUSH1 0x0 MSTORE PUSH1 0x11 PUSH1 0x4 MSTORE PUSH1 0x24 PUSH1 0x0 REVERT JUMPDEST POP MUL SWAP1 JUMP JUMPDEST PUSH2 0x3BEC DUP1 PUSH3 0x1C4 PUSH1 0x0 CODECOPY PUSH1 0x0 RETURN INVALID PUSH1 0x80 PUSH1 0x40 MSTORE CALLVALUE DUP1 ISZERO PUSH2 0x10 JUMPI PUSH1 0x0 DUP1 REVERT JUMPDEST POP PUSH1 0x4 CALLDATASIZE LT PUSH2 0x226 JUMPI PUSH1 0x0 CALLDATALOAD PUSH1 0xE0 SHR DUP1 PUSH4 0x6C537471 GT PUSH2 0x130 JUMPI DUP1 PUSH4 0xC00CE9FF GT PUSH2 0xB8 JUMPI DUP1 PUSH4 0xEFA8154E GT PUSH2 0x7C JUMPI DUP1 PUSH4 0xEFA8154E EQ PUSH2 0x5BC JUMPI DUP1 PUSH4 0xF48D9127 EQ PUSH2 0x5CF JUMPI DUP1 PUSH4 0xF74E0EAC EQ PUSH2 0x5E4 JUMPI DUP1 PUSH4 0xFC177E30 EQ PUSH2 0x612 JUMPI DUP1 PUSH4 0xFF2187BD EQ PUSH2 0x625 JUMPI PUSH1 0x0 DUP1 REVERT JUMPDEST DUP1 PUSH4 0xC00CE9FF EQ PUSH2 0x4E4 JUMPI DUP1 PUSH4 0xC07CFCA9 EQ PUSH2 0x505 JUMPI DUP1 PUSH4 0xC6CDBE5E EQ PUSH2 0x556 JUMPI DUP1 PUSH4 0xDAADD00F EQ PUSH2 0x576 JUMPI DUP1 PUSH4 0xE554A900 EQ PUSH2 0x599 JUMPI PUSH1 0x0 DUP1 REVERT JUMPDEST DUP1 PUSH4 0x87F7B975 GT PUSH2 0xFF JUMPI DUP1 PUSH4 0x87F7B975 EQ PUSH2 0x482 JUMPI DUP1 PUSH4 0x8C1B0D51 EQ PUSH2 0x495 JUMPI DUP1 PUSH4 0xA25C891C EQ PUSH2 0x49D JUMPI DUP1 PUSH4 0xA6385803 EQ PUSH2 0x4B0 JUMPI DUP1 PUSH4 0xA672601D EQ PUSH2 0x4D1 JUMPI PUSH1 0x0 DUP1 REVERT JUMPDEST DUP1 PUSH4 0x6C537471 EQ PUSH2 0x419 JUMPI DUP1 PUSH4 0x764926DB EQ PUSH2 0x444 JUMPI DUP1 PUSH4 0x7B56D7F8 EQ PUSH2 0x457 JUMPI DUP1 PUSH4 0x83D7CCD0 EQ PUSH2 0x45F JUMPI PUSH1 0x0 DUP1 REVERT JUMPDEST DUP1 PUSH4 0x32B773A5 GT PUSH2 0x1B3 JUMPI DUP1 PUSH4 0x38287259 GT PUSH2 0x182 JUMPI DUP1 PUSH4 0x38287259 EQ PUSH2 0x395 JUMPI DUP1 PUSH4 0x3D42DCDD EQ PUSH2 0x3A8 JUMPI DUP1 PUSH4 0x40284753 EQ PUSH2 0x3BB JUMPI DUP1 PUSH4 0x44FB5A1A EQ PUSH2 0x3DB JUMPI DUP1 PUSH4 0x60D20573 EQ PUSH2 0x406 JUMPI PUSH1 0x0 DUP1 REVERT JUMPDEST DUP1 PUSH4 0x32B773A5 EQ PUSH2 0x329 JUMPI DUP1 PUSH4 0x3477EE2E EQ PUSH2 0x33C JUMPI DUP1 PUSH4 0x34AC0B40 EQ PUSH2 0x35F JUMPI DUP1 PUSH4 0x3721BDAE EQ PUSH2 0x372 JUMPI PUSH1 0x0 DUP1 REVERT JUMPDEST DUP1 PUSH4 0xDBCE4DD GT PUSH2 0x1FA JUMPI DUP1 PUSH4 0xDBCE4DD EQ PUSH2 0x2B8 JUMPI DUP1 PUSH4 0x16C38B3C EQ PUSH2 0x2CD JUMPI DUP1 PUSH4 0x16C61CCC EQ PUSH2 0x2E0 JUMPI DUP1 PUSH4 0x19F3A50E EQ PUSH2 0x2FD JUMPI DUP1 PUSH4 0x2D35A8A2 EQ PUSH2 0x312 JUMPI PUSH1 0x0 DUP1 REVERT JUMPDEST DUP1 PUSH3 0xD195FD EQ PUSH2 0x22B JUMPI DUP1 PUSH4 0x6EAD22E EQ PUSH2 0x258 JUMPI DUP1 PUSH4 0x73B1F59 EQ PUSH2 0x283 JUMPI DUP1 PUSH4 0xB5F42DA EQ PUSH2 0x2A5 JUMPI JUMPDEST PUSH1 0x0 DUP1 REVERT JUMPDEST PUSH2 0x23E PUSH2 0x239 CALLDATASIZE PUSH1 0x4 PUSH2 0x322A JUMP JUMPDEST PUSH2 0x638 JUMP JUMPDEST PUSH1 0x40 MLOAD PUSH2 0x24F SWAP6 SWAP5 SWAP4 SWAP3 SWAP2 SWAP1 PUSH2 0x329F JUMP JUMPDEST PUSH1 0x40 MLOAD DUP1 SWAP2 SUB SWAP1 RETURN JUMPDEST PUSH2 0x26B PUSH2 0x266 CALLDATASIZE PUSH1 0x4 PUSH2 0x322A JUMP JUMPDEST PUSH2 0x713 JUMP JUMPDEST PUSH1 0x40 MLOAD PUSH1 0x1 PUSH1 0x1 PUSH1 0xA0 SHL SUB SWAP1 SWAP2 AND DUP2 MSTORE PUSH1 0x20 ADD PUSH2 0x24F JUMP JUMPDEST PUSH2 0x296 PUSH2 0x291 CALLDATASIZE PUSH1 0x4 PUSH2 0x338F JUMP JUMPDEST PUSH2 0x73D JUMP JUMPDEST PUSH1 0x40 MLOAD PUSH2 0x24F SWAP4 SWAP3 SWAP2 SWAP1 PUSH2 0x340B JUMP JUMPDEST PUSH1 0x0 SLOAD PUSH2 0x26B SWAP1 PUSH1 0x1 PUSH1 0x1 PUSH1 0xA0 SHL SUB AND DUP2 JUMP JUMPDEST PUSH2 0x2CB PUSH2 0x2C6 CALLDATASIZE PUSH1 0x4 PUSH2 0x347C JUMP JUMPDEST PUSH2 0xB89 JUMP JUMPDEST STOP JUMPDEST PUSH2 0x2CB PUSH2 0x2DB CALLDATASIZE PUSH1 0x4 PUSH2 0x34E0 JUMP JUMPDEST PUSH2 0xDEC JUMP JUMPDEST PUSH1 0xB SLOAD PUSH2 0x2ED SWAP1 PUSH1 0xFF AND DUP2 JUMP JUMPDEST PUSH1 0x40 MLOAD SWAP1 ISZERO ISZERO DUP2 MSTORE PUSH1 0x20 ADD PUSH2 0x24F JUMP JUMPDEST PUSH2 0x305 PUSH2 0xE29 JUMP JUMPDEST PUSH1 0x40 MLOAD PUSH2 0x24F SWAP2 SWAP1 PUSH2 0x3509 JUMP JUMPDEST PUSH2 0x31B PUSH1 0x5 SLOAD DUP2 JUMP JUMPDEST PUSH1 0x40 MLOAD SWAP1 DUP2 MSTORE PUSH1 0x20 ADD PUSH2 0x24F JUMP JUMPDEST PUSH2 0x23E PUSH2 0x337 CALLDATASIZE PUSH1 0x4 PUSH2 0x338F JUMP JUMPDEST PUSH2 0xFDE JUMP JUMPDEST PUSH2 0x34F PUSH2 0x34A CALLDATASIZE PUSH1 0x4 PUSH2 0x322A JUMP JUMPDEST PUSH2 0x1004 JUMP JUMPDEST PUSH1 0x40 MLOAD PUSH2 0x24F SWAP5 SWAP4 SWAP3 SWAP2 SWAP1 PUSH2 0x35E8 JUMP JUMPDEST PUSH2 0x26B PUSH2 0x36D CALLDATASIZE PUSH1 0x4 PUSH2 0x322A JUMP JUMPDEST PUSH2 0x10B5 JUMP JUMPDEST PUSH2 0x2ED PUSH2 0x380 CALLDATASIZE PUSH1 0x4 PUSH2 0x362B JUMP JUMPDEST PUSH1 0xF PUSH1 0x20 MSTORE PUSH1 0x0 SWAP1 DUP2 MSTORE PUSH1 0x40 SWAP1 KECCAK256 SLOAD PUSH1 0xFF AND DUP2 JUMP JUMPDEST PUSH2 0x2ED PUSH2 0x3A3 CALLDATASIZE PUSH1 0x4 PUSH2 0x362B JUMP JUMPDEST PUSH2 0x10C5 JUMP JUMPDEST PUSH2 0x2CB PUSH2 0x3B6 CALLDATASIZE PUSH1 0x4 PUSH2 0x3646 JUMP JUMPDEST PUSH2 0x1103 JUMP JUMPDEST PUSH2 0x3CE PUSH2 0x3C9 CALLDATASIZE PUSH1 0x4 PUSH2 0x338F JUMP JUMPDEST PUSH2 0x1907 JUMP JUMPDEST PUSH1 0x40 MLOAD PUSH2 0x24F SWAP2 SWAP1 PUSH2 0x36E0 JUMP JUMPDEST PUSH2 0x31B PUSH2 0x3E9 CALLDATASIZE PUSH1 0x4 PUSH2 0x338F JUMP JUMPDEST DUP1 MLOAD PUSH1 0x20 DUP2 DUP4 ADD DUP2 ADD DUP1 MLOAD PUSH1 0x16 DUP3 MSTORE SWAP3 DUP3 ADD SWAP2 SWAP1 SWAP4 ADD KECCAK256 SWAP2 MSTORE SLOAD DUP2 JUMP JUMPDEST PUSH2 0x23E PUSH2 0x414 CALLDATASIZE PUSH1 0x4 PUSH2 0x322A JUMP JUMPDEST PUSH2 0x1ACB JUMP JUMPDEST PUSH2 0x31B PUSH2 0x427 CALLDATASIZE PUSH1 0x4 PUSH2 0x36F3 JUMP JUMPDEST PUSH1 0x14 PUSH1 0x20 SWAP1 DUP2 MSTORE PUSH1 0x0 SWAP3 DUP4 MSTORE PUSH1 0x40 DUP1 DUP5 KECCAK256 SWAP1 SWAP2 MSTORE SWAP1 DUP3 MSTORE SWAP1 KECCAK256 SLOAD DUP2 JUMP JUMPDEST PUSH2 0x2CB PUSH2 0x452 CALLDATASIZE PUSH1 0x4 PUSH2 0x338F JUMP JUMPDEST PUSH2 0x1ADB JUMP JUMPDEST PUSH2 0x305 PUSH2 0x1E6E JUMP JUMPDEST PUSH2 0x2ED PUSH2 0x46D CALLDATASIZE PUSH1 0x4 PUSH2 0x322A JUMP JUMPDEST PUSH1 0x15 PUSH1 0x20 MSTORE PUSH1 0x0 SWAP1 DUP2 MSTORE PUSH1 0x40 SWAP1 KECCAK256 SLOAD PUSH1 0xFF AND DUP2 JUMP JUMPDEST PUSH1 0x2 SLOAD PUSH2 0x26B SWAP1 PUSH1 0x1 PUSH1 0x1 PUSH1 0xA0 SHL SUB AND DUP2 JUMP JUMPDEST PUSH2 0x2CB PUSH2 0x201A JUMP JUMPDEST PUSH2 0x2ED PUSH2 0x4AB CALLDATASIZE PUSH1 0x4 PUSH2 0x3715 JUMP JUMPDEST PUSH2 0x2075 JUMP JUMPDEST PUSH2 0x4C3 PUSH2 0x4BE CALLDATASIZE PUSH1 0x4 PUSH2 0x37DF JUMP JUMPDEST PUSH2 0x21E8 JUMP JUMPDEST PUSH1 0x40 MLOAD PUSH2 0x24F SWAP3 SWAP2 SWAP1 PUSH2 0x3824 JUMP JUMPDEST PUSH2 0x2CB PUSH2 0x4DF CALLDATASIZE PUSH1 0x4 PUSH2 0x338F JUMP JUMPDEST PUSH2 0x28DB JUMP JUMPDEST PUSH2 0x4F7 PUSH2 0x4F2 CALLDATASIZE PUSH1 0x4 PUSH2 0x338F JUMP JUMPDEST PUSH2 0x2A23 JUMP JUMPDEST PUSH1 0x40 MLOAD PUSH2 0x24F SWAP3 SWAP2 SWAP1 PUSH2 0x3846 JUMP JUMPDEST PUSH2 0x539 PUSH2 0x513 CALLDATASIZE PUSH1 0x4 PUSH2 0x362B JUMP JUMPDEST PUSH1 0xE PUSH1 0x20 MSTORE PUSH1 0x0 SWAP1 DUP2 MSTORE PUSH1 0x40 SWAP1 KECCAK256 DUP1 SLOAD PUSH1 0x1 SWAP1 SWAP2 ADD SLOAD PUSH1 0xFF DUP1 DUP4 AND SWAP3 PUSH2 0x100 SWAP1 DIV AND SWAP1 DUP4 JUMP JUMPDEST PUSH1 0x40 DUP1 MLOAD SWAP4 ISZERO ISZERO DUP5 MSTORE SWAP2 ISZERO ISZERO PUSH1 0x20 DUP5 ADD MSTORE SWAP1 DUP3 ADD MSTORE PUSH1 0x60 ADD PUSH2 0x24F JUMP JUMPDEST PUSH2 0x569 PUSH2 0x564 CALLDATASIZE PUSH1 0x4 PUSH2 0x322A JUMP JUMPDEST PUSH2 0x2CDD JUMP JUMPDEST PUSH1 0x40 MLOAD PUSH2 0x24F SWAP2 SWAP1 PUSH2 0x3874 JUMP JUMPDEST PUSH2 0x2ED PUSH2 0x584 CALLDATASIZE PUSH1 0x4 PUSH2 0x362B JUMP JUMPDEST PUSH1 0x11 PUSH1 0x20 MSTORE PUSH1 0x0 SWAP1 DUP2 MSTORE PUSH1 0x40 SWAP1 KECCAK256 SLOAD PUSH1 0xFF AND DUP2 JUMP JUMPDEST PUSH2 0x2ED PUSH2 0x5A7 CALLDATASIZE PUSH1 0x4 PUSH2 0x362B JUMP JUMPDEST PUSH1 0x10 PUSH1 0x20 MSTORE PUSH1 0x0 SWAP1 DUP2 MSTORE PUSH1 0x40 SWAP1 KECCAK256 SLOAD PUSH1 0xFF AND DUP2 JUMP JUMPDEST PUSH2 0x26B PUSH2 0x5CA CALLDATASIZE PUSH1 0x4 PUSH2 0x322A JUMP JUMPDEST PUSH2 0x2D89 JUMP JUMPDEST PUSH2 0x5D7 PUSH2 0x2D99 JUMP JUMPDEST PUSH1 0x40 MLOAD PUSH2 0x24F SWAP2 SWAP1 PUSH2 0x3887 JUMP JUMPDEST PUSH2 0x2ED PUSH2 0x5F2 CALLDATASIZE PUSH1 0x4 PUSH2 0x38E9 JUMP JUMPDEST PUSH1 0x13 PUSH1 0x20 SWAP1 DUP2 MSTORE PUSH1 0x0 SWAP3 DUP4 MSTORE PUSH1 0x40 DUP1 DUP5 KECCAK256 SWAP1 SWAP2 MSTORE SWAP1 DUP3 MSTORE SWAP1 KECCAK256 SLOAD PUSH1 0xFF AND DUP2 JUMP JUMPDEST PUSH2 0x569 PUSH2 0x620 CALLDATASIZE PUSH1 0x4 PUSH2 0x338F JUMP JUMPDEST PUSH2 0x2E8D JUMP JUMPDEST PUSH2 0x26B PUSH2 0x633 CALLDATASIZE PUSH1 0x4 PUSH2 0x322A JUMP JUMPDEST PUSH2 0x2F7E JUMP JUMPDEST PUSH1 0xD DUP2 DUP2 SLOAD DUP2 LT PUSH2 0x648 JUMPI PUSH1 0x0 DUP1 REVERT JUMPDEST SWAP1 PUSH1 0x0 MSTORE PUSH1 0x20 PUSH1 0x0 KECCAK256 SWAP1 PUSH1 0x3 MUL ADD PUSH1 0x0 SWAP2 POP SWAP1 POP DUP1 PUSH1 0x0 ADD DUP1 SLOAD PUSH2 0x66B SWAP1 PUSH2 0x3915 JUMP JUMPDEST DUP1 PUSH1 0x1F ADD PUSH1 0x20 DUP1 SWAP2 DIV MUL PUSH1 0x20 ADD PUSH1 0x40 MLOAD SWAP1 DUP2 ADD PUSH1 0x40 MSTORE DUP1 SWAP3 SWAP2 SWAP1 DUP2 DUP2 MSTORE PUSH1 0x20 ADD DUP3 DUP1 SLOAD PUSH2 0x697 SWAP1 PUSH2 0x3915 JUMP JUMPDEST DUP1 ISZERO PUSH2 0x6E4 JUMPI DUP1 PUSH1 0x1F LT PUSH2 0x6B9 JUMPI PUSH2 0x100 DUP1 DUP4 SLOAD DIV MUL DUP4 MSTORE SWAP2 PUSH1 0x20 ADD SWAP2 PUSH2 0x6E4 JUMP JUMPDEST DUP3 ADD SWAP2 SWAP1 PUSH1 0x0 MSTORE PUSH1 0x20 PUSH1 0x0 KECCAK256 SWAP1 JUMPDEST DUP2 SLOAD DUP2 MSTORE SWAP1 PUSH1 0x1 ADD SWAP1 PUSH1 0x20 ADD DUP1 DUP4 GT PUSH2 0x6C7 JUMPI DUP3 SWAP1 SUB PUSH1 0x1F AND DUP3 ADD SWAP2 JUMPDEST POP POP POP PUSH1 0x2 SWAP1 SWAP4 ADD SLOAD SWAP2 SWAP3 POP POP PUSH1 0xFF DUP1 DUP3 AND SWAP2 PUSH2 0x100 DUP2 DIV DUP3 AND SWAP2 PUSH3 0x10000 DUP3 DIV DUP2 AND SWAP2 PUSH4 0x1000000 SWAP1 DIV AND DUP6 JUMP JUMPDEST PUSH1 0x4 DUP2 DUP2 SLOAD DUP2 LT PUSH2 0x723 JUMPI PUSH1 0x0 DUP1 REVERT JUMPDEST PUSH1 0x0 SWAP2 DUP3 MSTORE PUSH1 0x20 SWAP1 SWAP2 KECCAK256 ADD SLOAD PUSH1 0x1 PUSH1 0x1 PUSH1 0xA0 SHL SUB AND SWAP1 POP DUP2 JUMP JUMPDEST PUSH1 0x2 SLOAD PUSH1 0x0 SWAP1 DUP2 SWAP1 PUSH1 0x60 SWAP1 PUSH1 0x1 PUSH1 0x1 PUSH1 0xA0 SHL SUB AND CALLER EQ DUP1 PUSH2 0x772 JUMPI POP CALLER PUSH1 0x0 SWAP1 DUP2 MSTORE PUSH1 0x10 PUSH1 0x20 MSTORE PUSH1 0x40 SWAP1 KECCAK256 SLOAD PUSH1 0xFF AND ISZERO ISZERO PUSH1 0x1 EQ JUMPDEST PUSH2 0x797 JUMPI PUSH1 0x40 MLOAD PUSH3 0x461BCD PUSH1 0xE5 SHL DUP2 MSTORE PUSH1 0x4 ADD PUSH2 0x78E SWAP1 PUSH2 0x3949 JUMP JUMPDEST PUSH1 0x40 MLOAD DUP1 SWAP2 SUB SWAP1 REVERT JUMPDEST PUSH1 0xB SLOAD PUSH1 0xFF AND ISZERO PUSH2 0x7BA JUMPI PUSH1 0x40 MLOAD PUSH3 0x461BCD PUSH1 0xE5 SHL DUP2 MSTORE PUSH1 0x4 ADD PUSH2 0x78E SWAP1 PUSH2 0x3997 JUMP JUMPDEST PUSH1 0x18 DUP5 PUSH1 0x40 MLOAD PUSH2 0x7CA SWAP2 SWAP1 PUSH2 0x39CE JUMP JUMPDEST SWAP1 DUP2 MSTORE PUSH1 0x40 MLOAD SWAP1 DUP2 SWAP1 SUB PUSH1 0x20 ADD SWAP1 KECCAK256 PUSH1 0x2 ADD SLOAD PUSH1 0xFF PUSH2 0x100 SWAP1 SWAP2 DIV AND ISZERO ISZERO PUSH1 0x1 EQ PUSH2 0x847 JUMPI PUSH1 0x40 MLOAD PUSH3 0x461BCD PUSH1 0xE5 SHL DUP2 MSTORE PUSH1 0x20 PUSH1 0x4 DUP3 ADD MSTORE PUSH1 0x27 PUSH1 0x24 DUP3 ADD MSTORE PUSH32 0x546869732073657373696F6E206973207374696C6C2061637469766520666F72 PUSH1 0x44 DUP3 ADD MSTORE PUSH7 0x20766F74696E67 PUSH1 0xC8 SHL PUSH1 0x64 DUP3 ADD MSTORE PUSH1 0x84 ADD PUSH2 0x78E JUMP JUMPDEST PUSH1 0x0 DUP1 PUSH1 0x0 DUP1 PUSH1 0x0 SWAP1 POP PUSH1 0x0 PUSH1 0x5 SLOAD PUSH8 0xFFFFFFFFFFFFFFFF DUP2 GT ISZERO PUSH2 0x86E JUMPI PUSH2 0x86E PUSH2 0x32D8 JUMP JUMPDEST PUSH1 0x40 MLOAD SWAP1 DUP1 DUP3 MSTORE DUP1 PUSH1 0x20 MUL PUSH1 0x20 ADD DUP3 ADD PUSH1 0x40 MSTORE DUP1 ISZERO PUSH2 0x8CA JUMPI DUP2 PUSH1 0x20 ADD JUMPDEST PUSH2 0x8B7 PUSH1 0x40 MLOAD DUP1 PUSH1 0x80 ADD PUSH1 0x40 MSTORE DUP1 PUSH1 0x0 DUP2 MSTORE PUSH1 0x20 ADD PUSH1 0x60 DUP2 MSTORE PUSH1 0x20 ADD PUSH1 0x0 DUP2 MSTORE PUSH1 0x20 ADD PUSH1 0x0 DUP2 MSTORE POP SWAP1 JUMP JUMPDEST DUP2 MSTORE PUSH1 0x20 ADD SWAP1 PUSH1 0x1 SWAP1 SUB SWAP1 DUP2 PUSH2 0x88C JUMPI SWAP1 POP JUMPDEST POP SWAP1 POP PUSH1 0x0 JUMPDEST PUSH1 0x5 SLOAD DUP2 LT ISZERO PUSH2 0xAD5 JUMPI PUSH1 0x16 DUP11 PUSH1 0x40 MLOAD PUSH2 0x8EA SWAP2 SWAP1 PUSH2 0x39CE JUMP JUMPDEST SWAP1 DUP2 MSTORE PUSH1 0x40 MLOAD SWAP1 DUP2 SWAP1 SUB PUSH1 0x20 ADD SWAP1 KECCAK256 SLOAD PUSH1 0x12 PUSH1 0x0 PUSH2 0x909 DUP5 PUSH1 0x1 PUSH2 0x3A00 JUMP JUMPDEST DUP2 MSTORE PUSH1 0x20 ADD SWAP1 DUP2 MSTORE PUSH1 0x20 ADD PUSH1 0x0 KECCAK256 PUSH1 0x2 ADD SLOAD SUB PUSH2 0xAC3 JUMPI PUSH1 0x12 PUSH1 0x0 PUSH2 0x92F DUP4 PUSH1 0x1 PUSH2 0x3A00 JUMP JUMPDEST DUP2 MSTORE PUSH1 0x20 ADD SWAP1 DUP2 MSTORE PUSH1 0x20 ADD PUSH1 0x0 KECCAK256 PUSH1 0x3 ADD SLOAD DUP6 PUSH2 0x94C SWAP2 SWAP1 PUSH2 0x3A00 JUMP JUMPDEST SWAP5 POP DUP6 PUSH1 0x12 PUSH1 0x0 PUSH2 0x95E DUP5 PUSH1 0x1 PUSH2 0x3A00 JUMP JUMPDEST DUP2 MSTORE PUSH1 0x20 ADD SWAP1 DUP2 MSTORE PUSH1 0x20 ADD PUSH1 0x0 KECCAK256 PUSH1 0x3 ADD SLOAD GT ISZERO PUSH2 0xAC3 JUMPI PUSH1 0x12 PUSH1 0x0 PUSH2 0x985 DUP4 PUSH1 0x1 PUSH2 0x3A00 JUMP JUMPDEST DUP2 MSTORE PUSH1 0x20 ADD SWAP1 DUP2 MSTORE PUSH1 0x20 ADD PUSH1 0x0 KECCAK256 PUSH1 0x3 ADD SLOAD SWAP6 POP PUSH1 0x0 PUSH1 0x12 PUSH1 0x0 DUP4 PUSH1 0x1 PUSH2 0x9AC SWAP2 SWAP1 PUSH2 0x3A00 JUMP JUMPDEST DUP2 MSTORE PUSH1 0x20 ADD SWAP1 DUP2 MSTORE PUSH1 0x20 ADD PUSH1 0x0 KECCAK256 PUSH1 0x0 ADD SLOAD SWAP1 POP DUP1 SWAP5 POP PUSH1 0x0 PUSH1 0x12 PUSH1 0x0 DUP4 DUP2 MSTORE PUSH1 0x20 ADD SWAP1 DUP2 MSTORE PUSH1 0x20 ADD PUSH1 0x0 KECCAK256 SWAP1 POP DUP1 PUSH1 0x40 MLOAD DUP1 PUSH1 0x80 ADD PUSH1 0x40 MSTORE SWAP1 DUP2 PUSH1 0x0 DUP3 ADD SLOAD DUP2 MSTORE PUSH1 0x20 ADD PUSH1 0x1 DUP3 ADD DUP1 SLOAD PUSH2 0xA00 SWAP1 PUSH2 0x3915 JUMP JUMPDEST DUP1 PUSH1 0x1F ADD PUSH1 0x20 DUP1 SWAP2 DIV MUL PUSH1 0x20 ADD PUSH1 0x40 MLOAD SWAP1 DUP2 ADD PUSH1 0x40 MSTORE DUP1 SWAP3 SWAP2 SWAP1 DUP2 DUP2 MSTORE PUSH1 0x20 ADD DUP3 DUP1 SLOAD PUSH2 0xA2C SWAP1 PUSH2 0x3915 JUMP JUMPDEST DUP1 ISZERO PUSH2 0xA79 JUMPI DUP1 PUSH1 0x1F LT PUSH2 0xA4E JUMPI PUSH2 0x100 DUP1 DUP4 SLOAD DIV MUL DUP4 MSTORE SWAP2 PUSH1 0x20 ADD SWAP2 PUSH2 0xA79 JUMP JUMPDEST DUP3 ADD SWAP2 SWAP1 PUSH1 0x0 MSTORE PUSH1 0x20 PUSH1 0x0 KECCAK256 SWAP1 JUMPDEST DUP2 SLOAD DUP2 MSTORE SWAP1 PUSH1 0x1 ADD SWAP1 PUSH1 0x20 ADD DUP1 DUP4 GT PUSH2 0xA5C JUMPI DUP3 SWAP1 SUB PUSH1 0x1F AND DUP3 ADD SWAP2 JUMPDEST POP POP POP POP POP DUP2 MSTORE PUSH1 0x20 ADD PUSH1 0x2 DUP3 ADD SLOAD DUP2 MSTORE PUSH1 0x20 ADD PUSH1 0x3 DUP3 ADD SLOAD DUP2 MSTORE POP POP DUP5 DUP7 DUP2 MLOAD DUP2 LT PUSH2 0xAA8 JUMPI PUSH2 0xAA8 PUSH2 0x3A18 JUMP JUMPDEST PUSH1 0x20 SWAP1 DUP2 MUL SWAP2 SWAP1 SWAP2 ADD ADD MSTORE PUSH2 0xABE PUSH1 0x1 DUP7 PUSH2 0x3A00 JUMP JUMPDEST SWAP5 POP POP POP JUMPDEST DUP1 PUSH2 0xACD DUP2 PUSH2 0x3A2E JUMP JUMPDEST SWAP2 POP POP PUSH2 0x8D0 JUMP JUMPDEST POP PUSH1 0x1 PUSH1 0x18 DUP11 PUSH1 0x40 MLOAD PUSH2 0xAE8 SWAP2 SWAP1 PUSH2 0x39CE JUMP JUMPDEST SWAP1 DUP2 MSTORE PUSH1 0x20 ADD PUSH1 0x40 MLOAD DUP1 SWAP2 SUB SWAP1 KECCAK256 PUSH1 0x2 ADD PUSH1 0x2 PUSH2 0x100 EXP DUP2 SLOAD DUP2 PUSH1 0xFF MUL NOT AND SWAP1 DUP4 ISZERO ISZERO MUL OR SWAP1 SSTORE POP PUSH1 0x12 PUSH1 0x0 DUP5 DUP2 MSTORE PUSH1 0x20 ADD SWAP1 DUP2 MSTORE PUSH1 0x20 ADD PUSH1 0x0 KECCAK256 PUSH1 0x17 DUP11 PUSH1 0x40 MLOAD PUSH2 0xB33 SWAP2 SWAP1 PUSH2 0x39CE JUMP JUMPDEST SWAP1 DUP2 MSTORE PUSH1 0x40 MLOAD SWAP1 DUP2 SWAP1 SUB PUSH1 0x20 ADD SWAP1 KECCAK256 DUP2 SLOAD DUP2 SSTORE PUSH1 0x1 DUP1 DUP4 ADD DUP1 SLOAD SWAP2 DUP4 ADD SWAP2 PUSH2 0xB5A SWAP1 PUSH2 0x3915 JUMP JUMPDEST PUSH2 0xB65 SWAP3 SWAP2 SWAP1 PUSH2 0x2FE7 JUMP JUMPDEST POP PUSH1 0x2 DUP3 DUP2 ADD SLOAD SWAP1 DUP3 ADD SSTORE PUSH1 0x3 SWAP2 DUP3 ADD SLOAD SWAP2 ADD SSTORE SWAP3 SWAP9 SWAP4 SWAP8 POP SWAP2 SWAP6 POP SWAP2 SWAP4 POP POP POP POP JUMP JUMPDEST PUSH1 0x2 SLOAD PUSH1 0x1 PUSH1 0x1 PUSH1 0xA0 SHL SUB AND CALLER EQ DUP1 PUSH2 0xBB6 JUMPI POP CALLER PUSH1 0x0 SWAP1 DUP2 MSTORE PUSH1 0x10 PUSH1 0x20 MSTORE PUSH1 0x40 SWAP1 KECCAK256 SLOAD PUSH1 0xFF AND ISZERO ISZERO PUSH1 0x1 EQ JUMPDEST PUSH2 0xBD2 JUMPI PUSH1 0x40 MLOAD PUSH3 0x461BCD PUSH1 0xE5 SHL DUP2 MSTORE PUSH1 0x4 ADD PUSH2 0x78E SWAP1 PUSH2 0x3949 JUMP JUMPDEST PUSH1 0xB SLOAD PUSH1 0xFF AND ISZERO PUSH2 0xBF5 JUMPI PUSH1 0x40 MLOAD PUSH3 0x461BCD PUSH1 0xE5 SHL DUP2 MSTORE PUSH1 0x4 ADD PUSH2 0x78E SWAP1 PUSH2 0x3997 JUMP JUMPDEST PUSH1 0x5 SLOAD PUSH1 0x0 SWAP1 DUP2 MSTORE PUSH1 0x15 PUSH1 0x20 MSTORE PUSH1 0x40 SWAP1 KECCAK256 SLOAD PUSH1 0xFF AND ISZERO PUSH2 0xC6B JUMPI PUSH1 0x40 MLOAD PUSH3 0x461BCD PUSH1 0xE5 SHL DUP2 MSTORE PUSH1 0x20 PUSH1 0x4 DUP3 ADD MSTORE PUSH1 0x2B PUSH1 0x24 DUP3 ADD MSTORE PUSH32 0x43616E64696461746520697320616C72656164792061637469766520666F7220 PUSH1 0x44 DUP3 ADD MSTORE PUSH11 0x30B71032B632B1BA34B7B7 PUSH1 0xA9 SHL PUSH1 0x64 DUP3 ADD MSTORE PUSH1 0x84 ADD PUSH2 0x78E JUMP JUMPDEST PUSH1 0x16 DUP2 PUSH1 0x40 MLOAD PUSH2 0xC7B SWAP2 SWAP1 PUSH2 0x39CE JUMP JUMPDEST SWAP1 DUP2 MSTORE PUSH1 0x20 ADD PUSH1 0x40 MLOAD DUP1 SWAP2 SUB SWAP1 KECCAK256 SLOAD PUSH1 0x0 SUB PUSH2 0xCD9 JUMPI PUSH1 0x40 MLOAD PUSH3 0x461BCD PUSH1 0xE5 SHL DUP2 MSTORE PUSH1 0x20 PUSH1 0x4 DUP3 ADD MSTORE PUSH1 0x1A PUSH1 0x24 DUP3 ADD MSTORE PUSH32 0x43617465676F727920646F6573206E6F742065786973742E2E2E000000000000 PUSH1 0x44 DUP3 ADD MSTORE PUSH1 0x64 ADD PUSH2 0x78E JUMP JUMPDEST PUSH1 0x5 SLOAD PUSH1 0x0 SUB PUSH2 0xCF9 JUMPI PUSH1 0x5 DUP1 SLOAD SWAP1 PUSH1 0x0 PUSH2 0xCF3 DUP4 PUSH2 0x3A2E JUMP JUMPDEST SWAP2 SWAP1 POP SSTORE POP JUMPDEST PUSH1 0x40 MLOAD DUP1 PUSH1 0x80 ADD PUSH1 0x40 MSTORE DUP1 PUSH1 0x5 SLOAD DUP2 MSTORE PUSH1 0x20 ADD DUP4 DUP2 MSTORE PUSH1 0x20 ADD PUSH1 0x16 DUP4 PUSH1 0x40 MLOAD PUSH2 0xD22 SWAP2 SWAP1 PUSH2 0x39CE JUMP JUMPDEST SWAP1 DUP2 MSTORE PUSH1 0x40 DUP1 MLOAD PUSH1 0x20 SWAP3 DUP2 SWAP1 SUB DUP4 ADD SWAP1 KECCAK256 SLOAD DUP4 MSTORE PUSH1 0x0 SWAP3 DUP3 ADD DUP4 SWAP1 MSTORE PUSH1 0x5 SLOAD DUP4 MSTORE PUSH1 0x12 DUP3 MSTORE SWAP1 SWAP2 KECCAK256 DUP3 MLOAD DUP2 SSTORE DUP3 DUP3 ADD MLOAD DUP1 MLOAD SWAP2 SWAP3 PUSH2 0xD68 SWAP3 PUSH1 0x1 DUP6 ADD SWAP3 SWAP1 SWAP2 ADD SWAP1 PUSH2 0x3072 JUMP JUMPDEST POP PUSH1 0x40 DUP3 DUP2 ADD MLOAD PUSH1 0x2 DUP4 ADD SSTORE PUSH1 0x60 SWAP1 SWAP3 ADD MLOAD PUSH1 0x3 SWAP1 SWAP2 ADD SSTORE PUSH1 0x5 DUP1 SLOAD PUSH1 0x0 SWAP1 DUP2 MSTORE PUSH1 0x15 PUSH1 0x20 MSTORE SWAP2 DUP3 KECCAK256 DUP1 SLOAD PUSH1 0xFF NOT AND PUSH1 0x1 OR SWAP1 SSTORE DUP1 SLOAD SWAP2 PUSH2 0xDA8 DUP4 PUSH2 0x3A2E JUMP JUMPDEST SWAP2 SWAP1 POP SSTORE POP PUSH32 0xF23CE42EB3D2878C26AB610EF7D3EDF80E07CFB6568D4028550637F27C73DB41 PUSH1 0x5 SLOAD PUSH1 0x40 MLOAD PUSH2 0xDE0 SWAP2 DUP2 MSTORE PUSH1 0x20 ADD SWAP1 JUMP JUMPDEST PUSH1 0x40 MLOAD DUP1 SWAP2 SUB SWAP1 LOG1 POP POP JUMP JUMPDEST PUSH1 0x2 SLOAD PUSH1 0x1 PUSH1 0x1 PUSH1 0xA0 SHL SUB AND CALLER EQ PUSH2 0xE16 JUMPI PUSH1 0x40 MLOAD PUSH3 0x461BCD PUSH1 0xE5 SHL DUP2 MSTORE PUSH1 0x4 ADD PUSH2 0x78E SWAP1 PUSH2 0x3A47 JUMP JUMPDEST PUSH1 0xB DUP1 SLOAD PUSH1 0xFF NOT AND SWAP2 ISZERO ISZERO SWAP2 SWAP1 SWAP2 OR SWAP1 SSTORE JUMP JUMPDEST PUSH1 0xB SLOAD PUSH1 0x60 SWAP1 PUSH1 0xFF AND ISZERO PUSH2 0xE4F JUMPI PUSH1 0x40 MLOAD PUSH3 0x461BCD PUSH1 0xE5 SHL DUP2 MSTORE PUSH1 0x4 ADD PUSH2 0x78E SWAP1 PUSH2 0x3997 JUMP JUMPDEST PUSH1 0xD DUP1 SLOAD DUP1 PUSH1 0x20 MUL PUSH1 0x20 ADD PUSH1 0x40 MLOAD SWAP1 DUP2 ADD PUSH1 0x40 MSTORE DUP1 SWAP3 SWAP2 SWAP1 DUP2 DUP2 MSTORE PUSH1 0x20 ADD PUSH1 0x0 SWAP1 JUMPDEST DUP3 DUP3 LT ISZERO PUSH2 0xFD5 JUMPI DUP4 DUP3 SWAP1 PUSH1 0x0 MSTORE PUSH1 0x20 PUSH1 0x0 KECCAK256 SWAP1 PUSH1 0x3 MUL ADD PUSH1 0x40 MLOAD DUP1 PUSH1 0xC0 ADD PUSH1 0x40 MSTORE SWAP1 DUP2 PUSH1 0x0 DUP3 ADD DUP1 SLOAD PUSH2 0xEA4 SWAP1 PUSH2 0x3915 JUMP JUMPDEST DUP1 PUSH1 0x1F ADD PUSH1 0x20 DUP1 SWAP2 DIV MUL PUSH1 0x20 ADD PUSH1 0x40 MLOAD SWAP1 DUP2 ADD PUSH1 0x40 MSTORE DUP1 SWAP3 SWAP2 SWAP1 DUP2 DUP2 MSTORE PUSH1 0x20 ADD DUP3 DUP1 SLOAD PUSH2 0xED0 SWAP1 PUSH2 0x3915 JUMP JUMPDEST DUP1 ISZERO PUSH2 0xF1D JUMPI DUP1 PUSH1 0x1F LT PUSH2 0xEF2 JUMPI PUSH2 0x100 DUP1 DUP4 SLOAD DIV MUL DUP4 MSTORE SWAP2 PUSH1 0x20 ADD SWAP2 PUSH2 0xF1D JUMP JUMPDEST DUP3 ADD SWAP2 SWAP1 PUSH1 0x0 MSTORE PUSH1 0x20 PUSH1 0x0 KECCAK256 SWAP1 JUMPDEST DUP2 SLOAD DUP2 MSTORE SWAP1 PUSH1 0x1 ADD SWAP1 PUSH1 0x20 ADD DUP1 DUP4 GT PUSH2 0xF00 JUMPI DUP3 SWAP1 SUB PUSH1 0x1F AND DUP3 ADD SWAP2 JUMPDEST POP POP POP POP POP DUP2 MSTORE PUSH1 0x20 ADD PUSH1 0x1 DUP3 ADD DUP1 SLOAD DUP1 PUSH1 0x20 MUL PUSH1 0x20 ADD PUSH1 0x40 MLOAD SWAP1 DUP2 ADD PUSH1 0x40 MSTORE DUP1 SWAP3 SWAP2 SWAP1 DUP2 DUP2 MSTORE PUSH1 0x20 ADD DUP3 DUP1 SLOAD DUP1 ISZERO PUSH2 0xF75 JUMPI PUSH1 0x20 MUL DUP3 ADD SWAP2 SWAP1 PUSH1 0x0 MSTORE PUSH1 0x20 PUSH1 0x0 KECCAK256 SWAP1 JUMPDEST DUP2 SLOAD DUP2 MSTORE PUSH1 0x20 ADD SWAP1 PUSH1 0x1 ADD SWAP1 DUP1 DUP4 GT PUSH2 0xF61 JUMPI JUMPDEST POP POP POP SWAP2 DUP4 MSTORE POP POP PUSH1 0x2 SWAP2 SWAP1 SWAP2 ADD SLOAD PUSH1 0xFF DUP1 DUP3 AND ISZERO ISZERO PUSH1 0x20 DUP1 DUP6 ADD SWAP2 SWAP1 SWAP2 MSTORE PUSH2 0x100 DUP4 DIV DUP3 AND ISZERO ISZERO PUSH1 0x40 DUP6 ADD MSTORE PUSH3 0x10000 DUP4 DIV DUP3 AND ISZERO ISZERO PUSH1 0x60 DUP6 ADD MSTORE PUSH4 0x1000000 SWAP1 SWAP3 DIV AND ISZERO ISZERO PUSH1 0x80 SWAP1 SWAP3 ADD SWAP2 SWAP1 SWAP2 MSTORE SWAP1 DUP3 MSTORE PUSH1 0x1 SWAP3 SWAP1 SWAP3 ADD SWAP2 ADD PUSH2 0xE71 JUMP JUMPDEST POP POP POP POP SWAP1 POP SWAP1 JUMP JUMPDEST DUP1 MLOAD PUSH1 0x20 DUP2 DUP4 ADD DUP2 ADD DUP1 MLOAD PUSH1 0x18 DUP3 MSTORE SWAP3 DUP3 ADD SWAP2 SWAP1 SWAP4 ADD KECCAK256 SWAP2 MSTORE DUP1 SLOAD DUP2 SWAP1 PUSH2 0x66B SWAP1 PUSH2 0x3915 JUMP JUMPDEST PUSH1 0x12 PUSH1 0x20 MSTORE PUSH1 0x0 SWAP1 DUP2 MSTORE PUSH1 0x40 SWAP1 KECCAK256 DUP1 SLOAD PUSH1 0x1 DUP3 ADD DUP1 SLOAD SWAP2 SWAP3 SWAP2 PUSH2 0x1026 SWAP1 PUSH2 0x3915 JUMP JUMPDEST DUP1 PUSH1 0x1F ADD PUSH1 0x20 DUP1 SWAP2 DIV MUL PUSH1 0x20 ADD PUSH1 0x40 MLOAD SWAP1 DUP2 ADD PUSH1 0x40 MSTORE DUP1 SWAP3 SWAP2 SWAP1 DUP2 DUP2 MSTORE PUSH1 0x20 ADD DUP3 DUP1 SLOAD PUSH2 0x1052 SWAP1 PUSH2 0x3915 JUMP JUMPDEST DUP1 ISZERO PUSH2 0x109F JUMPI DUP1 PUSH1 0x1F LT PUSH2 0x1074 JUMPI PUSH2 0x100 DUP1 DUP4 SLOAD DIV MUL DUP4 MSTORE SWAP2 PUSH1 0x20 ADD SWAP2 PUSH2 0x109F JUMP JUMPDEST DUP3 ADD SWAP2 SWAP1 PUSH1 0x0 MSTORE PUSH1 0x20 PUSH1 0x0 KECCAK256 SWAP1 JUMPDEST DUP2 SLOAD DUP2 MSTORE SWAP1 PUSH1 0x1 ADD SWAP1 PUSH1 0x20 ADD DUP1 DUP4 GT PUSH2 0x1082 JUMPI DUP3 SWAP1 SUB PUSH1 0x1F AND DUP3 ADD SWAP2 JUMPDEST POP POP POP POP POP SWAP1 DUP1 PUSH1 0x2 ADD SLOAD SWAP1 DUP1 PUSH1 0x3 ADD SLOAD SWAP1 POP DUP5 JUMP JUMPDEST PUSH1 0x1 DUP2 DUP2 SLOAD DUP2 LT PUSH2 0x723 JUMPI PUSH1 0x0 DUP1 REVERT JUMPDEST PUSH1 0xB SLOAD PUSH1 0x0 SWAP1 PUSH1 0xFF AND ISZERO PUSH2 0x10EB JUMPI PUSH1 0x40 MLOAD PUSH3 0x461BCD PUSH1 0xE5 SHL DUP2 MSTORE PUSH1 0x4 ADD PUSH2 0x78E SWAP1 PUSH2 0x3997 JUMP JUMPDEST POP PUSH1 0x2 SLOAD PUSH1 0x1 PUSH1 0x1 PUSH1 0xA0 SHL SUB DUP3 DUP2 AND SWAP2 AND EQ JUMPDEST SWAP2 SWAP1 POP JUMP JUMPDEST PUSH1 0x2 SLOAD PUSH1 0x1 PUSH1 0x1 PUSH1 0xA0 SHL SUB AND CALLER EQ DUP1 PUSH2 0x1130 JUMPI POP CALLER PUSH1 0x0 SWAP1 DUP2 MSTORE PUSH1 0x10 PUSH1 0x20 MSTORE PUSH1 0x40 SWAP1 KECCAK256 SLOAD PUSH1 0xFF AND ISZERO ISZERO PUSH1 0x1 EQ JUMPDEST PUSH2 0x114C JUMPI PUSH1 0x40 MLOAD PUSH3 0x461BCD PUSH1 0xE5 SHL DUP2 MSTORE PUSH1 0x4 ADD PUSH2 0x78E SWAP1 PUSH2 0x3949 JUMP JUMPDEST PUSH1 0xB SLOAD PUSH1 0xFF AND ISZERO PUSH2 0x116F JUMPI PUSH1 0x40 MLOAD PUSH3 0x461BCD PUSH1 0xE5 SHL DUP2 MSTORE PUSH1 0x4 ADD PUSH2 0x78E SWAP1 PUSH2 0x3997 JUMP JUMPDEST DUP1 PUSH2 0x11BC JUMPI PUSH1 0x40 MLOAD PUSH3 0x461BCD PUSH1 0xE5 SHL DUP2 MSTORE PUSH1 0x20 PUSH1 0x4 DUP3 ADD MSTORE PUSH1 0x19 PUSH1 0x24 DUP3 ADD MSTORE PUSH32 0x55706C6F6164206172726179206F662061646472657373657300000000000000 PUSH1 0x44 DUP3 ADD MSTORE PUSH1 0x64 ADD PUSH2 0x78E JUMP JUMPDEST PUSH1 0x0 JUMPDEST DUP2 DUP2 LT ISZERO PUSH2 0x18C6 JUMPI PUSH2 0x11F0 DUP5 PUSH1 0x40 MLOAD DUP1 PUSH1 0x40 ADD PUSH1 0x40 MSTORE DUP1 PUSH1 0x7 DUP2 MSTORE PUSH1 0x20 ADD PUSH7 0x1CDD1D59195B9D PUSH1 0xCA SHL DUP2 MSTORE POP PUSH2 0x2F8E JUMP JUMPDEST ISZERO PUSH2 0x1437 JUMPI PUSH1 0x11 PUSH1 0x0 DUP5 DUP5 DUP5 DUP2 DUP2 LT PUSH2 0x120B JUMPI PUSH2 0x120B PUSH2 0x3A18 JUMP JUMPDEST SWAP1 POP PUSH1 0x20 MUL ADD PUSH1 0x20 DUP2 ADD SWAP1 PUSH2 0x1220 SWAP2 SWAP1 PUSH2 0x362B JUMP JUMPDEST PUSH1 0x1 PUSH1 0x1 PUSH1 0xA0 SHL SUB AND DUP2 MSTORE PUSH1 0x20 DUP2 ADD SWAP2 SWAP1 SWAP2 MSTORE PUSH1 0x40 ADD PUSH1 0x0 KECCAK256 SLOAD PUSH1 0xFF AND ISZERO ISZERO PUSH1 0x1 EQ PUSH2 0x1432 JUMPI PUSH1 0x0 SLOAD PUSH1 0x1 PUSH1 0x1 PUSH1 0xA0 SHL SUB AND PUSH4 0x40C10F19 DUP5 DUP5 DUP5 DUP2 DUP2 LT PUSH2 0x1269 JUMPI PUSH2 0x1269 PUSH2 0x3A18 JUMP JUMPDEST SWAP1 POP PUSH1 0x20 MUL ADD PUSH1 0x20 DUP2 ADD SWAP1 PUSH2 0x127E SWAP2 SWAP1 PUSH2 0x362B JUMP JUMPDEST PUSH1 0xA SLOAD PUSH2 0x128C SWAP1 PUSH1 0x5 PUSH2 0x3A8A JUMP JUMPDEST PUSH1 0x40 MLOAD PUSH1 0x1 PUSH1 0x1 PUSH1 0xE0 SHL SUB NOT PUSH1 0xE0 DUP6 SWAP1 SHL AND DUP2 MSTORE PUSH1 0x1 PUSH1 0x1 PUSH1 0xA0 SHL SUB SWAP1 SWAP3 AND PUSH1 0x4 DUP4 ADD MSTORE PUSH1 0x24 DUP3 ADD MSTORE PUSH1 0x44 ADD PUSH1 0x0 PUSH1 0x40 MLOAD DUP1 DUP4 SUB DUP2 PUSH1 0x0 DUP8 DUP1 EXTCODESIZE ISZERO DUP1 ISZERO PUSH2 0x12D2 JUMPI PUSH1 0x0 DUP1 REVERT JUMPDEST POP GAS CALL ISZERO DUP1 ISZERO PUSH2 0x12E6 JUMPI RETURNDATASIZE PUSH1 0x0 DUP1 RETURNDATACOPY RETURNDATASIZE PUSH1 0x0 REVERT JUMPDEST POP POP POP POP PUSH1 0x4 DUP4 DUP4 DUP4 DUP2 DUP2 LT PUSH2 0x12FE JUMPI PUSH2 0x12FE PUSH2 0x3A18 JUMP JUMPDEST SWAP1 POP PUSH1 0x20 MUL ADD PUSH1 0x20 DUP2 ADD SWAP1 PUSH2 0x1313 SWAP2 SWAP1 PUSH2 0x362B JUMP JUMPDEST DUP2 SLOAD PUSH1 0x1 DUP1 DUP3 ADD DUP5 SSTORE PUSH1 0x0 SWAP4 DUP5 MSTORE PUSH1 0x20 DUP5 KECCAK256 SWAP1 SWAP2 ADD DUP1 SLOAD PUSH1 0x1 PUSH1 0x1 PUSH1 0xA0 SHL SUB NOT AND PUSH1 0x1 PUSH1 0x1 PUSH1 0xA0 SHL SUB SWAP4 SWAP1 SWAP4 AND SWAP3 SWAP1 SWAP3 OR SWAP1 SWAP2 SSTORE SWAP1 PUSH1 0x11 SWAP1 DUP6 DUP6 DUP6 DUP2 DUP2 LT PUSH2 0x135D JUMPI PUSH2 0x135D PUSH2 0x3A18 JUMP JUMPDEST SWAP1 POP PUSH1 0x20 MUL ADD PUSH1 0x20 DUP2 ADD SWAP1 PUSH2 0x1372 SWAP2 SWAP1 PUSH2 0x362B JUMP JUMPDEST PUSH1 0x1 PUSH1 0x1 PUSH1 0xA0 SHL SUB AND DUP2 MSTORE PUSH1 0x20 DUP1 DUP3 ADD SWAP3 SWAP1 SWAP3 MSTORE PUSH1 0x40 SWAP1 DUP2 ADD PUSH1 0x0 SWAP1 DUP2 KECCAK256 DUP1 SLOAD PUSH1 0xFF NOT AND SWAP5 ISZERO ISZERO SWAP5 SWAP1 SWAP5 OR SWAP1 SWAP4 SSTORE DUP1 MLOAD PUSH1 0x60 DUP2 ADD DUP3 MSTORE PUSH1 0x1 DUP2 MSTORE SWAP2 DUP3 ADD DUP4 SWAP1 MSTORE DUP2 ADD DUP3 SWAP1 MSTORE SWAP1 PUSH1 0xE SWAP1 DUP6 DUP6 DUP6 DUP2 DUP2 LT PUSH2 0x13CD JUMPI PUSH2 0x13CD PUSH2 0x3A18 JUMP JUMPDEST SWAP1 POP PUSH1 0x20 MUL ADD PUSH1 0x20 DUP2 ADD SWAP1 PUSH2 0x13E2 SWAP2 SWAP1 PUSH2 0x362B JUMP JUMPDEST PUSH1 0x1 PUSH1 0x1 PUSH1 0xA0 SHL SUB AND DUP2 MSTORE PUSH1 0x20 DUP1 DUP3 ADD SWAP3 SWAP1 SWAP3 MSTORE PUSH1 0x40 SWAP1 DUP2 ADD PUSH1 0x0 KECCAK256 DUP4 MLOAD DUP2 SLOAD SWAP4 DUP6 ADD MLOAD PUSH2 0xFFFF NOT SWAP1 SWAP5 AND SWAP1 ISZERO ISZERO PUSH2 0xFF00 NOT AND OR PUSH2 0x100 SWAP4 ISZERO ISZERO SWAP4 SWAP1 SWAP4 MUL SWAP3 SWAP1 SWAP3 OR DUP3 SSTORE SWAP2 SWAP1 SWAP2 ADD MLOAD PUSH1 0x1 SWAP1 SWAP2 ADD SSTORE JUMPDEST PUSH2 0x18B4 JUMP JUMPDEST PUSH2 0x1460 DUP5 PUSH1 0x40 MLOAD DUP1 PUSH1 0x40 ADD PUSH1 0x40 MSTORE DUP1 PUSH1 0x7 DUP2 MSTORE PUSH1 0x20 ADD PUSH7 0x3A32B0B1B432B9 PUSH1 0xC9 SHL DUP2 MSTORE POP PUSH2 0x2F8E JUMP JUMPDEST ISZERO PUSH2 0x16A3 JUMPI PUSH1 0x10 PUSH1 0x0 DUP5 DUP5 DUP5 DUP2 DUP2 LT PUSH2 0x147B JUMPI PUSH2 0x147B PUSH2 0x3A18 JUMP JUMPDEST SWAP1 POP PUSH1 0x20 MUL ADD PUSH1 0x20 DUP2 ADD SWAP1 PUSH2 0x1490 SWAP2 SWAP1 PUSH2 0x362B JUMP JUMPDEST PUSH1 0x1 PUSH1 0x1 PUSH1 0xA0 SHL SUB AND DUP2 MSTORE PUSH1 0x20 DUP2 ADD SWAP2 SWAP1 SWAP2 MSTORE PUSH1 0x40 ADD PUSH1 0x0 KECCAK256 SLOAD PUSH1 0xFF AND ISZERO ISZERO PUSH1 0x1 EQ PUSH2 0x1432 JUMPI PUSH1 0x0 SLOAD PUSH1 0x1 PUSH1 0x1 PUSH1 0xA0 SHL SUB AND PUSH4 0x40C10F19 DUP5 DUP5 DUP5 DUP2 DUP2 LT PUSH2 0x14D9 JUMPI PUSH2 0x14D9 PUSH2 0x3A18 JUMP JUMPDEST SWAP1 POP PUSH1 0x20 MUL ADD PUSH1 0x20 DUP2 ADD SWAP1 PUSH2 0x14EE SWAP2 SWAP1 PUSH2 0x362B JUMP JUMPDEST PUSH1 0xA DUP1 SLOAD PUSH2 0x14FB SWAP2 PUSH2 0x3A8A JUMP JUMPDEST PUSH1 0x40 MLOAD PUSH1 0x1 PUSH1 0x1 PUSH1 0xE0 SHL SUB NOT PUSH1 0xE0 DUP6 SWAP1 SHL AND DUP2 MSTORE PUSH1 0x1 PUSH1 0x1 PUSH1 0xA0 SHL SUB SWAP1 SWAP3 AND PUSH1 0x4 DUP4 ADD MSTORE PUSH1 0x24 DUP3 ADD MSTORE PUSH1 0x44 ADD PUSH1 0x0 PUSH1 0x40 MLOAD DUP1 DUP4 SUB DUP2 PUSH1 0x0 DUP8 DUP1 EXTCODESIZE ISZERO DUP1 ISZERO PUSH2 0x1541 JUMPI PUSH1 0x0 DUP1 REVERT JUMPDEST POP GAS CALL ISZERO DUP1 ISZERO PUSH2 0x1555 JUMPI RETURNDATASIZE PUSH1 0x0 DUP1 RETURNDATACOPY RETURNDATASIZE PUSH1 0x0 REVERT JUMPDEST POP POP POP POP PUSH1 0x1 PUSH1 0x10 PUSH1 0x0 DUP6 DUP6 DUP6 DUP2 DUP2 LT PUSH2 0x1571 JUMPI PUSH2 0x1571 PUSH2 0x3A18 JUMP JUMPDEST SWAP1 POP PUSH1 0x20 MUL ADD PUSH1 0x20 DUP2 ADD SWAP1 PUSH2 0x1586 SWAP2 SWAP1 PUSH2 0x362B JUMP JUMPDEST PUSH1 0x1 PUSH1 0x1 PUSH1 0xA0 SHL SUB AND DUP2 MSTORE PUSH1 0x20 DUP1 DUP3 ADD SWAP3 SWAP1 SWAP3 MSTORE PUSH1 0x40 SWAP1 DUP2 ADD PUSH1 0x0 SWAP1 DUP2 KECCAK256 DUP1 SLOAD PUSH1 0xFF NOT AND SWAP5 ISZERO ISZERO SWAP5 SWAP1 SWAP5 OR SWAP1 SWAP4 SSTORE DUP1 MLOAD PUSH1 0x60 DUP2 ADD DUP3 MSTORE PUSH1 0x1 DUP2 MSTORE SWAP2 DUP3 ADD DUP4 SWAP1 MSTORE DUP2 ADD DUP3 SWAP1 MSTORE SWAP1 PUSH1 0xE SWAP1 DUP6 DUP6 DUP6 DUP2 DUP2 LT PUSH2 0x15E1 JUMPI PUSH2 0x15E1 PUSH2 0x3A18 JUMP JUMPDEST SWAP1 POP PUSH1 0x20 MUL ADD PUSH1 0x20 DUP2 ADD SWAP1 PUSH2 0x15F6 SWAP2 SWAP1 PUSH2 0x362B JUMP JUMPDEST PUSH1 0x1 PUSH1 0x1 PUSH1 0xA0 SHL SUB AND DUP2 MSTORE PUSH1 0x20 DUP1 DUP3 ADD SWAP3 SWAP1 SWAP3 MSTORE PUSH1 0x40 SWAP1 DUP2 ADD PUSH1 0x0 KECCAK256 DUP4 MLOAD DUP2 SLOAD SWAP4 DUP6 ADD MLOAD PUSH2 0xFFFF NOT SWAP1 SWAP5 AND SWAP1 ISZERO ISZERO PUSH2 0xFF00 NOT AND OR PUSH2 0x100 SWAP4 ISZERO ISZERO SWAP4 SWAP1 SWAP4 MUL SWAP3 SWAP1 SWAP3 OR DUP3 SSTORE SWAP2 SWAP1 SWAP2 ADD MLOAD PUSH1 0x1 SWAP2 DUP3 ADD SSTORE DUP4 DUP4 DUP4 DUP2 DUP2 LT PUSH2 0x1657 JUMPI PUSH2 0x1657 PUSH2 0x3A18 JUMP JUMPDEST SWAP1 POP PUSH1 0x20 MUL ADD PUSH1 0x20 DUP2 ADD SWAP1 PUSH2 0x166C SWAP2 SWAP1 PUSH2 0x362B JUMP JUMPDEST DUP2 SLOAD PUSH1 0x1 DUP2 ADD DUP4 SSTORE PUSH1 0x0 SWAP3 DUP4 MSTORE PUSH1 0x20 SWAP1 SWAP3 KECCAK256 SWAP1 SWAP2 ADD DUP1 SLOAD PUSH1 0x1 PUSH1 0x1 PUSH1 0xA0 SHL SUB NOT AND PUSH1 0x1 PUSH1 0x1 PUSH1 0xA0 SHL SUB SWAP1 SWAP3 AND SWAP2 SWAP1 SWAP2 OR SWAP1 SSTORE PUSH2 0x18B4 JUMP JUMPDEST PUSH2 0x16CD DUP5 PUSH1 0x40 MLOAD DUP1 PUSH1 0x40 ADD PUSH1 0x40 MSTORE DUP1 PUSH1 0x8 DUP2 MSTORE PUSH1 0x20 ADD PUSH8 0x3234B932B1BA37B9 PUSH1 0xC1 SHL DUP2 MSTORE POP PUSH2 0x2F8E JUMP JUMPDEST ISZERO PUSH2 0x18B4 JUMPI PUSH1 0xF PUSH1 0x0 DUP5 DUP5 DUP5 DUP2 DUP2 LT PUSH2 0x16E8 JUMPI PUSH2 0x16E8 PUSH2 0x3A18 JUMP JUMPDEST SWAP1 POP PUSH1 0x20 MUL ADD PUSH1 0x20 DUP2 ADD SWAP1 PUSH2 0x16FD SWAP2 SWAP1 PUSH2 0x362B JUMP JUMPDEST PUSH1 0x1 PUSH1 0x1 PUSH1 0xA0 SHL SUB AND DUP2 MSTORE PUSH1 0x20 DUP2 ADD SWAP2 SWAP1 SWAP2 MSTORE PUSH1 0x40 ADD PUSH1 0x0 KECCAK256 SLOAD PUSH1 0xFF AND ISZERO ISZERO PUSH1 0x1 EQ PUSH2 0x18B4 JUMPI PUSH1 0x0 SLOAD PUSH1 0x1 PUSH1 0x1 PUSH1 0xA0 SHL SUB AND PUSH4 0x40C10F19 DUP5 DUP5 DUP5 DUP2 DUP2 LT PUSH2 0x1746 JUMPI PUSH2 0x1746 PUSH2 0x3A18 JUMP JUMPDEST SWAP1 POP PUSH1 0x20 MUL ADD PUSH1 0x20 DUP2 ADD SWAP1 PUSH2 0x175B SWAP2 SWAP1 PUSH2 0x362B JUMP JUMPDEST PUSH1 0xA SLOAD PUSH2 0x1769 SWAP1 PUSH1 0x14 PUSH2 0x3A8A JUMP JUMPDEST PUSH1 0x40 MLOAD PUSH1 0x1 PUSH1 0x1 PUSH1 0xE0 SHL SUB NOT PUSH1 0xE0 DUP6 SWAP1 SHL AND DUP2 MSTORE PUSH1 0x1 PUSH1 0x1 PUSH1 0xA0 SHL SUB SWAP1 SWAP3 AND PUSH1 0x4 DUP4 ADD MSTORE PUSH1 0x24 DUP3 ADD MSTORE PUSH1 0x44 ADD PUSH1 0x0 PUSH1 0x40 MLOAD DUP1 DUP4 SUB DUP2 PUSH1 0x0 DUP8 DUP1 EXTCODESIZE ISZERO DUP1 ISZERO PUSH2 0x17AF JUMPI PUSH1 0x0 DUP1 REVERT JUMPDEST POP GAS CALL ISZERO DUP1 ISZERO PUSH2 0x17C3 JUMPI RETURNDATASIZE PUSH1 0x0 DUP1 RETURNDATACOPY RETURNDATASIZE PUSH1 0x0 REVERT JUMPDEST POP POP POP POP PUSH1 0x1 PUSH1 0xF PUSH1 0x0 DUP6 DUP6 DUP6 DUP2 DUP2 LT PUSH2 0x17DF JUMPI PUSH2 0x17DF PUSH2 0x3A18 JUMP JUMPDEST SWAP1 POP PUSH1 0x20 MUL ADD PUSH1 0x20 DUP2 ADD SWAP1 PUSH2 0x17F4 SWAP2 SWAP1 PUSH2 0x362B JUMP JUMPDEST PUSH1 0x1 PUSH1 0x1 PUSH1 0xA0 SHL SUB AND DUP2 MSTORE PUSH1 0x20 DUP1 DUP3 ADD SWAP3 SWAP1 SWAP3 MSTORE PUSH1 0x40 SWAP1 DUP2 ADD PUSH1 0x0 SWAP1 DUP2 KECCAK256 DUP1 SLOAD PUSH1 0xFF NOT AND SWAP5 ISZERO ISZERO SWAP5 SWAP1 SWAP5 OR SWAP1 SWAP4 SSTORE DUP1 MLOAD PUSH1 0x60 DUP2 ADD DUP3 MSTORE PUSH1 0x1 DUP2 MSTORE SWAP2 DUP3 ADD DUP4 SWAP1 MSTORE DUP2 ADD DUP3 SWAP1 MSTORE SWAP1 PUSH1 0xE SWAP1 DUP6 DUP6 DUP6 DUP2 DUP2 LT PUSH2 0x184F JUMPI PUSH2 0x184F PUSH2 0x3A18 JUMP JUMPDEST SWAP1 POP PUSH1 0x20 MUL ADD PUSH1 0x20 DUP2 ADD SWAP1 PUSH2 0x1864 SWAP2 SWAP1 PUSH2 0x362B JUMP JUMPDEST PUSH1 0x1 PUSH1 0x1 PUSH1 0xA0 SHL SUB AND DUP2 MSTORE PUSH1 0x20 DUP1 DUP3 ADD SWAP3 SWAP1 SWAP3 MSTORE PUSH1 0x40 SWAP1 DUP2 ADD PUSH1 0x0 KECCAK256 DUP4 MLOAD DUP2 SLOAD SWAP4 DUP6 ADD MLOAD PUSH2 0xFFFF NOT SWAP1 SWAP5 AND SWAP1 ISZERO ISZERO PUSH2 0xFF00 NOT AND OR PUSH2 0x100 SWAP4 ISZERO ISZERO SWAP4 SWAP1 SWAP4 MUL SWAP3 SWAP1 SWAP3 OR DUP3 SSTORE SWAP2 SWAP1 SWAP2 ADD MLOAD PUSH1 0x1 SWAP1 SWAP2 ADD SSTORE JUMPDEST DUP1 PUSH2 0x18BE DUP2 PUSH2 0x3A2E JUMP JUMPDEST SWAP2 POP POP PUSH2 0x11BF JUMP JUMPDEST POP PUSH32 0xDB5C245EE0521674ADE89200CC3647A9590AF2330E581DD656DCE39D2354107C DUP4 DUP4 DUP4 PUSH1 0x40 MLOAD PUSH2 0x18FA SWAP4 SWAP3 SWAP2 SWAP1 PUSH2 0x3AA9 JUMP JUMPDEST PUSH1 0x40 MLOAD DUP1 SWAP2 SUB SWAP1 LOG1 POP POP POP JUMP JUMPDEST PUSH2 0x1932 PUSH1 0x40 MLOAD DUP1 PUSH1 0x80 ADD PUSH1 0x40 MSTORE DUP1 PUSH1 0x0 DUP2 MSTORE PUSH1 0x20 ADD PUSH1 0x60 DUP2 MSTORE PUSH1 0x20 ADD PUSH1 0x0 DUP2 MSTORE PUSH1 0x20 ADD PUSH1 0x0 DUP2 MSTORE POP SWAP1 JUMP JUMPDEST DUP2 PUSH1 0x18 DUP2 PUSH1 0x40 MLOAD PUSH2 0x1943 SWAP2 SWAP1 PUSH2 0x39CE JUMP JUMPDEST SWAP1 DUP2 MSTORE PUSH1 0x40 MLOAD PUSH1 0x20 SWAP2 DUP2 SWAP1 SUB SWAP2 SWAP1 SWAP2 ADD SWAP1 KECCAK256 PUSH1 0x2 ADD SLOAD PUSH3 0x10000 SWAP1 DIV PUSH1 0xFF AND ISZERO ISZERO PUSH1 0x1 EQ PUSH2 0x19C6 JUMPI PUSH1 0x40 MLOAD PUSH3 0x461BCD PUSH1 0xE5 SHL DUP2 MSTORE PUSH1 0x20 PUSH1 0x4 DUP3 ADD MSTORE PUSH1 0x2A PUSH1 0x24 DUP3 ADD MSTORE PUSH32 0x4F6E6C7920616C6C6F77656420616674657220766F7465732068617665206265 PUSH1 0x44 DUP3 ADD MSTORE PUSH10 0x195B8818DBDD5B9D1959 PUSH1 0xB2 SHL PUSH1 0x64 DUP3 ADD MSTORE PUSH1 0x84 ADD PUSH2 0x78E JUMP JUMPDEST PUSH1 0xB SLOAD PUSH1 0xFF AND ISZERO PUSH2 0x19E9 JUMPI PUSH1 0x40 MLOAD PUSH3 0x461BCD PUSH1 0xE5 SHL DUP2 MSTORE PUSH1 0x4 ADD PUSH2 0x78E SWAP1 PUSH2 0x3997 JUMP JUMPDEST PUSH1 0x17 DUP4 PUSH1 0x40 MLOAD PUSH2 0x19F9 SWAP2 SWAP1 PUSH2 0x39CE JUMP JUMPDEST SWAP1 DUP2 MSTORE PUSH1 0x20 ADD PUSH1 0x40 MLOAD DUP1 SWAP2 SUB SWAP1 KECCAK256 PUSH1 0x40 MLOAD DUP1 PUSH1 0x80 ADD PUSH1 0x40 MSTORE SWAP1 DUP2 PUSH1 0x0 DUP3 ADD SLOAD DUP2 MSTORE PUSH1 0x20 ADD PUSH1 0x1 DUP3 ADD DUP1 SLOAD PUSH2 0x1A2C SWAP1 PUSH2 0x3915 JUMP JUMPDEST DUP1 PUSH1 0x1F ADD PUSH1 0x20 DUP1 SWAP2 DIV MUL PUSH1 0x20 ADD PUSH1 0x40 MLOAD SWAP1 DUP2 ADD PUSH1 0x40 MSTORE DUP1 SWAP3 SWAP2 SWAP1 DUP2 DUP2 MSTORE PUSH1 0x20 ADD DUP3 DUP1 SLOAD PUSH2 0x1A58 SWAP1 PUSH2 0x3915 JUMP JUMPDEST DUP1 ISZERO PUSH2 0x1AA5 JUMPI DUP1 PUSH1 0x1F LT PUSH2 0x1A7A JUMPI PUSH2 0x100 DUP1 DUP4 SLOAD DIV MUL DUP4 MSTORE SWAP2 PUSH1 0x20 ADD SWAP2 PUSH2 0x1AA5 JUMP JUMPDEST DUP3 ADD SWAP2 SWAP1 PUSH1 0x0 MSTORE PUSH1 0x20 PUSH1 0x0 KECCAK256 SWAP1 JUMPDEST DUP2 SLOAD DUP2 MSTORE SWAP1 PUSH1 0x1 ADD SWAP1 PUSH1 0x20 ADD DUP1 DUP4 GT PUSH2 0x1A88 JUMPI DUP3 SWAP1 SUB PUSH1 0x1F AND DUP3 ADD SWAP2 JUMPDEST POP POP POP POP POP DUP2 MSTORE PUSH1 0x20 ADD PUSH1 0x2 DUP3 ADD SLOAD DUP2 MSTORE PUSH1 0x20 ADD PUSH1 0x3 DUP3 ADD SLOAD DUP2 MSTORE POP POP SWAP2 POP JUMPDEST POP SWAP2 SWAP1 POP JUMP JUMPDEST PUSH1 0xC DUP2 DUP2 SLOAD DUP2 LT PUSH2 0x648 JUMPI PUSH1 0x0 DUP1 REVERT JUMPDEST PUSH1 0x2 SLOAD PUSH1 0x1 PUSH1 0x1 PUSH1 0xA0 SHL SUB AND CALLER EQ PUSH2 0x1B05 JUMPI PUSH1 0x40 MLOAD PUSH3 0x461BCD PUSH1 0xE5 SHL DUP2 MSTORE PUSH1 0x4 ADD PUSH2 0x78E SWAP1 PUSH2 0x3A47 JUMP JUMPDEST PUSH1 0xB SLOAD PUSH1 0xFF AND ISZERO PUSH2 0x1B28 JUMPI PUSH1 0x40 MLOAD PUSH3 0x461BCD PUSH1 0xE5 SHL DUP2 MSTORE PUSH1 0x4 ADD PUSH2 0x78E SWAP1 PUSH2 0x3997 JUMP JUMPDEST PUSH1 0x0 JUMPDEST PUSH1 0xC SLOAD DUP2 LT ISZERO PUSH2 0x1E30 JUMPI PUSH2 0x1BEB PUSH1 0xC DUP3 DUP2 SLOAD DUP2 LT PUSH2 0x1B4B JUMPI PUSH2 0x1B4B PUSH2 0x3A18 JUMP JUMPDEST SWAP1 PUSH1 0x0 MSTORE PUSH1 0x20 PUSH1 0x0 KECCAK256 SWAP1 PUSH1 0x3 MUL ADD PUSH1 0x0 ADD DUP1 SLOAD PUSH2 0x1B67 SWAP1 PUSH2 0x3915 JUMP JUMPDEST DUP1 PUSH1 0x1F ADD PUSH1 0x20 DUP1 SWAP2 DIV MUL PUSH1 0x20 ADD PUSH1 0x40 MLOAD SWAP1 DUP2 ADD PUSH1 0x40 MSTORE DUP1 SWAP3 SWAP2 SWAP1 DUP2 DUP2 MSTORE PUSH1 0x20 ADD DUP3 DUP1 SLOAD PUSH2 0x1B93 SWAP1 PUSH2 0x3915 JUMP JUMPDEST DUP1 ISZERO PUSH2 0x1BE0 JUMPI DUP1 PUSH1 0x1F LT PUSH2 0x1BB5 JUMPI PUSH2 0x100 DUP1 DUP4 SLOAD DIV MUL DUP4 MSTORE SWAP2 PUSH1 0x20 ADD SWAP2 PUSH2 0x1BE0 JUMP JUMPDEST DUP3 ADD SWAP2 SWAP1 PUSH1 0x0 MSTORE PUSH1 0x20 PUSH1 0x0 KECCAK256 SWAP1 JUMPDEST DUP2 SLOAD DUP2 MSTORE SWAP1 PUSH1 0x1 ADD SWAP1 PUSH1 0x20 ADD DUP1 DUP4 GT PUSH2 0x1BC3 JUMPI DUP3 SWAP1 SUB PUSH1 0x1F AND DUP3 ADD SWAP2 JUMPDEST POP POP POP POP POP DUP4 PUSH2 0x2F8E JUMP JUMPDEST ISZERO PUSH2 0x1E1E JUMPI PUSH1 0xC DUP2 DUP2 SLOAD DUP2 LT PUSH2 0x1C03 JUMPI PUSH2 0x1C03 PUSH2 0x3A18 JUMP JUMPDEST SWAP1 PUSH1 0x0 MSTORE PUSH1 0x20 PUSH1 0x0 KECCAK256 SWAP1 PUSH1 0x3 MUL ADD PUSH1 0x18 DUP4 PUSH1 0x40 MLOAD PUSH2 0x1C21 SWAP2 SWAP1 PUSH2 0x39CE JUMP JUMPDEST SWAP1 DUP2 MSTORE PUSH1 0x40 MLOAD SWAP1 DUP2 SWAP1 SUB PUSH1 0x20 ADD SWAP1 KECCAK256 DUP2 SLOAD DUP2 SWAP1 DUP4 SWAP1 PUSH2 0x1C3F SWAP1 PUSH2 0x3915 JUMP JUMPDEST PUSH2 0x1C4A SWAP3 SWAP2 SWAP1 PUSH2 0x2FE7 JUMP JUMPDEST POP PUSH1 0x1 DUP3 DUP2 ADD DUP1 SLOAD PUSH2 0x1C5F SWAP3 DUP5 ADD SWAP2 SWAP1 PUSH2 0x30E6 JUMP JUMPDEST POP PUSH1 0x2 SWAP2 DUP3 ADD DUP1 SLOAD SWAP2 SWAP1 SWAP3 ADD DUP1 SLOAD PUSH1 0xFF SWAP3 DUP4 AND ISZERO ISZERO PUSH1 0xFF NOT DUP3 AND DUP2 OR DUP4 SSTORE DUP5 SLOAD PUSH2 0x100 SWAP1 DUP2 SWAP1 DIV DUP6 AND ISZERO ISZERO MUL PUSH2 0xFF00 NOT SWAP1 SWAP2 AND PUSH2 0xFFFF NOT SWAP1 SWAP3 AND SWAP2 SWAP1 SWAP2 OR OR DUP1 DUP3 SSTORE DUP4 SLOAD PUSH3 0x10000 SWAP1 DUP2 SWAP1 DIV DUP5 AND ISZERO ISZERO MUL PUSH3 0xFF0000 NOT DUP3 AND DUP2 OR DUP4 SSTORE SWAP4 SLOAD PUSH4 0x1000000 SWAP1 DUP2 SWAP1 DIV SWAP1 SWAP4 AND ISZERO ISZERO SWAP1 SWAP3 MUL PUSH4 0xFF000000 NOT SWAP1 SWAP4 AND PUSH4 0xFFFF0000 NOT SWAP1 SWAP3 AND SWAP2 SWAP1 SWAP2 OR SWAP2 SWAP1 SWAP2 OR SWAP1 SSTORE PUSH1 0x40 MLOAD PUSH1 0x1 SWAP1 PUSH1 0x18 SWAP1 PUSH2 0x1CFE SWAP1 DUP6 SWAP1 PUSH2 0x39CE JUMP JUMPDEST SWAP1 DUP2 MSTORE PUSH1 0x20 ADD PUSH1 0x40 MLOAD DUP1 SWAP2 SUB SWAP1 KECCAK256 PUSH1 0x2 ADD PUSH1 0x0 PUSH2 0x100 EXP DUP2 SLOAD DUP2 PUSH1 0xFF MUL NOT AND SWAP1 DUP4 ISZERO ISZERO MUL OR SWAP1 SSTORE POP PUSH1 0xD PUSH1 0xC DUP3 DUP2 SLOAD DUP2 LT PUSH2 0x1D3B JUMPI PUSH2 0x1D3B PUSH2 0x3A18 JUMP JUMPDEST PUSH1 0x0 SWAP2 DUP3 MSTORE PUSH1 0x20 DUP1 DUP4 KECCAK256 DUP5 SLOAD PUSH1 0x1 DUP2 ADD DUP7 SSTORE SWAP5 DUP5 MSTORE SWAP3 KECCAK256 PUSH1 0x3 SWAP2 DUP3 MUL SWAP1 SWAP3 ADD DUP1 SLOAD SWAP1 SWAP4 SWAP1 SWAP2 MUL SWAP1 SWAP2 ADD SWAP1 DUP2 SWAP1 DUP4 SWAP1 PUSH2 0x1D72 SWAP1 PUSH2 0x3915 JUMP JUMPDEST PUSH2 0x1D7D SWAP3 SWAP2 SWAP1 PUSH2 0x2FE7 JUMP JUMPDEST POP PUSH1 0x1 DUP3 DUP2 ADD DUP1 SLOAD PUSH2 0x1D92 SWAP3 DUP5 ADD SWAP2 SWAP1 PUSH2 0x30E6 JUMP JUMPDEST POP PUSH1 0x2 SWAP2 DUP3 ADD DUP1 SLOAD SWAP2 SWAP1 SWAP3 ADD DUP1 SLOAD PUSH1 0xFF SWAP3 DUP4 AND ISZERO ISZERO PUSH1 0xFF NOT DUP3 AND DUP2 OR DUP4 SSTORE DUP5 SLOAD PUSH2 0x100 SWAP1 DUP2 SWAP1 DIV DUP6 AND ISZERO ISZERO MUL PUSH2 0xFF00 NOT SWAP1 SWAP2 AND PUSH2 0xFFFF NOT SWAP1 SWAP3 AND SWAP2 SWAP1 SWAP2 OR OR DUP1 DUP3 SSTORE DUP4 SLOAD PUSH3 0x10000 SWAP1 DUP2 SWAP1 DIV DUP5 AND ISZERO ISZERO MUL PUSH3 0xFF0000 NOT DUP3 AND DUP2 OR DUP4 SSTORE SWAP4 SLOAD PUSH4 0x1000000 SWAP1 DUP2 SWAP1 DIV SWAP1 SWAP4 AND ISZERO ISZERO SWAP1 SWAP3 MUL PUSH4 0xFF000000 NOT SWAP1 SWAP4 AND PUSH4 0xFFFF0000 NOT SWAP1 SWAP3 AND SWAP2 SWAP1 SWAP2 OR SWAP2 SWAP1 SWAP2 OR SWAP1 SSTORE JUMPDEST DUP1 PUSH2 0x1E28 DUP2 PUSH2 0x3A2E JUMP JUMPDEST SWAP2 POP POP PUSH2 0x1B2B JUMP JUMPDEST POP PUSH32 0x226E81A7D3388DE1EC48D35E19F2946DB8A13C1DF85088428A21A00A75FBFCDC DUP2 PUSH1 0x1 PUSH1 0x40 MLOAD PUSH2 0x1E63 SWAP3 SWAP2 SWAP1 PUSH2 0x3B0A JUMP JUMPDEST PUSH1 0x40 MLOAD DUP1 SWAP2 SUB SWAP1 LOG1 POP JUMP JUMPDEST PUSH1 0xB SLOAD PUSH1 0x60 SWAP1 PUSH1 0xFF AND ISZERO PUSH2 0x1E94 JUMPI PUSH1 0x40 MLOAD PUSH3 0x461BCD PUSH1 0xE5 SHL DUP2 MSTORE PUSH1 0x4 ADD PUSH2 0x78E SWAP1 PUSH2 0x3997 JUMP JUMPDEST PUSH1 0xC DUP1 SLOAD DUP1 PUSH1 0x20 MUL PUSH1 0x20 ADD PUSH1 0x40 MLOAD SWAP1 DUP2 ADD PUSH1 0x40 MSTORE DUP1 SWAP3 SWAP2 SWAP1 DUP2 DUP2 MSTORE PUSH1 0x20 ADD PUSH1 0x0 SWAP1 JUMPDEST DUP3 DUP3 LT ISZERO PUSH2 0xFD5 JUMPI DUP4 DUP3 SWAP1 PUSH1 0x0 MSTORE PUSH1 0x20 PUSH1 0x0 KECCAK256 SWAP1 PUSH1 0x3 MUL ADD PUSH1 0x40 MLOAD DUP1 PUSH1 0xC0 ADD PUSH1 0x40 MSTORE SWAP1 DUP2 PUSH1 0x0 DUP3 ADD DUP1 SLOAD PUSH2 0x1EE9 SWAP1 PUSH2 0x3915 JUMP JUMPDEST DUP1 PUSH1 0x1F ADD PUSH1 0x20 DUP1 SWAP2 DIV MUL PUSH1 0x20 ADD PUSH1 0x40 MLOAD SWAP1 DUP2 ADD PUSH1 0x40 MSTORE DUP1 SWAP3 SWAP2 SWAP1 DUP2 DUP2 MSTORE PUSH1 0x20 ADD DUP3 DUP1 SLOAD PUSH2 0x1F15 SWAP1 PUSH2 0x3915 JUMP JUMPDEST DUP1 ISZERO PUSH2 0x1F62 JUMPI DUP1 PUSH1 0x1F LT PUSH2 0x1F37 JUMPI PUSH2 0x100 DUP1 DUP4 SLOAD DIV MUL DUP4 MSTORE SWAP2 PUSH1 0x20 ADD SWAP2 PUSH2 0x1F62 JUMP JUMPDEST DUP3 ADD SWAP2 SWAP1 PUSH1 0x0 MSTORE PUSH1 0x20 PUSH1 0x0 KECCAK256 SWAP1 JUMPDEST DUP2 SLOAD DUP2 MSTORE SWAP1 PUSH1 0x1 ADD SWAP1 PUSH1 0x20 ADD DUP1 DUP4 GT PUSH2 0x1F45 JUMPI DUP3 SWAP1 SUB PUSH1 0x1F AND DUP3 ADD SWAP2 JUMPDEST POP POP POP POP POP DUP2 MSTORE PUSH1 0x20 ADD PUSH1 0x1 DUP3 ADD DUP1 SLOAD DUP1 PUSH1 0x20 MUL PUSH1 0x20 ADD PUSH1 0x40 MLOAD SWAP1 DUP2 ADD PUSH1 0x40 MSTORE DUP1 SWAP3 SWAP2 SWAP1 DUP2 DUP2 MSTORE PUSH1 0x20 ADD DUP3 DUP1 SLOAD DUP1 ISZERO PUSH2 0x1FBA JUMPI PUSH1 0x20 MUL DUP3 ADD SWAP2 SWAP1 PUSH1 0x0 MSTORE PUSH1 0x20 PUSH1 0x0 KECCAK256 SWAP1 JUMPDEST DUP2 SLOAD DUP2 MSTORE PUSH1 0x20 ADD SWAP1 PUSH1 0x1 ADD SWAP1 DUP1 DUP4 GT PUSH2 0x1FA6 JUMPI JUMPDEST POP POP POP SWAP2 DUP4 MSTORE POP POP PUSH1 0x2 SWAP2 SWAP1 SWAP2 ADD SLOAD PUSH1 0xFF DUP1 DUP3 AND ISZERO ISZERO PUSH1 0x20 DUP1 DUP6 ADD SWAP2 SWAP1 SWAP2 MSTORE PUSH2 0x100 DUP4 DIV DUP3 AND ISZERO ISZERO PUSH1 0x40 DUP6 ADD MSTORE PUSH3 0x10000 DUP4 DIV DUP3 AND ISZERO ISZERO PUSH1 0x60 DUP6 ADD MSTORE PUSH4 0x1000000 SWAP1 SWAP3 DIV AND ISZERO ISZERO PUSH1 0x80 SWAP1 SWAP3 ADD SWAP2 SWAP1 SWAP2 MSTORE SWAP1 DUP3 MSTORE PUSH1 0x1 SWAP3 SWAP1 SWAP3 ADD SWAP2 ADD PUSH2 0x1EB6 JUMP JUMPDEST PUSH1 0x2 SLOAD PUSH1 0x1 PUSH1 0x1 PUSH1 0xA0 SHL SUB AND CALLER EQ PUSH2 0x2044 JUMPI PUSH1 0x40 MLOAD PUSH3 0x461BCD PUSH1 0xE5 SHL DUP2 MSTORE PUSH1 0x4 ADD PUSH2 0x78E SWAP1 PUSH2 0x3A47 JUMP JUMPDEST PUSH1 0xB SLOAD PUSH1 0xFF AND ISZERO PUSH2 0x2067 JUMPI PUSH1 0x40 MLOAD PUSH3 0x461BCD PUSH1 0xE5 SHL DUP2 MSTORE PUSH1 0x4 ADD PUSH2 0x78E SWAP1 PUSH2 0x3997 JUMP JUMPDEST PUSH2 0x2073 PUSH1 0xC PUSH1 0x0 PUSH2 0x3125 JUMP JUMPDEST JUMP JUMPDEST PUSH1 0x2 SLOAD PUSH1 0x0 SWAP1 PUSH1 0x1 PUSH1 0x1 PUSH1 0xA0 SHL SUB AND CALLER EQ DUP1 PUSH2 0x20A5 JUMPI POP CALLER PUSH1 0x0 SWAP1 DUP2 MSTORE PUSH1 0x10 PUSH1 0x20 MSTORE PUSH1 0x40 SWAP1 KECCAK256 SLOAD PUSH1 0xFF AND ISZERO ISZERO PUSH1 0x1 EQ JUMPDEST PUSH2 0x20C1 JUMPI PUSH1 0x40 MLOAD PUSH3 0x461BCD PUSH1 0xE5 SHL DUP2 MSTORE PUSH1 0x4 ADD PUSH2 0x78E SWAP1 PUSH2 0x3949 JUMP JUMPDEST PUSH1 0xB SLOAD PUSH1 0xFF AND ISZERO PUSH2 0x20E4 JUMPI PUSH1 0x40 MLOAD PUSH3 0x461BCD PUSH1 0xE5 SHL DUP2 MSTORE PUSH1 0x4 ADD PUSH2 0x78E SWAP1 PUSH2 0x3997 JUMP JUMPDEST PUSH1 0x40 DUP1 MLOAD PUSH1 0xC0 DUP2 ADD DUP3 MSTORE DUP5 DUP2 MSTORE PUSH1 0x20 DUP1 DUP3 ADD DUP6 SWAP1 MSTORE PUSH1 0x0 SWAP3 DUP3 ADD DUP4 SWAP1 MSTORE PUSH1 0x60 DUP3 ADD DUP4 SWAP1 MSTORE PUSH1 0x80 DUP3 ADD DUP4 SWAP1 MSTORE PUSH1 0xA0 DUP3 ADD DUP4 SWAP1 MSTORE PUSH1 0xC DUP1 SLOAD PUSH1 0x1 DUP2 ADD DUP3 SSTORE SWAP4 MSTORE DUP2 MLOAD DUP1 MLOAD SWAP3 SWAP4 PUSH1 0x3 MUL PUSH32 0xDF6966C971051C3D54EC59162606531493A51404A002842F56009D7E5CF4A8C7 ADD SWAP3 PUSH2 0x215B SWAP3 DUP5 SWAP3 ADD SWAP1 PUSH2 0x3072 JUMP JUMPDEST POP PUSH1 0x20 DUP3 DUP2 ADD MLOAD DUP1 MLOAD PUSH2 0x2174 SWAP3 PUSH1 0x1 DUP6 ADD SWAP3 ADD SWAP1 PUSH2 0x3149 JUMP JUMPDEST POP PUSH1 0x40 DUP3 ADD MLOAD PUSH1 0x2 SWAP2 SWAP1 SWAP2 ADD DUP1 SLOAD PUSH1 0x60 DUP5 ADD MLOAD PUSH1 0x80 DUP6 ADD MLOAD PUSH1 0xA0 SWAP1 SWAP6 ADD MLOAD PUSH2 0xFFFF NOT SWAP1 SWAP3 AND SWAP4 ISZERO ISZERO PUSH2 0xFF00 NOT AND SWAP4 SWAP1 SWAP4 OR PUSH2 0x100 SWAP4 ISZERO ISZERO SWAP4 SWAP1 SWAP4 MUL SWAP3 SWAP1 SWAP3 OR PUSH4 0xFFFF0000 NOT AND PUSH3 0x10000 SWAP4 ISZERO ISZERO SWAP4 SWAP1 SWAP4 MUL PUSH4 0xFF000000 NOT AND SWAP3 SWAP1 SWAP3 OR PUSH4 0x1000000 SWAP2 ISZERO ISZERO SWAP2 SWAP1 SWAP2 MUL OR SWAP1 SSTORE POP PUSH1 0x1 SWAP3 SWAP2 POP POP JUMP JUMPDEST CALLER PUSH1 0x0 SWAP1 DUP2 MSTORE PUSH1 0xE PUSH1 0x20 MSTORE PUSH1 0x40 DUP2 KECCAK256 SLOAD PUSH1 0x60 SWAP2 SWAP1 PUSH1 0xFF AND PUSH2 0x2257 JUMPI PUSH1 0x40 MLOAD PUSH3 0x461BCD PUSH1 0xE5 SHL DUP2 MSTORE PUSH1 0x20 PUSH1 0x4 DUP3 ADD MSTORE PUSH1 0x24 DUP1 DUP3 ADD MSTORE PUSH32 0x596F75206D75737420626520612072656769737465726564207374616B65686F PUSH1 0x44 DUP3 ADD MSTORE PUSH4 0x363232B9 PUSH1 0xE1 SHL PUSH1 0x64 DUP3 ADD MSTORE PUSH1 0x84 ADD PUSH2 0x78E JUMP JUMPDEST PUSH1 0xB SLOAD PUSH1 0xFF AND ISZERO PUSH2 0x227A JUMPI PUSH1 0x40 MLOAD PUSH3 0x461BCD PUSH1 0xE5 SHL DUP2 MSTORE PUSH1 0x4 ADD PUSH2 0x78E SWAP1 PUSH2 0x3997 JUMP JUMPDEST PUSH1 0x18 DUP5 PUSH1 0x40 MLOAD PUSH2 0x228A SWAP2 SWAP1 PUSH2 0x39CE JUMP JUMPDEST SWAP1 DUP2 MSTORE PUSH1 0x40 MLOAD SWAP1 DUP2 SWAP1 SUB PUSH1 0x20 ADD SWAP1 KECCAK256 PUSH1 0x2 ADD SLOAD PUSH1 0xFF AND ISZERO ISZERO PUSH1 0x1 EQ PUSH2 0x22C1 JUMPI PUSH1 0x40 MLOAD PUSH3 0x461BCD PUSH1 0xE5 SHL DUP2 MSTORE PUSH1 0x4 ADD PUSH2 0x78E SWAP1 PUSH2 0x3B2E JUMP JUMPDEST PUSH1 0x18 DUP5 PUSH1 0x40 MLOAD PUSH2 0x22D1 SWAP2 SWAP1 PUSH2 0x39CE JUMP JUMPDEST SWAP1 DUP2 MSTORE PUSH1 0x40 MLOAD SWAP1 DUP2 SWAP1 SUB PUSH1 0x20 ADD SWAP1 KECCAK256 PUSH1 0x2 ADD SLOAD PUSH1 0xFF PUSH2 0x100 SWAP1 SWAP2 DIV AND ISZERO PUSH2 0x230A JUMPI PUSH1 0x40 MLOAD PUSH3 0x461BCD PUSH1 0xE5 SHL DUP2 MSTORE PUSH1 0x4 ADD PUSH2 0x78E SWAP1 PUSH2 0x3B2E JUMP JUMPDEST PUSH1 0x0 DUP4 DUP2 MSTORE PUSH1 0x15 PUSH1 0x20 MSTORE PUSH1 0x40 SWAP1 KECCAK256 SLOAD PUSH1 0xFF AND ISZERO ISZERO PUSH1 0x1 EQ PUSH2 0x2384 JUMPI PUSH1 0x40 MLOAD PUSH3 0x461BCD PUSH1 0xE5 SHL DUP2 MSTORE PUSH1 0x20 PUSH1 0x4 DUP3 ADD MSTORE PUSH1 0x2E PUSH1 0x24 DUP3 ADD MSTORE PUSH32 0x43616E646964617465206973206E6F74207265676973746572656420666F7220 PUSH1 0x44 DUP3 ADD MSTORE PUSH14 0x3A3434B9903837B9B4BA34B7B717 PUSH1 0x91 SHL PUSH1 0x64 DUP3 ADD MSTORE PUSH1 0x84 ADD PUSH2 0x78E JUMP JUMPDEST PUSH1 0x16 DUP5 PUSH1 0x40 MLOAD PUSH2 0x2394 SWAP2 SWAP1 PUSH2 0x39CE JUMP JUMPDEST SWAP1 DUP2 MSTORE PUSH1 0x20 ADD PUSH1 0x40 MLOAD DUP1 SWAP2 SUB SWAP1 KECCAK256 SLOAD PUSH1 0x12 PUSH1 0x0 DUP6 DUP2 MSTORE PUSH1 0x20 ADD SWAP1 DUP2 MSTORE PUSH1 0x20 ADD PUSH1 0x0 KECCAK256 PUSH1 0x2 ADD SLOAD EQ PUSH2 0x241C JUMPI PUSH1 0x40 MLOAD PUSH3 0x461BCD PUSH1 0xE5 SHL DUP2 MSTORE PUSH1 0x20 PUSH1 0x4 DUP3 ADD MSTORE PUSH1 0x2C PUSH1 0x24 DUP3 ADD MSTORE PUSH32 0x43616E646964617465206973206E6F74205265676973746572656420666F7220 PUSH1 0x44 DUP3 ADD MSTORE PUSH12 0x74686973204F666669636521 PUSH1 0xA0 SHL PUSH1 0x64 DUP3 ADD MSTORE PUSH1 0x84 ADD PUSH2 0x78E JUMP JUMPDEST PUSH1 0x13 PUSH1 0x0 PUSH1 0x16 DUP7 PUSH1 0x40 MLOAD PUSH2 0x2430 SWAP2 SWAP1 PUSH2 0x39CE JUMP JUMPDEST SWAP1 DUP2 MSTORE PUSH1 0x40 DUP1 MLOAD PUSH1 0x20 SWAP3 DUP2 SWAP1 SUB DUP4 ADD SWAP1 KECCAK256 SLOAD DUP4 MSTORE DUP3 DUP3 ADD SWAP4 SWAP1 SWAP4 MSTORE SWAP1 DUP3 ADD PUSH1 0x0 SWAP1 DUP2 KECCAK256 CALLER DUP3 MSTORE SWAP1 SWAP2 MSTORE KECCAK256 SLOAD PUSH1 0xFF AND ISZERO PUSH2 0x24B6 JUMPI PUSH1 0x40 MLOAD PUSH3 0x461BCD PUSH1 0xE5 SHL DUP2 MSTORE PUSH1 0x20 PUSH1 0x4 DUP3 ADD MSTORE PUSH1 0x22 PUSH1 0x24 DUP3 ADD MSTORE PUSH32 0x43616E6E6F7420766F746520747769636520666F7220612063617465676F7279 PUSH1 0x44 DUP3 ADD MSTORE PUSH2 0x1717 PUSH1 0xF1 SHL PUSH1 0x64 DUP3 ADD MSTORE PUSH1 0x84 ADD PUSH2 0x78E JUMP JUMPDEST CALLER PUSH1 0x0 DUP2 DUP2 MSTORE PUSH1 0xE PUSH1 0x20 MSTORE PUSH1 0x40 DUP1 DUP3 KECCAK256 DUP1 SLOAD PUSH2 0xFF00 NOT AND PUSH2 0x100 OR SWAP1 SSTORE SWAP1 SLOAD SWAP1 MLOAD PUSH4 0x70A08231 PUSH1 0xE0 SHL DUP2 MSTORE PUSH1 0x4 DUP2 ADD SWAP3 SWAP1 SWAP3 MSTORE PUSH8 0xDE0B6B3A7640000 SWAP2 PUSH1 0x1 PUSH1 0x1 PUSH1 0xA0 SHL SUB SWAP1 SWAP2 AND SWAP1 PUSH4 0x70A08231 SWAP1 PUSH1 0x24 ADD PUSH1 0x20 PUSH1 0x40 MLOAD DUP1 DUP4 SUB DUP2 DUP7 GAS STATICCALL ISZERO DUP1 ISZERO PUSH2 0x2525 JUMPI RETURNDATASIZE PUSH1 0x0 DUP1 RETURNDATACOPY RETURNDATASIZE PUSH1 0x0 REVERT JUMPDEST POP POP POP POP PUSH1 0x40 MLOAD RETURNDATASIZE PUSH1 0x1F NOT PUSH1 0x1F DUP3 ADD AND DUP3 ADD DUP1 PUSH1 0x40 MSTORE POP DUP2 ADD SWAP1 PUSH2 0x2549 SWAP2 SWAP1 PUSH2 0x3B79 JUMP JUMPDEST GT PUSH2 0x25C8 JUMPI PUSH1 0x40 MLOAD PUSH3 0x461BCD PUSH1 0xE5 SHL DUP2 MSTORE PUSH1 0x20 PUSH1 0x4 DUP3 ADD MSTORE PUSH1 0x43 PUSH1 0x24 DUP3 ADD MSTORE PUSH32 0x596F75522062616C616E63652069732063757272656E746C79206E6F74207375 PUSH1 0x44 DUP3 ADD MSTORE PUSH32 0x6666696369656E7420746F20766F74652E204E6F742061207374616B65686F6C PUSH1 0x64 DUP3 ADD MSTORE PUSH3 0x3232B9 PUSH1 0xE9 SHL PUSH1 0x84 DUP3 ADD MSTORE PUSH1 0xA4 ADD PUSH2 0x78E JUMP JUMPDEST CALLER PUSH1 0x0 SWAP1 DUP2 MSTORE PUSH1 0x10 PUSH1 0x20 MSTORE PUSH1 0x40 DUP2 KECCAK256 SLOAD PUSH1 0xFF AND ISZERO ISZERO PUSH1 0x1 EQ DUP1 ISZERO PUSH2 0x2663 JUMPI POP PUSH1 0xA DUP1 SLOAD PUSH2 0x25F4 SWAP2 PUSH2 0x3A8A JUMP JUMPDEST PUSH1 0x0 SLOAD PUSH1 0x40 MLOAD PUSH4 0x70A08231 PUSH1 0xE0 SHL DUP2 MSTORE CALLER PUSH1 0x4 DUP3 ADD MSTORE PUSH1 0x1 PUSH1 0x1 PUSH1 0xA0 SHL SUB SWAP1 SWAP2 AND SWAP1 PUSH4 0x70A08231 SWAP1 PUSH1 0x24 ADD PUSH1 0x20 PUSH1 0x40 MLOAD DUP1 DUP4 SUB DUP2 DUP7 GAS STATICCALL ISZERO DUP1 ISZERO PUSH2 0x263C JUMPI RETURNDATASIZE PUSH1 0x0 DUP1 RETURNDATACOPY RETURNDATASIZE PUSH1 0x0 REVERT JUMPDEST POP POP POP POP PUSH1 0x40 MLOAD RETURNDATASIZE PUSH1 0x1F NOT PUSH1 0x1F DUP3 ADD AND DUP3 ADD DUP1 PUSH1 0x40 MSTORE POP DUP2 ADD SWAP1 PUSH2 0x2660 SWAP2 SWAP1 PUSH2 0x3B79 JUMP JUMPDEST LT ISZERO JUMPDEST ISZERO PUSH2 0x2670 JUMPI POP PUSH1 0x2 PUSH2 0x27D8 JUMP JUMPDEST CALLER PUSH1 0x0 SWAP1 DUP2 MSTORE PUSH1 0xF PUSH1 0x20 MSTORE PUSH1 0x40 SWAP1 KECCAK256 SLOAD PUSH1 0xFF AND ISZERO ISZERO PUSH1 0x1 EQ DUP1 ISZERO PUSH2 0x270C JUMPI POP PUSH1 0xA SLOAD PUSH2 0x269D SWAP1 PUSH1 0x14 PUSH2 0x3A8A JUMP JUMPDEST PUSH1 0x0 SLOAD PUSH1 0x40 MLOAD PUSH4 0x70A08231 PUSH1 0xE0 SHL DUP2 MSTORE CALLER PUSH1 0x4 DUP3 ADD MSTORE PUSH1 0x1 PUSH1 0x1 PUSH1 0xA0 SHL SUB SWAP1 SWAP2 AND SWAP1 PUSH4 0x70A08231 SWAP1 PUSH1 0x24 ADD PUSH1 0x20 PUSH1 0x40 MLOAD DUP1 DUP4 SUB DUP2 DUP7 GAS STATICCALL ISZERO DUP1 ISZERO PUSH2 0x26E5 JUMPI RETURNDATASIZE PUSH1 0x0 DUP1 RETURNDATACOPY RETURNDATASIZE PUSH1 0x0 REVERT JUMPDEST POP POP POP POP PUSH1 0x40 MLOAD RETURNDATASIZE PUSH1 0x1F NOT PUSH1 0x1F DUP3 ADD AND DUP3 ADD DUP1 PUSH1 0x40 MSTORE POP DUP2 ADD SWAP1 PUSH2 0x2709 SWAP2 SWAP1 PUSH2 0x3B79 JUMP JUMPDEST LT ISZERO JUMPDEST ISZERO PUSH2 0x2719 JUMPI POP PUSH1 0x3 PUSH2 0x27D8 JUMP JUMPDEST PUSH1 0x2 SLOAD PUSH1 0x1 PUSH1 0x1 PUSH1 0xA0 SHL SUB AND CALLER SUB PUSH2 0x2733 JUMPI POP PUSH1 0x4 PUSH2 0x27D8 JUMP JUMPDEST CALLER PUSH1 0x0 SWAP1 DUP2 MSTORE PUSH1 0x11 PUSH1 0x20 MSTORE PUSH1 0x40 SWAP1 KECCAK256 SLOAD PUSH1 0xFF AND ISZERO ISZERO PUSH1 0x1 EQ DUP1 ISZERO PUSH2 0x27CF JUMPI POP PUSH1 0xA SLOAD PUSH2 0x2760 SWAP1 PUSH1 0x5 PUSH2 0x3A8A JUMP JUMPDEST PUSH1 0x0 SLOAD PUSH1 0x40 MLOAD PUSH4 0x70A08231 PUSH1 0xE0 SHL DUP2 MSTORE CALLER PUSH1 0x4 DUP3 ADD MSTORE PUSH1 0x1 PUSH1 0x1 PUSH1 0xA0 SHL SUB SWAP1 SWAP2 AND SWAP1 PUSH4 0x70A08231 SWAP1 PUSH1 0x24 ADD PUSH1 0x20 PUSH1 0x40 MLOAD DUP1 DUP4 SUB DUP2 DUP7 GAS STATICCALL ISZERO DUP1 ISZERO PUSH2 0x27A8 JUMPI RETURNDATASIZE PUSH1 0x0 DUP1 RETURNDATACOPY RETURNDATASIZE PUSH1 0x0 REVERT JUMPDEST POP POP POP POP PUSH1 0x40 MLOAD RETURNDATASIZE PUSH1 0x1F NOT PUSH1 0x1F DUP3 ADD AND DUP3 ADD DUP1 PUSH1 0x40 MSTORE POP DUP2 ADD SWAP1 PUSH2 0x27CC SWAP2 SWAP1 PUSH2 0x3B79 JUMP JUMPDEST LT ISZERO JUMPDEST ISZERO PUSH2 0x27D8 JUMPI POP PUSH1 0x1 JUMPDEST PUSH1 0x0 DUP2 PUSH1 0x14 PUSH1 0x0 DUP8 DUP2 MSTORE PUSH1 0x20 ADD SWAP1 DUP2 MSTORE PUSH1 0x20 ADD PUSH1 0x0 KECCAK256 PUSH1 0x0 PUSH1 0x16 DUP10 PUSH1 0x40 MLOAD PUSH2 0x2800 SWAP2 SWAP1 PUSH2 0x39CE JUMP JUMPDEST SWAP1 DUP2 MSTORE PUSH1 0x20 ADD PUSH1 0x40 MLOAD DUP1 SWAP2 SUB SWAP1 KECCAK256 SLOAD DUP2 MSTORE PUSH1 0x20 ADD SWAP1 DUP2 MSTORE PUSH1 0x20 ADD PUSH1 0x0 KECCAK256 PUSH1 0x0 DUP3 DUP3 SLOAD PUSH2 0x282C SWAP2 SWAP1 PUSH2 0x3A00 JUMP JUMPDEST SWAP2 DUP3 SWAP1 SSTORE POP PUSH1 0x0 DUP8 DUP2 MSTORE PUSH1 0x12 PUSH1 0x20 MSTORE PUSH1 0x40 DUP1 DUP3 KECCAK256 PUSH1 0x3 ADD DUP4 SWAP1 SSTORE MLOAD SWAP2 SWAP4 POP PUSH1 0x1 SWAP3 POP PUSH1 0x13 SWAP2 PUSH1 0x16 SWAP1 PUSH2 0x285F SWAP1 DUP12 SWAP1 PUSH2 0x39CE JUMP JUMPDEST SWAP1 DUP2 MSTORE PUSH1 0x40 DUP1 MLOAD PUSH1 0x20 SWAP3 DUP2 SWAP1 SUB DUP4 ADD SWAP1 KECCAK256 SLOAD DUP4 MSTORE DUP3 DUP3 ADD SWAP4 SWAP1 SWAP4 MSTORE SWAP1 DUP3 ADD PUSH1 0x0 SWAP1 DUP2 KECCAK256 CALLER DUP1 DUP4 MSTORE SWAP3 MSTORE DUP3 SWAP1 KECCAK256 DUP1 SLOAD PUSH1 0xFF NOT AND SWAP4 ISZERO ISZERO SWAP4 SWAP1 SWAP4 OR SWAP1 SWAP3 SSTORE MLOAD PUSH32 0x7CF072052F53D68961097943ED95E47F628A7E51E185D0FA17786DE527F4D8EE SWAP2 PUSH2 0x28C9 SWAP2 DUP10 SWAP1 PUSH2 0x3B92 JUMP JUMPDEST PUSH1 0x40 MLOAD DUP1 SWAP2 SUB SWAP1 LOG1 POP SWAP4 SWAP5 SWAP3 SWAP4 POP POP POP JUMP JUMPDEST PUSH1 0x2 SLOAD PUSH1 0x1 PUSH1 0x1 PUSH1 0xA0 SHL SUB AND CALLER EQ PUSH2 0x2905 JUMPI PUSH1 0x40 MLOAD PUSH3 0x461BCD PUSH1 0xE5 SHL DUP2 MSTORE PUSH1 0x4 ADD PUSH2 0x78E SWAP1 PUSH2 0x3A47 JUMP JUMPDEST PUSH1 0xB SLOAD PUSH1 0xFF AND ISZERO PUSH2 0x2928 JUMPI PUSH1 0x40 MLOAD PUSH3 0x461BCD PUSH1 0xE5 SHL DUP2 MSTORE PUSH1 0x4 ADD PUSH2 0x78E SWAP1 PUSH2 0x3997 JUMP JUMPDEST PUSH1 0x1 PUSH1 0x18 DUP3 PUSH1 0x40 MLOAD PUSH2 0x293A SWAP2 SWAP1 PUSH2 0x39CE JUMP JUMPDEST SWAP1 DUP2 MSTORE PUSH1 0x40 MLOAD SWAP1 DUP2 SWAP1 SUB PUSH1 0x20 ADD DUP2 KECCAK256 PUSH1 0x2 ADD DUP1 SLOAD SWAP3 ISZERO ISZERO PUSH2 0x100 MUL PUSH2 0xFF00 NOT SWAP1 SWAP4 AND SWAP3 SWAP1 SWAP3 OR SWAP1 SWAP2 SSTORE PUSH32 0x94A0EB701F9537E6884C310036F392249D21A74C75E75F5FC9987AFC23F7758 SWAP1 PUSH2 0x2993 SWAP1 DUP4 SWAP1 PUSH1 0x1 SWAP1 PUSH2 0x3B0A JUMP JUMPDEST PUSH1 0x40 MLOAD DUP1 SWAP2 SUB SWAP1 LOG1 PUSH32 0x2D2C8FB198803A45177738250B8CF96325AF69392F59B7E2AA78433F0D8C40C0 PUSH1 0x18 DUP3 PUSH1 0x40 MLOAD PUSH2 0x29CC SWAP2 SWAP1 PUSH2 0x39CE JUMP JUMPDEST SWAP1 DUP2 MSTORE PUSH1 0x40 MLOAD SWAP1 DUP2 SWAP1 SUB PUSH1 0x20 ADD DUP2 KECCAK256 PUSH1 0x2 ADD SLOAD PUSH1 0xFF AND SWAP1 PUSH1 0x18 SWAP1 PUSH2 0x29F1 SWAP1 DUP6 SWAP1 PUSH2 0x39CE JUMP JUMPDEST SWAP1 DUP2 MSTORE PUSH1 0x40 DUP1 MLOAD PUSH1 0x20 SWAP3 DUP2 SWAP1 SUB DUP4 ADD DUP2 KECCAK256 PUSH1 0x2 ADD SLOAD SWAP4 ISZERO ISZERO DUP2 MSTORE PUSH2 0x100 SWAP1 SWAP4 DIV PUSH1 0xFF AND ISZERO ISZERO SWAP2 DUP4 ADD SWAP2 SWAP1 SWAP2 MSTORE ADD PUSH2 0x1E63 JUMP JUMPDEST PUSH2 0x2A4E PUSH1 0x40 MLOAD DUP1 PUSH1 0x80 ADD PUSH1 0x40 MSTORE DUP1 PUSH1 0x0 DUP2 MSTORE PUSH1 0x20 ADD PUSH1 0x60 DUP2 MSTORE PUSH1 0x20 ADD PUSH1 0x0 DUP2 MSTORE PUSH1 0x20 ADD PUSH1 0x0 DUP2 MSTORE POP SWAP1 JUMP JUMPDEST PUSH1 0x2 SLOAD PUSH1 0x60 SWAP1 PUSH1 0x1 PUSH1 0x1 PUSH1 0xA0 SHL SUB AND CALLER EQ DUP1 PUSH2 0x2A7E JUMPI POP CALLER PUSH1 0x0 SWAP1 DUP2 MSTORE PUSH1 0x10 PUSH1 0x20 MSTORE PUSH1 0x40 SWAP1 KECCAK256 SLOAD PUSH1 0xFF AND ISZERO ISZERO PUSH1 0x1 EQ JUMPDEST DUP1 PUSH2 0x2A9D JUMPI POP CALLER PUSH1 0x0 SWAP1 DUP2 MSTORE PUSH1 0xF PUSH1 0x20 MSTORE PUSH1 0x40 SWAP1 KECCAK256 SLOAD PUSH1 0xFF AND ISZERO ISZERO PUSH1 0x1 EQ JUMPDEST PUSH2 0x2B0F JUMPI PUSH1 0x40 MLOAD PUSH3 0x461BCD PUSH1 0xE5 SHL DUP2 MSTORE PUSH1 0x20 PUSH1 0x4 DUP3 ADD MSTORE PUSH1 0x38 PUSH1 0x24 DUP3 ADD MSTORE PUSH32 0x416363657373206772616E74656420746F206F6E6C7920746865206368616972 PUSH1 0x44 DUP3 ADD MSTORE PUSH32 0x6D616E2C2074656163686572206F72206469726563746F720000000000000000 PUSH1 0x64 DUP3 ADD MSTORE PUSH1 0x84 ADD PUSH2 0x78E JUMP JUMPDEST PUSH1 0x1 PUSH1 0x18 DUP5 PUSH1 0x40 MLOAD PUSH2 0x2B21 SWAP2 SWAP1 PUSH2 0x39CE JUMP JUMPDEST SWAP1 DUP2 MSTORE PUSH1 0x40 MLOAD SWAP1 DUP2 SWAP1 SUB PUSH1 0x20 ADD SWAP1 KECCAK256 PUSH1 0x2 ADD DUP1 SLOAD DUP3 ISZERO ISZERO PUSH3 0x10000 MUL PUSH3 0xFF0000 NOT SWAP1 SWAP2 AND OR SWAP1 SSTORE PUSH2 0x2BBA JUMPI PUSH1 0x40 MLOAD PUSH3 0x461BCD PUSH1 0xE5 SHL DUP2 MSTORE PUSH1 0x20 PUSH1 0x4 DUP3 ADD MSTORE PUSH1 0x3C PUSH1 0x24 DUP3 ADD MSTORE PUSH32 0x546869732073657373696F6E206973207374696C6C206163746976652C766F74 PUSH1 0x44 DUP3 ADD MSTORE PUSH32 0x696E6720686173206E6F7420796574206265656E20636F756E74656400000000 PUSH1 0x64 DUP3 ADD MSTORE PUSH1 0x84 ADD PUSH2 0x78E JUMP JUMPDEST PUSH1 0x1 PUSH1 0x18 DUP5 PUSH1 0x40 MLOAD PUSH2 0x2BCC SWAP2 SWAP1 PUSH2 0x39CE JUMP JUMPDEST SWAP1 DUP2 MSTORE PUSH1 0x40 MLOAD SWAP1 DUP2 SWAP1 SUB PUSH1 0x20 ADD DUP2 KECCAK256 PUSH1 0x2 ADD DUP1 SLOAD SWAP3 ISZERO ISZERO PUSH4 0x1000000 MUL PUSH4 0xFF000000 NOT SWAP1 SWAP4 AND SWAP3 SWAP1 SWAP3 OR SWAP1 SWAP2 SSTORE PUSH1 0x17 SWAP1 PUSH2 0x2C07 SWAP1 DUP6 SWAP1 PUSH2 0x39CE JUMP JUMPDEST SWAP1 DUP2 MSTORE PUSH1 0x20 ADD PUSH1 0x40 MLOAD DUP1 SWAP2 SUB SWAP1 KECCAK256 DUP4 DUP2 PUSH1 0x40 MLOAD DUP1 PUSH1 0x80 ADD PUSH1 0x40 MSTORE SWAP1 DUP2 PUSH1 0x0 DUP3 ADD SLOAD DUP2 MSTORE PUSH1 0x20 ADD PUSH1 0x1 DUP3 ADD DUP1 SLOAD PUSH2 0x2C3C SWAP1 PUSH2 0x3915 JUMP JUMPDEST DUP1 PUSH1 0x1F ADD PUSH1 0x20 DUP1 SWAP2 DIV MUL PUSH1 0x20 ADD PUSH1 0x40 MLOAD SWAP1 DUP2 ADD PUSH1 0x40 MSTORE DUP1 SWAP3 SWAP2 SWAP1 DUP2 DUP2 MSTORE PUSH1 0x20 ADD DUP3 DUP1 SLOAD PUSH2 0x2C68 SWAP1 PUSH2 0x3915 JUMP JUMPDEST DUP1 ISZERO PUSH2 0x2CB5 JUMPI DUP1 PUSH1 0x1F LT PUSH2 0x2C8A JUMPI PUSH2 0x100 DUP1 DUP4 SLOAD DIV MUL DUP4 MSTORE SWAP2 PUSH1 0x20 ADD SWAP2 PUSH2 0x2CB5 JUMP JUMPDEST DUP3 ADD SWAP2 SWAP1 PUSH1 0x0 MSTORE PUSH1 0x20 PUSH1 0x0 KECCAK256 SWAP1 JUMPDEST DUP2 SLOAD DUP2 MSTORE SWAP1 PUSH1 0x1 ADD SWAP1 PUSH1 0x20 ADD DUP1 DUP4 GT PUSH2 0x2C98 JUMPI DUP3 SWAP1 SUB PUSH1 0x1F AND DUP3 ADD SWAP2 JUMPDEST POP POP POP POP POP DUP2 MSTORE PUSH1 0x20 ADD PUSH1 0x2 DUP3 ADD SLOAD DUP2 MSTORE PUSH1 0x20 ADD PUSH1 0x3 DUP3 ADD SLOAD DUP2 MSTORE POP POP SWAP2 POP SWAP2 POP SWAP2 POP SWAP2 POP SWAP2 JUMP JUMPDEST PUSH1 0x8 DUP2 DUP2 SLOAD DUP2 LT PUSH2 0x2CED JUMPI PUSH1 0x0 DUP1 REVERT JUMPDEST SWAP1 PUSH1 0x0 MSTORE PUSH1 0x20 PUSH1 0x0 KECCAK256 ADD PUSH1 0x0 SWAP2 POP SWAP1 POP DUP1 SLOAD PUSH2 0x2D08 SWAP1 PUSH2 0x3915 JUMP JUMPDEST DUP1 PUSH1 0x1F ADD PUSH1 0x20 DUP1 SWAP2 DIV MUL PUSH1 0x20 ADD PUSH1 0x40 MLOAD SWAP1 DUP2 ADD PUSH1 0x40 MSTORE DUP1 SWAP3 SWAP2 SWAP1 DUP2 DUP2 MSTORE PUSH1 0x20 ADD DUP3 DUP1 SLOAD PUSH2 0x2D34 SWAP1 PUSH2 0x3915 JUMP JUMPDEST DUP1 ISZERO PUSH2 0x2D81 JUMPI DUP1 PUSH1 0x1F LT PUSH2 0x2D56 JUMPI PUSH2 0x100 DUP1 DUP4 SLOAD DIV MUL DUP4 MSTORE SWAP2 PUSH1 0x20 ADD SWAP2 PUSH2 0x2D81 JUMP JUMPDEST DUP3 ADD SWAP2 SWAP1 PUSH1 0x0 MSTORE PUSH1 0x20 PUSH1 0x0 KECCAK256 SWAP1 JUMPDEST DUP2 SLOAD DUP2 MSTORE SWAP1 PUSH1 0x1 ADD SWAP1 PUSH1 0x20 ADD DUP1 DUP4 GT PUSH2 0x2D64 JUMPI DUP3 SWAP1 SUB PUSH1 0x1F AND DUP3 ADD SWAP2 JUMPDEST POP POP POP POP POP DUP2 JUMP JUMPDEST PUSH1 0x3 DUP2 DUP2 SLOAD DUP2 LT PUSH2 0x723 JUMPI PUSH1 0x0 DUP1 REVERT JUMPDEST PUSH1 0xB SLOAD PUSH1 0x60 SWAP1 PUSH1 0xFF AND ISZERO PUSH2 0x2DBF JUMPI PUSH1 0x40 MLOAD PUSH3 0x461BCD PUSH1 0xE5 SHL DUP2 MSTORE PUSH1 0x4 ADD PUSH2 0x78E SWAP1 PUSH2 0x3997 JUMP JUMPDEST PUSH1 0x8 DUP1 SLOAD DUP1 PUSH1 0x20 MUL PUSH1 0x20 ADD PUSH1 0x40 MLOAD SWAP1 DUP2 ADD PUSH1 0x40 MSTORE DUP1 SWAP3 SWAP2 SWAP1 DUP2 DUP2 MSTORE PUSH1 0x20 ADD PUSH1 0x0 SWAP1 JUMPDEST DUP3 DUP3 LT ISZERO PUSH2 0xFD5 JUMPI DUP4 DUP3 SWAP1 PUSH1 0x0 MSTORE PUSH1 0x20 PUSH1 0x0 KECCAK256 ADD DUP1 SLOAD PUSH2 0x2E00 SWAP1 PUSH2 0x3915 JUMP JUMPDEST DUP1 PUSH1 0x1F ADD PUSH1 0x20 DUP1 SWAP2 DIV MUL PUSH1 0x20 ADD PUSH1 0x40 MLOAD SWAP1 DUP2 ADD PUSH1 0x40 MSTORE DUP1 SWAP3 SWAP2 SWAP1 DUP2 DUP2 MSTORE PUSH1 0x20 ADD DUP3 DUP1 SLOAD PUSH2 0x2E2C SWAP1 PUSH2 0x3915 JUMP JUMPDEST DUP1 ISZERO PUSH2 0x2E79 JUMPI DUP1 PUSH1 0x1F LT PUSH2 0x2E4E JUMPI PUSH2 0x100 DUP1 DUP4 SLOAD DIV MUL DUP4 MSTORE SWAP2 PUSH1 0x20 ADD SWAP2 PUSH2 0x2E79 JUMP JUMPDEST DUP3 ADD SWAP2 SWAP1 PUSH1 0x0 MSTORE PUSH1 0x20 PUSH1 0x0 KECCAK256 SWAP1 JUMPDEST DUP2 SLOAD DUP2 MSTORE SWAP1 PUSH1 0x1 ADD SWAP1 PUSH1 0x20 ADD DUP1 DUP4 GT PUSH2 0x2E5C JUMPI DUP3 SWAP1 SUB PUSH1 0x1F AND DUP3 ADD SWAP2 JUMPDEST POP POP POP POP POP DUP2 MSTORE PUSH1 0x20 ADD SWAP1 PUSH1 0x1 ADD SWAP1 PUSH2 0x2DE1 JUMP JUMPDEST PUSH1 0x2 SLOAD PUSH1 0x60 SWAP1 PUSH1 0x1 PUSH1 0x1 PUSH1 0xA0 SHL SUB AND CALLER EQ DUP1 PUSH2 0x2EBD JUMPI POP CALLER PUSH1 0x0 SWAP1 DUP2 MSTORE PUSH1 0x10 PUSH1 0x20 MSTORE PUSH1 0x40 SWAP1 KECCAK256 SLOAD PUSH1 0xFF AND ISZERO ISZERO PUSH1 0x1 EQ JUMPDEST PUSH2 0x2ED9 JUMPI PUSH1 0x40 MLOAD PUSH3 0x461BCD PUSH1 0xE5 SHL DUP2 MSTORE PUSH1 0x4 ADD PUSH2 0x78E SWAP1 PUSH2 0x3949 JUMP JUMPDEST PUSH1 0xB SLOAD PUSH1 0xFF AND ISZERO PUSH2 0x2EFC JUMPI PUSH1 0x40 MLOAD PUSH3 0x461BCD PUSH1 0xE5 SHL DUP2 MSTORE PUSH1 0x4 ADD PUSH2 0x78E SWAP1 PUSH2 0x3997 JUMP JUMPDEST PUSH1 0x8 DUP1 SLOAD PUSH1 0x1 DUP2 ADD DUP3 SSTORE PUSH1 0x0 SWAP2 SWAP1 SWAP2 MSTORE DUP3 MLOAD PUSH2 0x2F3F SWAP2 PUSH32 0xF3F7A9FE364FAAB93B216DA50A3214154F22A0A2B415B23A84C8169E8B636EE3 ADD SWAP1 PUSH1 0x20 DUP6 ADD SWAP1 PUSH2 0x3072 JUMP JUMPDEST POP PUSH1 0x9 SLOAD PUSH1 0x16 DUP4 PUSH1 0x40 MLOAD PUSH2 0x2F53 SWAP2 SWAP1 PUSH2 0x39CE JUMP JUMPDEST SWAP1 DUP2 MSTORE PUSH1 0x40 MLOAD SWAP1 DUP2 SWAP1 SUB PUSH1 0x20 ADD SWAP1 KECCAK256 SSTORE PUSH1 0x9 DUP1 SLOAD SWAP1 PUSH1 0x0 PUSH2 0x2F73 DUP4 PUSH2 0x3A2E JUMP JUMPDEST SWAP1 SWAP2 SSTORE POP SWAP2 SWAP3 SWAP2 POP POP JUMP JUMPDEST PUSH1 0x7 DUP2 DUP2 SLOAD DUP2 LT PUSH2 0x723 JUMPI PUSH1 0x0 DUP1 REVERT JUMPDEST PUSH1 0x0 DUP2 PUSH1 0x40 MLOAD PUSH1 0x20 ADD PUSH2 0x2FA1 SWAP2 SWAP1 PUSH2 0x39CE JUMP JUMPDEST PUSH1 0x40 MLOAD PUSH1 0x20 DUP2 DUP4 SUB SUB DUP2 MSTORE SWAP1 PUSH1 0x40 MSTORE DUP1 MLOAD SWAP1 PUSH1 0x20 ADD KECCAK256 DUP4 PUSH1 0x40 MLOAD PUSH1 0x20 ADD PUSH2 0x2FC8 SWAP2 SWAP1 PUSH2 0x39CE JUMP JUMPDEST PUSH1 0x40 MLOAD PUSH1 0x20 DUP2 DUP4 SUB SUB DUP2 MSTORE SWAP1 PUSH1 0x40 MSTORE DUP1 MLOAD SWAP1 PUSH1 0x20 ADD KECCAK256 EQ SWAP1 POP SWAP3 SWAP2 POP POP JUMP JUMPDEST DUP3 DUP1 SLOAD PUSH2 0x2FF3 SWAP1 PUSH2 0x3915 JUMP JUMPDEST SWAP1 PUSH1 0x0 MSTORE PUSH1 0x20 PUSH1 0x0 KECCAK256 SWAP1 PUSH1 0x1F ADD PUSH1 0x20 SWAP1 DIV DUP2 ADD SWAP3 DUP3 PUSH2 0x3015 JUMPI PUSH1 0x0 DUP6 SSTORE PUSH2 0x3062 JUMP JUMPDEST DUP3 PUSH1 0x1F LT PUSH2 0x3026 JUMPI DUP1 SLOAD DUP6 SSTORE PUSH2 0x3062 JUMP JUMPDEST DUP3 DUP1 ADD PUSH1 0x1 ADD DUP6 SSTORE DUP3 ISZERO PUSH2 0x3062 JUMPI PUSH1 0x0 MSTORE PUSH1 0x20 PUSH1 0x0 KECCAK256 SWAP2 PUSH1 0x1F ADD PUSH1 0x20 SWAP1 DIV DUP3 ADD JUMPDEST DUP3 DUP2 GT ISZERO PUSH2 0x3062 JUMPI DUP3 SLOAD DUP3 SSTORE SWAP2 PUSH1 0x1 ADD SWAP2 SWAP1 PUSH1 0x1 ADD SWAP1 PUSH2 0x3047 JUMP JUMPDEST POP PUSH2 0x306E SWAP3 SWAP2 POP PUSH2 0x3183 JUMP JUMPDEST POP SWAP1 JUMP JUMPDEST DUP3 DUP1 SLOAD PUSH2 0x307E SWAP1 PUSH2 0x3915 JUMP JUMPDEST SWAP1 PUSH1 0x0 MSTORE PUSH1 0x20 PUSH1 0x0 KECCAK256 SWAP1 PUSH1 0x1F ADD PUSH1 0x20 SWAP1 DIV DUP2 ADD SWAP3 DUP3 PUSH2 0x30A0 JUMPI PUSH1 0x0 DUP6 SSTORE PUSH2 0x3062 JUMP JUMPDEST DUP3 PUSH1 0x1F LT PUSH2 0x30B9 JUMPI DUP1 MLOAD PUSH1 0xFF NOT AND DUP4 DUP1 ADD OR DUP6 SSTORE PUSH2 0x3062 JUMP JUMPDEST DUP3 DUP1 ADD PUSH1 0x1 ADD DUP6 SSTORE DUP3 ISZERO PUSH2 0x3062 JUMPI SWAP2 DUP3 ADD JUMPDEST DUP3 DUP2 GT ISZERO PUSH2 0x3062 JUMPI DUP3 MLOAD DUP3 SSTORE SWAP2 PUSH1 0x20 ADD SWAP2 SWAP1 PUSH1 0x1 ADD SWAP1 PUSH2 0x30CB JUMP JUMPDEST DUP3 DUP1 SLOAD DUP3 DUP3 SSTORE SWAP1 PUSH1 0x0 MSTORE PUSH1 0x20 PUSH1 0x0 KECCAK256 SWAP1 DUP2 ADD SWAP3 DUP3 ISZERO PUSH2 0x3062 JUMPI PUSH1 0x0 MSTORE PUSH1 0x20 PUSH1 0x0 KECCAK256 SWAP2 DUP3 ADD DUP3 DUP2 GT ISZERO PUSH2 0x3062 JUMPI DUP3 SLOAD DUP3 SSTORE SWAP2 PUSH1 0x1 ADD SWAP2 SWAP1 PUSH1 0x1 ADD SWAP1 PUSH2 0x3047 JUMP JUMPDEST POP DUP1 SLOAD PUSH1 0x0 DUP3 SSTORE PUSH1 0x3 MUL SWAP1 PUSH1 0x0 MSTORE PUSH1 0x20 PUSH1 0x0 KECCAK256 SWAP1 DUP2 ADD SWAP1 PUSH2 0x3146 SWAP2 SWAP1 PUSH2 0x3198 JUMP JUMPDEST POP JUMP JUMPDEST DUP3 DUP1 SLOAD DUP3 DUP3 SSTORE SWAP1 PUSH1 0x0 MSTORE PUSH1 0x20 PUSH1 0x0 KECCAK256 SWAP1 DUP2 ADD SWAP3 DUP3 ISZERO PUSH2 0x3062 JUMPI SWAP2 PUSH1 0x20 MUL DUP3 ADD DUP3 DUP2 GT ISZERO PUSH2 0x3062 JUMPI DUP3 MLOAD DUP3 SSTORE SWAP2 PUSH1 0x20 ADD SWAP2 SWAP1 PUSH1 0x1 ADD SWAP1 PUSH2 0x30CB JUMP JUMPDEST JUMPDEST DUP1 DUP3 GT ISZERO PUSH2 0x306E JUMPI PUSH1 0x0 DUP2 SSTORE PUSH1 0x1 ADD PUSH2 0x3184 JUMP JUMPDEST DUP1 DUP3 GT ISZERO PUSH2 0x306E JUMPI PUSH1 0x0 PUSH2 0x31AC DUP3 DUP3 PUSH2 0x31D2 JUMP JUMPDEST PUSH2 0x31BA PUSH1 0x1 DUP4 ADD PUSH1 0x0 PUSH2 0x320C JUMP JUMPDEST POP PUSH1 0x2 DUP2 ADD DUP1 SLOAD PUSH4 0xFFFFFFFF NOT AND SWAP1 SSTORE PUSH1 0x3 ADD PUSH2 0x3198 JUMP JUMPDEST POP DUP1 SLOAD PUSH2 0x31DE SWAP1 PUSH2 0x3915 JUMP JUMPDEST PUSH1 0x0 DUP3 SSTORE DUP1 PUSH1 0x1F LT PUSH2 0x31EE JUMPI POP POP JUMP JUMPDEST PUSH1 0x1F ADD PUSH1 0x20 SWAP1 DIV SWAP1 PUSH1 0x0 MSTORE PUSH1 0x20 PUSH1 0x0 KECCAK256 SWAP1 DUP2 ADD SWAP1 PUSH2 0x3146 SWAP2 SWAP1 PUSH2 0x3183 JUMP JUMPDEST POP DUP1 SLOAD PUSH1 0x0 DUP3 SSTORE SWAP1 PUSH1 0x0 MSTORE PUSH1 0x20 PUSH1 0x0 KECCAK256 SWAP1 DUP2 ADD SWAP1 PUSH2 0x3146 SWAP2 SWAP1 PUSH2 0x3183 JUMP JUMPDEST PUSH1 0x0 PUSH1 0x20 DUP3 DUP5 SUB SLT ISZERO PUSH2 0x323C JUMPI PUSH1 0x0 DUP1 REVERT JUMPDEST POP CALLDATALOAD SWAP2 SWAP1 POP JUMP JUMPDEST PUSH1 0x0 JUMPDEST DUP4 DUP2 LT ISZERO PUSH2 0x325E JUMPI DUP2 DUP2 ADD MLOAD DUP4 DUP3 ADD MSTORE PUSH1 0x20 ADD PUSH2 0x3246 JUMP JUMPDEST DUP4 DUP2 GT ISZERO PUSH2 0x326D JUMPI PUSH1 0x0 DUP5 DUP5 ADD MSTORE JUMPDEST POP POP POP POP JUMP JUMPDEST PUSH1 0x0 DUP2 MLOAD DUP1 DUP5 MSTORE PUSH2 0x328B DUP2 PUSH1 0x20 DUP7 ADD PUSH1 0x20 DUP7 ADD PUSH2 0x3243 JUMP JUMPDEST PUSH1 0x1F ADD PUSH1 0x1F NOT AND SWAP3 SWAP1 SWAP3 ADD PUSH1 0x20 ADD SWAP3 SWAP2 POP POP JUMP JUMPDEST PUSH1 0xA0 DUP2 MSTORE PUSH1 0x0 PUSH2 0x32B2 PUSH1 0xA0 DUP4 ADD DUP9 PUSH2 0x3273 JUMP JUMPDEST SWAP6 ISZERO ISZERO PUSH1 0x20 DUP4 ADD MSTORE POP SWAP3 ISZERO ISZERO PUSH1 0x40 DUP5 ADD MSTORE SWAP1 ISZERO ISZERO PUSH1 0x60 DUP4 ADD MSTORE ISZERO ISZERO PUSH1 0x80 SWAP1 SWAP2 ADD MSTORE SWAP2 SWAP1 POP JUMP JUMPDEST PUSH4 0x4E487B71 PUSH1 0xE0 SHL PUSH1 0x0 MSTORE PUSH1 0x41 PUSH1 0x4 MSTORE PUSH1 0x24 PUSH1 0x0 REVERT JUMPDEST PUSH1 0x40 MLOAD PUSH1 0x1F DUP3 ADD PUSH1 0x1F NOT AND DUP2 ADD PUSH8 0xFFFFFFFFFFFFFFFF DUP2 GT DUP3 DUP3 LT OR ISZERO PUSH2 0x3317 JUMPI PUSH2 0x3317 PUSH2 0x32D8 JUMP JUMPDEST PUSH1 0x40 MSTORE SWAP2 SWAP1 POP JUMP JUMPDEST PUSH1 0x0 DUP3 PUSH1 0x1F DUP4 ADD SLT PUSH2 0x3330 JUMPI PUSH1 0x0 DUP1 REVERT JUMPDEST DUP2 CALLDATALOAD PUSH8 0xFFFFFFFFFFFFFFFF DUP2 GT ISZERO PUSH2 0x334A JUMPI PUSH2 0x334A PUSH2 0x32D8 JUMP JUMPDEST PUSH2 0x335D PUSH1 0x1F DUP3 ADD PUSH1 0x1F NOT AND PUSH1 0x20 ADD PUSH2 0x32EE JUMP JUMPDEST DUP2 DUP2 MSTORE DUP5 PUSH1 0x20 DUP4 DUP7 ADD ADD GT ISZERO PUSH2 0x3372 JUMPI PUSH1 0x0 DUP1 REVERT JUMPDEST DUP2 PUSH1 0x20 DUP6 ADD PUSH1 0x20 DUP4 ADD CALLDATACOPY PUSH1 0x0 SWAP2 DUP2 ADD PUSH1 0x20 ADD SWAP2 SWAP1 SWAP2 MSTORE SWAP4 SWAP3 POP POP POP JUMP JUMPDEST PUSH1 0x0 PUSH1 0x20 DUP3 DUP5 SUB SLT ISZERO PUSH2 0x33A1 JUMPI PUSH1 0x0 DUP1 REVERT JUMPDEST DUP2 CALLDATALOAD PUSH8 0xFFFFFFFFFFFFFFFF DUP2 GT ISZERO PUSH2 0x33B8 JUMPI PUSH1 0x0 DUP1 REVERT JUMPDEST PUSH2 0x33C4 DUP5 DUP3 DUP6 ADD PUSH2 0x331F JUMP JUMPDEST SWAP5 SWAP4 POP POP POP POP JUMP JUMPDEST DUP1 MLOAD DUP3 MSTORE PUSH1 0x0 PUSH1 0x20 DUP3 ADD MLOAD PUSH1 0x80 PUSH1 0x20 DUP6 ADD MSTORE PUSH2 0x33EB PUSH1 0x80 DUP6 ADD DUP3 PUSH2 0x3273 JUMP JUMPDEST SWAP1 POP PUSH1 0x40 DUP4 ADD MLOAD PUSH1 0x40 DUP6 ADD MSTORE PUSH1 0x60 DUP4 ADD MLOAD PUSH1 0x60 DUP6 ADD MSTORE DUP1 SWAP2 POP POP SWAP3 SWAP2 POP POP JUMP JUMPDEST PUSH1 0x0 PUSH1 0x60 DUP3 ADD DUP6 DUP4 MSTORE PUSH1 0x20 DUP6 DUP2 DUP6 ADD MSTORE PUSH1 0x60 PUSH1 0x40 DUP6 ADD MSTORE DUP2 DUP6 MLOAD DUP1 DUP5 MSTORE PUSH1 0x80 DUP7 ADD SWAP2 POP PUSH1 0x80 DUP2 PUSH1 0x5 SHL DUP8 ADD ADD SWAP4 POP DUP3 DUP8 ADD PUSH1 0x0 JUMPDEST DUP3 DUP2 LT ISZERO PUSH2 0x346D JUMPI PUSH1 0x7F NOT DUP9 DUP8 SUB ADD DUP5 MSTORE PUSH2 0x345B DUP7 DUP4 MLOAD PUSH2 0x33CC JUMP JUMPDEST SWAP6 POP SWAP3 DUP5 ADD SWAP3 SWAP1 DUP5 ADD SWAP1 PUSH1 0x1 ADD PUSH2 0x343F JUMP JUMPDEST POP SWAP4 SWAP10 SWAP9 POP POP POP POP POP POP POP POP POP JUMP JUMPDEST PUSH1 0x0 DUP1 PUSH1 0x40 DUP4 DUP6 SUB SLT ISZERO PUSH2 0x348F JUMPI PUSH1 0x0 DUP1 REVERT JUMPDEST DUP3 CALLDATALOAD PUSH8 0xFFFFFFFFFFFFFFFF DUP1 DUP3 GT ISZERO PUSH2 0x34A7 JUMPI PUSH1 0x0 DUP1 REVERT JUMPDEST PUSH2 0x34B3 DUP7 DUP4 DUP8 ADD PUSH2 0x331F JUMP JUMPDEST SWAP4 POP PUSH1 0x20 DUP6 ADD CALLDATALOAD SWAP2 POP DUP1 DUP3 GT ISZERO PUSH2 0x34C9 JUMPI PUSH1 0x0 DUP1 REVERT JUMPDEST POP PUSH2 0x34D6 DUP6 DUP3 DUP7 ADD PUSH2 0x331F JUMP JUMPDEST SWAP2 POP POP SWAP3 POP SWAP3 SWAP1 POP JUMP JUMPDEST PUSH1 0x0 PUSH1 0x20 DUP3 DUP5 SUB SLT ISZERO PUSH2 0x34F2 JUMPI PUSH1 0x0 DUP1 REVERT JUMPDEST DUP2 CALLDATALOAD DUP1 ISZERO ISZERO DUP2 EQ PUSH2 0x3502 JUMPI PUSH1 0x0 DUP1 REVERT JUMPDEST SWAP4 SWAP3 POP POP POP JUMP JUMPDEST PUSH1 0x0 PUSH1 0x20 DUP1 DUP4 ADD DUP2 DUP5 MSTORE DUP1 DUP6 MLOAD DUP1 DUP4 MSTORE PUSH1 0x40 SWAP3 POP DUP3 DUP7 ADD SWAP2 POP DUP3 DUP2 PUSH1 0x5 SHL DUP8 ADD ADD DUP5 DUP9 ADD PUSH1 0x0 DUP1 JUMPDEST DUP5 DUP2 LT ISZERO PUSH2 0x35D9 JUMPI PUSH1 0x3F NOT DUP11 DUP6 SUB ADD DUP7 MSTORE DUP3 MLOAD PUSH1 0xC0 DUP2 MLOAD DUP2 DUP8 MSTORE PUSH2 0x3557 DUP3 DUP9 ADD DUP3 PUSH2 0x3273 JUMP JUMPDEST DUP4 DUP13 ADD MLOAD DUP9 DUP3 SUB DUP10 DUP15 ADD MSTORE DUP1 MLOAD DUP1 DUP4 MSTORE SWAP1 DUP14 ADD SWAP4 POP DUP7 SWAP3 POP SWAP1 DUP13 ADD SWAP1 JUMPDEST DUP1 DUP4 LT ISZERO PUSH2 0x3594 JUMPI DUP4 MLOAD DUP3 MSTORE SWAP3 DUP13 ADD SWAP3 PUSH1 0x1 SWAP3 SWAP1 SWAP3 ADD SWAP2 SWAP1 DUP13 ADD SWAP1 PUSH2 0x3574 JUMP JUMPDEST POP DUP11 DUP5 ADD MLOAD ISZERO ISZERO DUP9 DUP13 ADD MSTORE PUSH1 0x60 DUP1 DUP6 ADD MLOAD ISZERO ISZERO SWAP1 DUP10 ADD MSTORE PUSH1 0x80 DUP1 DUP6 ADD MLOAD ISZERO ISZERO SWAP1 DUP10 ADD MSTORE PUSH1 0xA0 SWAP4 DUP5 ADD MLOAD ISZERO ISZERO SWAP4 SWAP1 SWAP8 ADD SWAP3 SWAP1 SWAP3 MSTORE POP POP SWAP5 DUP8 ADD SWAP5 SWAP2 DUP8 ADD SWAP2 PUSH1 0x1 ADD PUSH2 0x3531 JUMP JUMPDEST POP SWAP2 SWAP10 SWAP9 POP POP POP POP POP POP POP POP POP JUMP JUMPDEST DUP5 DUP2 MSTORE PUSH1 0x80 PUSH1 0x20 DUP3 ADD MSTORE PUSH1 0x0 PUSH2 0x3601 PUSH1 0x80 DUP4 ADD DUP7 PUSH2 0x3273 JUMP JUMPDEST PUSH1 0x40 DUP4 ADD SWAP5 SWAP1 SWAP5 MSTORE POP PUSH1 0x60 ADD MSTORE SWAP3 SWAP2 POP POP JUMP JUMPDEST DUP1 CALLDATALOAD PUSH1 0x1 PUSH1 0x1 PUSH1 0xA0 SHL SUB DUP2 AND DUP2 EQ PUSH2 0x10FE JUMPI PUSH1 0x0 DUP1 REVERT JUMPDEST PUSH1 0x0 PUSH1 0x20 DUP3 DUP5 SUB SLT ISZERO PUSH2 0x363D JUMPI PUSH1 0x0 DUP1 REVERT JUMPDEST PUSH2 0x3502 DUP3 PUSH2 0x3614 JUMP JUMPDEST PUSH1 0x0 DUP1 PUSH1 0x0 PUSH1 0x40 DUP5 DUP7 SUB SLT ISZERO PUSH2 0x365B JUMPI PUSH1 0x0 DUP1 REVERT JUMPDEST DUP4 CALLDATALOAD PUSH8 0xFFFFFFFFFFFFFFFF DUP1 DUP3 GT ISZERO PUSH2 0x3673 JUMPI PUSH1 0x0 DUP1 REVERT JUMPDEST PUSH2 0x367F DUP8 DUP4 DUP9 ADD PUSH2 0x331F JUMP JUMPDEST SWAP5 POP PUSH1 0x20 DUP7 ADD CALLDATALOAD SWAP2 POP DUP1 DUP3 GT ISZERO PUSH2 0x3695 JUMPI PUSH1 0x0 DUP1 REVERT JUMPDEST DUP2 DUP7 ADD SWAP2 POP DUP7 PUSH1 0x1F DUP4 ADD SLT PUSH2 0x36A9 JUMPI PUSH1 0x0 DUP1 REVERT JUMPDEST DUP2 CALLDATALOAD DUP2 DUP2 GT ISZERO PUSH2 0x36B8 JUMPI PUSH1 0x0 DUP1 REVERT JUMPDEST DUP8 PUSH1 0x20 DUP3 PUSH1 0x5 SHL DUP6 ADD ADD GT ISZERO PUSH2 0x36CD JUMPI PUSH1 0x0 DUP1 REVERT JUMPDEST PUSH1 0x20 DUP4 ADD SWAP5 POP DUP1 SWAP4 POP POP POP POP SWAP3 POP SWAP3 POP SWAP3 JUMP JUMPDEST PUSH1 0x20 DUP2 MSTORE PUSH1 0x0 PUSH2 0x3502 PUSH1 0x20 DUP4 ADD DUP5 PUSH2 0x33CC JUMP JUMPDEST PUSH1 0x0 DUP1 PUSH1 0x40 DUP4 DUP6 SUB SLT ISZERO PUSH2 0x3706 JUMPI PUSH1 0x0 DUP1 REVERT JUMPDEST POP POP DUP1 CALLDATALOAD SWAP3 PUSH1 0x20 SWAP1 SWAP2 ADD CALLDATALOAD SWAP2 POP JUMP JUMPDEST PUSH1 0x0 DUP1 PUSH1 0x40 DUP4 DUP6 SUB SLT ISZERO PUSH2 0x3728 JUMPI PUSH1 0x0 DUP1 REVERT JUMPDEST DUP3 CALLDATALOAD PUSH8 0xFFFFFFFFFFFFFFFF DUP1 DUP3 GT ISZERO PUSH2 0x3740 JUMPI PUSH1 0x0 DUP1 REVERT JUMPDEST PUSH2 0x374C DUP7 DUP4 DUP8 ADD PUSH2 0x331F JUMP JUMPDEST SWAP4 POP PUSH1 0x20 SWAP2 POP DUP2 DUP6 ADD CALLDATALOAD DUP2 DUP2 GT ISZERO PUSH2 0x3763 JUMPI PUSH1 0x0 DUP1 REVERT JUMPDEST DUP6 ADD PUSH1 0x1F DUP2 ADD DUP8 SGT PUSH2 0x3774 JUMPI PUSH1 0x0 DUP1 REVERT JUMPDEST DUP1 CALLDATALOAD DUP3 DUP2 GT ISZERO PUSH2 0x3786 JUMPI PUSH2 0x3786 PUSH2 0x32D8 JUMP JUMPDEST DUP1 PUSH1 0x5 SHL SWAP3 POP PUSH2 0x3797 DUP5 DUP5 ADD PUSH2 0x32EE JUMP JUMPDEST DUP2 DUP2 MSTORE SWAP3 DUP3 ADD DUP5 ADD SWAP3 DUP5 DUP2 ADD SWAP1 DUP10 DUP6 GT ISZERO PUSH2 0x37B1 JUMPI PUSH1 0x0 DUP1 REVERT JUMPDEST SWAP3 DUP6 ADD SWAP3 JUMPDEST DUP5 DUP5 LT ISZERO PUSH2 0x37CF JUMPI DUP4 CALLDATALOAD DUP3 MSTORE SWAP3 DUP6 ADD SWAP3 SWAP1 DUP6 ADD SWAP1 PUSH2 0x37B6 JUMP JUMPDEST DUP1 SWAP7 POP POP POP POP POP POP POP SWAP3 POP SWAP3 SWAP1 POP JUMP JUMPDEST PUSH1 0x0 DUP1 PUSH1 0x40 DUP4 DUP6 SUB SLT ISZERO PUSH2 0x37F2 JUMPI PUSH1 0x0 DUP1 REVERT JUMPDEST DUP3 CALLDATALOAD PUSH8 0xFFFFFFFFFFFFFFFF DUP2 GT ISZERO PUSH2 0x3809 JUMPI PUSH1 0x0 DUP1 REVERT JUMPDEST PUSH2 0x3815 DUP6 DUP3 DUP7 ADD PUSH2 0x331F JUMP JUMPDEST SWAP6 PUSH1 0x20 SWAP5 SWAP1 SWAP5 ADD CALLDATALOAD SWAP5 POP POP POP POP JUMP JUMPDEST PUSH1 0x40 DUP2 MSTORE PUSH1 0x0 PUSH2 0x3837 PUSH1 0x40 DUP4 ADD DUP6 PUSH2 0x3273 JUMP JUMPDEST SWAP1 POP DUP3 PUSH1 0x20 DUP4 ADD MSTORE SWAP4 SWAP3 POP POP POP JUMP JUMPDEST PUSH1 0x40 DUP2 MSTORE PUSH1 0x0 PUSH2 0x3859 PUSH1 0x40 DUP4 ADD DUP6 PUSH2 0x33CC JUMP JUMPDEST DUP3 DUP2 SUB PUSH1 0x20 DUP5 ADD MSTORE PUSH2 0x386B DUP2 DUP6 PUSH2 0x3273 JUMP JUMPDEST SWAP6 SWAP5 POP POP POP POP POP JUMP JUMPDEST PUSH1 0x20 DUP2 MSTORE PUSH1 0x0 PUSH2 0x3502 PUSH1 0x20 DUP4 ADD DUP5 PUSH2 0x3273 JUMP JUMPDEST PUSH1 0x0 PUSH1 0x20 DUP1 DUP4 ADD DUP2 DUP5 MSTORE DUP1 DUP6 MLOAD DUP1 DUP4 MSTORE PUSH1 0x40 DUP7 ADD SWAP2 POP PUSH1 0x40 DUP2 PUSH1 0x5 SHL DUP8 ADD ADD SWAP3 POP DUP4 DUP8 ADD PUSH1 0x0 JUMPDEST DUP3 DUP2 LT ISZERO PUSH2 0x38DC JUMPI PUSH1 0x3F NOT DUP9 DUP7 SUB ADD DUP5 MSTORE PUSH2 0x38CA DUP6 DUP4 MLOAD PUSH2 0x3273 JUMP JUMPDEST SWAP5 POP SWAP3 DUP6 ADD SWAP3 SWAP1 DUP6 ADD SWAP1 PUSH1 0x1 ADD PUSH2 0x38AE JUMP JUMPDEST POP SWAP3 SWAP8 SWAP7 POP POP POP POP POP POP POP JUMP JUMPDEST PUSH1 0x0 DUP1 PUSH1 0x40 DUP4 DUP6 SUB SLT ISZERO PUSH2 0x38FC JUMPI PUSH1 0x0 DUP1 REVERT JUMPDEST DUP3 CALLDATALOAD SWAP2 POP PUSH2 0x390C PUSH1 0x20 DUP5 ADD PUSH2 0x3614 JUMP JUMPDEST SWAP1 POP SWAP3 POP SWAP3 SWAP1 POP JUMP JUMPDEST PUSH1 0x1 DUP2 DUP2 SHR SWAP1 DUP3 AND DUP1 PUSH2 0x3929 JUMPI PUSH1 0x7F DUP3 AND SWAP2 POP JUMPDEST PUSH1 0x20 DUP3 LT DUP2 SUB PUSH2 0x1AC5 JUMPI PUSH4 0x4E487B71 PUSH1 0xE0 SHL PUSH1 0x0 MSTORE PUSH1 0x22 PUSH1 0x4 MSTORE PUSH1 0x24 PUSH1 0x0 REVERT JUMPDEST PUSH1 0x20 DUP1 DUP3 MSTORE PUSH1 0x2E SWAP1 DUP3 ADD MSTORE PUSH32 0x416363657373206772616E74656420746F206F6E6C7920746865206368616972 PUSH1 0x40 DUP3 ADD MSTORE PUSH14 0x36B0B71037B9103A32B0B1B432B9 PUSH1 0x91 SHL PUSH1 0x60 DUP3 ADD MSTORE PUSH1 0x80 ADD SWAP1 JUMP JUMPDEST PUSH1 0x20 DUP1 DUP3 MSTORE PUSH1 0x1C SWAP1 DUP3 ADD MSTORE PUSH32 0x436F6E74726163742069732063757272656E746C792070617573656400000000 PUSH1 0x40 DUP3 ADD MSTORE PUSH1 0x60 ADD SWAP1 JUMP JUMPDEST PUSH1 0x0 DUP3 MLOAD PUSH2 0x39E0 DUP2 DUP5 PUSH1 0x20 DUP8 ADD PUSH2 0x3243 JUMP JUMPDEST SWAP2 SWAP1 SWAP2 ADD SWAP3 SWAP2 POP POP JUMP JUMPDEST PUSH4 0x4E487B71 PUSH1 0xE0 SHL PUSH1 0x0 MSTORE PUSH1 0x11 PUSH1 0x4 MSTORE PUSH1 0x24 PUSH1 0x0 REVERT JUMPDEST PUSH1 0x0 DUP3 NOT DUP3 GT ISZERO PUSH2 0x3A13 JUMPI PUSH2 0x3A13 PUSH2 0x39EA JUMP JUMPDEST POP ADD SWAP1 JUMP JUMPDEST PUSH4 0x4E487B71 PUSH1 0xE0 SHL PUSH1 0x0 MSTORE PUSH1 0x32 PUSH1 0x4 MSTORE PUSH1 0x24 PUSH1 0x0 REVERT JUMPDEST PUSH1 0x0 PUSH1 0x1 DUP3 ADD PUSH2 0x3A40 JUMPI PUSH2 0x3A40 PUSH2 0x39EA JUMP JUMPDEST POP PUSH1 0x1 ADD SWAP1 JUMP JUMPDEST PUSH1 0x20 DUP1 DUP3 MSTORE PUSH1 0x23 SWAP1 DUP3 ADD MSTORE PUSH32 0x416363657373206772616E74656420746F206F6E6C7920746865206368616972 PUSH1 0x40 DUP3 ADD MSTORE PUSH3 0x36B0B7 PUSH1 0xE9 SHL PUSH1 0x60 DUP3 ADD MSTORE PUSH1 0x80 ADD SWAP1 JUMP JUMPDEST PUSH1 0x0 DUP2 PUSH1 0x0 NOT DIV DUP4 GT DUP3 ISZERO ISZERO AND ISZERO PUSH2 0x3AA4 JUMPI PUSH2 0x3AA4 PUSH2 0x39EA JUMP JUMPDEST POP MUL SWAP1 JUMP JUMPDEST PUSH1 0x40 DUP2 MSTORE PUSH1 0x0 PUSH2 0x3ABC PUSH1 0x40 DUP4 ADD DUP7 PUSH2 0x3273 JUMP JUMPDEST DUP3 DUP2 SUB PUSH1 0x20 DUP5 DUP2 ADD SWAP2 SWAP1 SWAP2 MSTORE DUP5 DUP3 MSTORE DUP6 SWAP2 DUP2 ADD PUSH1 0x0 JUMPDEST DUP7 DUP2 LT ISZERO PUSH2 0x3AFE JUMPI PUSH1 0x1 PUSH1 0x1 PUSH1 0xA0 SHL SUB PUSH2 0x3AEB DUP6 PUSH2 0x3614 JUMP JUMPDEST AND DUP3 MSTORE SWAP3 DUP3 ADD SWAP3 SWAP1 DUP3 ADD SWAP1 PUSH1 0x1 ADD PUSH2 0x3AD2 JUMP JUMPDEST POP SWAP8 SWAP7 POP POP POP POP POP POP POP JUMP JUMPDEST PUSH1 0x40 DUP2 MSTORE PUSH1 0x0 PUSH2 0x3B1D PUSH1 0x40 DUP4 ADD DUP6 PUSH2 0x3273 JUMP JUMPDEST SWAP1 POP DUP3 ISZERO ISZERO PUSH1 0x20 DUP4 ADD MSTORE SWAP4 SWAP3 POP POP POP JUMP JUMPDEST PUSH1 0x20 DUP1 DUP3 MSTORE PUSH1 0x2B SWAP1 DUP3 ADD MSTORE PUSH32 0x566F74696E6720686173206E6F7420636F6D6D6D656E63656420666F72207468 PUSH1 0x40 DUP3 ADD MSTORE PUSH11 0x69732043617465676F7279 PUSH1 0xA8 SHL PUSH1 0x60 DUP3 ADD MSTORE PUSH1 0x80 ADD SWAP1 JUMP JUMPDEST PUSH1 0x0 PUSH1 0x20 DUP3 DUP5 SUB SLT ISZERO PUSH2 0x3B8B JUMPI PUSH1 0x0 DUP1 REVERT JUMPDEST POP MLOAD SWAP2 SWAP1 POP JUMP JUMPDEST PUSH1 0x1 PUSH1 0x1 PUSH1 0xA0 SHL SUB DUP4 AND DUP2 MSTORE PUSH1 0x40 PUSH1 0x20 DUP3 ADD DUP2 SWAP1 MSTORE PUSH1 0x0 SWAP1 PUSH2 0x33C4 SWAP1 DUP4 ADD DUP5 PUSH2 0x3273 JUMP INVALID LOG2 PUSH5 0x6970667358 0x22 SLT KECCAK256 0x1E 0x2F 0xE1 CODESIZE 0x1E 0x2D CREATE2 0xE7 0xAE 0xC0 0xB3 SWAP1 CALLDATASIZE BASEFEE 0xF7 0xC5 PUSH32 0xBB0EF0D418C7A64C199EF88059013F64736F6C634300080D0033000000000000 "
		},
		"gasEstimates": {
			"creation": {
				"codeDepositCost": "3068000",
				"executionCost": "infinite",
				"totalCost": "infinite"
			},
			"external": {
				"Category(string)": "infinite",
				"_paused()": "2400",
				"activeCandidate(uint256)": "2562",
				"activeElectionArrays(uint256)": "infinite",
				"activeElections(string)": "infinite",
				"addCategories(string)": "infinite",
				"candidates(uint256)": "infinite",
				"candidatesCount()": "2429",
				"categories(uint256)": "infinite",
				"chairman()": "2382",
				"clearElectionQueue()": "infinite",
				"compileVotes(string)": "infinite",
				"director(address)": "2643",
				"directors(uint256)": "4658",
				"electionQueue(uint256)": "infinite",
				"endVotingSession(string)": "infinite",
				"fetchElection()": "infinite",
				"getWinningCandidate(string)": "infinite",
				"isChairman(address)": "infinite",
				"makeResultPublic(string)": "infinite",
				"registerCandidate(string,string)": "infinite",
				"registeredStakeholders(uint256)": "4746",
				"setPaused(bool)": "26702",
				"setUpElection(string,uint256[])": "infinite",
				"showCategories()": "infinite",
				"showQueue()": "infinite",
				"stakeholders(address)": "4781",
				"startVotingSession(string)": "infinite",
				"student(address)": "2642",
				"students(uint256)": "4683",
				"teacher(address)": "2664",
				"teachers(uint256)": "4704",
				"uploadStakeHolder(string,address[])": "infinite",
				"vote(string,uint256)": "infinite",
				"votedForCategory(uint256,address)": "2717",
				"votesForCategory(uint256,uint256)": "2579",
				"zstoken()": "2450"
			},
			"internal": {
				"compareStrings(string memory,string memory)": "infinite"
			}
		},
		"methodIdentifiers": {
			"Category(string)": "44fb5a1a",
			"_paused()": "16c61ccc",
			"activeCandidate(uint256)": "83d7ccd0",
			"activeElectionArrays(uint256)": "00d195fd",
			"activeElections(string)": "32b773a5",
			"addCategories(string)": "fc177e30",
			"candidates(uint256)": "3477ee2e",
			"candidatesCount()": "2d35a8a2",
			"categories(uint256)": "c6cdbe5e",
			"chairman()": "87f7b975",
			"clearElectionQueue()": "8c1b0d51",
			"compileVotes(string)": "073b1f59",
			"director(address)": "3721bdae",
			"directors(uint256)": "efa8154e",
			"electionQueue(uint256)": "60d20573",
			"endVotingSession(string)": "a672601d",
			"fetchElection()": "19f3a50e",
			"getWinningCandidate(string)": "40284753",
			"isChairman(address)": "38287259",
			"makeResultPublic(string)": "c00ce9ff",
			"registerCandidate(string,string)": "0dbce4dd",
			"registeredStakeholders(uint256)": "ff2187bd",
			"setPaused(bool)": "16c38b3c",
			"setUpElection(string,uint256[])": "a25c891c",
			"showCategories()": "f48d9127",
			"showQueue()": "7b56d7f8",
			"stakeholders(address)": "c07cfca9",
			"startVotingSession(string)": "764926db",
			"student(address)": "daadd00f",
			"students(uint256)": "06ead22e",
			"teacher(address)": "e554a900",
			"teachers(uint256)": "34ac0b40",
			"uploadStakeHolder(string,address[])": "3d42dcdd",
			"vote(string,uint256)": "a6385803",
			"votedForCategory(uint256,address)": "f74e0eac",
			"votesForCategory(uint256,uint256)": "6c537471",
			"zstoken()": "0b5f42da"
		}
	},
	"abi": [
		{
			"inputs": [
				{
					"internalType": "address",
					"name": "_tokenAddr",
					"type": "address"
				}
			],
			"stateMutability": "nonpayable",
			"type": "constructor"
		},
		{
			"anonymous": false,
			"inputs": [
				{
					"indexed": false,
					"internalType": "uint256",
					"name": "candidateId",
					"type": "uint256"
				}
			],
			"name": "CandidateRegisteredEvent",
			"type": "event"
		},
		{
			"anonymous": false,
			"inputs": [
				{
					"indexed": false,
					"internalType": "string",
					"name": "_role",
					"type": "string"
				},
				{
					"indexed": false,
					"internalType": "address[]",
					"name": "stakeholderAddress",
					"type": "address[]"
				}
			],
			"name": "StakeholderRegisteredEvent",
			"type": "event"
		},
		{
			"anonymous": false,
			"inputs": [
				{
					"indexed": false,
					"internalType": "address",
					"name": "stakeholderAddress",
					"type": "address"
				}
			],
			"name": "StakeholderRemovedEvent",
			"type": "event"
		},
		{
			"anonymous": false,
			"inputs": [
				{
					"indexed": false,
					"internalType": "address",
					"name": "stakeholder",
					"type": "address"
				},
				{
					"indexed": false,
					"internalType": "string",
					"name": "category",
					"type": "string"
				}
			],
			"name": "VotedEvent",
			"type": "event"
		},
		{
			"anonymous": false,
			"inputs": [
				{
					"indexed": false,
					"internalType": "string",
					"name": "category",
					"type": "string"
				},
				{
					"indexed": false,
					"internalType": "uint256",
					"name": "totalVotes",
					"type": "uint256"
				}
			],
			"name": "VotesCountedEvent",
			"type": "event"
		},
		{
			"anonymous": false,
			"inputs": [
				{
					"indexed": false,
					"internalType": "string",
					"name": "category",
					"type": "string"
				},
				{
					"indexed": false,
					"internalType": "bool",
					"name": "status",
					"type": "bool"
				}
			],
			"name": "VotingEndedEvent",
			"type": "event"
		},
		{
			"anonymous": false,
			"inputs": [
				{
					"indexed": false,
					"internalType": "bool",
					"name": "previousVotingStatus",
					"type": "bool"
				},
				{
					"indexed": false,
					"internalType": "bool",
					"name": "currentVotingStatus",
					"type": "bool"
				}
			],
			"name": "VotingProcessChangeEvent",
			"type": "event"
		},
		{
			"anonymous": false,
			"inputs": [
				{
					"indexed": false,
					"internalType": "string",
					"name": "category",
					"type": "string"
				},
				{
					"indexed": false,
					"internalType": "bool",
					"name": "status",
					"type": "bool"
				}
			],
			"name": "VotingStartedEvent",
			"type": "event"
		},
		{
			"inputs": [
				{
					"internalType": "string",
					"name": "",
					"type": "string"
				}
			],
			"name": "Category",
			"outputs": [
				{
					"internalType": "uint256",
					"name": "",
					"type": "uint256"
				}
			],
			"stateMutability": "view",
			"type": "function"
		},
		{
			"inputs": [],
			"name": "_paused",
			"outputs": [
				{
					"internalType": "bool",
					"name": "",
					"type": "bool"
				}
			],
			"stateMutability": "view",
			"type": "function"
		},
		{
			"inputs": [
				{
					"internalType": "uint256",
					"name": "",
					"type": "uint256"
				}
			],
			"name": "activeCandidate",
			"outputs": [
				{
					"internalType": "bool",
					"name": "",
					"type": "bool"
				}
			],
			"stateMutability": "view",
			"type": "function"
		},
		{
			"inputs": [
				{
					"internalType": "uint256",
					"name": "",
					"type": "uint256"
				}
			],
			"name": "activeElectionArrays",
			"outputs": [
				{
					"internalType": "string",
					"name": "category",
					"type": "string"
				},
				{
					"internalType": "bool",
					"name": "VotingStarted",
					"type": "bool"
				},
				{
					"internalType": "bool",
					"name": "VotingEnded",
					"type": "bool"
				},
				{
					"internalType": "bool",
					"name": "VotesCounted",
					"type": "bool"
				},
				{
					"internalType": "bool",
					"name": "isResultPublic",
					"type": "bool"
				}
			],
			"stateMutability": "view",
			"type": "function"
		},
		{
			"inputs": [
				{
					"internalType": "string",
					"name": "",
					"type": "string"
				}
			],
			"name": "activeElections",
			"outputs": [
				{
					"internalType": "string",
					"name": "category",
					"type": "string"
				},
				{
					"internalType": "bool",
					"name": "VotingStarted",
					"type": "bool"
				},
				{
					"internalType": "bool",
					"name": "VotingEnded",
					"type": "bool"
				},
				{
					"internalType": "bool",
					"name": "VotesCounted",
					"type": "bool"
				},
				{
					"internalType": "bool",
					"name": "isResultPublic",
					"type": "bool"
				}
			],
			"stateMutability": "view",
			"type": "function"
		},
		{
			"inputs": [
				{
					"internalType": "string",
					"name": "_category",
					"type": "string"
				}
			],
			"name": "addCategories",
			"outputs": [
				{
					"internalType": "string",
					"name": "",
					"type": "string"
				}
			],
			"stateMutability": "nonpayable",
			"type": "function"
		},
		{
			"inputs": [
				{
					"internalType": "uint256",
					"name": "",
					"type": "uint256"
				}
			],
			"name": "candidates",
			"outputs": [
				{
					"internalType": "uint256",
					"name": "id",
					"type": "uint256"
				},
				{
					"internalType": "string",
					"name": "name",
					"type": "string"
				},
				{
					"internalType": "uint256",
					"name": "category",
					"type": "uint256"
				},
				{
					"internalType": "uint256",
					"name": "voteCount",
					"type": "uint256"
				}
			],
			"stateMutability": "view",
			"type": "function"
		},
		{
			"inputs": [],
			"name": "candidatesCount",
			"outputs": [
				{
					"internalType": "uint256",
					"name": "",
					"type": "uint256"
				}
			],
			"stateMutability": "view",
			"type": "function"
		},
		{
			"inputs": [
				{
					"internalType": "uint256",
					"name": "",
					"type": "uint256"
				}
			],
			"name": "categories",
			"outputs": [
				{
					"internalType": "string",
					"name": "",
					"type": "string"
				}
			],
			"stateMutability": "view",
			"type": "function"
		},
		{
			"inputs": [],
			"name": "chairman",
			"outputs": [
				{
					"internalType": "address",
					"name": "",
					"type": "address"
				}
			],
			"stateMutability": "view",
			"type": "function"
		},
		{
			"inputs": [],
			"name": "clearElectionQueue",
			"outputs": [],
			"stateMutability": "nonpayable",
			"type": "function"
		},
		{
			"inputs": [
				{
					"internalType": "string",
					"name": "_position",
					"type": "string"
				}
			],
			"name": "compileVotes",
			"outputs": [
				{
					"internalType": "uint256",
					"name": "total",
					"type": "uint256"
				},
				{
					"internalType": "uint256",
					"name": "winnigVotes",
					"type": "uint256"
				},
				{
					"components": [
						{
							"internalType": "uint256",
							"name": "id",
							"type": "uint256"
						},
						{
							"internalType": "string",
							"name": "name",
							"type": "string"
						},
						{
							"internalType": "uint256",
							"name": "category",
							"type": "uint256"
						},
						{
							"internalType": "uint256",
							"name": "voteCount",
							"type": "uint256"
						}
					],
					"internalType": "struct Zurit.Candidate[]",
					"name": "",
					"type": "tuple[]"
				}
			],
			"stateMutability": "nonpayable",
			"type": "function"
		},
		{
			"inputs": [
				{
					"internalType": "address",
					"name": "",
					"type": "address"
				}
			],
			"name": "director",
			"outputs": [
				{
					"internalType": "bool",
					"name": "",
					"type": "bool"
				}
			],
			"stateMutability": "view",
			"type": "function"
		},
		{
			"inputs": [
				{
					"internalType": "uint256",
					"name": "",
					"type": "uint256"
				}
			],
			"name": "directors",
			"outputs": [
				{
					"internalType": "address",
					"name": "",
					"type": "address"
				}
			],
			"stateMutability": "view",
			"type": "function"
		},
		{
			"inputs": [
				{
					"internalType": "uint256",
					"name": "",
					"type": "uint256"
				}
			],
			"name": "electionQueue",
			"outputs": [
				{
					"internalType": "string",
					"name": "category",
					"type": "string"
				},
				{
					"internalType": "bool",
					"name": "VotingStarted",
					"type": "bool"
				},
				{
					"internalType": "bool",
					"name": "VotingEnded",
					"type": "bool"
				},
				{
					"internalType": "bool",
					"name": "VotesCounted",
					"type": "bool"
				},
				{
					"internalType": "bool",
					"name": "isResultPublic",
					"type": "bool"
				}
			],
			"stateMutability": "view",
			"type": "function"
		},
		{
			"inputs": [
				{
					"internalType": "string",
					"name": "_category",
					"type": "string"
				}
			],
			"name": "endVotingSession",
			"outputs": [],
			"stateMutability": "nonpayable",
			"type": "function"
		},
		{
			"inputs": [],
			"name": "fetchElection",
			"outputs": [
				{
					"components": [
						{
							"internalType": "string",
							"name": "category",
							"type": "string"
						},
						{
							"internalType": "uint256[]",
							"name": "candidatesID",
							"type": "uint256[]"
						},
						{
							"internalType": "bool",
							"name": "VotingStarted",
							"type": "bool"
						},
						{
							"internalType": "bool",
							"name": "VotingEnded",
							"type": "bool"
						},
						{
							"internalType": "bool",
							"name": "VotesCounted",
							"type": "bool"
						},
						{
							"internalType": "bool",
							"name": "isResultPublic",
							"type": "bool"
						}
					],
					"internalType": "struct Zurit.Election[]",
					"name": "",
					"type": "tuple[]"
				}
			],
			"stateMutability": "view",
			"type": "function"
		},
		{
			"inputs": [
				{
					"internalType": "string",
					"name": "_category",
					"type": "string"
				}
			],
			"name": "getWinningCandidate",
			"outputs": [
				{
					"components": [
						{
							"internalType": "uint256",
							"name": "id",
							"type": "uint256"
						},
						{
							"internalType": "string",
							"name": "name",
							"type": "string"
						},
						{
							"internalType": "uint256",
							"name": "category",
							"type": "uint256"
						},
						{
							"internalType": "uint256",
							"name": "voteCount",
							"type": "uint256"
						}
					],
					"internalType": "struct Zurit.Candidate",
					"name": "",
					"type": "tuple"
				}
			],
			"stateMutability": "view",
			"type": "function"
		},
		{
			"inputs": [
				{
					"internalType": "address",
					"name": "_address",
					"type": "address"
				}
			],
			"name": "isChairman",
			"outputs": [
				{
					"internalType": "bool",
					"name": "",
					"type": "bool"
				}
			],
			"stateMutability": "view",
			"type": "function"
		},
		{
			"inputs": [
				{
					"internalType": "string",
					"name": "_category",
					"type": "string"
				}
			],
			"name": "makeResultPublic",
			"outputs": [
				{
					"components": [
						{
							"internalType": "uint256",
							"name": "id",
							"type": "uint256"
						},
						{
							"internalType": "string",
							"name": "name",
							"type": "string"
						},
						{
							"internalType": "uint256",
							"name": "category",
							"type": "uint256"
						},
						{
							"internalType": "uint256",
							"name": "voteCount",
							"type": "uint256"
						}
					],
					"internalType": "struct Zurit.Candidate",
					"name": "",
					"type": "tuple"
				},
				{
					"internalType": "string",
					"name": "",
					"type": "string"
				}
			],
			"stateMutability": "nonpayable",
			"type": "function"
		},
		{
			"inputs": [
				{
					"internalType": "string",
					"name": "candidateName",
					"type": "string"
				},
				{
					"internalType": "string",
					"name": "_category",
					"type": "string"
				}
			],
			"name": "registerCandidate",
			"outputs": [],
			"stateMutability": "nonpayable",
			"type": "function"
		},
		{
			"inputs": [
				{
					"internalType": "uint256",
					"name": "",
					"type": "uint256"
				}
			],
			"name": "registeredStakeholders",
			"outputs": [
				{
					"internalType": "address",
					"name": "",
					"type": "address"
				}
			],
			"stateMutability": "view",
			"type": "function"
		},
		{
			"inputs": [
				{
					"internalType": "bool",
					"name": "_value",
					"type": "bool"
				}
			],
			"name": "setPaused",
			"outputs": [],
			"stateMutability": "nonpayable",
			"type": "function"
		},
		{
			"inputs": [
				{
					"internalType": "string",
					"name": "_category",
					"type": "string"
				},
				{
					"internalType": "uint256[]",
					"name": "_candidateID",
					"type": "uint256[]"
				}
			],
			"name": "setUpElection",
			"outputs": [
				{
					"internalType": "bool",
					"name": "",
					"type": "bool"
				}
			],
			"stateMutability": "nonpayable",
			"type": "function"
		},
		{
			"inputs": [],
			"name": "showCategories",
			"outputs": [
				{
					"internalType": "string[]",
					"name": "",
					"type": "string[]"
				}
			],
			"stateMutability": "view",
			"type": "function"
		},
		{
			"inputs": [],
			"name": "showQueue",
			"outputs": [
				{
					"components": [
						{
							"internalType": "string",
							"name": "category",
							"type": "string"
						},
						{
							"internalType": "uint256[]",
							"name": "candidatesID",
							"type": "uint256[]"
						},
						{
							"internalType": "bool",
							"name": "VotingStarted",
							"type": "bool"
						},
						{
							"internalType": "bool",
							"name": "VotingEnded",
							"type": "bool"
						},
						{
							"internalType": "bool",
							"name": "VotesCounted",
							"type": "bool"
						},
						{
							"internalType": "bool",
							"name": "isResultPublic",
							"type": "bool"
						}
					],
					"internalType": "struct Zurit.Election[]",
					"name": "",
					"type": "tuple[]"
				}
			],
			"stateMutability": "view",
			"type": "function"
		},
		{
			"inputs": [
				{
					"internalType": "address",
					"name": "",
					"type": "address"
				}
			],
			"name": "stakeholders",
			"outputs": [
				{
					"internalType": "bool",
					"name": "isRegistered",
					"type": "bool"
				},
				{
					"internalType": "bool",
					"name": "hasVoted",
					"type": "bool"
				},
				{
					"internalType": "uint256",
					"name": "votedCandidateId",
					"type": "uint256"
				}
			],
			"stateMutability": "view",
			"type": "function"
		},
		{
			"inputs": [
				{
					"internalType": "string",
					"name": "_category",
					"type": "string"
				}
			],
			"name": "startVotingSession",
			"outputs": [],
			"stateMutability": "nonpayable",
			"type": "function"
		},
		{
			"inputs": [
				{
					"internalType": "address",
					"name": "",
					"type": "address"
				}
			],
			"name": "student",
			"outputs": [
				{
					"internalType": "bool",
					"name": "",
					"type": "bool"
				}
			],
			"stateMutability": "view",
			"type": "function"
		},
		{
			"inputs": [
				{
					"internalType": "uint256",
					"name": "",
					"type": "uint256"
				}
			],
			"name": "students",
			"outputs": [
				{
					"internalType": "address",
					"name": "",
					"type": "address"
				}
			],
			"stateMutability": "view",
			"type": "function"
		},
		{
			"inputs": [
				{
					"internalType": "address",
					"name": "",
					"type": "address"
				}
			],
			"name": "teacher",
			"outputs": [
				{
					"internalType": "bool",
					"name": "",
					"type": "bool"
				}
			],
			"stateMutability": "view",
			"type": "function"
		},
		{
			"inputs": [
				{
					"internalType": "uint256",
					"name": "",
					"type": "uint256"
				}
			],
			"name": "teachers",
			"outputs": [
				{
					"internalType": "address",
					"name": "",
					"type": "address"
				}
			],
			"stateMutability": "view",
			"type": "function"
		},
		{
			"inputs": [
				{
					"internalType": "string",
					"name": "_role",
					"type": "string"
				},
				{
					"internalType": "address[]",
					"name": "_address",
					"type": "address[]"
				}
			],
			"name": "uploadStakeHolder",
			"outputs": [],
			"stateMutability": "nonpayable",
			"type": "function"
		},
		{
			"inputs": [
				{
					"internalType": "string",
					"name": "_category",
					"type": "string"
				},
				{
					"internalType": "uint256",
					"name": "_candidateID",
					"type": "uint256"
				}
			],
			"name": "vote",
			"outputs": [
				{
					"internalType": "string",
					"name": "",
					"type": "string"
				},
				{
					"internalType": "uint256",
					"name": "",
					"type": "uint256"
				}
			],
			"stateMutability": "nonpayable",
			"type": "function"
		},
		{
			"inputs": [
				{
					"internalType": "uint256",
					"name": "",
					"type": "uint256"
				},
				{
					"internalType": "address",
					"name": "",
					"type": "address"
				}
			],
			"name": "votedForCategory",
			"outputs": [
				{
					"internalType": "bool",
					"name": "",
					"type": "bool"
				}
			],
			"stateMutability": "view",
			"type": "function"
		},
		{
			"inputs": [
				{
					"internalType": "uint256",
					"name": "",
					"type": "uint256"
				},
				{
					"internalType": "uint256",
					"name": "",
					"type": "uint256"
				}
			],
			"name": "votesForCategory",
			"outputs": [
				{
					"internalType": "uint256",
					"name": "",
					"type": "uint256"
				}
			],
			"stateMutability": "view",
			"type": "function"
		},
		{
			"inputs": [],
			"name": "zstoken",
			"outputs": [
				{
					"internalType": "contract ZuriSchoolToken",
					"name": "",
					"type": "address"
				}
			],
			"stateMutability": "view",
			"type": "function"
		}
	]
}