{
	"data": {
		"bytecode": {
			"linkReferences": {},
			"object": "6080604052600060025560016005553480156200001b57600080fd5b50604051620036ce380380620036ce8339810160408190526200003e91620001bc565b600080546001600160a01b03199081166001600160a01b03841617825560018054339216821781556040805160e081018252600860a082018181526731b430b4b936b0b760c11b60c0840152825260208083019490945281830186905260608201869052600460808301529385529282529092208151805192939192620000c9928492019062000116565b506020820151600182018054604085015115156101000261ff00199315159390931661ffff199091161791909117905560608201516002820155608090910151600390910155506200022a565b8280546200012490620001ee565b90600052602060002090601f01602090048101928262000148576000855562000193565b82601f106200016357805160ff191683800117855562000193565b8280016001018555821562000193579182015b828111156200019357825182559160200191906001019062000176565b50620001a1929150620001a5565b5090565b5b80821115620001a15760008155600101620001a6565b600060208284031215620001cf57600080fd5b81516001600160a01b0381168114620001e757600080fd5b9392505050565b600181811c908216806200020357607f821691505b6020821081036200022457634e487b7160e01b600052602260045260246000fd5b50919050565b613494806200023a6000396000f3fe608060405234801561001057600080fd5b50600436106101ce5760003560e01c80636c53747111610104578063a6385803116100a2578063c6cdbe5e11610071578063c6cdbe5e1461048c578063e8101869146104ac578063f74e0eac146104bf578063fc177e30146104ed57600080fd5b8063a638580314610413578063a672601d14610434578063c00ce9ff14610447578063c07cfca91461046857600080fd5b806387f7b975116100de57806387f7b975146103ba5780638b132066146103cd5780638c1b0d51146103f8578063a25c891c1461040057600080fd5b80636c537471146103695780637026fe9c14610394578063764926db146103a757600080fd5b806316c61ccc1161017157806332b773a51161014b57806332b773a5146102e75780633477ee2e146102fa578063402847531461031d57806344fb5a1a1461033e57600080fd5b806316c61ccc1461029e57806319f3a50e146102bb5780632d35a8a2146102d057600080fd5b80630b5f42da116101ad5780630b5f42da146102385780630b92dfa0146102635780630dbce4dd1461027857806316c38b3c1461028b57600080fd5b8062d195fd146101d357806306a49fce14610201578063073b1f5914610216575b600080fd5b6101e66101e1366004612ab2565b610500565b6040516101f896959493929190612b27565b60405180910390f35b6102096105e2565b6040516101f89190612bfc565b610229610224366004612cc6565b610780565b6040516101f893929190612d03565b60005461024b906001600160a01b031681565b6040516001600160a01b0390911681526020016101f8565b610276610271366004612d2b565b610cfc565b005b610276610286366004612dc9565b610f3e565b610276610299366004612e2d565b6110f9565b6006546102ab9060ff1681565b60405190151581526020016101f8565b6102c3611136565b6040516101f89190612e4f565b6102d960025481565b6040519081526020016101f8565b6101e66102f5366004612cc6565b6112f1565b61030d610308366004612ab2565b611317565b6040516101f89493929190612f38565b61033061032b366004612cc6565b6113c8565b6040516101f8929190612f64565b6102d961034c366004612cc6565b8051602081830181018051600c8252928201919093012091525481565b6102d9610377366004612f86565b600b60209081526000928352604080842090915290825290205481565b6102ab6103a2366004612fbf565b611635565b6102766103b5366004612cc6565b61170e565b60015461024b906001600160a01b031681565b6102d96103db366004612cc6565b8051602081830181018051600f8252928201919093012091525481565b61027661198b565b6102ab61040e36600461300d565b6119e6565b6104266104213660046130d7565b611b95565b6040516101f892919061311c565b610276610442366004612cc6565b611f76565b61045a610455366004612cc6565b61208f565b6040516101f892919061312f565b61047b610476366004613154565b6123d6565b6040516101f895949392919061316f565b61049f61049a366004612ab2565b612493565b6040516101f891906131a6565b6102766104ba366004613154565b61253f565b6102ab6104cd3660046131b9565b600a60209081526000928352604080842090915290825290205460ff1681565b61049f6104fb366004612cc6565b612715565b6007818154811061051057600080fd5b9060005260206000209060040201600091509050806000018054610533906131dc565b80601f016020809104026020016040519081016040528092919081815260200182805461055f906131dc565b80156105ac5780601f10610581576101008083540402835291602001916105ac565b820191906000526020600020905b81548152906001019060200180831161058f57829003601f168201915b5050506002840154600390940154929360ff80821694610100830482169450620100008304821693506301000000909204169086565b6060600060025467ffffffffffffffff81111561060157610601612c0f565b60405190808252806020026020018201604052801561065d57816020015b61064a6040518060800160405280600081526020016060815260200160008152602001600081525090565b81526020019060019003908161061f5790505b50905060005b60025481101561077a57600060098161067d846001613226565b8152602001908152602001600020905080604051806080016040529081600082015481526020016001820180546106b3906131dc565b80601f01602080910402602001604051908101604052809291908181526020018280546106df906131dc565b801561072c5780601f106107015761010080835404028352916020019161072c565b820191906000526020600020905b81548152906001019060200180831161070f57829003601f168201915b505050505081526020016002820154815260200160038201548152505083838151811061075b5761075b61323e565b602002602001018190525050808061077290613254565b915050610663565b50919050565b60015460009081906060906001600160a01b031633148061085e5750336000908152600860205260409020805461085e91906107bb906131dc565b80601f01602080910402602001604051908101604052809291908181526020018280546107e7906131dc565b80156108345780601f1061080957610100808354040283529160200191610834565b820191906000526020600020905b81548152906001019060200180831161081757829003601f168201915b5050505050604051806040016040528060078152602001663a32b0b1b432b960c91b81525061280f565b6108835760405162461bcd60e51b815260040161087a9061326d565b60405180910390fd5b60065460ff16156108a65760405162461bcd60e51b815260040161087a906132bb565b600e846040516108b691906132f2565b9081526040519081900360200190206002015460ff6101009091041615156001146109335760405162461bcd60e51b815260206004820152602760248201527f546869732073657373696f6e206973207374696c6c2061637469766520666f7260448201526620766f74696e6760c81b606482015260840161087a565b60008060008060009050600060025467ffffffffffffffff81111561095a5761095a612c0f565b6040519080825280602002602001820160405280156109b657816020015b6109a36040518060800160405280600081526020016060815260200160008152602001600081525090565b8152602001906001900390816109785790505b50905060005b600254811015610bc157600c8a6040516109d691906132f2565b90815260405190819003602001902054600960006109f5846001613226565b81526020019081526020016000206002015403610baf5760096000610a1b836001613226565b81526020019081526020016000206003015485610a389190613226565b94508560096000610a4a846001613226565b8152602001908152602001600020600301541115610baf5760096000610a71836001613226565b8152602001908152602001600020600301549550600060096000836001610a989190613226565b815260200190815260200160002060000154905080945060006009600083815260200190815260200160002090508060405180608001604052908160008201548152602001600182018054610aec906131dc565b80601f0160208091040260200160405190810160405280929190818152602001828054610b18906131dc565b8015610b655780601f10610b3a57610100808354040283529160200191610b65565b820191906000526020600020905b815481529060010190602001808311610b4857829003601f168201915b5050505050815260200160028201548152602001600382015481525050848681518110610b9457610b9461323e565b6020908102919091010152610baa600186613226565b945050505b80610bb981613254565b9150506109bc565b5083600e8a604051610bd391906132f2565b9081526020016040518091039020600301819055506001600e8a604051610bfa91906132f2565b908152602001604051809103902060020160026101000a81548160ff0219169083151502179055506000600f8a604051610c3491906132f2565b9081526020016040518091039020549050600160078281548110610c5a57610c5a61323e565b906000526020600020906004020160020160026101000a81548160ff02191690831515021790555060096000858152602001908152602001600020600d8b604051610ca591906132f2565b908152604051908190036020019020815481556001808301805491830191610ccc906131dc565b610cd7929190612868565b5060028281015490820155600391820154910155509298939750919550919350505050565b6001546001600160a01b0316331480610d2f57503360009081526008602052604090208054610d2f91906107bb906131dc565b610d4b5760405162461bcd60e51b815260040161087a9061326d565b60065460ff1615610d6e5760405162461bcd60e51b815260040161087a906132bb565b80610dbb5760405162461bcd60e51b815260206004820152601960248201527f55706c6f6164206172726179206f662061646472657373657300000000000000604482015260640161087a565b60005b81811015610efc5760086000848484818110610ddc57610ddc61323e565b9050602002016020810190610df19190613154565b6001600160a01b03168152602081019190915260400160009081206001015460ff1615159003610eea576040518060a00160405280868152602001600115158152602001600015158152602001600081526020018581525060086000858585818110610e5f57610e5f61323e565b9050602002016020810190610e749190613154565b6001600160a01b03168152602080820192909252604001600020825180519192610ea3928492909101906128f3565b506020820151600182018054604085015115156101000261ff00199315159390931661ffff1990911617919091179055606082015160028201556080909101516003909101555b80610ef481613254565b915050610dbe565b507fdb5c245ee0521674ade89200cc3647a9590af2330e581dd656dce39d2354107c848383604051610f309392919061330e565b60405180910390a150505050565b6001546001600160a01b0316331480610f7157503360009081526008602052604090208054610f7191906107bb906131dc565b610f8d5760405162461bcd60e51b815260040161087a9061326d565b60065460ff1615610fb05760405162461bcd60e51b815260040161087a906132bb565b600c81604051610fc091906132f2565b90815260200160405180910390205460000361101e5760405162461bcd60e51b815260206004820152601a60248201527f43617465676f727920646f6573206e6f742065786973742e2e2e000000000000604482015260640161087a565b6002805490600061102e83613254565b919050555060405180608001604052806002548152602001838152602001600c8360405161105c91906132f2565b908152604080516020928190038301902054835260009282018390526002548352600982529091208251815582820151805191926110a2926001850192909101906128f3565b5060408201518160020155606082015181600301559050507ff23ce42eb3d2878c26ab610ef7d3edf80e07cfb6568d4028550637f27c73db416002546040516110ed91815260200190565b60405180910390a15050565b6001546001600160a01b031633146111235760405162461bcd60e51b815260040161087a9061336f565b6006805460ff1916911515919091179055565b60065460609060ff161561115c5760405162461bcd60e51b815260040161087a906132bb565b6007805480602002602001604051908101604052809291908181526020016000905b828210156112e857838290600052602060002090600402016040518060e00160405290816000820180546111b1906131dc565b80601f01602080910402602001604051908101604052809291908181526020018280546111dd906131dc565b801561122a5780601f106111ff5761010080835404028352916020019161122a565b820191906000526020600020905b81548152906001019060200180831161120d57829003601f168201915b505050505081526020016001820180548060200260200160405190810160405280929190818152602001828054801561128257602002820191906000526020600020905b81548152602001906001019080831161126e575b5050509183525050600282015460ff808216151560208085019190915261010083048216151560408501526201000083048216151560608501526301000000909204161515608083015260039092015460a090910152908252600192909201910161117e565b50505050905090565b8051602081830181018051600e82529282019190930120915280548190610533906131dc565b60096020526000908152604090208054600182018054919291611339906131dc565b80601f0160208091040260200160405190810160405280929190818152602001828054611365906131dc565b80156113b25780601f10611387576101008083540402835291602001916113b2565b820191906000526020600020905b81548152906001019060200180831161139557829003601f168201915b5050505050908060020154908060030154905084565b6113f36040518060800160405280600081526020016060815260200160008152602001600081525090565b600082600e8160405161140691906132f2565b9081526040516020918190039190910190206002015462010000900460ff1615156001146114895760405162461bcd60e51b815260206004820152602a60248201527f4f6e6c7920616c6c6f77656420616674657220766f7465732068617665206265604482015269195b8818dbdd5b9d195960b21b606482015260840161087a565b60065460ff16156114ac5760405162461bcd60e51b815260040161087a906132bb565b600e846040516114bc91906132f2565b908152604051602091819003919091019020600201546301000000900460ff16151560011461152d5760405162461bcd60e51b815260206004820152601860248201527f526573756c74206973206e6f7420796574207075626c69630000000000000000604482015260640161087a565b600d8460405161153d91906132f2565b9081526020016040518091039020600e8560405161155b91906132f2565b9081526020016040518091039020600301548160405180608001604052908160008201548152602001600182018054611593906131dc565b80601f01602080910402602001604051908101604052809291908181526020018280546115bf906131dc565b801561160c5780601f106115e15761010080835404028352916020019161160c565b820191906000526020600020905b8154815290600101906020018083116115ef57829003601f168201915b505050505081526020016002820154815260200160038201548152505091509250925050915091565b60065460009060ff161561165b5760405162461bcd60e51b815260040161087a906132bb565b6001600160a01b03821660009081526008602052604090208054611707918591611684906131dc565b80601f01602080910402602001604051908101604052809291908181526020018280546116b0906131dc565b80156116fd5780601f106116d2576101008083540402835291602001916116fd565b820191906000526020600020905b8154815290600101906020018083116116e057829003601f168201915b505050505061280f565b9392505050565b6001546001600160a01b031633146117385760405162461bcd60e51b815260040161087a9061336f565b60065460ff161561175b5760405162461bcd60e51b815260040161087a906132bb565b6000600f8260405161176d91906132f2565b90815260200160405180910390205410156117c35760405162461bcd60e51b81526020600482015260166024820152751b9bc81cdd58da0818d85d1959dbdc9e48195e1a5cdd60521b604482015260640161087a565b6000600f826040516117d591906132f2565b9081526020016040518091039020549050600781815481106117f9576117f961323e565b9060005260206000209060040201600e8360405161181791906132f2565b908152604051908190036020019020815481908390611835906131dc565b611840929190612868565b50600182810180546118559284019190612967565b5060028281018054918301805460ff938416151560ff19821681178355835461010090819004861615150261ff001990911661ffff19909216919091171780825582546201000090819004851615150262ff0000198216811783559254630100000090819004909416151590930263ff0000001990921663ffff000019909316929092171790556003918201549101556007805460019190839081106118fd576118fd61323e565b906000526020600020906004020160020160006101000a81548160ff0219169083151502179055506001600e8360405161193791906132f2565b908152604051908190036020018120600201805492151560ff19909316929092179091557f226e81a7d3388de1ec48d35e19f2946db8a13c1df85088428a21a00a75fbfcdc906110ed9084906001906133b2565b6001546001600160a01b031633146119b55760405162461bcd60e51b815260040161087a9061336f565b60065460ff16156119d85760405162461bcd60e51b815260040161087a906132bb565b6119e4600760006129a6565b565b6001546000906001600160a01b0316331480611a1c57503360009081526008602052604090208054611a1c91906107bb906131dc565b611a385760405162461bcd60e51b815260040161087a9061326d565b60065460ff1615611a5b5760405162461bcd60e51b815260040161087a906132bb565b6007546040518190600f90611a719087906132f2565b9081526040805191829003602090810183209390935560e0820181528682528183018690526000908201819052606082018190526080820181905260a0820181905260c0820181905260078054600181018255915281518051929360049092027fa66cc928b5edb82af9bd49922954155ab7b0942694bea4ce44661d9a8736c6880192611b0192849201906128f3565b506020828101518051611b1a92600185019201906129ca565b5060408201516002820180546060850151608086015160a0870151151563010000000263ff0000001991151562010000029190911663ffff0000199215156101000261ff00199615159690961661ffff199094169390931794909417161791909117905560c090910151600390910155506001905092915050565b336000908152600860205260408120600101546060919060ff16611c075760405162461bcd60e51b8152602060048201526024808201527f596f75206d75737420626520612072656769737465726564207374616b65686f604482015263363232b960e11b606482015260840161087a565b60065460ff1615611c2a5760405162461bcd60e51b815260040161087a906132bb565b600e84604051611c3a91906132f2565b9081526040519081900360200190206002015460ff161515600114611c715760405162461bcd60e51b815260040161087a906133d6565b600e84604051611c8191906132f2565b9081526040519081900360200190206002015460ff6101009091041615611cba5760405162461bcd60e51b815260040161087a906133d6565b600a6000600c86604051611cce91906132f2565b9081526040805160209281900383019020548352828201939093529082016000908120338252909152205460ff1615611d545760405162461bcd60e51b815260206004820152602260248201527f43616e6e6f7420766f746520747769636520666f7220612063617465676f7279604482015261171760f11b606482015260840161087a565b33600081815260086020526040808220600101805461ff001916610100179055905490516370a0823160e01b81526004810192909252670de0b6b3a7640000916001600160a01b03909116906370a0823190602401602060405180830381865afa158015611dc6573d6000803e3d6000fd5b505050506040513d601f19601f82011682018060405250810190611dea9190613421565b11611e695760405162461bcd60e51b815260206004820152604360248201527f596f75522062616c616e63652069732063757272656e746c79206e6f7420737560448201527f6666696369656e7420746f20766f74652e204e6f742061207374616b65686f6c6064820152623232b960e91b608482015260a40161087a565b33600090815260086020908152604080832060030154868452600b90925280832090518390600c90611e9c908a906132f2565b90815260200160405180910390205481526020019081526020016000206000828254611ec89190613226565b91829055506000868152600960205260408082206003018390555191935060019250600a91600c90611efb908a906132f2565b9081526040805160209281900383019020548352828201939093529082016000908120338083529252829020805460ff191693151593909317909255517f7cf072052f53d68961097943ed95e47f628a7e51e185d0fa17786de527f4d8ee91611f6591889061343a565b60405180910390a150929391925050565b6001546001600160a01b03163314611fa05760405162461bcd60e51b815260040161087a9061336f565b60065460ff1615611fc35760405162461bcd60e51b815260040161087a906132bb565b6001600e82604051611fd591906132f2565b908152602001604051809103902060020160016101000a81548160ff0219169083151502179055506000600f8260405161200f91906132f2565b90815260200160405180910390205490506001600782815481106120355761203561323e565b906000526020600020906004020160020160016101000a81548160ff0219169083151502179055507f094a0eb701f9537e6884c310036f392249d21a74c75e75f5fc9987afc23f77588260016040516110ed9291906133b2565b6120ba6040518060800160405280600081526020016060815260200160008152602001600081525090565b6001546060906001600160a01b03163314806120f0575033600090815260086020526040902080546120f091906107bb906131dc565b806121b9575033600090815260086020526040902080546121b99190612115906131dc565b80601f0160208091040260200160405190810160405280929190818152602001828054612141906131dc565b801561218e5780601f106121635761010080835404028352916020019161218e565b820191906000526020600020905b81548152906001019060200180831161217157829003601f168201915b5050505050604051806040016040528060088152602001673234b932b1ba37b960c11b81525061280f565b61222b5760405162461bcd60e51b815260206004820152603860248201527f416363657373206772616e74656420746f206f6e6c792074686520636861697260448201527f6d616e2c2074656163686572206f72206469726563746f720000000000000000606482015260840161087a565b60065460ff161561224e5760405162461bcd60e51b815260040161087a906132bb565b600e8360405161225e91906132f2565b9081526040516020918190039190910190206002015462010000900460ff1615156001146122f45760405162461bcd60e51b815260206004820152603d60248201527f546869732073657373696f6e206973207374696c6c206163746976652c20766f60448201527f74696e6720686173206e6f7420796574206265656e20636f756e746564000000606482015260840161087a565b6000600f8460405161230691906132f2565b908152602001604051809103902054905060016007828154811061232c5761232c61323e565b906000526020600020906004020160020160036101000a81548160ff0219169083151502179055506001600e8560405161236691906132f2565b908152604051908190036020018120600201805492151563010000000263ff0000001990931692909217909155600d906123a19086906132f2565b9081526020016040518091039020848160405180608001604052908160008201548152602001600182018054611593906131dc565b6008602052600090815260409020805481906123f1906131dc565b80601f016020809104026020016040519081016040528092919081815260200182805461241d906131dc565b801561246a5780601f1061243f5761010080835404028352916020019161246a565b820191906000526020600020905b81548152906001019060200180831161244d57829003601f168201915b50505060018401546002850154600390950154939460ff80831695610100909304169350915085565b600481815481106124a357600080fd5b9060005260206000200160009150905080546124be906131dc565b80601f01602080910402602001604051908101604052809291908181526020018280546124ea906131dc565b80156125375780601f1061250c57610100808354040283529160200191612537565b820191906000526020600020905b81548152906001019060200180831161251a57829003601f168201915b505050505081565b6001546001600160a01b031633146125695760405162461bcd60e51b815260040161087a9061336f565b60065460ff161561258c5760405162461bcd60e51b815260040161087a906132bb565b6001600160a01b038116600090815260086020526040902060019081015460ff1615151461261a5760405162461bcd60e51b815260206004820152603560248201527f43616e27742061737369676e206120726f6c65206f662063686169726d616e206044820152743a379030903737b71039ba30b5b2b437b63232b91760591b606482015260840161087a565b60408051808201825260088082526731b430b4b936b0b760c11b60208084019182526001600160a01b0386166000908152929052929020905161265d92906128f3565b506040805180820182526008808252673234b932b1ba37b960c11b6020808401918252336000908152929052929020905161269892906128f3565b5033600081815260086020908152604080832060039081018190556001600160a01b038616808552938290206004910155600180546001600160a01b031916841790558051938452908301919091527f9f74f4499e58a849c37599cb9ca3e78131f42231af29d39292c4ccec633a07a3910160405180910390a150565b6001546060906001600160a01b031633148061274b5750336000908152600860205260409020805461274b91906107bb906131dc565b6127675760405162461bcd60e51b815260040161087a9061326d565b60065460ff161561278a5760405162461bcd60e51b815260040161087a906132bb565b6004805460018101825560009190915282516127cd917f8a35acfbc15ff81a39ae7d344fd709f28e8600b4aa8c65c6b64bfe7fe36bd19b019060208501906128f3565b50600554600c836040516127e191906132f2565b908152604051908190036020019020556005805490600061280183613254565b91905055508190505b919050565b60008160405160200161282291906132f2565b604051602081830303815290604052805190602001208360405160200161284991906132f2565b6040516020818303038152906040528051906020012014905092915050565b828054612874906131dc565b90600052602060002090601f01602090048101928261289657600085556128e3565b82601f106128a757805485556128e3565b828001600101855582156128e357600052602060002091601f016020900482015b828111156128e35782548255916001019190600101906128c8565b506128ef929150612a04565b5090565b8280546128ff906131dc565b90600052602060002090601f01602090048101928261292157600085556128e3565b82601f1061293a57805160ff19168380011785556128e3565b828001600101855582156128e3579182015b828111156128e357825182559160200191906001019061294c565b8280548282559060005260206000209081019282156128e3576000526020600020918201828111156128e35782548255916001019190600101906128c8565b50805460008255600402906000526020600020908101906129c79190612a19565b50565b8280548282559060005260206000209081019282156128e357916020028201828111156128e357825182559160200191906001019061294c565b5b808211156128ef5760008155600101612a05565b808211156128ef576000612a2d8282612a5a565b612a3b600183016000612a94565b5060028101805463ffffffff1916905560006003820155600401612a19565b508054612a66906131dc565b6000825580601f10612a76575050565b601f0160209004906000526020600020908101906129c79190612a04565b50805460008255906000526020600020908101906129c79190612a04565b600060208284031215612ac457600080fd5b5035919050565b60005b83811015612ae6578181015183820152602001612ace565b83811115612af5576000848401525b50505050565b60008151808452612b13816020860160208601612acb565b601f01601f19169290920160200192915050565b60c081526000612b3a60c0830189612afb565b961515602083015250931515604085015291151560608401521515608083015260a090910152919050565b805182526000602082015160806020850152612b846080850182612afb565b905060408301516040850152606083015160608501528091505092915050565b600082825180855260208086019550808260051b84010181860160005b84811015612bef57601f19868403018952612bdd838351612b65565b98840198925090830190600101612bc1565b5090979650505050505050565b6020815260006117076020830184612ba4565b634e487b7160e01b600052604160045260246000fd5b604051601f8201601f1916810167ffffffffffffffff81118282101715612c4e57612c4e612c0f565b604052919050565b600082601f830112612c6757600080fd5b813567ffffffffffffffff811115612c8157612c81612c0f565b612c94601f8201601f1916602001612c25565b818152846020838601011115612ca957600080fd5b816020850160208301376000918101602001919091529392505050565b600060208284031215612cd857600080fd5b813567ffffffffffffffff811115612cef57600080fd5b612cfb84828501612c56565b949350505050565b838152826020820152606060408201526000612d226060830184612ba4565b95945050505050565b60008060008060608587031215612d4157600080fd5b843567ffffffffffffffff80821115612d5957600080fd5b612d6588838901612c56565b9550602087013594506040870135915080821115612d8257600080fd5b818701915087601f830112612d9657600080fd5b813581811115612da557600080fd5b8860208260051b8501011115612dba57600080fd5b95989497505060200194505050565b60008060408385031215612ddc57600080fd5b823567ffffffffffffffff80821115612df457600080fd5b612e0086838701612c56565b93506020850135915080821115612e1657600080fd5b50612e2385828601612c56565b9150509250929050565b600060208284031215612e3f57600080fd5b8135801515811461170757600080fd5b60006020808301818452808551808352604092508286019150828160051b8701018488016000805b84811015612f2957603f198a8503018652825160e08151818752612e9d82880182612afb565b838c0151888203898e01528051808352908d019350869250908c01905b80831015612eda5783518252928c019260019290920191908c0190612eba565b50838b01511515888c015260608085015115159089015260808085015115159089015260a08085015115159089015260c093840151939097019290925250509487019491870191600101612e77565b50919998505050505050505050565b848152608060208201526000612f516080830186612afb565b6040830194909452506060015292915050565b604081526000612f776040830185612b65565b90508260208301529392505050565b60008060408385031215612f9957600080fd5b50508035926020909101359150565b80356001600160a01b038116811461280a57600080fd5b60008060408385031215612fd257600080fd5b823567ffffffffffffffff811115612fe957600080fd5b612ff585828601612c56565b92505061300460208401612fa8565b90509250929050565b6000806040838503121561302057600080fd5b823567ffffffffffffffff8082111561303857600080fd5b61304486838701612c56565b935060209150818501358181111561305b57600080fd5b8501601f8101871361306c57600080fd5b80358281111561307e5761307e612c0f565b8060051b925061308f848401612c25565b81815292820184019284810190898511156130a957600080fd5b928501925b848410156130c7578335825292850192908501906130ae565b8096505050505050509250929050565b600080604083850312156130ea57600080fd5b823567ffffffffffffffff81111561310157600080fd5b61310d85828601612c56565b95602094909401359450505050565b604081526000612f776040830185612afb565b6040815260006131426040830185612b65565b8281036020840152612d228185612afb565b60006020828403121561316657600080fd5b61170782612fa8565b60a08152600061318260a0830188612afb565b95151560208301525092151560408401526060830191909152608090910152919050565b6020815260006117076020830184612afb565b600080604083850312156131cc57600080fd5b8235915061300460208401612fa8565b600181811c908216806131f057607f821691505b60208210810361077a57634e487b7160e01b600052602260045260246000fd5b634e487b7160e01b600052601160045260246000fd5b6000821982111561323957613239613210565b500190565b634e487b7160e01b600052603260045260246000fd5b60006001820161326657613266613210565b5060010190565b6020808252602e908201527f416363657373206772616e74656420746f206f6e6c792074686520636861697260408201526d36b0b71037b9103a32b0b1b432b960911b606082015260800190565b6020808252601c908201527f436f6e74726163742069732063757272656e746c792070617573656400000000604082015260600190565b60008251613304818460208701612acb565b9190910192915050565b6040815260006133216040830186612afb565b8281036020848101919091528482528591810160005b86811015613363576001600160a01b0361335085612fa8565b1682529282019290820190600101613337565b50979650505050505050565b60208082526023908201527f416363657373206772616e74656420746f206f6e6c792074686520636861697260408201526236b0b760e91b606082015260800190565b6040815260006133c56040830185612afb565b905082151560208301529392505050565b6020808252602b908201527f566f74696e6720686173206e6f7420636f6d6d6d656e63656420666f7220746860408201526a69732043617465676f727960a81b606082015260800190565b60006020828403121561343357600080fd5b5051919050565b6001600160a01b0383168152604060208201819052600090612cfb90830184612afb56fea264697066735822122024429ae1449c9cd0a0f9905bcd6fd68bcf84f92a42c05656f34bf4511f0176a964736f6c634300080d0033",
			"opcodes": "PUSH1 0x80 PUSH1 0x40 MSTORE PUSH1 0x0 PUSH1 0x2 SSTORE PUSH1 0x1 PUSH1 0x5 SSTORE CALLVALUE DUP1 ISZERO PUSH3 0x1B JUMPI PUSH1 0x0 DUP1 REVERT JUMPDEST POP PUSH1 0x40 MLOAD PUSH3 0x36CE CODESIZE SUB DUP1 PUSH3 0x36CE DUP4 CODECOPY DUP2 ADD PUSH1 0x40 DUP2 SWAP1 MSTORE PUSH3 0x3E SWAP2 PUSH3 0x1BC JUMP JUMPDEST PUSH1 0x0 DUP1 SLOAD PUSH1 0x1 PUSH1 0x1 PUSH1 0xA0 SHL SUB NOT SWAP1 DUP2 AND PUSH1 0x1 PUSH1 0x1 PUSH1 0xA0 SHL SUB DUP5 AND OR DUP3 SSTORE PUSH1 0x1 DUP1 SLOAD CALLER SWAP3 AND DUP3 OR DUP2 SSTORE PUSH1 0x40 DUP1 MLOAD PUSH1 0xE0 DUP2 ADD DUP3 MSTORE PUSH1 0x8 PUSH1 0xA0 DUP3 ADD DUP2 DUP2 MSTORE PUSH8 0x31B430B4B936B0B7 PUSH1 0xC1 SHL PUSH1 0xC0 DUP5 ADD MSTORE DUP3 MSTORE PUSH1 0x20 DUP1 DUP4 ADD SWAP5 SWAP1 SWAP5 MSTORE DUP2 DUP4 ADD DUP7 SWAP1 MSTORE PUSH1 0x60 DUP3 ADD DUP7 SWAP1 MSTORE PUSH1 0x4 PUSH1 0x80 DUP4 ADD MSTORE SWAP4 DUP6 MSTORE SWAP3 DUP3 MSTORE SWAP1 SWAP3 KECCAK256 DUP2 MLOAD DUP1 MLOAD SWAP3 SWAP4 SWAP2 SWAP3 PUSH3 0xC9 SWAP3 DUP5 SWAP3 ADD SWAP1 PUSH3 0x116 JUMP JUMPDEST POP PUSH1 0x20 DUP3 ADD MLOAD PUSH1 0x1 DUP3 ADD DUP1 SLOAD PUSH1 0x40 DUP6 ADD MLOAD ISZERO ISZERO PUSH2 0x100 MUL PUSH2 0xFF00 NOT SWAP4 ISZERO ISZERO SWAP4 SWAP1 SWAP4 AND PUSH2 0xFFFF NOT SWAP1 SWAP2 AND OR SWAP2 SWAP1 SWAP2 OR SWAP1 SSTORE PUSH1 0x60 DUP3 ADD MLOAD PUSH1 0x2 DUP3 ADD SSTORE PUSH1 0x80 SWAP1 SWAP2 ADD MLOAD PUSH1 0x3 SWAP1 SWAP2 ADD SSTORE POP PUSH3 0x22A JUMP JUMPDEST DUP3 DUP1 SLOAD PUSH3 0x124 SWAP1 PUSH3 0x1EE JUMP JUMPDEST SWAP1 PUSH1 0x0 MSTORE PUSH1 0x20 PUSH1 0x0 KECCAK256 SWAP1 PUSH1 0x1F ADD PUSH1 0x20 SWAP1 DIV DUP2 ADD SWAP3 DUP3 PUSH3 0x148 JUMPI PUSH1 0x0 DUP6 SSTORE PUSH3 0x193 JUMP JUMPDEST DUP3 PUSH1 0x1F LT PUSH3 0x163 JUMPI DUP1 MLOAD PUSH1 0xFF NOT AND DUP4 DUP1 ADD OR DUP6 SSTORE PUSH3 0x193 JUMP JUMPDEST DUP3 DUP1 ADD PUSH1 0x1 ADD DUP6 SSTORE DUP3 ISZERO PUSH3 0x193 JUMPI SWAP2 DUP3 ADD JUMPDEST DUP3 DUP2 GT ISZERO PUSH3 0x193 JUMPI DUP3 MLOAD DUP3 SSTORE SWAP2 PUSH1 0x20 ADD SWAP2 SWAP1 PUSH1 0x1 ADD SWAP1 PUSH3 0x176 JUMP JUMPDEST POP PUSH3 0x1A1 SWAP3 SWAP2 POP PUSH3 0x1A5 JUMP JUMPDEST POP SWAP1 JUMP JUMPDEST JUMPDEST DUP1 DUP3 GT ISZERO PUSH3 0x1A1 JUMPI PUSH1 0x0 DUP2 SSTORE PUSH1 0x1 ADD PUSH3 0x1A6 JUMP JUMPDEST PUSH1 0x0 PUSH1 0x20 DUP3 DUP5 SUB SLT ISZERO PUSH3 0x1CF JUMPI PUSH1 0x0 DUP1 REVERT JUMPDEST DUP2 MLOAD PUSH1 0x1 PUSH1 0x1 PUSH1 0xA0 SHL SUB DUP2 AND DUP2 EQ PUSH3 0x1E7 JUMPI PUSH1 0x0 DUP1 REVERT JUMPDEST SWAP4 SWAP3 POP POP POP JUMP JUMPDEST PUSH1 0x1 DUP2 DUP2 SHR SWAP1 DUP3 AND DUP1 PUSH3 0x203 JUMPI PUSH1 0x7F DUP3 AND SWAP2 POP JUMPDEST PUSH1 0x20 DUP3 LT DUP2 SUB PUSH3 0x224 JUMPI PUSH4 0x4E487B71 PUSH1 0xE0 SHL PUSH1 0x0 MSTORE PUSH1 0x22 PUSH1 0x4 MSTORE PUSH1 0x24 PUSH1 0x0 REVERT JUMPDEST POP SWAP2 SWAP1 POP JUMP JUMPDEST PUSH2 0x3494 DUP1 PUSH3 0x23A PUSH1 0x0 CODECOPY PUSH1 0x0 RETURN INVALID PUSH1 0x80 PUSH1 0x40 MSTORE CALLVALUE DUP1 ISZERO PUSH2 0x10 JUMPI PUSH1 0x0 DUP1 REVERT JUMPDEST POP PUSH1 0x4 CALLDATASIZE LT PUSH2 0x1CE JUMPI PUSH1 0x0 CALLDATALOAD PUSH1 0xE0 SHR DUP1 PUSH4 0x6C537471 GT PUSH2 0x104 JUMPI DUP1 PUSH4 0xA6385803 GT PUSH2 0xA2 JUMPI DUP1 PUSH4 0xC6CDBE5E GT PUSH2 0x71 JUMPI DUP1 PUSH4 0xC6CDBE5E EQ PUSH2 0x48C JUMPI DUP1 PUSH4 0xE8101869 EQ PUSH2 0x4AC JUMPI DUP1 PUSH4 0xF74E0EAC EQ PUSH2 0x4BF JUMPI DUP1 PUSH4 0xFC177E30 EQ PUSH2 0x4ED JUMPI PUSH1 0x0 DUP1 REVERT JUMPDEST DUP1 PUSH4 0xA6385803 EQ PUSH2 0x413 JUMPI DUP1 PUSH4 0xA672601D EQ PUSH2 0x434 JUMPI DUP1 PUSH4 0xC00CE9FF EQ PUSH2 0x447 JUMPI DUP1 PUSH4 0xC07CFCA9 EQ PUSH2 0x468 JUMPI PUSH1 0x0 DUP1 REVERT JUMPDEST DUP1 PUSH4 0x87F7B975 GT PUSH2 0xDE JUMPI DUP1 PUSH4 0x87F7B975 EQ PUSH2 0x3BA JUMPI DUP1 PUSH4 0x8B132066 EQ PUSH2 0x3CD JUMPI DUP1 PUSH4 0x8C1B0D51 EQ PUSH2 0x3F8 JUMPI DUP1 PUSH4 0xA25C891C EQ PUSH2 0x400 JUMPI PUSH1 0x0 DUP1 REVERT JUMPDEST DUP1 PUSH4 0x6C537471 EQ PUSH2 0x369 JUMPI DUP1 PUSH4 0x7026FE9C EQ PUSH2 0x394 JUMPI DUP1 PUSH4 0x764926DB EQ PUSH2 0x3A7 JUMPI PUSH1 0x0 DUP1 REVERT JUMPDEST DUP1 PUSH4 0x16C61CCC GT PUSH2 0x171 JUMPI DUP1 PUSH4 0x32B773A5 GT PUSH2 0x14B JUMPI DUP1 PUSH4 0x32B773A5 EQ PUSH2 0x2E7 JUMPI DUP1 PUSH4 0x3477EE2E EQ PUSH2 0x2FA JUMPI DUP1 PUSH4 0x40284753 EQ PUSH2 0x31D JUMPI DUP1 PUSH4 0x44FB5A1A EQ PUSH2 0x33E JUMPI PUSH1 0x0 DUP1 REVERT JUMPDEST DUP1 PUSH4 0x16C61CCC EQ PUSH2 0x29E JUMPI DUP1 PUSH4 0x19F3A50E EQ PUSH2 0x2BB JUMPI DUP1 PUSH4 0x2D35A8A2 EQ PUSH2 0x2D0 JUMPI PUSH1 0x0 DUP1 REVERT JUMPDEST DUP1 PUSH4 0xB5F42DA GT PUSH2 0x1AD JUMPI DUP1 PUSH4 0xB5F42DA EQ PUSH2 0x238 JUMPI DUP1 PUSH4 0xB92DFA0 EQ PUSH2 0x263 JUMPI DUP1 PUSH4 0xDBCE4DD EQ PUSH2 0x278 JUMPI DUP1 PUSH4 0x16C38B3C EQ PUSH2 0x28B JUMPI PUSH1 0x0 DUP1 REVERT JUMPDEST DUP1 PUSH3 0xD195FD EQ PUSH2 0x1D3 JUMPI DUP1 PUSH4 0x6A49FCE EQ PUSH2 0x201 JUMPI DUP1 PUSH4 0x73B1F59 EQ PUSH2 0x216 JUMPI JUMPDEST PUSH1 0x0 DUP1 REVERT JUMPDEST PUSH2 0x1E6 PUSH2 0x1E1 CALLDATASIZE PUSH1 0x4 PUSH2 0x2AB2 JUMP JUMPDEST PUSH2 0x500 JUMP JUMPDEST PUSH1 0x40 MLOAD PUSH2 0x1F8 SWAP7 SWAP6 SWAP5 SWAP4 SWAP3 SWAP2 SWAP1 PUSH2 0x2B27 JUMP JUMPDEST PUSH1 0x40 MLOAD DUP1 SWAP2 SUB SWAP1 RETURN JUMPDEST PUSH2 0x209 PUSH2 0x5E2 JUMP JUMPDEST PUSH1 0x40 MLOAD PUSH2 0x1F8 SWAP2 SWAP1 PUSH2 0x2BFC JUMP JUMPDEST PUSH2 0x229 PUSH2 0x224 CALLDATASIZE PUSH1 0x4 PUSH2 0x2CC6 JUMP JUMPDEST PUSH2 0x780 JUMP JUMPDEST PUSH1 0x40 MLOAD PUSH2 0x1F8 SWAP4 SWAP3 SWAP2 SWAP1 PUSH2 0x2D03 JUMP JUMPDEST PUSH1 0x0 SLOAD PUSH2 0x24B SWAP1 PUSH1 0x1 PUSH1 0x1 PUSH1 0xA0 SHL SUB AND DUP2 JUMP JUMPDEST PUSH1 0x40 MLOAD PUSH1 0x1 PUSH1 0x1 PUSH1 0xA0 SHL SUB SWAP1 SWAP2 AND DUP2 MSTORE PUSH1 0x20 ADD PUSH2 0x1F8 JUMP JUMPDEST PUSH2 0x276 PUSH2 0x271 CALLDATASIZE PUSH1 0x4 PUSH2 0x2D2B JUMP JUMPDEST PUSH2 0xCFC JUMP JUMPDEST STOP JUMPDEST PUSH2 0x276 PUSH2 0x286 CALLDATASIZE PUSH1 0x4 PUSH2 0x2DC9 JUMP JUMPDEST PUSH2 0xF3E JUMP JUMPDEST PUSH2 0x276 PUSH2 0x299 CALLDATASIZE PUSH1 0x4 PUSH2 0x2E2D JUMP JUMPDEST PUSH2 0x10F9 JUMP JUMPDEST PUSH1 0x6 SLOAD PUSH2 0x2AB SWAP1 PUSH1 0xFF AND DUP2 JUMP JUMPDEST PUSH1 0x40 MLOAD SWAP1 ISZERO ISZERO DUP2 MSTORE PUSH1 0x20 ADD PUSH2 0x1F8 JUMP JUMPDEST PUSH2 0x2C3 PUSH2 0x1136 JUMP JUMPDEST PUSH1 0x40 MLOAD PUSH2 0x1F8 SWAP2 SWAP1 PUSH2 0x2E4F JUMP JUMPDEST PUSH2 0x2D9 PUSH1 0x2 SLOAD DUP2 JUMP JUMPDEST PUSH1 0x40 MLOAD SWAP1 DUP2 MSTORE PUSH1 0x20 ADD PUSH2 0x1F8 JUMP JUMPDEST PUSH2 0x1E6 PUSH2 0x2F5 CALLDATASIZE PUSH1 0x4 PUSH2 0x2CC6 JUMP JUMPDEST PUSH2 0x12F1 JUMP JUMPDEST PUSH2 0x30D PUSH2 0x308 CALLDATASIZE PUSH1 0x4 PUSH2 0x2AB2 JUMP JUMPDEST PUSH2 0x1317 JUMP JUMPDEST PUSH1 0x40 MLOAD PUSH2 0x1F8 SWAP5 SWAP4 SWAP3 SWAP2 SWAP1 PUSH2 0x2F38 JUMP JUMPDEST PUSH2 0x330 PUSH2 0x32B CALLDATASIZE PUSH1 0x4 PUSH2 0x2CC6 JUMP JUMPDEST PUSH2 0x13C8 JUMP JUMPDEST PUSH1 0x40 MLOAD PUSH2 0x1F8 SWAP3 SWAP2 SWAP1 PUSH2 0x2F64 JUMP JUMPDEST PUSH2 0x2D9 PUSH2 0x34C CALLDATASIZE PUSH1 0x4 PUSH2 0x2CC6 JUMP JUMPDEST DUP1 MLOAD PUSH1 0x20 DUP2 DUP4 ADD DUP2 ADD DUP1 MLOAD PUSH1 0xC DUP3 MSTORE SWAP3 DUP3 ADD SWAP2 SWAP1 SWAP4 ADD KECCAK256 SWAP2 MSTORE SLOAD DUP2 JUMP JUMPDEST PUSH2 0x2D9 PUSH2 0x377 CALLDATASIZE PUSH1 0x4 PUSH2 0x2F86 JUMP JUMPDEST PUSH1 0xB PUSH1 0x20 SWAP1 DUP2 MSTORE PUSH1 0x0 SWAP3 DUP4 MSTORE PUSH1 0x40 DUP1 DUP5 KECCAK256 SWAP1 SWAP2 MSTORE SWAP1 DUP3 MSTORE SWAP1 KECCAK256 SLOAD DUP2 JUMP JUMPDEST PUSH2 0x2AB PUSH2 0x3A2 CALLDATASIZE PUSH1 0x4 PUSH2 0x2FBF JUMP JUMPDEST PUSH2 0x1635 JUMP JUMPDEST PUSH2 0x276 PUSH2 0x3B5 CALLDATASIZE PUSH1 0x4 PUSH2 0x2CC6 JUMP JUMPDEST PUSH2 0x170E JUMP JUMPDEST PUSH1 0x1 SLOAD PUSH2 0x24B SWAP1 PUSH1 0x1 PUSH1 0x1 PUSH1 0xA0 SHL SUB AND DUP2 JUMP JUMPDEST PUSH2 0x2D9 PUSH2 0x3DB CALLDATASIZE PUSH1 0x4 PUSH2 0x2CC6 JUMP JUMPDEST DUP1 MLOAD PUSH1 0x20 DUP2 DUP4 ADD DUP2 ADD DUP1 MLOAD PUSH1 0xF DUP3 MSTORE SWAP3 DUP3 ADD SWAP2 SWAP1 SWAP4 ADD KECCAK256 SWAP2 MSTORE SLOAD DUP2 JUMP JUMPDEST PUSH2 0x276 PUSH2 0x198B JUMP JUMPDEST PUSH2 0x2AB PUSH2 0x40E CALLDATASIZE PUSH1 0x4 PUSH2 0x300D JUMP JUMPDEST PUSH2 0x19E6 JUMP JUMPDEST PUSH2 0x426 PUSH2 0x421 CALLDATASIZE PUSH1 0x4 PUSH2 0x30D7 JUMP JUMPDEST PUSH2 0x1B95 JUMP JUMPDEST PUSH1 0x40 MLOAD PUSH2 0x1F8 SWAP3 SWAP2 SWAP1 PUSH2 0x311C JUMP JUMPDEST PUSH2 0x276 PUSH2 0x442 CALLDATASIZE PUSH1 0x4 PUSH2 0x2CC6 JUMP JUMPDEST PUSH2 0x1F76 JUMP JUMPDEST PUSH2 0x45A PUSH2 0x455 CALLDATASIZE PUSH1 0x4 PUSH2 0x2CC6 JUMP JUMPDEST PUSH2 0x208F JUMP JUMPDEST PUSH1 0x40 MLOAD PUSH2 0x1F8 SWAP3 SWAP2 SWAP1 PUSH2 0x312F JUMP JUMPDEST PUSH2 0x47B PUSH2 0x476 CALLDATASIZE PUSH1 0x4 PUSH2 0x3154 JUMP JUMPDEST PUSH2 0x23D6 JUMP JUMPDEST PUSH1 0x40 MLOAD PUSH2 0x1F8 SWAP6 SWAP5 SWAP4 SWAP3 SWAP2 SWAP1 PUSH2 0x316F JUMP JUMPDEST PUSH2 0x49F PUSH2 0x49A CALLDATASIZE PUSH1 0x4 PUSH2 0x2AB2 JUMP JUMPDEST PUSH2 0x2493 JUMP JUMPDEST PUSH1 0x40 MLOAD PUSH2 0x1F8 SWAP2 SWAP1 PUSH2 0x31A6 JUMP JUMPDEST PUSH2 0x276 PUSH2 0x4BA CALLDATASIZE PUSH1 0x4 PUSH2 0x3154 JUMP JUMPDEST PUSH2 0x253F JUMP JUMPDEST PUSH2 0x2AB PUSH2 0x4CD CALLDATASIZE PUSH1 0x4 PUSH2 0x31B9 JUMP JUMPDEST PUSH1 0xA PUSH1 0x20 SWAP1 DUP2 MSTORE PUSH1 0x0 SWAP3 DUP4 MSTORE PUSH1 0x40 DUP1 DUP5 KECCAK256 SWAP1 SWAP2 MSTORE SWAP1 DUP3 MSTORE SWAP1 KECCAK256 SLOAD PUSH1 0xFF AND DUP2 JUMP JUMPDEST PUSH2 0x49F PUSH2 0x4FB CALLDATASIZE PUSH1 0x4 PUSH2 0x2CC6 JUMP JUMPDEST PUSH2 0x2715 JUMP JUMPDEST PUSH1 0x7 DUP2 DUP2 SLOAD DUP2 LT PUSH2 0x510 JUMPI PUSH1 0x0 DUP1 REVERT JUMPDEST SWAP1 PUSH1 0x0 MSTORE PUSH1 0x20 PUSH1 0x0 KECCAK256 SWAP1 PUSH1 0x4 MUL ADD PUSH1 0x0 SWAP2 POP SWAP1 POP DUP1 PUSH1 0x0 ADD DUP1 SLOAD PUSH2 0x533 SWAP1 PUSH2 0x31DC JUMP JUMPDEST DUP1 PUSH1 0x1F ADD PUSH1 0x20 DUP1 SWAP2 DIV MUL PUSH1 0x20 ADD PUSH1 0x40 MLOAD SWAP1 DUP2 ADD PUSH1 0x40 MSTORE DUP1 SWAP3 SWAP2 SWAP1 DUP2 DUP2 MSTORE PUSH1 0x20 ADD DUP3 DUP1 SLOAD PUSH2 0x55F SWAP1 PUSH2 0x31DC JUMP JUMPDEST DUP1 ISZERO PUSH2 0x5AC JUMPI DUP1 PUSH1 0x1F LT PUSH2 0x581 JUMPI PUSH2 0x100 DUP1 DUP4 SLOAD DIV MUL DUP4 MSTORE SWAP2 PUSH1 0x20 ADD SWAP2 PUSH2 0x5AC JUMP JUMPDEST DUP3 ADD SWAP2 SWAP1 PUSH1 0x0 MSTORE PUSH1 0x20 PUSH1 0x0 KECCAK256 SWAP1 JUMPDEST DUP2 SLOAD DUP2 MSTORE SWAP1 PUSH1 0x1 ADD SWAP1 PUSH1 0x20 ADD DUP1 DUP4 GT PUSH2 0x58F JUMPI DUP3 SWAP1 SUB PUSH1 0x1F AND DUP3 ADD SWAP2 JUMPDEST POP POP POP PUSH1 0x2 DUP5 ADD SLOAD PUSH1 0x3 SWAP1 SWAP5 ADD SLOAD SWAP3 SWAP4 PUSH1 0xFF DUP1 DUP3 AND SWAP5 PUSH2 0x100 DUP4 DIV DUP3 AND SWAP5 POP PUSH3 0x10000 DUP4 DIV DUP3 AND SWAP4 POP PUSH4 0x1000000 SWAP1 SWAP3 DIV AND SWAP1 DUP7 JUMP JUMPDEST PUSH1 0x60 PUSH1 0x0 PUSH1 0x2 SLOAD PUSH8 0xFFFFFFFFFFFFFFFF DUP2 GT ISZERO PUSH2 0x601 JUMPI PUSH2 0x601 PUSH2 0x2C0F JUMP JUMPDEST PUSH1 0x40 MLOAD SWAP1 DUP1 DUP3 MSTORE DUP1 PUSH1 0x20 MUL PUSH1 0x20 ADD DUP3 ADD PUSH1 0x40 MSTORE DUP1 ISZERO PUSH2 0x65D JUMPI DUP2 PUSH1 0x20 ADD JUMPDEST PUSH2 0x64A PUSH1 0x40 MLOAD DUP1 PUSH1 0x80 ADD PUSH1 0x40 MSTORE DUP1 PUSH1 0x0 DUP2 MSTORE PUSH1 0x20 ADD PUSH1 0x60 DUP2 MSTORE PUSH1 0x20 ADD PUSH1 0x0 DUP2 MSTORE PUSH1 0x20 ADD PUSH1 0x0 DUP2 MSTORE POP SWAP1 JUMP JUMPDEST DUP2 MSTORE PUSH1 0x20 ADD SWAP1 PUSH1 0x1 SWAP1 SUB SWAP1 DUP2 PUSH2 0x61F JUMPI SWAP1 POP JUMPDEST POP SWAP1 POP PUSH1 0x0 JUMPDEST PUSH1 0x2 SLOAD DUP2 LT ISZERO PUSH2 0x77A JUMPI PUSH1 0x0 PUSH1 0x9 DUP2 PUSH2 0x67D DUP5 PUSH1 0x1 PUSH2 0x3226 JUMP JUMPDEST DUP2 MSTORE PUSH1 0x20 ADD SWAP1 DUP2 MSTORE PUSH1 0x20 ADD PUSH1 0x0 KECCAK256 SWAP1 POP DUP1 PUSH1 0x40 MLOAD DUP1 PUSH1 0x80 ADD PUSH1 0x40 MSTORE SWAP1 DUP2 PUSH1 0x0 DUP3 ADD SLOAD DUP2 MSTORE PUSH1 0x20 ADD PUSH1 0x1 DUP3 ADD DUP1 SLOAD PUSH2 0x6B3 SWAP1 PUSH2 0x31DC JUMP JUMPDEST DUP1 PUSH1 0x1F ADD PUSH1 0x20 DUP1 SWAP2 DIV MUL PUSH1 0x20 ADD PUSH1 0x40 MLOAD SWAP1 DUP2 ADD PUSH1 0x40 MSTORE DUP1 SWAP3 SWAP2 SWAP1 DUP2 DUP2 MSTORE PUSH1 0x20 ADD DUP3 DUP1 SLOAD PUSH2 0x6DF SWAP1 PUSH2 0x31DC JUMP JUMPDEST DUP1 ISZERO PUSH2 0x72C JUMPI DUP1 PUSH1 0x1F LT PUSH2 0x701 JUMPI PUSH2 0x100 DUP1 DUP4 SLOAD DIV MUL DUP4 MSTORE SWAP2 PUSH1 0x20 ADD SWAP2 PUSH2 0x72C JUMP JUMPDEST DUP3 ADD SWAP2 SWAP1 PUSH1 0x0 MSTORE PUSH1 0x20 PUSH1 0x0 KECCAK256 SWAP1 JUMPDEST DUP2 SLOAD DUP2 MSTORE SWAP1 PUSH1 0x1 ADD SWAP1 PUSH1 0x20 ADD DUP1 DUP4 GT PUSH2 0x70F JUMPI DUP3 SWAP1 SUB PUSH1 0x1F AND DUP3 ADD SWAP2 JUMPDEST POP POP POP POP POP DUP2 MSTORE PUSH1 0x20 ADD PUSH1 0x2 DUP3 ADD SLOAD DUP2 MSTORE PUSH1 0x20 ADD PUSH1 0x3 DUP3 ADD SLOAD DUP2 MSTORE POP POP DUP4 DUP4 DUP2 MLOAD DUP2 LT PUSH2 0x75B JUMPI PUSH2 0x75B PUSH2 0x323E JUMP JUMPDEST PUSH1 0x20 MUL PUSH1 0x20 ADD ADD DUP2 SWAP1 MSTORE POP POP DUP1 DUP1 PUSH2 0x772 SWAP1 PUSH2 0x3254 JUMP JUMPDEST SWAP2 POP POP PUSH2 0x663 JUMP JUMPDEST POP SWAP2 SWAP1 POP JUMP JUMPDEST PUSH1 0x1 SLOAD PUSH1 0x0 SWAP1 DUP2 SWAP1 PUSH1 0x60 SWAP1 PUSH1 0x1 PUSH1 0x1 PUSH1 0xA0 SHL SUB AND CALLER EQ DUP1 PUSH2 0x85E JUMPI POP CALLER PUSH1 0x0 SWAP1 DUP2 MSTORE PUSH1 0x8 PUSH1 0x20 MSTORE PUSH1 0x40 SWAP1 KECCAK256 DUP1 SLOAD PUSH2 0x85E SWAP2 SWAP1 PUSH2 0x7BB SWAP1 PUSH2 0x31DC JUMP JUMPDEST DUP1 PUSH1 0x1F ADD PUSH1 0x20 DUP1 SWAP2 DIV MUL PUSH1 0x20 ADD PUSH1 0x40 MLOAD SWAP1 DUP2 ADD PUSH1 0x40 MSTORE DUP1 SWAP3 SWAP2 SWAP1 DUP2 DUP2 MSTORE PUSH1 0x20 ADD DUP3 DUP1 SLOAD PUSH2 0x7E7 SWAP1 PUSH2 0x31DC JUMP JUMPDEST DUP1 ISZERO PUSH2 0x834 JUMPI DUP1 PUSH1 0x1F LT PUSH2 0x809 JUMPI PUSH2 0x100 DUP1 DUP4 SLOAD DIV MUL DUP4 MSTORE SWAP2 PUSH1 0x20 ADD SWAP2 PUSH2 0x834 JUMP JUMPDEST DUP3 ADD SWAP2 SWAP1 PUSH1 0x0 MSTORE PUSH1 0x20 PUSH1 0x0 KECCAK256 SWAP1 JUMPDEST DUP2 SLOAD DUP2 MSTORE SWAP1 PUSH1 0x1 ADD SWAP1 PUSH1 0x20 ADD DUP1 DUP4 GT PUSH2 0x817 JUMPI DUP3 SWAP1 SUB PUSH1 0x1F AND DUP3 ADD SWAP2 JUMPDEST POP POP POP POP POP PUSH1 0x40 MLOAD DUP1 PUSH1 0x40 ADD PUSH1 0x40 MSTORE DUP1 PUSH1 0x7 DUP2 MSTORE PUSH1 0x20 ADD PUSH7 0x3A32B0B1B432B9 PUSH1 0xC9 SHL DUP2 MSTORE POP PUSH2 0x280F JUMP JUMPDEST PUSH2 0x883 JUMPI PUSH1 0x40 MLOAD PUSH3 0x461BCD PUSH1 0xE5 SHL DUP2 MSTORE PUSH1 0x4 ADD PUSH2 0x87A SWAP1 PUSH2 0x326D JUMP JUMPDEST PUSH1 0x40 MLOAD DUP1 SWAP2 SUB SWAP1 REVERT JUMPDEST PUSH1 0x6 SLOAD PUSH1 0xFF AND ISZERO PUSH2 0x8A6 JUMPI PUSH1 0x40 MLOAD PUSH3 0x461BCD PUSH1 0xE5 SHL DUP2 MSTORE PUSH1 0x4 ADD PUSH2 0x87A SWAP1 PUSH2 0x32BB JUMP JUMPDEST PUSH1 0xE DUP5 PUSH1 0x40 MLOAD PUSH2 0x8B6 SWAP2 SWAP1 PUSH2 0x32F2 JUMP JUMPDEST SWAP1 DUP2 MSTORE PUSH1 0x40 MLOAD SWAP1 DUP2 SWAP1 SUB PUSH1 0x20 ADD SWAP1 KECCAK256 PUSH1 0x2 ADD SLOAD PUSH1 0xFF PUSH2 0x100 SWAP1 SWAP2 DIV AND ISZERO ISZERO PUSH1 0x1 EQ PUSH2 0x933 JUMPI PUSH1 0x40 MLOAD PUSH3 0x461BCD PUSH1 0xE5 SHL DUP2 MSTORE PUSH1 0x20 PUSH1 0x4 DUP3 ADD MSTORE PUSH1 0x27 PUSH1 0x24 DUP3 ADD MSTORE PUSH32 0x546869732073657373696F6E206973207374696C6C2061637469766520666F72 PUSH1 0x44 DUP3 ADD MSTORE PUSH7 0x20766F74696E67 PUSH1 0xC8 SHL PUSH1 0x64 DUP3 ADD MSTORE PUSH1 0x84 ADD PUSH2 0x87A JUMP JUMPDEST PUSH1 0x0 DUP1 PUSH1 0x0 DUP1 PUSH1 0x0 SWAP1 POP PUSH1 0x0 PUSH1 0x2 SLOAD PUSH8 0xFFFFFFFFFFFFFFFF DUP2 GT ISZERO PUSH2 0x95A JUMPI PUSH2 0x95A PUSH2 0x2C0F JUMP JUMPDEST PUSH1 0x40 MLOAD SWAP1 DUP1 DUP3 MSTORE DUP1 PUSH1 0x20 MUL PUSH1 0x20 ADD DUP3 ADD PUSH1 0x40 MSTORE DUP1 ISZERO PUSH2 0x9B6 JUMPI DUP2 PUSH1 0x20 ADD JUMPDEST PUSH2 0x9A3 PUSH1 0x40 MLOAD DUP1 PUSH1 0x80 ADD PUSH1 0x40 MSTORE DUP1 PUSH1 0x0 DUP2 MSTORE PUSH1 0x20 ADD PUSH1 0x60 DUP2 MSTORE PUSH1 0x20 ADD PUSH1 0x0 DUP2 MSTORE PUSH1 0x20 ADD PUSH1 0x0 DUP2 MSTORE POP SWAP1 JUMP JUMPDEST DUP2 MSTORE PUSH1 0x20 ADD SWAP1 PUSH1 0x1 SWAP1 SUB SWAP1 DUP2 PUSH2 0x978 JUMPI SWAP1 POP JUMPDEST POP SWAP1 POP PUSH1 0x0 JUMPDEST PUSH1 0x2 SLOAD DUP2 LT ISZERO PUSH2 0xBC1 JUMPI PUSH1 0xC DUP11 PUSH1 0x40 MLOAD PUSH2 0x9D6 SWAP2 SWAP1 PUSH2 0x32F2 JUMP JUMPDEST SWAP1 DUP2 MSTORE PUSH1 0x40 MLOAD SWAP1 DUP2 SWAP1 SUB PUSH1 0x20 ADD SWAP1 KECCAK256 SLOAD PUSH1 0x9 PUSH1 0x0 PUSH2 0x9F5 DUP5 PUSH1 0x1 PUSH2 0x3226 JUMP JUMPDEST DUP2 MSTORE PUSH1 0x20 ADD SWAP1 DUP2 MSTORE PUSH1 0x20 ADD PUSH1 0x0 KECCAK256 PUSH1 0x2 ADD SLOAD SUB PUSH2 0xBAF JUMPI PUSH1 0x9 PUSH1 0x0 PUSH2 0xA1B DUP4 PUSH1 0x1 PUSH2 0x3226 JUMP JUMPDEST DUP2 MSTORE PUSH1 0x20 ADD SWAP1 DUP2 MSTORE PUSH1 0x20 ADD PUSH1 0x0 KECCAK256 PUSH1 0x3 ADD SLOAD DUP6 PUSH2 0xA38 SWAP2 SWAP1 PUSH2 0x3226 JUMP JUMPDEST SWAP5 POP DUP6 PUSH1 0x9 PUSH1 0x0 PUSH2 0xA4A DUP5 PUSH1 0x1 PUSH2 0x3226 JUMP JUMPDEST DUP2 MSTORE PUSH1 0x20 ADD SWAP1 DUP2 MSTORE PUSH1 0x20 ADD PUSH1 0x0 KECCAK256 PUSH1 0x3 ADD SLOAD GT ISZERO PUSH2 0xBAF JUMPI PUSH1 0x9 PUSH1 0x0 PUSH2 0xA71 DUP4 PUSH1 0x1 PUSH2 0x3226 JUMP JUMPDEST DUP2 MSTORE PUSH1 0x20 ADD SWAP1 DUP2 MSTORE PUSH1 0x20 ADD PUSH1 0x0 KECCAK256 PUSH1 0x3 ADD SLOAD SWAP6 POP PUSH1 0x0 PUSH1 0x9 PUSH1 0x0 DUP4 PUSH1 0x1 PUSH2 0xA98 SWAP2 SWAP1 PUSH2 0x3226 JUMP JUMPDEST DUP2 MSTORE PUSH1 0x20 ADD SWAP1 DUP2 MSTORE PUSH1 0x20 ADD PUSH1 0x0 KECCAK256 PUSH1 0x0 ADD SLOAD SWAP1 POP DUP1 SWAP5 POP PUSH1 0x0 PUSH1 0x9 PUSH1 0x0 DUP4 DUP2 MSTORE PUSH1 0x20 ADD SWAP1 DUP2 MSTORE PUSH1 0x20 ADD PUSH1 0x0 KECCAK256 SWAP1 POP DUP1 PUSH1 0x40 MLOAD DUP1 PUSH1 0x80 ADD PUSH1 0x40 MSTORE SWAP1 DUP2 PUSH1 0x0 DUP3 ADD SLOAD DUP2 MSTORE PUSH1 0x20 ADD PUSH1 0x1 DUP3 ADD DUP1 SLOAD PUSH2 0xAEC SWAP1 PUSH2 0x31DC JUMP JUMPDEST DUP1 PUSH1 0x1F ADD PUSH1 0x20 DUP1 SWAP2 DIV MUL PUSH1 0x20 ADD PUSH1 0x40 MLOAD SWAP1 DUP2 ADD PUSH1 0x40 MSTORE DUP1 SWAP3 SWAP2 SWAP1 DUP2 DUP2 MSTORE PUSH1 0x20 ADD DUP3 DUP1 SLOAD PUSH2 0xB18 SWAP1 PUSH2 0x31DC JUMP JUMPDEST DUP1 ISZERO PUSH2 0xB65 JUMPI DUP1 PUSH1 0x1F LT PUSH2 0xB3A JUMPI PUSH2 0x100 DUP1 DUP4 SLOAD DIV MUL DUP4 MSTORE SWAP2 PUSH1 0x20 ADD SWAP2 PUSH2 0xB65 JUMP JUMPDEST DUP3 ADD SWAP2 SWAP1 PUSH1 0x0 MSTORE PUSH1 0x20 PUSH1 0x0 KECCAK256 SWAP1 JUMPDEST DUP2 SLOAD DUP2 MSTORE SWAP1 PUSH1 0x1 ADD SWAP1 PUSH1 0x20 ADD DUP1 DUP4 GT PUSH2 0xB48 JUMPI DUP3 SWAP1 SUB PUSH1 0x1F AND DUP3 ADD SWAP2 JUMPDEST POP POP POP POP POP DUP2 MSTORE PUSH1 0x20 ADD PUSH1 0x2 DUP3 ADD SLOAD DUP2 MSTORE PUSH1 0x20 ADD PUSH1 0x3 DUP3 ADD SLOAD DUP2 MSTORE POP POP DUP5 DUP7 DUP2 MLOAD DUP2 LT PUSH2 0xB94 JUMPI PUSH2 0xB94 PUSH2 0x323E JUMP JUMPDEST PUSH1 0x20 SWAP1 DUP2 MUL SWAP2 SWAP1 SWAP2 ADD ADD MSTORE PUSH2 0xBAA PUSH1 0x1 DUP7 PUSH2 0x3226 JUMP JUMPDEST SWAP5 POP POP POP JUMPDEST DUP1 PUSH2 0xBB9 DUP2 PUSH2 0x3254 JUMP JUMPDEST SWAP2 POP POP PUSH2 0x9BC JUMP JUMPDEST POP DUP4 PUSH1 0xE DUP11 PUSH1 0x40 MLOAD PUSH2 0xBD3 SWAP2 SWAP1 PUSH2 0x32F2 JUMP JUMPDEST SWAP1 DUP2 MSTORE PUSH1 0x20 ADD PUSH1 0x40 MLOAD DUP1 SWAP2 SUB SWAP1 KECCAK256 PUSH1 0x3 ADD DUP2 SWAP1 SSTORE POP PUSH1 0x1 PUSH1 0xE DUP11 PUSH1 0x40 MLOAD PUSH2 0xBFA SWAP2 SWAP1 PUSH2 0x32F2 JUMP JUMPDEST SWAP1 DUP2 MSTORE PUSH1 0x20 ADD PUSH1 0x40 MLOAD DUP1 SWAP2 SUB SWAP1 KECCAK256 PUSH1 0x2 ADD PUSH1 0x2 PUSH2 0x100 EXP DUP2 SLOAD DUP2 PUSH1 0xFF MUL NOT AND SWAP1 DUP4 ISZERO ISZERO MUL OR SWAP1 SSTORE POP PUSH1 0x0 PUSH1 0xF DUP11 PUSH1 0x40 MLOAD PUSH2 0xC34 SWAP2 SWAP1 PUSH2 0x32F2 JUMP JUMPDEST SWAP1 DUP2 MSTORE PUSH1 0x20 ADD PUSH1 0x40 MLOAD DUP1 SWAP2 SUB SWAP1 KECCAK256 SLOAD SWAP1 POP PUSH1 0x1 PUSH1 0x7 DUP3 DUP2 SLOAD DUP2 LT PUSH2 0xC5A JUMPI PUSH2 0xC5A PUSH2 0x323E JUMP JUMPDEST SWAP1 PUSH1 0x0 MSTORE PUSH1 0x20 PUSH1 0x0 KECCAK256 SWAP1 PUSH1 0x4 MUL ADD PUSH1 0x2 ADD PUSH1 0x2 PUSH2 0x100 EXP DUP2 SLOAD DUP2 PUSH1 0xFF MUL NOT AND SWAP1 DUP4 ISZERO ISZERO MUL OR SWAP1 SSTORE POP PUSH1 0x9 PUSH1 0x0 DUP6 DUP2 MSTORE PUSH1 0x20 ADD SWAP1 DUP2 MSTORE PUSH1 0x20 ADD PUSH1 0x0 KECCAK256 PUSH1 0xD DUP12 PUSH1 0x40 MLOAD PUSH2 0xCA5 SWAP2 SWAP1 PUSH2 0x32F2 JUMP JUMPDEST SWAP1 DUP2 MSTORE PUSH1 0x40 MLOAD SWAP1 DUP2 SWAP1 SUB PUSH1 0x20 ADD SWAP1 KECCAK256 DUP2 SLOAD DUP2 SSTORE PUSH1 0x1 DUP1 DUP4 ADD DUP1 SLOAD SWAP2 DUP4 ADD SWAP2 PUSH2 0xCCC SWAP1 PUSH2 0x31DC JUMP JUMPDEST PUSH2 0xCD7 SWAP3 SWAP2 SWAP1 PUSH2 0x2868 JUMP JUMPDEST POP PUSH1 0x2 DUP3 DUP2 ADD SLOAD SWAP1 DUP3 ADD SSTORE PUSH1 0x3 SWAP2 DUP3 ADD SLOAD SWAP2 ADD SSTORE POP SWAP3 SWAP9 SWAP4 SWAP8 POP SWAP2 SWAP6 POP SWAP2 SWAP4 POP POP POP POP JUMP JUMPDEST PUSH1 0x1 SLOAD PUSH1 0x1 PUSH1 0x1 PUSH1 0xA0 SHL SUB AND CALLER EQ DUP1 PUSH2 0xD2F JUMPI POP CALLER PUSH1 0x0 SWAP1 DUP2 MSTORE PUSH1 0x8 PUSH1 0x20 MSTORE PUSH1 0x40 SWAP1 KECCAK256 DUP1 SLOAD PUSH2 0xD2F SWAP2 SWAP1 PUSH2 0x7BB SWAP1 PUSH2 0x31DC JUMP JUMPDEST PUSH2 0xD4B JUMPI PUSH1 0x40 MLOAD PUSH3 0x461BCD PUSH1 0xE5 SHL DUP2 MSTORE PUSH1 0x4 ADD PUSH2 0x87A SWAP1 PUSH2 0x326D JUMP JUMPDEST PUSH1 0x6 SLOAD PUSH1 0xFF AND ISZERO PUSH2 0xD6E JUMPI PUSH1 0x40 MLOAD PUSH3 0x461BCD PUSH1 0xE5 SHL DUP2 MSTORE PUSH1 0x4 ADD PUSH2 0x87A SWAP1 PUSH2 0x32BB JUMP JUMPDEST DUP1 PUSH2 0xDBB JUMPI PUSH1 0x40 MLOAD PUSH3 0x461BCD PUSH1 0xE5 SHL DUP2 MSTORE PUSH1 0x20 PUSH1 0x4 DUP3 ADD MSTORE PUSH1 0x19 PUSH1 0x24 DUP3 ADD MSTORE PUSH32 0x55706C6F6164206172726179206F662061646472657373657300000000000000 PUSH1 0x44 DUP3 ADD MSTORE PUSH1 0x64 ADD PUSH2 0x87A JUMP JUMPDEST PUSH1 0x0 JUMPDEST DUP2 DUP2 LT ISZERO PUSH2 0xEFC JUMPI PUSH1 0x8 PUSH1 0x0 DUP5 DUP5 DUP5 DUP2 DUP2 LT PUSH2 0xDDC JUMPI PUSH2 0xDDC PUSH2 0x323E JUMP JUMPDEST SWAP1 POP PUSH1 0x20 MUL ADD PUSH1 0x20 DUP2 ADD SWAP1 PUSH2 0xDF1 SWAP2 SWAP1 PUSH2 0x3154 JUMP JUMPDEST PUSH1 0x1 PUSH1 0x1 PUSH1 0xA0 SHL SUB AND DUP2 MSTORE PUSH1 0x20 DUP2 ADD SWAP2 SWAP1 SWAP2 MSTORE PUSH1 0x40 ADD PUSH1 0x0 SWAP1 DUP2 KECCAK256 PUSH1 0x1 ADD SLOAD PUSH1 0xFF AND ISZERO ISZERO SWAP1 SUB PUSH2 0xEEA JUMPI PUSH1 0x40 MLOAD DUP1 PUSH1 0xA0 ADD PUSH1 0x40 MSTORE DUP1 DUP7 DUP2 MSTORE PUSH1 0x20 ADD PUSH1 0x1 ISZERO ISZERO DUP2 MSTORE PUSH1 0x20 ADD PUSH1 0x0 ISZERO ISZERO DUP2 MSTORE PUSH1 0x20 ADD PUSH1 0x0 DUP2 MSTORE PUSH1 0x20 ADD DUP6 DUP2 MSTORE POP PUSH1 0x8 PUSH1 0x0 DUP6 DUP6 DUP6 DUP2 DUP2 LT PUSH2 0xE5F JUMPI PUSH2 0xE5F PUSH2 0x323E JUMP JUMPDEST SWAP1 POP PUSH1 0x20 MUL ADD PUSH1 0x20 DUP2 ADD SWAP1 PUSH2 0xE74 SWAP2 SWAP1 PUSH2 0x3154 JUMP JUMPDEST PUSH1 0x1 PUSH1 0x1 PUSH1 0xA0 SHL SUB AND DUP2 MSTORE PUSH1 0x20 DUP1 DUP3 ADD SWAP3 SWAP1 SWAP3 MSTORE PUSH1 0x40 ADD PUSH1 0x0 KECCAK256 DUP3 MLOAD DUP1 MLOAD SWAP2 SWAP3 PUSH2 0xEA3 SWAP3 DUP5 SWAP3 SWAP1 SWAP2 ADD SWAP1 PUSH2 0x28F3 JUMP JUMPDEST POP PUSH1 0x20 DUP3 ADD MLOAD PUSH1 0x1 DUP3 ADD DUP1 SLOAD PUSH1 0x40 DUP6 ADD MLOAD ISZERO ISZERO PUSH2 0x100 MUL PUSH2 0xFF00 NOT SWAP4 ISZERO ISZERO SWAP4 SWAP1 SWAP4 AND PUSH2 0xFFFF NOT SWAP1 SWAP2 AND OR SWAP2 SWAP1 SWAP2 OR SWAP1 SSTORE PUSH1 0x60 DUP3 ADD MLOAD PUSH1 0x2 DUP3 ADD SSTORE PUSH1 0x80 SWAP1 SWAP2 ADD MLOAD PUSH1 0x3 SWAP1 SWAP2 ADD SSTORE JUMPDEST DUP1 PUSH2 0xEF4 DUP2 PUSH2 0x3254 JUMP JUMPDEST SWAP2 POP POP PUSH2 0xDBE JUMP JUMPDEST POP PUSH32 0xDB5C245EE0521674ADE89200CC3647A9590AF2330E581DD656DCE39D2354107C DUP5 DUP4 DUP4 PUSH1 0x40 MLOAD PUSH2 0xF30 SWAP4 SWAP3 SWAP2 SWAP1 PUSH2 0x330E JUMP JUMPDEST PUSH1 0x40 MLOAD DUP1 SWAP2 SUB SWAP1 LOG1 POP POP POP POP JUMP JUMPDEST PUSH1 0x1 SLOAD PUSH1 0x1 PUSH1 0x1 PUSH1 0xA0 SHL SUB AND CALLER EQ DUP1 PUSH2 0xF71 JUMPI POP CALLER PUSH1 0x0 SWAP1 DUP2 MSTORE PUSH1 0x8 PUSH1 0x20 MSTORE PUSH1 0x40 SWAP1 KECCAK256 DUP1 SLOAD PUSH2 0xF71 SWAP2 SWAP1 PUSH2 0x7BB SWAP1 PUSH2 0x31DC JUMP JUMPDEST PUSH2 0xF8D JUMPI PUSH1 0x40 MLOAD PUSH3 0x461BCD PUSH1 0xE5 SHL DUP2 MSTORE PUSH1 0x4 ADD PUSH2 0x87A SWAP1 PUSH2 0x326D JUMP JUMPDEST PUSH1 0x6 SLOAD PUSH1 0xFF AND ISZERO PUSH2 0xFB0 JUMPI PUSH1 0x40 MLOAD PUSH3 0x461BCD PUSH1 0xE5 SHL DUP2 MSTORE PUSH1 0x4 ADD PUSH2 0x87A SWAP1 PUSH2 0x32BB JUMP JUMPDEST PUSH1 0xC DUP2 PUSH1 0x40 MLOAD PUSH2 0xFC0 SWAP2 SWAP1 PUSH2 0x32F2 JUMP JUMPDEST SWAP1 DUP2 MSTORE PUSH1 0x20 ADD PUSH1 0x40 MLOAD DUP1 SWAP2 SUB SWAP1 KECCAK256 SLOAD PUSH1 0x0 SUB PUSH2 0x101E JUMPI PUSH1 0x40 MLOAD PUSH3 0x461BCD PUSH1 0xE5 SHL DUP2 MSTORE PUSH1 0x20 PUSH1 0x4 DUP3 ADD MSTORE PUSH1 0x1A PUSH1 0x24 DUP3 ADD MSTORE PUSH32 0x43617465676F727920646F6573206E6F742065786973742E2E2E000000000000 PUSH1 0x44 DUP3 ADD MSTORE PUSH1 0x64 ADD PUSH2 0x87A JUMP JUMPDEST PUSH1 0x2 DUP1 SLOAD SWAP1 PUSH1 0x0 PUSH2 0x102E DUP4 PUSH2 0x3254 JUMP JUMPDEST SWAP2 SWAP1 POP SSTORE POP PUSH1 0x40 MLOAD DUP1 PUSH1 0x80 ADD PUSH1 0x40 MSTORE DUP1 PUSH1 0x2 SLOAD DUP2 MSTORE PUSH1 0x20 ADD DUP4 DUP2 MSTORE PUSH1 0x20 ADD PUSH1 0xC DUP4 PUSH1 0x40 MLOAD PUSH2 0x105C SWAP2 SWAP1 PUSH2 0x32F2 JUMP JUMPDEST SWAP1 DUP2 MSTORE PUSH1 0x40 DUP1 MLOAD PUSH1 0x20 SWAP3 DUP2 SWAP1 SUB DUP4 ADD SWAP1 KECCAK256 SLOAD DUP4 MSTORE PUSH1 0x0 SWAP3 DUP3 ADD DUP4 SWAP1 MSTORE PUSH1 0x2 SLOAD DUP4 MSTORE PUSH1 0x9 DUP3 MSTORE SWAP1 SWAP2 KECCAK256 DUP3 MLOAD DUP2 SSTORE DUP3 DUP3 ADD MLOAD DUP1 MLOAD SWAP2 SWAP3 PUSH2 0x10A2 SWAP3 PUSH1 0x1 DUP6 ADD SWAP3 SWAP1 SWAP2 ADD SWAP1 PUSH2 0x28F3 JUMP JUMPDEST POP PUSH1 0x40 DUP3 ADD MLOAD DUP2 PUSH1 0x2 ADD SSTORE PUSH1 0x60 DUP3 ADD MLOAD DUP2 PUSH1 0x3 ADD SSTORE SWAP1 POP POP PUSH32 0xF23CE42EB3D2878C26AB610EF7D3EDF80E07CFB6568D4028550637F27C73DB41 PUSH1 0x2 SLOAD PUSH1 0x40 MLOAD PUSH2 0x10ED SWAP2 DUP2 MSTORE PUSH1 0x20 ADD SWAP1 JUMP JUMPDEST PUSH1 0x40 MLOAD DUP1 SWAP2 SUB SWAP1 LOG1 POP POP JUMP JUMPDEST PUSH1 0x1 SLOAD PUSH1 0x1 PUSH1 0x1 PUSH1 0xA0 SHL SUB AND CALLER EQ PUSH2 0x1123 JUMPI PUSH1 0x40 MLOAD PUSH3 0x461BCD PUSH1 0xE5 SHL DUP2 MSTORE PUSH1 0x4 ADD PUSH2 0x87A SWAP1 PUSH2 0x336F JUMP JUMPDEST PUSH1 0x6 DUP1 SLOAD PUSH1 0xFF NOT AND SWAP2 ISZERO ISZERO SWAP2 SWAP1 SWAP2 OR SWAP1 SSTORE JUMP JUMPDEST PUSH1 0x6 SLOAD PUSH1 0x60 SWAP1 PUSH1 0xFF AND ISZERO PUSH2 0x115C JUMPI PUSH1 0x40 MLOAD PUSH3 0x461BCD PUSH1 0xE5 SHL DUP2 MSTORE PUSH1 0x4 ADD PUSH2 0x87A SWAP1 PUSH2 0x32BB JUMP JUMPDEST PUSH1 0x7 DUP1 SLOAD DUP1 PUSH1 0x20 MUL PUSH1 0x20 ADD PUSH1 0x40 MLOAD SWAP1 DUP2 ADD PUSH1 0x40 MSTORE DUP1 SWAP3 SWAP2 SWAP1 DUP2 DUP2 MSTORE PUSH1 0x20 ADD PUSH1 0x0 SWAP1 JUMPDEST DUP3 DUP3 LT ISZERO PUSH2 0x12E8 JUMPI DUP4 DUP3 SWAP1 PUSH1 0x0 MSTORE PUSH1 0x20 PUSH1 0x0 KECCAK256 SWAP1 PUSH1 0x4 MUL ADD PUSH1 0x40 MLOAD DUP1 PUSH1 0xE0 ADD PUSH1 0x40 MSTORE SWAP1 DUP2 PUSH1 0x0 DUP3 ADD DUP1 SLOAD PUSH2 0x11B1 SWAP1 PUSH2 0x31DC JUMP JUMPDEST DUP1 PUSH1 0x1F ADD PUSH1 0x20 DUP1 SWAP2 DIV MUL PUSH1 0x20 ADD PUSH1 0x40 MLOAD SWAP1 DUP2 ADD PUSH1 0x40 MSTORE DUP1 SWAP3 SWAP2 SWAP1 DUP2 DUP2 MSTORE PUSH1 0x20 ADD DUP3 DUP1 SLOAD PUSH2 0x11DD SWAP1 PUSH2 0x31DC JUMP JUMPDEST DUP1 ISZERO PUSH2 0x122A JUMPI DUP1 PUSH1 0x1F LT PUSH2 0x11FF JUMPI PUSH2 0x100 DUP1 DUP4 SLOAD DIV MUL DUP4 MSTORE SWAP2 PUSH1 0x20 ADD SWAP2 PUSH2 0x122A JUMP JUMPDEST DUP3 ADD SWAP2 SWAP1 PUSH1 0x0 MSTORE PUSH1 0x20 PUSH1 0x0 KECCAK256 SWAP1 JUMPDEST DUP2 SLOAD DUP2 MSTORE SWAP1 PUSH1 0x1 ADD SWAP1 PUSH1 0x20 ADD DUP1 DUP4 GT PUSH2 0x120D JUMPI DUP3 SWAP1 SUB PUSH1 0x1F AND DUP3 ADD SWAP2 JUMPDEST POP POP POP POP POP DUP2 MSTORE PUSH1 0x20 ADD PUSH1 0x1 DUP3 ADD DUP1 SLOAD DUP1 PUSH1 0x20 MUL PUSH1 0x20 ADD PUSH1 0x40 MLOAD SWAP1 DUP2 ADD PUSH1 0x40 MSTORE DUP1 SWAP3 SWAP2 SWAP1 DUP2 DUP2 MSTORE PUSH1 0x20 ADD DUP3 DUP1 SLOAD DUP1 ISZERO PUSH2 0x1282 JUMPI PUSH1 0x20 MUL DUP3 ADD SWAP2 SWAP1 PUSH1 0x0 MSTORE PUSH1 0x20 PUSH1 0x0 KECCAK256 SWAP1 JUMPDEST DUP2 SLOAD DUP2 MSTORE PUSH1 0x20 ADD SWAP1 PUSH1 0x1 ADD SWAP1 DUP1 DUP4 GT PUSH2 0x126E JUMPI JUMPDEST POP POP POP SWAP2 DUP4 MSTORE POP POP PUSH1 0x2 DUP3 ADD SLOAD PUSH1 0xFF DUP1 DUP3 AND ISZERO ISZERO PUSH1 0x20 DUP1 DUP6 ADD SWAP2 SWAP1 SWAP2 MSTORE PUSH2 0x100 DUP4 DIV DUP3 AND ISZERO ISZERO PUSH1 0x40 DUP6 ADD MSTORE PUSH3 0x10000 DUP4 DIV DUP3 AND ISZERO ISZERO PUSH1 0x60 DUP6 ADD MSTORE PUSH4 0x1000000 SWAP1 SWAP3 DIV AND ISZERO ISZERO PUSH1 0x80 DUP4 ADD MSTORE PUSH1 0x3 SWAP1 SWAP3 ADD SLOAD PUSH1 0xA0 SWAP1 SWAP2 ADD MSTORE SWAP1 DUP3 MSTORE PUSH1 0x1 SWAP3 SWAP1 SWAP3 ADD SWAP2 ADD PUSH2 0x117E JUMP JUMPDEST POP POP POP POP SWAP1 POP SWAP1 JUMP JUMPDEST DUP1 MLOAD PUSH1 0x20 DUP2 DUP4 ADD DUP2 ADD DUP1 MLOAD PUSH1 0xE DUP3 MSTORE SWAP3 DUP3 ADD SWAP2 SWAP1 SWAP4 ADD KECCAK256 SWAP2 MSTORE DUP1 SLOAD DUP2 SWAP1 PUSH2 0x533 SWAP1 PUSH2 0x31DC JUMP JUMPDEST PUSH1 0x9 PUSH1 0x20 MSTORE PUSH1 0x0 SWAP1 DUP2 MSTORE PUSH1 0x40 SWAP1 KECCAK256 DUP1 SLOAD PUSH1 0x1 DUP3 ADD DUP1 SLOAD SWAP2 SWAP3 SWAP2 PUSH2 0x1339 SWAP1 PUSH2 0x31DC JUMP JUMPDEST DUP1 PUSH1 0x1F ADD PUSH1 0x20 DUP1 SWAP2 DIV MUL PUSH1 0x20 ADD PUSH1 0x40 MLOAD SWAP1 DUP2 ADD PUSH1 0x40 MSTORE DUP1 SWAP3 SWAP2 SWAP1 DUP2 DUP2 MSTORE PUSH1 0x20 ADD DUP3 DUP1 SLOAD PUSH2 0x1365 SWAP1 PUSH2 0x31DC JUMP JUMPDEST DUP1 ISZERO PUSH2 0x13B2 JUMPI DUP1 PUSH1 0x1F LT PUSH2 0x1387 JUMPI PUSH2 0x100 DUP1 DUP4 SLOAD DIV MUL DUP4 MSTORE SWAP2 PUSH1 0x20 ADD SWAP2 PUSH2 0x13B2 JUMP JUMPDEST DUP3 ADD SWAP2 SWAP1 PUSH1 0x0 MSTORE PUSH1 0x20 PUSH1 0x0 KECCAK256 SWAP1 JUMPDEST DUP2 SLOAD DUP2 MSTORE SWAP1 PUSH1 0x1 ADD SWAP1 PUSH1 0x20 ADD DUP1 DUP4 GT PUSH2 0x1395 JUMPI DUP3 SWAP1 SUB PUSH1 0x1F AND DUP3 ADD SWAP2 JUMPDEST POP POP POP POP POP SWAP1 DUP1 PUSH1 0x2 ADD SLOAD SWAP1 DUP1 PUSH1 0x3 ADD SLOAD SWAP1 POP DUP5 JUMP JUMPDEST PUSH2 0x13F3 PUSH1 0x40 MLOAD DUP1 PUSH1 0x80 ADD PUSH1 0x40 MSTORE DUP1 PUSH1 0x0 DUP2 MSTORE PUSH1 0x20 ADD PUSH1 0x60 DUP2 MSTORE PUSH1 0x20 ADD PUSH1 0x0 DUP2 MSTORE PUSH1 0x20 ADD PUSH1 0x0 DUP2 MSTORE POP SWAP1 JUMP JUMPDEST PUSH1 0x0 DUP3 PUSH1 0xE DUP2 PUSH1 0x40 MLOAD PUSH2 0x1406 SWAP2 SWAP1 PUSH2 0x32F2 JUMP JUMPDEST SWAP1 DUP2 MSTORE PUSH1 0x40 MLOAD PUSH1 0x20 SWAP2 DUP2 SWAP1 SUB SWAP2 SWAP1 SWAP2 ADD SWAP1 KECCAK256 PUSH1 0x2 ADD SLOAD PUSH3 0x10000 SWAP1 DIV PUSH1 0xFF AND ISZERO ISZERO PUSH1 0x1 EQ PUSH2 0x1489 JUMPI PUSH1 0x40 MLOAD PUSH3 0x461BCD PUSH1 0xE5 SHL DUP2 MSTORE PUSH1 0x20 PUSH1 0x4 DUP3 ADD MSTORE PUSH1 0x2A PUSH1 0x24 DUP3 ADD MSTORE PUSH32 0x4F6E6C7920616C6C6F77656420616674657220766F7465732068617665206265 PUSH1 0x44 DUP3 ADD MSTORE PUSH10 0x195B8818DBDD5B9D1959 PUSH1 0xB2 SHL PUSH1 0x64 DUP3 ADD MSTORE PUSH1 0x84 ADD PUSH2 0x87A JUMP JUMPDEST PUSH1 0x6 SLOAD PUSH1 0xFF AND ISZERO PUSH2 0x14AC JUMPI PUSH1 0x40 MLOAD PUSH3 0x461BCD PUSH1 0xE5 SHL DUP2 MSTORE PUSH1 0x4 ADD PUSH2 0x87A SWAP1 PUSH2 0x32BB JUMP JUMPDEST PUSH1 0xE DUP5 PUSH1 0x40 MLOAD PUSH2 0x14BC SWAP2 SWAP1 PUSH2 0x32F2 JUMP JUMPDEST SWAP1 DUP2 MSTORE PUSH1 0x40 MLOAD PUSH1 0x20 SWAP2 DUP2 SWAP1 SUB SWAP2 SWAP1 SWAP2 ADD SWAP1 KECCAK256 PUSH1 0x2 ADD SLOAD PUSH4 0x1000000 SWAP1 DIV PUSH1 0xFF AND ISZERO ISZERO PUSH1 0x1 EQ PUSH2 0x152D JUMPI PUSH1 0x40 MLOAD PUSH3 0x461BCD PUSH1 0xE5 SHL DUP2 MSTORE PUSH1 0x20 PUSH1 0x4 DUP3 ADD MSTORE PUSH1 0x18 PUSH1 0x24 DUP3 ADD MSTORE PUSH32 0x526573756C74206973206E6F7420796574207075626C69630000000000000000 PUSH1 0x44 DUP3 ADD MSTORE PUSH1 0x64 ADD PUSH2 0x87A JUMP JUMPDEST PUSH1 0xD DUP5 PUSH1 0x40 MLOAD PUSH2 0x153D SWAP2 SWAP1 PUSH2 0x32F2 JUMP JUMPDEST SWAP1 DUP2 MSTORE PUSH1 0x20 ADD PUSH1 0x40 MLOAD DUP1 SWAP2 SUB SWAP1 KECCAK256 PUSH1 0xE DUP6 PUSH1 0x40 MLOAD PUSH2 0x155B SWAP2 SWAP1 PUSH2 0x32F2 JUMP JUMPDEST SWAP1 DUP2 MSTORE PUSH1 0x20 ADD PUSH1 0x40 MLOAD DUP1 SWAP2 SUB SWAP1 KECCAK256 PUSH1 0x3 ADD SLOAD DUP2 PUSH1 0x40 MLOAD DUP1 PUSH1 0x80 ADD PUSH1 0x40 MSTORE SWAP1 DUP2 PUSH1 0x0 DUP3 ADD SLOAD DUP2 MSTORE PUSH1 0x20 ADD PUSH1 0x1 DUP3 ADD DUP1 SLOAD PUSH2 0x1593 SWAP1 PUSH2 0x31DC JUMP JUMPDEST DUP1 PUSH1 0x1F ADD PUSH1 0x20 DUP1 SWAP2 DIV MUL PUSH1 0x20 ADD PUSH1 0x40 MLOAD SWAP1 DUP2 ADD PUSH1 0x40 MSTORE DUP1 SWAP3 SWAP2 SWAP1 DUP2 DUP2 MSTORE PUSH1 0x20 ADD DUP3 DUP1 SLOAD PUSH2 0x15BF SWAP1 PUSH2 0x31DC JUMP JUMPDEST DUP1 ISZERO PUSH2 0x160C JUMPI DUP1 PUSH1 0x1F LT PUSH2 0x15E1 JUMPI PUSH2 0x100 DUP1 DUP4 SLOAD DIV MUL DUP4 MSTORE SWAP2 PUSH1 0x20 ADD SWAP2 PUSH2 0x160C JUMP JUMPDEST DUP3 ADD SWAP2 SWAP1 PUSH1 0x0 MSTORE PUSH1 0x20 PUSH1 0x0 KECCAK256 SWAP1 JUMPDEST DUP2 SLOAD DUP2 MSTORE SWAP1 PUSH1 0x1 ADD SWAP1 PUSH1 0x20 ADD DUP1 DUP4 GT PUSH2 0x15EF JUMPI DUP3 SWAP1 SUB PUSH1 0x1F AND DUP3 ADD SWAP2 JUMPDEST POP POP POP POP POP DUP2 MSTORE PUSH1 0x20 ADD PUSH1 0x2 DUP3 ADD SLOAD DUP2 MSTORE PUSH1 0x20 ADD PUSH1 0x3 DUP3 ADD SLOAD DUP2 MSTORE POP POP SWAP2 POP SWAP3 POP SWAP3 POP POP SWAP2 POP SWAP2 JUMP JUMPDEST PUSH1 0x6 SLOAD PUSH1 0x0 SWAP1 PUSH1 0xFF AND ISZERO PUSH2 0x165B JUMPI PUSH1 0x40 MLOAD PUSH3 0x461BCD PUSH1 0xE5 SHL DUP2 MSTORE PUSH1 0x4 ADD PUSH2 0x87A SWAP1 PUSH2 0x32BB JUMP JUMPDEST PUSH1 0x1 PUSH1 0x1 PUSH1 0xA0 SHL SUB DUP3 AND PUSH1 0x0 SWAP1 DUP2 MSTORE PUSH1 0x8 PUSH1 0x20 MSTORE PUSH1 0x40 SWAP1 KECCAK256 DUP1 SLOAD PUSH2 0x1707 SWAP2 DUP6 SWAP2 PUSH2 0x1684 SWAP1 PUSH2 0x31DC JUMP JUMPDEST DUP1 PUSH1 0x1F ADD PUSH1 0x20 DUP1 SWAP2 DIV MUL PUSH1 0x20 ADD PUSH1 0x40 MLOAD SWAP1 DUP2 ADD PUSH1 0x40 MSTORE DUP1 SWAP3 SWAP2 SWAP1 DUP2 DUP2 MSTORE PUSH1 0x20 ADD DUP3 DUP1 SLOAD PUSH2 0x16B0 SWAP1 PUSH2 0x31DC JUMP JUMPDEST DUP1 ISZERO PUSH2 0x16FD JUMPI DUP1 PUSH1 0x1F LT PUSH2 0x16D2 JUMPI PUSH2 0x100 DUP1 DUP4 SLOAD DIV MUL DUP4 MSTORE SWAP2 PUSH1 0x20 ADD SWAP2 PUSH2 0x16FD JUMP JUMPDEST DUP3 ADD SWAP2 SWAP1 PUSH1 0x0 MSTORE PUSH1 0x20 PUSH1 0x0 KECCAK256 SWAP1 JUMPDEST DUP2 SLOAD DUP2 MSTORE SWAP1 PUSH1 0x1 ADD SWAP1 PUSH1 0x20 ADD DUP1 DUP4 GT PUSH2 0x16E0 JUMPI DUP3 SWAP1 SUB PUSH1 0x1F AND DUP3 ADD SWAP2 JUMPDEST POP POP POP POP POP PUSH2 0x280F JUMP JUMPDEST SWAP4 SWAP3 POP POP POP JUMP JUMPDEST PUSH1 0x1 SLOAD PUSH1 0x1 PUSH1 0x1 PUSH1 0xA0 SHL SUB AND CALLER EQ PUSH2 0x1738 JUMPI PUSH1 0x40 MLOAD PUSH3 0x461BCD PUSH1 0xE5 SHL DUP2 MSTORE PUSH1 0x4 ADD PUSH2 0x87A SWAP1 PUSH2 0x336F JUMP JUMPDEST PUSH1 0x6 SLOAD PUSH1 0xFF AND ISZERO PUSH2 0x175B JUMPI PUSH1 0x40 MLOAD PUSH3 0x461BCD PUSH1 0xE5 SHL DUP2 MSTORE PUSH1 0x4 ADD PUSH2 0x87A SWAP1 PUSH2 0x32BB JUMP JUMPDEST PUSH1 0x0 PUSH1 0xF DUP3 PUSH1 0x40 MLOAD PUSH2 0x176D SWAP2 SWAP1 PUSH2 0x32F2 JUMP JUMPDEST SWAP1 DUP2 MSTORE PUSH1 0x20 ADD PUSH1 0x40 MLOAD DUP1 SWAP2 SUB SWAP1 KECCAK256 SLOAD LT ISZERO PUSH2 0x17C3 JUMPI PUSH1 0x40 MLOAD PUSH3 0x461BCD PUSH1 0xE5 SHL DUP2 MSTORE PUSH1 0x20 PUSH1 0x4 DUP3 ADD MSTORE PUSH1 0x16 PUSH1 0x24 DUP3 ADD MSTORE PUSH22 0x1B9BC81CDD58DA0818D85D1959DBDC9E48195E1A5CDD PUSH1 0x52 SHL PUSH1 0x44 DUP3 ADD MSTORE PUSH1 0x64 ADD PUSH2 0x87A JUMP JUMPDEST PUSH1 0x0 PUSH1 0xF DUP3 PUSH1 0x40 MLOAD PUSH2 0x17D5 SWAP2 SWAP1 PUSH2 0x32F2 JUMP JUMPDEST SWAP1 DUP2 MSTORE PUSH1 0x20 ADD PUSH1 0x40 MLOAD DUP1 SWAP2 SUB SWAP1 KECCAK256 SLOAD SWAP1 POP PUSH1 0x7 DUP2 DUP2 SLOAD DUP2 LT PUSH2 0x17F9 JUMPI PUSH2 0x17F9 PUSH2 0x323E JUMP JUMPDEST SWAP1 PUSH1 0x0 MSTORE PUSH1 0x20 PUSH1 0x0 KECCAK256 SWAP1 PUSH1 0x4 MUL ADD PUSH1 0xE DUP4 PUSH1 0x40 MLOAD PUSH2 0x1817 SWAP2 SWAP1 PUSH2 0x32F2 JUMP JUMPDEST SWAP1 DUP2 MSTORE PUSH1 0x40 MLOAD SWAP1 DUP2 SWAP1 SUB PUSH1 0x20 ADD SWAP1 KECCAK256 DUP2 SLOAD DUP2 SWAP1 DUP4 SWAP1 PUSH2 0x1835 SWAP1 PUSH2 0x31DC JUMP JUMPDEST PUSH2 0x1840 SWAP3 SWAP2 SWAP1 PUSH2 0x2868 JUMP JUMPDEST POP PUSH1 0x1 DUP3 DUP2 ADD DUP1 SLOAD PUSH2 0x1855 SWAP3 DUP5 ADD SWAP2 SWAP1 PUSH2 0x2967 JUMP JUMPDEST POP PUSH1 0x2 DUP3 DUP2 ADD DUP1 SLOAD SWAP2 DUP4 ADD DUP1 SLOAD PUSH1 0xFF SWAP4 DUP5 AND ISZERO ISZERO PUSH1 0xFF NOT DUP3 AND DUP2 OR DUP4 SSTORE DUP4 SLOAD PUSH2 0x100 SWAP1 DUP2 SWAP1 DIV DUP7 AND ISZERO ISZERO MUL PUSH2 0xFF00 NOT SWAP1 SWAP2 AND PUSH2 0xFFFF NOT SWAP1 SWAP3 AND SWAP2 SWAP1 SWAP2 OR OR DUP1 DUP3 SSTORE DUP3 SLOAD PUSH3 0x10000 SWAP1 DUP2 SWAP1 DIV DUP6 AND ISZERO ISZERO MUL PUSH3 0xFF0000 NOT DUP3 AND DUP2 OR DUP4 SSTORE SWAP3 SLOAD PUSH4 0x1000000 SWAP1 DUP2 SWAP1 DIV SWAP1 SWAP5 AND ISZERO ISZERO SWAP1 SWAP4 MUL PUSH4 0xFF000000 NOT SWAP1 SWAP3 AND PUSH4 0xFFFF0000 NOT SWAP1 SWAP4 AND SWAP3 SWAP1 SWAP3 OR OR SWAP1 SSTORE PUSH1 0x3 SWAP2 DUP3 ADD SLOAD SWAP2 ADD SSTORE PUSH1 0x7 DUP1 SLOAD PUSH1 0x1 SWAP2 SWAP1 DUP4 SWAP1 DUP2 LT PUSH2 0x18FD JUMPI PUSH2 0x18FD PUSH2 0x323E JUMP JUMPDEST SWAP1 PUSH1 0x0 MSTORE PUSH1 0x20 PUSH1 0x0 KECCAK256 SWAP1 PUSH1 0x4 MUL ADD PUSH1 0x2 ADD PUSH1 0x0 PUSH2 0x100 EXP DUP2 SLOAD DUP2 PUSH1 0xFF MUL NOT AND SWAP1 DUP4 ISZERO ISZERO MUL OR SWAP1 SSTORE POP PUSH1 0x1 PUSH1 0xE DUP4 PUSH1 0x40 MLOAD PUSH2 0x1937 SWAP2 SWAP1 PUSH2 0x32F2 JUMP JUMPDEST SWAP1 DUP2 MSTORE PUSH1 0x40 MLOAD SWAP1 DUP2 SWAP1 SUB PUSH1 0x20 ADD DUP2 KECCAK256 PUSH1 0x2 ADD DUP1 SLOAD SWAP3 ISZERO ISZERO PUSH1 0xFF NOT SWAP1 SWAP4 AND SWAP3 SWAP1 SWAP3 OR SWAP1 SWAP2 SSTORE PUSH32 0x226E81A7D3388DE1EC48D35E19F2946DB8A13C1DF85088428A21A00A75FBFCDC SWAP1 PUSH2 0x10ED SWAP1 DUP5 SWAP1 PUSH1 0x1 SWAP1 PUSH2 0x33B2 JUMP JUMPDEST PUSH1 0x1 SLOAD PUSH1 0x1 PUSH1 0x1 PUSH1 0xA0 SHL SUB AND CALLER EQ PUSH2 0x19B5 JUMPI PUSH1 0x40 MLOAD PUSH3 0x461BCD PUSH1 0xE5 SHL DUP2 MSTORE PUSH1 0x4 ADD PUSH2 0x87A SWAP1 PUSH2 0x336F JUMP JUMPDEST PUSH1 0x6 SLOAD PUSH1 0xFF AND ISZERO PUSH2 0x19D8 JUMPI PUSH1 0x40 MLOAD PUSH3 0x461BCD PUSH1 0xE5 SHL DUP2 MSTORE PUSH1 0x4 ADD PUSH2 0x87A SWAP1 PUSH2 0x32BB JUMP JUMPDEST PUSH2 0x19E4 PUSH1 0x7 PUSH1 0x0 PUSH2 0x29A6 JUMP JUMPDEST JUMP JUMPDEST PUSH1 0x1 SLOAD PUSH1 0x0 SWAP1 PUSH1 0x1 PUSH1 0x1 PUSH1 0xA0 SHL SUB AND CALLER EQ DUP1 PUSH2 0x1A1C JUMPI POP CALLER PUSH1 0x0 SWAP1 DUP2 MSTORE PUSH1 0x8 PUSH1 0x20 MSTORE PUSH1 0x40 SWAP1 KECCAK256 DUP1 SLOAD PUSH2 0x1A1C SWAP2 SWAP1 PUSH2 0x7BB SWAP1 PUSH2 0x31DC JUMP JUMPDEST PUSH2 0x1A38 JUMPI PUSH1 0x40 MLOAD PUSH3 0x461BCD PUSH1 0xE5 SHL DUP2 MSTORE PUSH1 0x4 ADD PUSH2 0x87A SWAP1 PUSH2 0x326D JUMP JUMPDEST PUSH1 0x6 SLOAD PUSH1 0xFF AND ISZERO PUSH2 0x1A5B JUMPI PUSH1 0x40 MLOAD PUSH3 0x461BCD PUSH1 0xE5 SHL DUP2 MSTORE PUSH1 0x4 ADD PUSH2 0x87A SWAP1 PUSH2 0x32BB JUMP JUMPDEST PUSH1 0x7 SLOAD PUSH1 0x40 MLOAD DUP2 SWAP1 PUSH1 0xF SWAP1 PUSH2 0x1A71 SWAP1 DUP8 SWAP1 PUSH2 0x32F2 JUMP JUMPDEST SWAP1 DUP2 MSTORE PUSH1 0x40 DUP1 MLOAD SWAP2 DUP3 SWAP1 SUB PUSH1 0x20 SWAP1 DUP2 ADD DUP4 KECCAK256 SWAP4 SWAP1 SWAP4 SSTORE PUSH1 0xE0 DUP3 ADD DUP2 MSTORE DUP7 DUP3 MSTORE DUP2 DUP4 ADD DUP7 SWAP1 MSTORE PUSH1 0x0 SWAP1 DUP3 ADD DUP2 SWAP1 MSTORE PUSH1 0x60 DUP3 ADD DUP2 SWAP1 MSTORE PUSH1 0x80 DUP3 ADD DUP2 SWAP1 MSTORE PUSH1 0xA0 DUP3 ADD DUP2 SWAP1 MSTORE PUSH1 0xC0 DUP3 ADD DUP2 SWAP1 MSTORE PUSH1 0x7 DUP1 SLOAD PUSH1 0x1 DUP2 ADD DUP3 SSTORE SWAP2 MSTORE DUP2 MLOAD DUP1 MLOAD SWAP3 SWAP4 PUSH1 0x4 SWAP1 SWAP3 MUL PUSH32 0xA66CC928B5EDB82AF9BD49922954155AB7B0942694BEA4CE44661D9A8736C688 ADD SWAP3 PUSH2 0x1B01 SWAP3 DUP5 SWAP3 ADD SWAP1 PUSH2 0x28F3 JUMP JUMPDEST POP PUSH1 0x20 DUP3 DUP2 ADD MLOAD DUP1 MLOAD PUSH2 0x1B1A SWAP3 PUSH1 0x1 DUP6 ADD SWAP3 ADD SWAP1 PUSH2 0x29CA JUMP JUMPDEST POP PUSH1 0x40 DUP3 ADD MLOAD PUSH1 0x2 DUP3 ADD DUP1 SLOAD PUSH1 0x60 DUP6 ADD MLOAD PUSH1 0x80 DUP7 ADD MLOAD PUSH1 0xA0 DUP8 ADD MLOAD ISZERO ISZERO PUSH4 0x1000000 MUL PUSH4 0xFF000000 NOT SWAP2 ISZERO ISZERO PUSH3 0x10000 MUL SWAP2 SWAP1 SWAP2 AND PUSH4 0xFFFF0000 NOT SWAP3 ISZERO ISZERO PUSH2 0x100 MUL PUSH2 0xFF00 NOT SWAP7 ISZERO ISZERO SWAP7 SWAP1 SWAP7 AND PUSH2 0xFFFF NOT SWAP1 SWAP5 AND SWAP4 SWAP1 SWAP4 OR SWAP5 SWAP1 SWAP5 OR AND OR SWAP2 SWAP1 SWAP2 OR SWAP1 SSTORE PUSH1 0xC0 SWAP1 SWAP2 ADD MLOAD PUSH1 0x3 SWAP1 SWAP2 ADD SSTORE POP PUSH1 0x1 SWAP1 POP SWAP3 SWAP2 POP POP JUMP JUMPDEST CALLER PUSH1 0x0 SWAP1 DUP2 MSTORE PUSH1 0x8 PUSH1 0x20 MSTORE PUSH1 0x40 DUP2 KECCAK256 PUSH1 0x1 ADD SLOAD PUSH1 0x60 SWAP2 SWAP1 PUSH1 0xFF AND PUSH2 0x1C07 JUMPI PUSH1 0x40 MLOAD PUSH3 0x461BCD PUSH1 0xE5 SHL DUP2 MSTORE PUSH1 0x20 PUSH1 0x4 DUP3 ADD MSTORE PUSH1 0x24 DUP1 DUP3 ADD MSTORE PUSH32 0x596F75206D75737420626520612072656769737465726564207374616B65686F PUSH1 0x44 DUP3 ADD MSTORE PUSH4 0x363232B9 PUSH1 0xE1 SHL PUSH1 0x64 DUP3 ADD MSTORE PUSH1 0x84 ADD PUSH2 0x87A JUMP JUMPDEST PUSH1 0x6 SLOAD PUSH1 0xFF AND ISZERO PUSH2 0x1C2A JUMPI PUSH1 0x40 MLOAD PUSH3 0x461BCD PUSH1 0xE5 SHL DUP2 MSTORE PUSH1 0x4 ADD PUSH2 0x87A SWAP1 PUSH2 0x32BB JUMP JUMPDEST PUSH1 0xE DUP5 PUSH1 0x40 MLOAD PUSH2 0x1C3A SWAP2 SWAP1 PUSH2 0x32F2 JUMP JUMPDEST SWAP1 DUP2 MSTORE PUSH1 0x40 MLOAD SWAP1 DUP2 SWAP1 SUB PUSH1 0x20 ADD SWAP1 KECCAK256 PUSH1 0x2 ADD SLOAD PUSH1 0xFF AND ISZERO ISZERO PUSH1 0x1 EQ PUSH2 0x1C71 JUMPI PUSH1 0x40 MLOAD PUSH3 0x461BCD PUSH1 0xE5 SHL DUP2 MSTORE PUSH1 0x4 ADD PUSH2 0x87A SWAP1 PUSH2 0x33D6 JUMP JUMPDEST PUSH1 0xE DUP5 PUSH1 0x40 MLOAD PUSH2 0x1C81 SWAP2 SWAP1 PUSH2 0x32F2 JUMP JUMPDEST SWAP1 DUP2 MSTORE PUSH1 0x40 MLOAD SWAP1 DUP2 SWAP1 SUB PUSH1 0x20 ADD SWAP1 KECCAK256 PUSH1 0x2 ADD SLOAD PUSH1 0xFF PUSH2 0x100 SWAP1 SWAP2 DIV AND ISZERO PUSH2 0x1CBA JUMPI PUSH1 0x40 MLOAD PUSH3 0x461BCD PUSH1 0xE5 SHL DUP2 MSTORE PUSH1 0x4 ADD PUSH2 0x87A SWAP1 PUSH2 0x33D6 JUMP JUMPDEST PUSH1 0xA PUSH1 0x0 PUSH1 0xC DUP7 PUSH1 0x40 MLOAD PUSH2 0x1CCE SWAP2 SWAP1 PUSH2 0x32F2 JUMP JUMPDEST SWAP1 DUP2 MSTORE PUSH1 0x40 DUP1 MLOAD PUSH1 0x20 SWAP3 DUP2 SWAP1 SUB DUP4 ADD SWAP1 KECCAK256 SLOAD DUP4 MSTORE DUP3 DUP3 ADD SWAP4 SWAP1 SWAP4 MSTORE SWAP1 DUP3 ADD PUSH1 0x0 SWAP1 DUP2 KECCAK256 CALLER DUP3 MSTORE SWAP1 SWAP2 MSTORE KECCAK256 SLOAD PUSH1 0xFF AND ISZERO PUSH2 0x1D54 JUMPI PUSH1 0x40 MLOAD PUSH3 0x461BCD PUSH1 0xE5 SHL DUP2 MSTORE PUSH1 0x20 PUSH1 0x4 DUP3 ADD MSTORE PUSH1 0x22 PUSH1 0x24 DUP3 ADD MSTORE PUSH32 0x43616E6E6F7420766F746520747769636520666F7220612063617465676F7279 PUSH1 0x44 DUP3 ADD MSTORE PUSH2 0x1717 PUSH1 0xF1 SHL PUSH1 0x64 DUP3 ADD MSTORE PUSH1 0x84 ADD PUSH2 0x87A JUMP JUMPDEST CALLER PUSH1 0x0 DUP2 DUP2 MSTORE PUSH1 0x8 PUSH1 0x20 MSTORE PUSH1 0x40 DUP1 DUP3 KECCAK256 PUSH1 0x1 ADD DUP1 SLOAD PUSH2 0xFF00 NOT AND PUSH2 0x100 OR SWAP1 SSTORE SWAP1 SLOAD SWAP1 MLOAD PUSH4 0x70A08231 PUSH1 0xE0 SHL DUP2 MSTORE PUSH1 0x4 DUP2 ADD SWAP3 SWAP1 SWAP3 MSTORE PUSH8 0xDE0B6B3A7640000 SWAP2 PUSH1 0x1 PUSH1 0x1 PUSH1 0xA0 SHL SUB SWAP1 SWAP2 AND SWAP1 PUSH4 0x70A08231 SWAP1 PUSH1 0x24 ADD PUSH1 0x20 PUSH1 0x40 MLOAD DUP1 DUP4 SUB DUP2 DUP7 GAS STATICCALL ISZERO DUP1 ISZERO PUSH2 0x1DC6 JUMPI RETURNDATASIZE PUSH1 0x0 DUP1 RETURNDATACOPY RETURNDATASIZE PUSH1 0x0 REVERT JUMPDEST POP POP POP POP PUSH1 0x40 MLOAD RETURNDATASIZE PUSH1 0x1F NOT PUSH1 0x1F DUP3 ADD AND DUP3 ADD DUP1 PUSH1 0x40 MSTORE POP DUP2 ADD SWAP1 PUSH2 0x1DEA SWAP2 SWAP1 PUSH2 0x3421 JUMP JUMPDEST GT PUSH2 0x1E69 JUMPI PUSH1 0x40 MLOAD PUSH3 0x461BCD PUSH1 0xE5 SHL DUP2 MSTORE PUSH1 0x20 PUSH1 0x4 DUP3 ADD MSTORE PUSH1 0x43 PUSH1 0x24 DUP3 ADD MSTORE PUSH32 0x596F75522062616C616E63652069732063757272656E746C79206E6F74207375 PUSH1 0x44 DUP3 ADD MSTORE PUSH32 0x6666696369656E7420746F20766F74652E204E6F742061207374616B65686F6C PUSH1 0x64 DUP3 ADD MSTORE PUSH3 0x3232B9 PUSH1 0xE9 SHL PUSH1 0x84 DUP3 ADD MSTORE PUSH1 0xA4 ADD PUSH2 0x87A JUMP JUMPDEST CALLER PUSH1 0x0 SWAP1 DUP2 MSTORE PUSH1 0x8 PUSH1 0x20 SWAP1 DUP2 MSTORE PUSH1 0x40 DUP1 DUP4 KECCAK256 PUSH1 0x3 ADD SLOAD DUP7 DUP5 MSTORE PUSH1 0xB SWAP1 SWAP3 MSTORE DUP1 DUP4 KECCAK256 SWAP1 MLOAD DUP4 SWAP1 PUSH1 0xC SWAP1 PUSH2 0x1E9C SWAP1 DUP11 SWAP1 PUSH2 0x32F2 JUMP JUMPDEST SWAP1 DUP2 MSTORE PUSH1 0x20 ADD PUSH1 0x40 MLOAD DUP1 SWAP2 SUB SWAP1 KECCAK256 SLOAD DUP2 MSTORE PUSH1 0x20 ADD SWAP1 DUP2 MSTORE PUSH1 0x20 ADD PUSH1 0x0 KECCAK256 PUSH1 0x0 DUP3 DUP3 SLOAD PUSH2 0x1EC8 SWAP2 SWAP1 PUSH2 0x3226 JUMP JUMPDEST SWAP2 DUP3 SWAP1 SSTORE POP PUSH1 0x0 DUP7 DUP2 MSTORE PUSH1 0x9 PUSH1 0x20 MSTORE PUSH1 0x40 DUP1 DUP3 KECCAK256 PUSH1 0x3 ADD DUP4 SWAP1 SSTORE MLOAD SWAP2 SWAP4 POP PUSH1 0x1 SWAP3 POP PUSH1 0xA SWAP2 PUSH1 0xC SWAP1 PUSH2 0x1EFB SWAP1 DUP11 SWAP1 PUSH2 0x32F2 JUMP JUMPDEST SWAP1 DUP2 MSTORE PUSH1 0x40 DUP1 MLOAD PUSH1 0x20 SWAP3 DUP2 SWAP1 SUB DUP4 ADD SWAP1 KECCAK256 SLOAD DUP4 MSTORE DUP3 DUP3 ADD SWAP4 SWAP1 SWAP4 MSTORE SWAP1 DUP3 ADD PUSH1 0x0 SWAP1 DUP2 KECCAK256 CALLER DUP1 DUP4 MSTORE SWAP3 MSTORE DUP3 SWAP1 KECCAK256 DUP1 SLOAD PUSH1 0xFF NOT AND SWAP4 ISZERO ISZERO SWAP4 SWAP1 SWAP4 OR SWAP1 SWAP3 SSTORE MLOAD PUSH32 0x7CF072052F53D68961097943ED95E47F628A7E51E185D0FA17786DE527F4D8EE SWAP2 PUSH2 0x1F65 SWAP2 DUP9 SWAP1 PUSH2 0x343A JUMP JUMPDEST PUSH1 0x40 MLOAD DUP1 SWAP2 SUB SWAP1 LOG1 POP SWAP3 SWAP4 SWAP2 SWAP3 POP POP JUMP JUMPDEST PUSH1 0x1 SLOAD PUSH1 0x1 PUSH1 0x1 PUSH1 0xA0 SHL SUB AND CALLER EQ PUSH2 0x1FA0 JUMPI PUSH1 0x40 MLOAD PUSH3 0x461BCD PUSH1 0xE5 SHL DUP2 MSTORE PUSH1 0x4 ADD PUSH2 0x87A SWAP1 PUSH2 0x336F JUMP JUMPDEST PUSH1 0x6 SLOAD PUSH1 0xFF AND ISZERO PUSH2 0x1FC3 JUMPI PUSH1 0x40 MLOAD PUSH3 0x461BCD PUSH1 0xE5 SHL DUP2 MSTORE PUSH1 0x4 ADD PUSH2 0x87A SWAP1 PUSH2 0x32BB JUMP JUMPDEST PUSH1 0x1 PUSH1 0xE DUP3 PUSH1 0x40 MLOAD PUSH2 0x1FD5 SWAP2 SWAP1 PUSH2 0x32F2 JUMP JUMPDEST SWAP1 DUP2 MSTORE PUSH1 0x20 ADD PUSH1 0x40 MLOAD DUP1 SWAP2 SUB SWAP1 KECCAK256 PUSH1 0x2 ADD PUSH1 0x1 PUSH2 0x100 EXP DUP2 SLOAD DUP2 PUSH1 0xFF MUL NOT AND SWAP1 DUP4 ISZERO ISZERO MUL OR SWAP1 SSTORE POP PUSH1 0x0 PUSH1 0xF DUP3 PUSH1 0x40 MLOAD PUSH2 0x200F SWAP2 SWAP1 PUSH2 0x32F2 JUMP JUMPDEST SWAP1 DUP2 MSTORE PUSH1 0x20 ADD PUSH1 0x40 MLOAD DUP1 SWAP2 SUB SWAP1 KECCAK256 SLOAD SWAP1 POP PUSH1 0x1 PUSH1 0x7 DUP3 DUP2 SLOAD DUP2 LT PUSH2 0x2035 JUMPI PUSH2 0x2035 PUSH2 0x323E JUMP JUMPDEST SWAP1 PUSH1 0x0 MSTORE PUSH1 0x20 PUSH1 0x0 KECCAK256 SWAP1 PUSH1 0x4 MUL ADD PUSH1 0x2 ADD PUSH1 0x1 PUSH2 0x100 EXP DUP2 SLOAD DUP2 PUSH1 0xFF MUL NOT AND SWAP1 DUP4 ISZERO ISZERO MUL OR SWAP1 SSTORE POP PUSH32 0x94A0EB701F9537E6884C310036F392249D21A74C75E75F5FC9987AFC23F7758 DUP3 PUSH1 0x1 PUSH1 0x40 MLOAD PUSH2 0x10ED SWAP3 SWAP2 SWAP1 PUSH2 0x33B2 JUMP JUMPDEST PUSH2 0x20BA PUSH1 0x40 MLOAD DUP1 PUSH1 0x80 ADD PUSH1 0x40 MSTORE DUP1 PUSH1 0x0 DUP2 MSTORE PUSH1 0x20 ADD PUSH1 0x60 DUP2 MSTORE PUSH1 0x20 ADD PUSH1 0x0 DUP2 MSTORE PUSH1 0x20 ADD PUSH1 0x0 DUP2 MSTORE POP SWAP1 JUMP JUMPDEST PUSH1 0x1 SLOAD PUSH1 0x60 SWAP1 PUSH1 0x1 PUSH1 0x1 PUSH1 0xA0 SHL SUB AND CALLER EQ DUP1 PUSH2 0x20F0 JUMPI POP CALLER PUSH1 0x0 SWAP1 DUP2 MSTORE PUSH1 0x8 PUSH1 0x20 MSTORE PUSH1 0x40 SWAP1 KECCAK256 DUP1 SLOAD PUSH2 0x20F0 SWAP2 SWAP1 PUSH2 0x7BB SWAP1 PUSH2 0x31DC JUMP JUMPDEST DUP1 PUSH2 0x21B9 JUMPI POP CALLER PUSH1 0x0 SWAP1 DUP2 MSTORE PUSH1 0x8 PUSH1 0x20 MSTORE PUSH1 0x40 SWAP1 KECCAK256 DUP1 SLOAD PUSH2 0x21B9 SWAP2 SWAP1 PUSH2 0x2115 SWAP1 PUSH2 0x31DC JUMP JUMPDEST DUP1 PUSH1 0x1F ADD PUSH1 0x20 DUP1 SWAP2 DIV MUL PUSH1 0x20 ADD PUSH1 0x40 MLOAD SWAP1 DUP2 ADD PUSH1 0x40 MSTORE DUP1 SWAP3 SWAP2 SWAP1 DUP2 DUP2 MSTORE PUSH1 0x20 ADD DUP3 DUP1 SLOAD PUSH2 0x2141 SWAP1 PUSH2 0x31DC JUMP JUMPDEST DUP1 ISZERO PUSH2 0x218E JUMPI DUP1 PUSH1 0x1F LT PUSH2 0x2163 JUMPI PUSH2 0x100 DUP1 DUP4 SLOAD DIV MUL DUP4 MSTORE SWAP2 PUSH1 0x20 ADD SWAP2 PUSH2 0x218E JUMP JUMPDEST DUP3 ADD SWAP2 SWAP1 PUSH1 0x0 MSTORE PUSH1 0x20 PUSH1 0x0 KECCAK256 SWAP1 JUMPDEST DUP2 SLOAD DUP2 MSTORE SWAP1 PUSH1 0x1 ADD SWAP1 PUSH1 0x20 ADD DUP1 DUP4 GT PUSH2 0x2171 JUMPI DUP3 SWAP1 SUB PUSH1 0x1F AND DUP3 ADD SWAP2 JUMPDEST POP POP POP POP POP PUSH1 0x40 MLOAD DUP1 PUSH1 0x40 ADD PUSH1 0x40 MSTORE DUP1 PUSH1 0x8 DUP2 MSTORE PUSH1 0x20 ADD PUSH8 0x3234B932B1BA37B9 PUSH1 0xC1 SHL DUP2 MSTORE POP PUSH2 0x280F JUMP JUMPDEST PUSH2 0x222B JUMPI PUSH1 0x40 MLOAD PUSH3 0x461BCD PUSH1 0xE5 SHL DUP2 MSTORE PUSH1 0x20 PUSH1 0x4 DUP3 ADD MSTORE PUSH1 0x38 PUSH1 0x24 DUP3 ADD MSTORE PUSH32 0x416363657373206772616E74656420746F206F6E6C7920746865206368616972 PUSH1 0x44 DUP3 ADD MSTORE PUSH32 0x6D616E2C2074656163686572206F72206469726563746F720000000000000000 PUSH1 0x64 DUP3 ADD MSTORE PUSH1 0x84 ADD PUSH2 0x87A JUMP JUMPDEST PUSH1 0x6 SLOAD PUSH1 0xFF AND ISZERO PUSH2 0x224E JUMPI PUSH1 0x40 MLOAD PUSH3 0x461BCD PUSH1 0xE5 SHL DUP2 MSTORE PUSH1 0x4 ADD PUSH2 0x87A SWAP1 PUSH2 0x32BB JUMP JUMPDEST PUSH1 0xE DUP4 PUSH1 0x40 MLOAD PUSH2 0x225E SWAP2 SWAP1 PUSH2 0x32F2 JUMP JUMPDEST SWAP1 DUP2 MSTORE PUSH1 0x40 MLOAD PUSH1 0x20 SWAP2 DUP2 SWAP1 SUB SWAP2 SWAP1 SWAP2 ADD SWAP1 KECCAK256 PUSH1 0x2 ADD SLOAD PUSH3 0x10000 SWAP1 DIV PUSH1 0xFF AND ISZERO ISZERO PUSH1 0x1 EQ PUSH2 0x22F4 JUMPI PUSH1 0x40 MLOAD PUSH3 0x461BCD PUSH1 0xE5 SHL DUP2 MSTORE PUSH1 0x20 PUSH1 0x4 DUP3 ADD MSTORE PUSH1 0x3D PUSH1 0x24 DUP3 ADD MSTORE PUSH32 0x546869732073657373696F6E206973207374696C6C206163746976652C20766F PUSH1 0x44 DUP3 ADD MSTORE PUSH32 0x74696E6720686173206E6F7420796574206265656E20636F756E746564000000 PUSH1 0x64 DUP3 ADD MSTORE PUSH1 0x84 ADD PUSH2 0x87A JUMP JUMPDEST PUSH1 0x0 PUSH1 0xF DUP5 PUSH1 0x40 MLOAD PUSH2 0x2306 SWAP2 SWAP1 PUSH2 0x32F2 JUMP JUMPDEST SWAP1 DUP2 MSTORE PUSH1 0x20 ADD PUSH1 0x40 MLOAD DUP1 SWAP2 SUB SWAP1 KECCAK256 SLOAD SWAP1 POP PUSH1 0x1 PUSH1 0x7 DUP3 DUP2 SLOAD DUP2 LT PUSH2 0x232C JUMPI PUSH2 0x232C PUSH2 0x323E JUMP JUMPDEST SWAP1 PUSH1 0x0 MSTORE PUSH1 0x20 PUSH1 0x0 KECCAK256 SWAP1 PUSH1 0x4 MUL ADD PUSH1 0x2 ADD PUSH1 0x3 PUSH2 0x100 EXP DUP2 SLOAD DUP2 PUSH1 0xFF MUL NOT AND SWAP1 DUP4 ISZERO ISZERO MUL OR SWAP1 SSTORE POP PUSH1 0x1 PUSH1 0xE DUP6 PUSH1 0x40 MLOAD PUSH2 0x2366 SWAP2 SWAP1 PUSH2 0x32F2 JUMP JUMPDEST SWAP1 DUP2 MSTORE PUSH1 0x40 MLOAD SWAP1 DUP2 SWAP1 SUB PUSH1 0x20 ADD DUP2 KECCAK256 PUSH1 0x2 ADD DUP1 SLOAD SWAP3 ISZERO ISZERO PUSH4 0x1000000 MUL PUSH4 0xFF000000 NOT SWAP1 SWAP4 AND SWAP3 SWAP1 SWAP3 OR SWAP1 SWAP2 SSTORE PUSH1 0xD SWAP1 PUSH2 0x23A1 SWAP1 DUP7 SWAP1 PUSH2 0x32F2 JUMP JUMPDEST SWAP1 DUP2 MSTORE PUSH1 0x20 ADD PUSH1 0x40 MLOAD DUP1 SWAP2 SUB SWAP1 KECCAK256 DUP5 DUP2 PUSH1 0x40 MLOAD DUP1 PUSH1 0x80 ADD PUSH1 0x40 MSTORE SWAP1 DUP2 PUSH1 0x0 DUP3 ADD SLOAD DUP2 MSTORE PUSH1 0x20 ADD PUSH1 0x1 DUP3 ADD DUP1 SLOAD PUSH2 0x1593 SWAP1 PUSH2 0x31DC JUMP JUMPDEST PUSH1 0x8 PUSH1 0x20 MSTORE PUSH1 0x0 SWAP1 DUP2 MSTORE PUSH1 0x40 SWAP1 KECCAK256 DUP1 SLOAD DUP2 SWAP1 PUSH2 0x23F1 SWAP1 PUSH2 0x31DC JUMP JUMPDEST DUP1 PUSH1 0x1F ADD PUSH1 0x20 DUP1 SWAP2 DIV MUL PUSH1 0x20 ADD PUSH1 0x40 MLOAD SWAP1 DUP2 ADD PUSH1 0x40 MSTORE DUP1 SWAP3 SWAP2 SWAP1 DUP2 DUP2 MSTORE PUSH1 0x20 ADD DUP3 DUP1 SLOAD PUSH2 0x241D SWAP1 PUSH2 0x31DC JUMP JUMPDEST DUP1 ISZERO PUSH2 0x246A JUMPI DUP1 PUSH1 0x1F LT PUSH2 0x243F JUMPI PUSH2 0x100 DUP1 DUP4 SLOAD DIV MUL DUP4 MSTORE SWAP2 PUSH1 0x20 ADD SWAP2 PUSH2 0x246A JUMP JUMPDEST DUP3 ADD SWAP2 SWAP1 PUSH1 0x0 MSTORE PUSH1 0x20 PUSH1 0x0 KECCAK256 SWAP1 JUMPDEST DUP2 SLOAD DUP2 MSTORE SWAP1 PUSH1 0x1 ADD SWAP1 PUSH1 0x20 ADD DUP1 DUP4 GT PUSH2 0x244D JUMPI DUP3 SWAP1 SUB PUSH1 0x1F AND DUP3 ADD SWAP2 JUMPDEST POP POP POP PUSH1 0x1 DUP5 ADD SLOAD PUSH1 0x2 DUP6 ADD SLOAD PUSH1 0x3 SWAP1 SWAP6 ADD SLOAD SWAP4 SWAP5 PUSH1 0xFF DUP1 DUP4 AND SWAP6 PUSH2 0x100 SWAP1 SWAP4 DIV AND SWAP4 POP SWAP2 POP DUP6 JUMP JUMPDEST PUSH1 0x4 DUP2 DUP2 SLOAD DUP2 LT PUSH2 0x24A3 JUMPI PUSH1 0x0 DUP1 REVERT JUMPDEST SWAP1 PUSH1 0x0 MSTORE PUSH1 0x20 PUSH1 0x0 KECCAK256 ADD PUSH1 0x0 SWAP2 POP SWAP1 POP DUP1 SLOAD PUSH2 0x24BE SWAP1 PUSH2 0x31DC JUMP JUMPDEST DUP1 PUSH1 0x1F ADD PUSH1 0x20 DUP1 SWAP2 DIV MUL PUSH1 0x20 ADD PUSH1 0x40 MLOAD SWAP1 DUP2 ADD PUSH1 0x40 MSTORE DUP1 SWAP3 SWAP2 SWAP1 DUP2 DUP2 MSTORE PUSH1 0x20 ADD DUP3 DUP1 SLOAD PUSH2 0x24EA SWAP1 PUSH2 0x31DC JUMP JUMPDEST DUP1 ISZERO PUSH2 0x2537 JUMPI DUP1 PUSH1 0x1F LT PUSH2 0x250C JUMPI PUSH2 0x100 DUP1 DUP4 SLOAD DIV MUL DUP4 MSTORE SWAP2 PUSH1 0x20 ADD SWAP2 PUSH2 0x2537 JUMP JUMPDEST DUP3 ADD SWAP2 SWAP1 PUSH1 0x0 MSTORE PUSH1 0x20 PUSH1 0x0 KECCAK256 SWAP1 JUMPDEST DUP2 SLOAD DUP2 MSTORE SWAP1 PUSH1 0x1 ADD SWAP1 PUSH1 0x20 ADD DUP1 DUP4 GT PUSH2 0x251A JUMPI DUP3 SWAP1 SUB PUSH1 0x1F AND DUP3 ADD SWAP2 JUMPDEST POP POP POP POP POP DUP2 JUMP JUMPDEST PUSH1 0x1 SLOAD PUSH1 0x1 PUSH1 0x1 PUSH1 0xA0 SHL SUB AND CALLER EQ PUSH2 0x2569 JUMPI PUSH1 0x40 MLOAD PUSH3 0x461BCD PUSH1 0xE5 SHL DUP2 MSTORE PUSH1 0x4 ADD PUSH2 0x87A SWAP1 PUSH2 0x336F JUMP JUMPDEST PUSH1 0x6 SLOAD PUSH1 0xFF AND ISZERO PUSH2 0x258C JUMPI PUSH1 0x40 MLOAD PUSH3 0x461BCD PUSH1 0xE5 SHL DUP2 MSTORE PUSH1 0x4 ADD PUSH2 0x87A SWAP1 PUSH2 0x32BB JUMP JUMPDEST PUSH1 0x1 PUSH1 0x1 PUSH1 0xA0 SHL SUB DUP2 AND PUSH1 0x0 SWAP1 DUP2 MSTORE PUSH1 0x8 PUSH1 0x20 MSTORE PUSH1 0x40 SWAP1 KECCAK256 PUSH1 0x1 SWAP1 DUP2 ADD SLOAD PUSH1 0xFF AND ISZERO ISZERO EQ PUSH2 0x261A JUMPI PUSH1 0x40 MLOAD PUSH3 0x461BCD PUSH1 0xE5 SHL DUP2 MSTORE PUSH1 0x20 PUSH1 0x4 DUP3 ADD MSTORE PUSH1 0x35 PUSH1 0x24 DUP3 ADD MSTORE PUSH32 0x43616E27742061737369676E206120726F6C65206F662063686169726D616E20 PUSH1 0x44 DUP3 ADD MSTORE PUSH21 0x3A379030903737B71039BA30B5B2B437B63232B917 PUSH1 0x59 SHL PUSH1 0x64 DUP3 ADD MSTORE PUSH1 0x84 ADD PUSH2 0x87A JUMP JUMPDEST PUSH1 0x40 DUP1 MLOAD DUP1 DUP3 ADD DUP3 MSTORE PUSH1 0x8 DUP1 DUP3 MSTORE PUSH8 0x31B430B4B936B0B7 PUSH1 0xC1 SHL PUSH1 0x20 DUP1 DUP5 ADD SWAP2 DUP3 MSTORE PUSH1 0x1 PUSH1 0x1 PUSH1 0xA0 SHL SUB DUP7 AND PUSH1 0x0 SWAP1 DUP2 MSTORE SWAP3 SWAP1 MSTORE SWAP3 SWAP1 KECCAK256 SWAP1 MLOAD PUSH2 0x265D SWAP3 SWAP1 PUSH2 0x28F3 JUMP JUMPDEST POP PUSH1 0x40 DUP1 MLOAD DUP1 DUP3 ADD DUP3 MSTORE PUSH1 0x8 DUP1 DUP3 MSTORE PUSH8 0x3234B932B1BA37B9 PUSH1 0xC1 SHL PUSH1 0x20 DUP1 DUP5 ADD SWAP2 DUP3 MSTORE CALLER PUSH1 0x0 SWAP1 DUP2 MSTORE SWAP3 SWAP1 MSTORE SWAP3 SWAP1 KECCAK256 SWAP1 MLOAD PUSH2 0x2698 SWAP3 SWAP1 PUSH2 0x28F3 JUMP JUMPDEST POP CALLER PUSH1 0x0 DUP2 DUP2 MSTORE PUSH1 0x8 PUSH1 0x20 SWAP1 DUP2 MSTORE PUSH1 0x40 DUP1 DUP4 KECCAK256 PUSH1 0x3 SWAP1 DUP2 ADD DUP2 SWAP1 SSTORE PUSH1 0x1 PUSH1 0x1 PUSH1 0xA0 SHL SUB DUP7 AND DUP1 DUP6 MSTORE SWAP4 DUP3 SWAP1 KECCAK256 PUSH1 0x4 SWAP2 ADD SSTORE PUSH1 0x1 DUP1 SLOAD PUSH1 0x1 PUSH1 0x1 PUSH1 0xA0 SHL SUB NOT AND DUP5 OR SWAP1 SSTORE DUP1 MLOAD SWAP4 DUP5 MSTORE SWAP1 DUP4 ADD SWAP2 SWAP1 SWAP2 MSTORE PUSH32 0x9F74F4499E58A849C37599CB9CA3E78131F42231AF29D39292C4CCEC633A07A3 SWAP2 ADD PUSH1 0x40 MLOAD DUP1 SWAP2 SUB SWAP1 LOG1 POP JUMP JUMPDEST PUSH1 0x1 SLOAD PUSH1 0x60 SWAP1 PUSH1 0x1 PUSH1 0x1 PUSH1 0xA0 SHL SUB AND CALLER EQ DUP1 PUSH2 0x274B JUMPI POP CALLER PUSH1 0x0 SWAP1 DUP2 MSTORE PUSH1 0x8 PUSH1 0x20 MSTORE PUSH1 0x40 SWAP1 KECCAK256 DUP1 SLOAD PUSH2 0x274B SWAP2 SWAP1 PUSH2 0x7BB SWAP1 PUSH2 0x31DC JUMP JUMPDEST PUSH2 0x2767 JUMPI PUSH1 0x40 MLOAD PUSH3 0x461BCD PUSH1 0xE5 SHL DUP2 MSTORE PUSH1 0x4 ADD PUSH2 0x87A SWAP1 PUSH2 0x326D JUMP JUMPDEST PUSH1 0x6 SLOAD PUSH1 0xFF AND ISZERO PUSH2 0x278A JUMPI PUSH1 0x40 MLOAD PUSH3 0x461BCD PUSH1 0xE5 SHL DUP2 MSTORE PUSH1 0x4 ADD PUSH2 0x87A SWAP1 PUSH2 0x32BB JUMP JUMPDEST PUSH1 0x4 DUP1 SLOAD PUSH1 0x1 DUP2 ADD DUP3 SSTORE PUSH1 0x0 SWAP2 SWAP1 SWAP2 MSTORE DUP3 MLOAD PUSH2 0x27CD SWAP2 PUSH32 0x8A35ACFBC15FF81A39AE7D344FD709F28E8600B4AA8C65C6B64BFE7FE36BD19B ADD SWAP1 PUSH1 0x20 DUP6 ADD SWAP1 PUSH2 0x28F3 JUMP JUMPDEST POP PUSH1 0x5 SLOAD PUSH1 0xC DUP4 PUSH1 0x40 MLOAD PUSH2 0x27E1 SWAP2 SWAP1 PUSH2 0x32F2 JUMP JUMPDEST SWAP1 DUP2 MSTORE PUSH1 0x40 MLOAD SWAP1 DUP2 SWAP1 SUB PUSH1 0x20 ADD SWAP1 KECCAK256 SSTORE PUSH1 0x5 DUP1 SLOAD SWAP1 PUSH1 0x0 PUSH2 0x2801 DUP4 PUSH2 0x3254 JUMP JUMPDEST SWAP2 SWAP1 POP SSTORE POP DUP2 SWAP1 POP JUMPDEST SWAP2 SWAP1 POP JUMP JUMPDEST PUSH1 0x0 DUP2 PUSH1 0x40 MLOAD PUSH1 0x20 ADD PUSH2 0x2822 SWAP2 SWAP1 PUSH2 0x32F2 JUMP JUMPDEST PUSH1 0x40 MLOAD PUSH1 0x20 DUP2 DUP4 SUB SUB DUP2 MSTORE SWAP1 PUSH1 0x40 MSTORE DUP1 MLOAD SWAP1 PUSH1 0x20 ADD KECCAK256 DUP4 PUSH1 0x40 MLOAD PUSH1 0x20 ADD PUSH2 0x2849 SWAP2 SWAP1 PUSH2 0x32F2 JUMP JUMPDEST PUSH1 0x40 MLOAD PUSH1 0x20 DUP2 DUP4 SUB SUB DUP2 MSTORE SWAP1 PUSH1 0x40 MSTORE DUP1 MLOAD SWAP1 PUSH1 0x20 ADD KECCAK256 EQ SWAP1 POP SWAP3 SWAP2 POP POP JUMP JUMPDEST DUP3 DUP1 SLOAD PUSH2 0x2874 SWAP1 PUSH2 0x31DC JUMP JUMPDEST SWAP1 PUSH1 0x0 MSTORE PUSH1 0x20 PUSH1 0x0 KECCAK256 SWAP1 PUSH1 0x1F ADD PUSH1 0x20 SWAP1 DIV DUP2 ADD SWAP3 DUP3 PUSH2 0x2896 JUMPI PUSH1 0x0 DUP6 SSTORE PUSH2 0x28E3 JUMP JUMPDEST DUP3 PUSH1 0x1F LT PUSH2 0x28A7 JUMPI DUP1 SLOAD DUP6 SSTORE PUSH2 0x28E3 JUMP JUMPDEST DUP3 DUP1 ADD PUSH1 0x1 ADD DUP6 SSTORE DUP3 ISZERO PUSH2 0x28E3 JUMPI PUSH1 0x0 MSTORE PUSH1 0x20 PUSH1 0x0 KECCAK256 SWAP2 PUSH1 0x1F ADD PUSH1 0x20 SWAP1 DIV DUP3 ADD JUMPDEST DUP3 DUP2 GT ISZERO PUSH2 0x28E3 JUMPI DUP3 SLOAD DUP3 SSTORE SWAP2 PUSH1 0x1 ADD SWAP2 SWAP1 PUSH1 0x1 ADD SWAP1 PUSH2 0x28C8 JUMP JUMPDEST POP PUSH2 0x28EF SWAP3 SWAP2 POP PUSH2 0x2A04 JUMP JUMPDEST POP SWAP1 JUMP JUMPDEST DUP3 DUP1 SLOAD PUSH2 0x28FF SWAP1 PUSH2 0x31DC JUMP JUMPDEST SWAP1 PUSH1 0x0 MSTORE PUSH1 0x20 PUSH1 0x0 KECCAK256 SWAP1 PUSH1 0x1F ADD PUSH1 0x20 SWAP1 DIV DUP2 ADD SWAP3 DUP3 PUSH2 0x2921 JUMPI PUSH1 0x0 DUP6 SSTORE PUSH2 0x28E3 JUMP JUMPDEST DUP3 PUSH1 0x1F LT PUSH2 0x293A JUMPI DUP1 MLOAD PUSH1 0xFF NOT AND DUP4 DUP1 ADD OR DUP6 SSTORE PUSH2 0x28E3 JUMP JUMPDEST DUP3 DUP1 ADD PUSH1 0x1 ADD DUP6 SSTORE DUP3 ISZERO PUSH2 0x28E3 JUMPI SWAP2 DUP3 ADD JUMPDEST DUP3 DUP2 GT ISZERO PUSH2 0x28E3 JUMPI DUP3 MLOAD DUP3 SSTORE SWAP2 PUSH1 0x20 ADD SWAP2 SWAP1 PUSH1 0x1 ADD SWAP1 PUSH2 0x294C JUMP JUMPDEST DUP3 DUP1 SLOAD DUP3 DUP3 SSTORE SWAP1 PUSH1 0x0 MSTORE PUSH1 0x20 PUSH1 0x0 KECCAK256 SWAP1 DUP2 ADD SWAP3 DUP3 ISZERO PUSH2 0x28E3 JUMPI PUSH1 0x0 MSTORE PUSH1 0x20 PUSH1 0x0 KECCAK256 SWAP2 DUP3 ADD DUP3 DUP2 GT ISZERO PUSH2 0x28E3 JUMPI DUP3 SLOAD DUP3 SSTORE SWAP2 PUSH1 0x1 ADD SWAP2 SWAP1 PUSH1 0x1 ADD SWAP1 PUSH2 0x28C8 JUMP JUMPDEST POP DUP1 SLOAD PUSH1 0x0 DUP3 SSTORE PUSH1 0x4 MUL SWAP1 PUSH1 0x0 MSTORE PUSH1 0x20 PUSH1 0x0 KECCAK256 SWAP1 DUP2 ADD SWAP1 PUSH2 0x29C7 SWAP2 SWAP1 PUSH2 0x2A19 JUMP JUMPDEST POP JUMP JUMPDEST DUP3 DUP1 SLOAD DUP3 DUP3 SSTORE SWAP1 PUSH1 0x0 MSTORE PUSH1 0x20 PUSH1 0x0 KECCAK256 SWAP1 DUP2 ADD SWAP3 DUP3 ISZERO PUSH2 0x28E3 JUMPI SWAP2 PUSH1 0x20 MUL DUP3 ADD DUP3 DUP2 GT ISZERO PUSH2 0x28E3 JUMPI DUP3 MLOAD DUP3 SSTORE SWAP2 PUSH1 0x20 ADD SWAP2 SWAP1 PUSH1 0x1 ADD SWAP1 PUSH2 0x294C JUMP JUMPDEST JUMPDEST DUP1 DUP3 GT ISZERO PUSH2 0x28EF JUMPI PUSH1 0x0 DUP2 SSTORE PUSH1 0x1 ADD PUSH2 0x2A05 JUMP JUMPDEST DUP1 DUP3 GT ISZERO PUSH2 0x28EF JUMPI PUSH1 0x0 PUSH2 0x2A2D DUP3 DUP3 PUSH2 0x2A5A JUMP JUMPDEST PUSH2 0x2A3B PUSH1 0x1 DUP4 ADD PUSH1 0x0 PUSH2 0x2A94 JUMP JUMPDEST POP PUSH1 0x2 DUP2 ADD DUP1 SLOAD PUSH4 0xFFFFFFFF NOT AND SWAP1 SSTORE PUSH1 0x0 PUSH1 0x3 DUP3 ADD SSTORE PUSH1 0x4 ADD PUSH2 0x2A19 JUMP JUMPDEST POP DUP1 SLOAD PUSH2 0x2A66 SWAP1 PUSH2 0x31DC JUMP JUMPDEST PUSH1 0x0 DUP3 SSTORE DUP1 PUSH1 0x1F LT PUSH2 0x2A76 JUMPI POP POP JUMP JUMPDEST PUSH1 0x1F ADD PUSH1 0x20 SWAP1 DIV SWAP1 PUSH1 0x0 MSTORE PUSH1 0x20 PUSH1 0x0 KECCAK256 SWAP1 DUP2 ADD SWAP1 PUSH2 0x29C7 SWAP2 SWAP1 PUSH2 0x2A04 JUMP JUMPDEST POP DUP1 SLOAD PUSH1 0x0 DUP3 SSTORE SWAP1 PUSH1 0x0 MSTORE PUSH1 0x20 PUSH1 0x0 KECCAK256 SWAP1 DUP2 ADD SWAP1 PUSH2 0x29C7 SWAP2 SWAP1 PUSH2 0x2A04 JUMP JUMPDEST PUSH1 0x0 PUSH1 0x20 DUP3 DUP5 SUB SLT ISZERO PUSH2 0x2AC4 JUMPI PUSH1 0x0 DUP1 REVERT JUMPDEST POP CALLDATALOAD SWAP2 SWAP1 POP JUMP JUMPDEST PUSH1 0x0 JUMPDEST DUP4 DUP2 LT ISZERO PUSH2 0x2AE6 JUMPI DUP2 DUP2 ADD MLOAD DUP4 DUP3 ADD MSTORE PUSH1 0x20 ADD PUSH2 0x2ACE JUMP JUMPDEST DUP4 DUP2 GT ISZERO PUSH2 0x2AF5 JUMPI PUSH1 0x0 DUP5 DUP5 ADD MSTORE JUMPDEST POP POP POP POP JUMP JUMPDEST PUSH1 0x0 DUP2 MLOAD DUP1 DUP5 MSTORE PUSH2 0x2B13 DUP2 PUSH1 0x20 DUP7 ADD PUSH1 0x20 DUP7 ADD PUSH2 0x2ACB JUMP JUMPDEST PUSH1 0x1F ADD PUSH1 0x1F NOT AND SWAP3 SWAP1 SWAP3 ADD PUSH1 0x20 ADD SWAP3 SWAP2 POP POP JUMP JUMPDEST PUSH1 0xC0 DUP2 MSTORE PUSH1 0x0 PUSH2 0x2B3A PUSH1 0xC0 DUP4 ADD DUP10 PUSH2 0x2AFB JUMP JUMPDEST SWAP7 ISZERO ISZERO PUSH1 0x20 DUP4 ADD MSTORE POP SWAP4 ISZERO ISZERO PUSH1 0x40 DUP6 ADD MSTORE SWAP2 ISZERO ISZERO PUSH1 0x60 DUP5 ADD MSTORE ISZERO ISZERO PUSH1 0x80 DUP4 ADD MSTORE PUSH1 0xA0 SWAP1 SWAP2 ADD MSTORE SWAP2 SWAP1 POP JUMP JUMPDEST DUP1 MLOAD DUP3 MSTORE PUSH1 0x0 PUSH1 0x20 DUP3 ADD MLOAD PUSH1 0x80 PUSH1 0x20 DUP6 ADD MSTORE PUSH2 0x2B84 PUSH1 0x80 DUP6 ADD DUP3 PUSH2 0x2AFB JUMP JUMPDEST SWAP1 POP PUSH1 0x40 DUP4 ADD MLOAD PUSH1 0x40 DUP6 ADD MSTORE PUSH1 0x60 DUP4 ADD MLOAD PUSH1 0x60 DUP6 ADD MSTORE DUP1 SWAP2 POP POP SWAP3 SWAP2 POP POP JUMP JUMPDEST PUSH1 0x0 DUP3 DUP3 MLOAD DUP1 DUP6 MSTORE PUSH1 0x20 DUP1 DUP7 ADD SWAP6 POP DUP1 DUP3 PUSH1 0x5 SHL DUP5 ADD ADD DUP2 DUP7 ADD PUSH1 0x0 JUMPDEST DUP5 DUP2 LT ISZERO PUSH2 0x2BEF JUMPI PUSH1 0x1F NOT DUP7 DUP5 SUB ADD DUP10 MSTORE PUSH2 0x2BDD DUP4 DUP4 MLOAD PUSH2 0x2B65 JUMP JUMPDEST SWAP9 DUP5 ADD SWAP9 SWAP3 POP SWAP1 DUP4 ADD SWAP1 PUSH1 0x1 ADD PUSH2 0x2BC1 JUMP JUMPDEST POP SWAP1 SWAP8 SWAP7 POP POP POP POP POP POP POP JUMP JUMPDEST PUSH1 0x20 DUP2 MSTORE PUSH1 0x0 PUSH2 0x1707 PUSH1 0x20 DUP4 ADD DUP5 PUSH2 0x2BA4 JUMP JUMPDEST PUSH4 0x4E487B71 PUSH1 0xE0 SHL PUSH1 0x0 MSTORE PUSH1 0x41 PUSH1 0x4 MSTORE PUSH1 0x24 PUSH1 0x0 REVERT JUMPDEST PUSH1 0x40 MLOAD PUSH1 0x1F DUP3 ADD PUSH1 0x1F NOT AND DUP2 ADD PUSH8 0xFFFFFFFFFFFFFFFF DUP2 GT DUP3 DUP3 LT OR ISZERO PUSH2 0x2C4E JUMPI PUSH2 0x2C4E PUSH2 0x2C0F JUMP JUMPDEST PUSH1 0x40 MSTORE SWAP2 SWAP1 POP JUMP JUMPDEST PUSH1 0x0 DUP3 PUSH1 0x1F DUP4 ADD SLT PUSH2 0x2C67 JUMPI PUSH1 0x0 DUP1 REVERT JUMPDEST DUP2 CALLDATALOAD PUSH8 0xFFFFFFFFFFFFFFFF DUP2 GT ISZERO PUSH2 0x2C81 JUMPI PUSH2 0x2C81 PUSH2 0x2C0F JUMP JUMPDEST PUSH2 0x2C94 PUSH1 0x1F DUP3 ADD PUSH1 0x1F NOT AND PUSH1 0x20 ADD PUSH2 0x2C25 JUMP JUMPDEST DUP2 DUP2 MSTORE DUP5 PUSH1 0x20 DUP4 DUP7 ADD ADD GT ISZERO PUSH2 0x2CA9 JUMPI PUSH1 0x0 DUP1 REVERT JUMPDEST DUP2 PUSH1 0x20 DUP6 ADD PUSH1 0x20 DUP4 ADD CALLDATACOPY PUSH1 0x0 SWAP2 DUP2 ADD PUSH1 0x20 ADD SWAP2 SWAP1 SWAP2 MSTORE SWAP4 SWAP3 POP POP POP JUMP JUMPDEST PUSH1 0x0 PUSH1 0x20 DUP3 DUP5 SUB SLT ISZERO PUSH2 0x2CD8 JUMPI PUSH1 0x0 DUP1 REVERT JUMPDEST DUP2 CALLDATALOAD PUSH8 0xFFFFFFFFFFFFFFFF DUP2 GT ISZERO PUSH2 0x2CEF JUMPI PUSH1 0x0 DUP1 REVERT JUMPDEST PUSH2 0x2CFB DUP5 DUP3 DUP6 ADD PUSH2 0x2C56 JUMP JUMPDEST SWAP5 SWAP4 POP POP POP POP JUMP JUMPDEST DUP4 DUP2 MSTORE DUP3 PUSH1 0x20 DUP3 ADD MSTORE PUSH1 0x60 PUSH1 0x40 DUP3 ADD MSTORE PUSH1 0x0 PUSH2 0x2D22 PUSH1 0x60 DUP4 ADD DUP5 PUSH2 0x2BA4 JUMP JUMPDEST SWAP6 SWAP5 POP POP POP POP POP JUMP JUMPDEST PUSH1 0x0 DUP1 PUSH1 0x0 DUP1 PUSH1 0x60 DUP6 DUP8 SUB SLT ISZERO PUSH2 0x2D41 JUMPI PUSH1 0x0 DUP1 REVERT JUMPDEST DUP5 CALLDATALOAD PUSH8 0xFFFFFFFFFFFFFFFF DUP1 DUP3 GT ISZERO PUSH2 0x2D59 JUMPI PUSH1 0x0 DUP1 REVERT JUMPDEST PUSH2 0x2D65 DUP9 DUP4 DUP10 ADD PUSH2 0x2C56 JUMP JUMPDEST SWAP6 POP PUSH1 0x20 DUP8 ADD CALLDATALOAD SWAP5 POP PUSH1 0x40 DUP8 ADD CALLDATALOAD SWAP2 POP DUP1 DUP3 GT ISZERO PUSH2 0x2D82 JUMPI PUSH1 0x0 DUP1 REVERT JUMPDEST DUP2 DUP8 ADD SWAP2 POP DUP8 PUSH1 0x1F DUP4 ADD SLT PUSH2 0x2D96 JUMPI PUSH1 0x0 DUP1 REVERT JUMPDEST DUP2 CALLDATALOAD DUP2 DUP2 GT ISZERO PUSH2 0x2DA5 JUMPI PUSH1 0x0 DUP1 REVERT JUMPDEST DUP9 PUSH1 0x20 DUP3 PUSH1 0x5 SHL DUP6 ADD ADD GT ISZERO PUSH2 0x2DBA JUMPI PUSH1 0x0 DUP1 REVERT JUMPDEST SWAP6 SWAP9 SWAP5 SWAP8 POP POP PUSH1 0x20 ADD SWAP5 POP POP POP JUMP JUMPDEST PUSH1 0x0 DUP1 PUSH1 0x40 DUP4 DUP6 SUB SLT ISZERO PUSH2 0x2DDC JUMPI PUSH1 0x0 DUP1 REVERT JUMPDEST DUP3 CALLDATALOAD PUSH8 0xFFFFFFFFFFFFFFFF DUP1 DUP3 GT ISZERO PUSH2 0x2DF4 JUMPI PUSH1 0x0 DUP1 REVERT JUMPDEST PUSH2 0x2E00 DUP7 DUP4 DUP8 ADD PUSH2 0x2C56 JUMP JUMPDEST SWAP4 POP PUSH1 0x20 DUP6 ADD CALLDATALOAD SWAP2 POP DUP1 DUP3 GT ISZERO PUSH2 0x2E16 JUMPI PUSH1 0x0 DUP1 REVERT JUMPDEST POP PUSH2 0x2E23 DUP6 DUP3 DUP7 ADD PUSH2 0x2C56 JUMP JUMPDEST SWAP2 POP POP SWAP3 POP SWAP3 SWAP1 POP JUMP JUMPDEST PUSH1 0x0 PUSH1 0x20 DUP3 DUP5 SUB SLT ISZERO PUSH2 0x2E3F JUMPI PUSH1 0x0 DUP1 REVERT JUMPDEST DUP2 CALLDATALOAD DUP1 ISZERO ISZERO DUP2 EQ PUSH2 0x1707 JUMPI PUSH1 0x0 DUP1 REVERT JUMPDEST PUSH1 0x0 PUSH1 0x20 DUP1 DUP4 ADD DUP2 DUP5 MSTORE DUP1 DUP6 MLOAD DUP1 DUP4 MSTORE PUSH1 0x40 SWAP3 POP DUP3 DUP7 ADD SWAP2 POP DUP3 DUP2 PUSH1 0x5 SHL DUP8 ADD ADD DUP5 DUP9 ADD PUSH1 0x0 DUP1 JUMPDEST DUP5 DUP2 LT ISZERO PUSH2 0x2F29 JUMPI PUSH1 0x3F NOT DUP11 DUP6 SUB ADD DUP7 MSTORE DUP3 MLOAD PUSH1 0xE0 DUP2 MLOAD DUP2 DUP8 MSTORE PUSH2 0x2E9D DUP3 DUP9 ADD DUP3 PUSH2 0x2AFB JUMP JUMPDEST DUP4 DUP13 ADD MLOAD DUP9 DUP3 SUB DUP10 DUP15 ADD MSTORE DUP1 MLOAD DUP1 DUP4 MSTORE SWAP1 DUP14 ADD SWAP4 POP DUP7 SWAP3 POP SWAP1 DUP13 ADD SWAP1 JUMPDEST DUP1 DUP4 LT ISZERO PUSH2 0x2EDA JUMPI DUP4 MLOAD DUP3 MSTORE SWAP3 DUP13 ADD SWAP3 PUSH1 0x1 SWAP3 SWAP1 SWAP3 ADD SWAP2 SWAP1 DUP13 ADD SWAP1 PUSH2 0x2EBA JUMP JUMPDEST POP DUP4 DUP12 ADD MLOAD ISZERO ISZERO DUP9 DUP13 ADD MSTORE PUSH1 0x60 DUP1 DUP6 ADD MLOAD ISZERO ISZERO SWAP1 DUP10 ADD MSTORE PUSH1 0x80 DUP1 DUP6 ADD MLOAD ISZERO ISZERO SWAP1 DUP10 ADD MSTORE PUSH1 0xA0 DUP1 DUP6 ADD MLOAD ISZERO ISZERO SWAP1 DUP10 ADD MSTORE PUSH1 0xC0 SWAP4 DUP5 ADD MLOAD SWAP4 SWAP1 SWAP8 ADD SWAP3 SWAP1 SWAP3 MSTORE POP POP SWAP5 DUP8 ADD SWAP5 SWAP2 DUP8 ADD SWAP2 PUSH1 0x1 ADD PUSH2 0x2E77 JUMP JUMPDEST POP SWAP2 SWAP10 SWAP9 POP POP POP POP POP POP POP POP POP JUMP JUMPDEST DUP5 DUP2 MSTORE PUSH1 0x80 PUSH1 0x20 DUP3 ADD MSTORE PUSH1 0x0 PUSH2 0x2F51 PUSH1 0x80 DUP4 ADD DUP7 PUSH2 0x2AFB JUMP JUMPDEST PUSH1 0x40 DUP4 ADD SWAP5 SWAP1 SWAP5 MSTORE POP PUSH1 0x60 ADD MSTORE SWAP3 SWAP2 POP POP JUMP JUMPDEST PUSH1 0x40 DUP2 MSTORE PUSH1 0x0 PUSH2 0x2F77 PUSH1 0x40 DUP4 ADD DUP6 PUSH2 0x2B65 JUMP JUMPDEST SWAP1 POP DUP3 PUSH1 0x20 DUP4 ADD MSTORE SWAP4 SWAP3 POP POP POP JUMP JUMPDEST PUSH1 0x0 DUP1 PUSH1 0x40 DUP4 DUP6 SUB SLT ISZERO PUSH2 0x2F99 JUMPI PUSH1 0x0 DUP1 REVERT JUMPDEST POP POP DUP1 CALLDATALOAD SWAP3 PUSH1 0x20 SWAP1 SWAP2 ADD CALLDATALOAD SWAP2 POP JUMP JUMPDEST DUP1 CALLDATALOAD PUSH1 0x1 PUSH1 0x1 PUSH1 0xA0 SHL SUB DUP2 AND DUP2 EQ PUSH2 0x280A JUMPI PUSH1 0x0 DUP1 REVERT JUMPDEST PUSH1 0x0 DUP1 PUSH1 0x40 DUP4 DUP6 SUB SLT ISZERO PUSH2 0x2FD2 JUMPI PUSH1 0x0 DUP1 REVERT JUMPDEST DUP3 CALLDATALOAD PUSH8 0xFFFFFFFFFFFFFFFF DUP2 GT ISZERO PUSH2 0x2FE9 JUMPI PUSH1 0x0 DUP1 REVERT JUMPDEST PUSH2 0x2FF5 DUP6 DUP3 DUP7 ADD PUSH2 0x2C56 JUMP JUMPDEST SWAP3 POP POP PUSH2 0x3004 PUSH1 0x20 DUP5 ADD PUSH2 0x2FA8 JUMP JUMPDEST SWAP1 POP SWAP3 POP SWAP3 SWAP1 POP JUMP JUMPDEST PUSH1 0x0 DUP1 PUSH1 0x40 DUP4 DUP6 SUB SLT ISZERO PUSH2 0x3020 JUMPI PUSH1 0x0 DUP1 REVERT JUMPDEST DUP3 CALLDATALOAD PUSH8 0xFFFFFFFFFFFFFFFF DUP1 DUP3 GT ISZERO PUSH2 0x3038 JUMPI PUSH1 0x0 DUP1 REVERT JUMPDEST PUSH2 0x3044 DUP7 DUP4 DUP8 ADD PUSH2 0x2C56 JUMP JUMPDEST SWAP4 POP PUSH1 0x20 SWAP2 POP DUP2 DUP6 ADD CALLDATALOAD DUP2 DUP2 GT ISZERO PUSH2 0x305B JUMPI PUSH1 0x0 DUP1 REVERT JUMPDEST DUP6 ADD PUSH1 0x1F DUP2 ADD DUP8 SGT PUSH2 0x306C JUMPI PUSH1 0x0 DUP1 REVERT JUMPDEST DUP1 CALLDATALOAD DUP3 DUP2 GT ISZERO PUSH2 0x307E JUMPI PUSH2 0x307E PUSH2 0x2C0F JUMP JUMPDEST DUP1 PUSH1 0x5 SHL SWAP3 POP PUSH2 0x308F DUP5 DUP5 ADD PUSH2 0x2C25 JUMP JUMPDEST DUP2 DUP2 MSTORE SWAP3 DUP3 ADD DUP5 ADD SWAP3 DUP5 DUP2 ADD SWAP1 DUP10 DUP6 GT ISZERO PUSH2 0x30A9 JUMPI PUSH1 0x0 DUP1 REVERT JUMPDEST SWAP3 DUP6 ADD SWAP3 JUMPDEST DUP5 DUP5 LT ISZERO PUSH2 0x30C7 JUMPI DUP4 CALLDATALOAD DUP3 MSTORE SWAP3 DUP6 ADD SWAP3 SWAP1 DUP6 ADD SWAP1 PUSH2 0x30AE JUMP JUMPDEST DUP1 SWAP7 POP POP POP POP POP POP POP SWAP3 POP SWAP3 SWAP1 POP JUMP JUMPDEST PUSH1 0x0 DUP1 PUSH1 0x40 DUP4 DUP6 SUB SLT ISZERO PUSH2 0x30EA JUMPI PUSH1 0x0 DUP1 REVERT JUMPDEST DUP3 CALLDATALOAD PUSH8 0xFFFFFFFFFFFFFFFF DUP2 GT ISZERO PUSH2 0x3101 JUMPI PUSH1 0x0 DUP1 REVERT JUMPDEST PUSH2 0x310D DUP6 DUP3 DUP7 ADD PUSH2 0x2C56 JUMP JUMPDEST SWAP6 PUSH1 0x20 SWAP5 SWAP1 SWAP5 ADD CALLDATALOAD SWAP5 POP POP POP POP JUMP JUMPDEST PUSH1 0x40 DUP2 MSTORE PUSH1 0x0 PUSH2 0x2F77 PUSH1 0x40 DUP4 ADD DUP6 PUSH2 0x2AFB JUMP JUMPDEST PUSH1 0x40 DUP2 MSTORE PUSH1 0x0 PUSH2 0x3142 PUSH1 0x40 DUP4 ADD DUP6 PUSH2 0x2B65 JUMP JUMPDEST DUP3 DUP2 SUB PUSH1 0x20 DUP5 ADD MSTORE PUSH2 0x2D22 DUP2 DUP6 PUSH2 0x2AFB JUMP JUMPDEST PUSH1 0x0 PUSH1 0x20 DUP3 DUP5 SUB SLT ISZERO PUSH2 0x3166 JUMPI PUSH1 0x0 DUP1 REVERT JUMPDEST PUSH2 0x1707 DUP3 PUSH2 0x2FA8 JUMP JUMPDEST PUSH1 0xA0 DUP2 MSTORE PUSH1 0x0 PUSH2 0x3182 PUSH1 0xA0 DUP4 ADD DUP9 PUSH2 0x2AFB JUMP JUMPDEST SWAP6 ISZERO ISZERO PUSH1 0x20 DUP4 ADD MSTORE POP SWAP3 ISZERO ISZERO PUSH1 0x40 DUP5 ADD MSTORE PUSH1 0x60 DUP4 ADD SWAP2 SWAP1 SWAP2 MSTORE PUSH1 0x80 SWAP1 SWAP2 ADD MSTORE SWAP2 SWAP1 POP JUMP JUMPDEST PUSH1 0x20 DUP2 MSTORE PUSH1 0x0 PUSH2 0x1707 PUSH1 0x20 DUP4 ADD DUP5 PUSH2 0x2AFB JUMP JUMPDEST PUSH1 0x0 DUP1 PUSH1 0x40 DUP4 DUP6 SUB SLT ISZERO PUSH2 0x31CC JUMPI PUSH1 0x0 DUP1 REVERT JUMPDEST DUP3 CALLDATALOAD SWAP2 POP PUSH2 0x3004 PUSH1 0x20 DUP5 ADD PUSH2 0x2FA8 JUMP JUMPDEST PUSH1 0x1 DUP2 DUP2 SHR SWAP1 DUP3 AND DUP1 PUSH2 0x31F0 JUMPI PUSH1 0x7F DUP3 AND SWAP2 POP JUMPDEST PUSH1 0x20 DUP3 LT DUP2 SUB PUSH2 0x77A JUMPI PUSH4 0x4E487B71 PUSH1 0xE0 SHL PUSH1 0x0 MSTORE PUSH1 0x22 PUSH1 0x4 MSTORE PUSH1 0x24 PUSH1 0x0 REVERT JUMPDEST PUSH4 0x4E487B71 PUSH1 0xE0 SHL PUSH1 0x0 MSTORE PUSH1 0x11 PUSH1 0x4 MSTORE PUSH1 0x24 PUSH1 0x0 REVERT JUMPDEST PUSH1 0x0 DUP3 NOT DUP3 GT ISZERO PUSH2 0x3239 JUMPI PUSH2 0x3239 PUSH2 0x3210 JUMP JUMPDEST POP ADD SWAP1 JUMP JUMPDEST PUSH4 0x4E487B71 PUSH1 0xE0 SHL PUSH1 0x0 MSTORE PUSH1 0x32 PUSH1 0x4 MSTORE PUSH1 0x24 PUSH1 0x0 REVERT JUMPDEST PUSH1 0x0 PUSH1 0x1 DUP3 ADD PUSH2 0x3266 JUMPI PUSH2 0x3266 PUSH2 0x3210 JUMP JUMPDEST POP PUSH1 0x1 ADD SWAP1 JUMP JUMPDEST PUSH1 0x20 DUP1 DUP3 MSTORE PUSH1 0x2E SWAP1 DUP3 ADD MSTORE PUSH32 0x416363657373206772616E74656420746F206F6E6C7920746865206368616972 PUSH1 0x40 DUP3 ADD MSTORE PUSH14 0x36B0B71037B9103A32B0B1B432B9 PUSH1 0x91 SHL PUSH1 0x60 DUP3 ADD MSTORE PUSH1 0x80 ADD SWAP1 JUMP JUMPDEST PUSH1 0x20 DUP1 DUP3 MSTORE PUSH1 0x1C SWAP1 DUP3 ADD MSTORE PUSH32 0x436F6E74726163742069732063757272656E746C792070617573656400000000 PUSH1 0x40 DUP3 ADD MSTORE PUSH1 0x60 ADD SWAP1 JUMP JUMPDEST PUSH1 0x0 DUP3 MLOAD PUSH2 0x3304 DUP2 DUP5 PUSH1 0x20 DUP8 ADD PUSH2 0x2ACB JUMP JUMPDEST SWAP2 SWAP1 SWAP2 ADD SWAP3 SWAP2 POP POP JUMP JUMPDEST PUSH1 0x40 DUP2 MSTORE PUSH1 0x0 PUSH2 0x3321 PUSH1 0x40 DUP4 ADD DUP7 PUSH2 0x2AFB JUMP JUMPDEST DUP3 DUP2 SUB PUSH1 0x20 DUP5 DUP2 ADD SWAP2 SWAP1 SWAP2 MSTORE DUP5 DUP3 MSTORE DUP6 SWAP2 DUP2 ADD PUSH1 0x0 JUMPDEST DUP7 DUP2 LT ISZERO PUSH2 0x3363 JUMPI PUSH1 0x1 PUSH1 0x1 PUSH1 0xA0 SHL SUB PUSH2 0x3350 DUP6 PUSH2 0x2FA8 JUMP JUMPDEST AND DUP3 MSTORE SWAP3 DUP3 ADD SWAP3 SWAP1 DUP3 ADD SWAP1 PUSH1 0x1 ADD PUSH2 0x3337 JUMP JUMPDEST POP SWAP8 SWAP7 POP POP POP POP POP POP POP JUMP JUMPDEST PUSH1 0x20 DUP1 DUP3 MSTORE PUSH1 0x23 SWAP1 DUP3 ADD MSTORE PUSH32 0x416363657373206772616E74656420746F206F6E6C7920746865206368616972 PUSH1 0x40 DUP3 ADD MSTORE PUSH3 0x36B0B7 PUSH1 0xE9 SHL PUSH1 0x60 DUP3 ADD MSTORE PUSH1 0x80 ADD SWAP1 JUMP JUMPDEST PUSH1 0x40 DUP2 MSTORE PUSH1 0x0 PUSH2 0x33C5 PUSH1 0x40 DUP4 ADD DUP6 PUSH2 0x2AFB JUMP JUMPDEST SWAP1 POP DUP3 ISZERO ISZERO PUSH1 0x20 DUP4 ADD MSTORE SWAP4 SWAP3 POP POP POP JUMP JUMPDEST PUSH1 0x20 DUP1 DUP3 MSTORE PUSH1 0x2B SWAP1 DUP3 ADD MSTORE PUSH32 0x566F74696E6720686173206E6F7420636F6D6D6D656E63656420666F72207468 PUSH1 0x40 DUP3 ADD MSTORE PUSH11 0x69732043617465676F7279 PUSH1 0xA8 SHL PUSH1 0x60 DUP3 ADD MSTORE PUSH1 0x80 ADD SWAP1 JUMP JUMPDEST PUSH1 0x0 PUSH1 0x20 DUP3 DUP5 SUB SLT ISZERO PUSH2 0x3433 JUMPI PUSH1 0x0 DUP1 REVERT JUMPDEST POP MLOAD SWAP2 SWAP1 POP JUMP JUMPDEST PUSH1 0x1 PUSH1 0x1 PUSH1 0xA0 SHL SUB DUP4 AND DUP2 MSTORE PUSH1 0x40 PUSH1 0x20 DUP3 ADD DUP2 SWAP1 MSTORE PUSH1 0x0 SWAP1 PUSH2 0x2CFB SWAP1 DUP4 ADD DUP5 PUSH2 0x2AFB JUMP INVALID LOG2 PUSH5 0x6970667358 0x22 SLT KECCAK256 0x24 TIMESTAMP SWAP11 0xE1 DIFFICULTY SWAP13 SWAP13 0xD0 LOG0 0xF9 SWAP1 JUMPDEST 0xCD PUSH16 0xD68BCF84F92A42C05656F34BF4511F01 PUSH23 0xA964736F6C634300080D00330000000000000000000000 "
		},
		"gasEstimates": {
			"creation": {
				"codeDepositCost": "2692000",
				"executionCost": "infinite",
				"totalCost": "infinite"
			},
			"external": {
				"Category(string)": "infinite",
				"_paused()": "2356",
				"activeElectionArrays(uint256)": "infinite",
				"activeElections(string)": "infinite",
				"activeModify(string)": "infinite",
				"addCategories(string)": "infinite",
				"candidates(uint256)": "infinite",
				"candidatesCount()": "2385",
				"categories(uint256)": "infinite",
				"chairman()": "2382",
				"changeChairman(address)": "infinite",
				"checkRole(string,address)": "infinite",
				"clearElectionQueue()": "infinite",
				"compileVotes(string)": "infinite",
				"endVotingSession(string)": "infinite",
				"fetchElection()": "infinite",
				"getCandidates()": "infinite",
				"getWinningCandidate(string)": "infinite",
				"makeResultPublic(string)": "infinite",
				"registerCandidate(string,string)": "infinite",
				"setPaused(bool)": "26746",
				"setUpElection(string,uint256[])": "infinite",
				"stakeholders(address)": "infinite",
				"startVotingSession(string)": "infinite",
				"uploadStakeHolder(string,uint256,address[])": "infinite",
				"vote(string,uint256)": "infinite",
				"votedForCategory(uint256,address)": "2717",
				"votesForCategory(uint256,uint256)": "2579",
				"zstoken()": "2383"
			},
			"internal": {
				"compareStrings(string memory,string memory)": "infinite"
			}
		},
		"methodIdentifiers": {
			"Category(string)": "44fb5a1a",
			"_paused()": "16c61ccc",
			"activeElectionArrays(uint256)": "00d195fd",
			"activeElections(string)": "32b773a5",
			"activeModify(string)": "8b132066",
			"addCategories(string)": "fc177e30",
			"candidates(uint256)": "3477ee2e",
			"candidatesCount()": "2d35a8a2",
			"categories(uint256)": "c6cdbe5e",
			"chairman()": "87f7b975",
			"changeChairman(address)": "e8101869",
			"checkRole(string,address)": "7026fe9c",
			"clearElectionQueue()": "8c1b0d51",
			"compileVotes(string)": "073b1f59",
			"endVotingSession(string)": "a672601d",
			"fetchElection()": "19f3a50e",
			"getCandidates()": "06a49fce",
			"getWinningCandidate(string)": "40284753",
			"makeResultPublic(string)": "c00ce9ff",
			"registerCandidate(string,string)": "0dbce4dd",
			"setPaused(bool)": "16c38b3c",
			"setUpElection(string,uint256[])": "a25c891c",
			"stakeholders(address)": "c07cfca9",
			"startVotingSession(string)": "764926db",
			"uploadStakeHolder(string,uint256,address[])": "0b92dfa0",
			"vote(string,uint256)": "a6385803",
			"votedForCategory(uint256,address)": "f74e0eac",
			"votesForCategory(uint256,uint256)": "6c537471",
			"zstoken()": "0b5f42da"
		}
	},
	"abi": [
		{
			"inputs": [
				{
					"internalType": "address",
					"name": "_tokenAddr",
					"type": "address"
				}
			],
			"stateMutability": "nonpayable",
			"type": "constructor"
		},
		{
			"anonymous": false,
			"inputs": [
				{
					"indexed": false,
					"internalType": "uint256",
					"name": "candidateId",
					"type": "uint256"
				}
			],
			"name": "CandidateRegisteredEvent",
			"type": "event"
		},
		{
			"anonymous": false,
			"inputs": [
				{
					"indexed": false,
					"internalType": "address",
					"name": "adder",
					"type": "address"
				},
				{
					"indexed": false,
					"internalType": "address",
					"name": "newChairman",
					"type": "address"
				}
			],
			"name": "ChangeChairman",
			"type": "event"
		},
		{
			"anonymous": false,
			"inputs": [
				{
					"indexed": false,
					"internalType": "string",
					"name": "_role",
					"type": "string"
				},
				{
					"indexed": false,
					"internalType": "address[]",
					"name": "stakeholderAddress",
					"type": "address[]"
				}
			],
			"name": "StakeholderRegisteredEvent",
			"type": "event"
		},
		{
			"anonymous": false,
			"inputs": [
				{
					"indexed": false,
					"internalType": "address",
					"name": "stakeholder",
					"type": "address"
				},
				{
					"indexed": false,
					"internalType": "string",
					"name": "category",
					"type": "string"
				}
			],
			"name": "VotedEvent",
			"type": "event"
		},
		{
			"anonymous": false,
			"inputs": [
				{
					"indexed": false,
					"internalType": "string",
					"name": "category",
					"type": "string"
				},
				{
					"indexed": false,
					"internalType": "uint256",
					"name": "totalVotes",
					"type": "uint256"
				}
			],
			"name": "VotesCountedEvent",
			"type": "event"
		},
		{
			"anonymous": false,
			"inputs": [
				{
					"indexed": false,
					"internalType": "string",
					"name": "category",
					"type": "string"
				},
				{
					"indexed": false,
					"internalType": "bool",
					"name": "status",
					"type": "bool"
				}
			],
			"name": "VotingEndedEvent",
			"type": "event"
		},
		{
			"anonymous": false,
			"inputs": [
				{
					"indexed": false,
					"internalType": "string",
					"name": "category",
					"type": "string"
				},
				{
					"indexed": false,
					"internalType": "bool",
					"name": "status",
					"type": "bool"
				}
			],
			"name": "VotingStartedEvent",
			"type": "event"
		},
		{
			"inputs": [
				{
					"internalType": "string",
					"name": "",
					"type": "string"
				}
			],
			"name": "Category",
			"outputs": [
				{
					"internalType": "uint256",
					"name": "",
					"type": "uint256"
				}
			],
			"stateMutability": "view",
			"type": "function"
		},
		{
			"inputs": [],
			"name": "_paused",
			"outputs": [
				{
					"internalType": "bool",
					"name": "",
					"type": "bool"
				}
			],
			"stateMutability": "view",
			"type": "function"
		},
		{
			"inputs": [
				{
					"internalType": "uint256",
					"name": "",
					"type": "uint256"
				}
			],
			"name": "activeElectionArrays",
			"outputs": [
				{
					"internalType": "string",
					"name": "category",
					"type": "string"
				},
				{
					"internalType": "bool",
					"name": "VotingStarted",
					"type": "bool"
				},
				{
					"internalType": "bool",
					"name": "VotingEnded",
					"type": "bool"
				},
				{
					"internalType": "bool",
					"name": "VotesCounted",
					"type": "bool"
				},
				{
					"internalType": "bool",
					"name": "isResultPublic",
					"type": "bool"
				},
				{
					"internalType": "uint256",
					"name": "totalVotesCasted",
					"type": "uint256"
				}
			],
			"stateMutability": "view",
			"type": "function"
		},
		{
			"inputs": [
				{
					"internalType": "string",
					"name": "",
					"type": "string"
				}
			],
			"name": "activeElections",
			"outputs": [
				{
					"internalType": "string",
					"name": "category",
					"type": "string"
				},
				{
					"internalType": "bool",
					"name": "VotingStarted",
					"type": "bool"
				},
				{
					"internalType": "bool",
					"name": "VotingEnded",
					"type": "bool"
				},
				{
					"internalType": "bool",
					"name": "VotesCounted",
					"type": "bool"
				},
				{
					"internalType": "bool",
					"name": "isResultPublic",
					"type": "bool"
				},
				{
					"internalType": "uint256",
					"name": "totalVotesCasted",
					"type": "uint256"
				}
			],
			"stateMutability": "view",
			"type": "function"
		},
		{
			"inputs": [
				{
					"internalType": "string",
					"name": "",
					"type": "string"
				}
			],
			"name": "activeModify",
			"outputs": [
				{
					"internalType": "uint256",
					"name": "",
					"type": "uint256"
				}
			],
			"stateMutability": "view",
			"type": "function"
		},
		{
			"inputs": [
				{
					"internalType": "string",
					"name": "_category",
					"type": "string"
				}
			],
			"name": "addCategories",
			"outputs": [
				{
					"internalType": "string",
					"name": "",
					"type": "string"
				}
			],
			"stateMutability": "nonpayable",
			"type": "function"
		},
		{
			"inputs": [
				{
					"internalType": "uint256",
					"name": "",
					"type": "uint256"
				}
			],
			"name": "candidates",
			"outputs": [
				{
					"internalType": "uint256",
					"name": "id",
					"type": "uint256"
				},
				{
					"internalType": "string",
					"name": "name",
					"type": "string"
				},
				{
					"internalType": "uint256",
					"name": "category",
					"type": "uint256"
				},
				{
					"internalType": "uint256",
					"name": "voteCount",
					"type": "uint256"
				}
			],
			"stateMutability": "view",
			"type": "function"
		},
		{
			"inputs": [],
			"name": "candidatesCount",
			"outputs": [
				{
					"internalType": "uint256",
					"name": "",
					"type": "uint256"
				}
			],
			"stateMutability": "view",
			"type": "function"
		},
		{
			"inputs": [
				{
					"internalType": "uint256",
					"name": "",
					"type": "uint256"
				}
			],
			"name": "categories",
			"outputs": [
				{
					"internalType": "string",
					"name": "",
					"type": "string"
				}
			],
			"stateMutability": "view",
			"type": "function"
		},
		{
			"inputs": [],
			"name": "chairman",
			"outputs": [
				{
					"internalType": "address",
					"name": "",
					"type": "address"
				}
			],
			"stateMutability": "view",
			"type": "function"
		},
		{
			"inputs": [
				{
					"internalType": "address",
					"name": "_stakeHolder",
					"type": "address"
				}
			],
			"name": "changeChairman",
			"outputs": [],
			"stateMutability": "nonpayable",
			"type": "function"
		},
		{
			"inputs": [
				{
					"internalType": "string",
					"name": "_role",
					"type": "string"
				},
				{
					"internalType": "address",
					"name": "_address",
					"type": "address"
				}
			],
			"name": "checkRole",
			"outputs": [
				{
					"internalType": "bool",
					"name": "",
					"type": "bool"
				}
			],
			"stateMutability": "view",
			"type": "function"
		},
		{
			"inputs": [],
			"name": "clearElectionQueue",
			"outputs": [],
			"stateMutability": "nonpayable",
			"type": "function"
		},
		{
			"inputs": [
				{
					"internalType": "string",
					"name": "_position",
					"type": "string"
				}
			],
			"name": "compileVotes",
			"outputs": [
				{
					"internalType": "uint256",
					"name": "total",
					"type": "uint256"
				},
				{
					"internalType": "uint256",
					"name": "winnigVotes",
					"type": "uint256"
				},
				{
					"components": [
						{
							"internalType": "uint256",
							"name": "id",
							"type": "uint256"
						},
						{
							"internalType": "string",
							"name": "name",
							"type": "string"
						},
						{
							"internalType": "uint256",
							"name": "category",
							"type": "uint256"
						},
						{
							"internalType": "uint256",
							"name": "voteCount",
							"type": "uint256"
						}
					],
					"internalType": "struct ZuriSchool.Candidate[]",
					"name": "",
					"type": "tuple[]"
				}
			],
			"stateMutability": "nonpayable",
			"type": "function"
		},
		{
			"inputs": [
				{
					"internalType": "string",
					"name": "_category",
					"type": "string"
				}
			],
			"name": "endVotingSession",
			"outputs": [],
			"stateMutability": "nonpayable",
			"type": "function"
		},
		{
			"inputs": [],
			"name": "fetchElection",
			"outputs": [
				{
					"components": [
						{
							"internalType": "string",
							"name": "category",
							"type": "string"
						},
						{
							"internalType": "uint256[]",
							"name": "candidatesID",
							"type": "uint256[]"
						},
						{
							"internalType": "bool",
							"name": "VotingStarted",
							"type": "bool"
						},
						{
							"internalType": "bool",
							"name": "VotingEnded",
							"type": "bool"
						},
						{
							"internalType": "bool",
							"name": "VotesCounted",
							"type": "bool"
						},
						{
							"internalType": "bool",
							"name": "isResultPublic",
							"type": "bool"
						},
						{
							"internalType": "uint256",
							"name": "totalVotesCasted",
							"type": "uint256"
						}
					],
					"internalType": "struct ZuriSchool.Election[]",
					"name": "",
					"type": "tuple[]"
				}
			],
			"stateMutability": "view",
			"type": "function"
		},
		{
			"inputs": [],
			"name": "getCandidates",
			"outputs": [
				{
					"components": [
						{
							"internalType": "uint256",
							"name": "id",
							"type": "uint256"
						},
						{
							"internalType": "string",
							"name": "name",
							"type": "string"
						},
						{
							"internalType": "uint256",
							"name": "category",
							"type": "uint256"
						},
						{
							"internalType": "uint256",
							"name": "voteCount",
							"type": "uint256"
						}
					],
					"internalType": "struct ZuriSchool.Candidate[]",
					"name": "",
					"type": "tuple[]"
				}
			],
			"stateMutability": "view",
			"type": "function"
		},
		{
			"inputs": [
				{
					"internalType": "string",
					"name": "_category",
					"type": "string"
				}
			],
			"name": "getWinningCandidate",
			"outputs": [
				{
					"components": [
						{
							"internalType": "uint256",
							"name": "id",
							"type": "uint256"
						},
						{
							"internalType": "string",
							"name": "name",
							"type": "string"
						},
						{
							"internalType": "uint256",
							"name": "category",
							"type": "uint256"
						},
						{
							"internalType": "uint256",
							"name": "voteCount",
							"type": "uint256"
						}
					],
					"internalType": "struct ZuriSchool.Candidate",
					"name": "",
					"type": "tuple"
				},
				{
					"internalType": "uint256",
					"name": "",
					"type": "uint256"
				}
			],
			"stateMutability": "view",
			"type": "function"
		},
		{
			"inputs": [
				{
					"internalType": "string",
					"name": "_category",
					"type": "string"
				}
			],
			"name": "makeResultPublic",
			"outputs": [
				{
					"components": [
						{
							"internalType": "uint256",
							"name": "id",
							"type": "uint256"
						},
						{
							"internalType": "string",
							"name": "name",
							"type": "string"
						},
						{
							"internalType": "uint256",
							"name": "category",
							"type": "uint256"
						},
						{
							"internalType": "uint256",
							"name": "voteCount",
							"type": "uint256"
						}
					],
					"internalType": "struct ZuriSchool.Candidate",
					"name": "",
					"type": "tuple"
				},
				{
					"internalType": "string",
					"name": "",
					"type": "string"
				}
			],
			"stateMutability": "nonpayable",
			"type": "function"
		},
		{
			"inputs": [
				{
					"internalType": "string",
					"name": "candidateName",
					"type": "string"
				},
				{
					"internalType": "string",
					"name": "_category",
					"type": "string"
				}
			],
			"name": "registerCandidate",
			"outputs": [],
			"stateMutability": "nonpayable",
			"type": "function"
		},
		{
			"inputs": [
				{
					"internalType": "bool",
					"name": "_value",
					"type": "bool"
				}
			],
			"name": "setPaused",
			"outputs": [],
			"stateMutability": "nonpayable",
			"type": "function"
		},
		{
			"inputs": [
				{
					"internalType": "string",
					"name": "_category",
					"type": "string"
				},
				{
					"internalType": "uint256[]",
					"name": "_candidateID",
					"type": "uint256[]"
				}
			],
			"name": "setUpElection",
			"outputs": [
				{
					"internalType": "bool",
					"name": "",
					"type": "bool"
				}
			],
			"stateMutability": "nonpayable",
			"type": "function"
		},
		{
			"inputs": [
				{
					"internalType": "address",
					"name": "",
					"type": "address"
				}
			],
			"name": "stakeholders",
			"outputs": [
				{
					"internalType": "string",
					"name": "role",
					"type": "string"
				},
				{
					"internalType": "bool",
					"name": "isRegistered",
					"type": "bool"
				},
				{
					"internalType": "bool",
					"name": "hasVoted",
					"type": "bool"
				},
				{
					"internalType": "uint256",
					"name": "votedCandidateId",
					"type": "uint256"
				},
				{
					"internalType": "uint256",
					"name": "votingPower",
					"type": "uint256"
				}
			],
			"stateMutability": "view",
			"type": "function"
		},
		{
			"inputs": [
				{
					"internalType": "string",
					"name": "_category",
					"type": "string"
				}
			],
			"name": "startVotingSession",
			"outputs": [],
			"stateMutability": "nonpayable",
			"type": "function"
		},
		{
			"inputs": [
				{
					"internalType": "string",
					"name": "_role",
					"type": "string"
				},
				{
					"internalType": "uint256",
					"name": "votingPower",
					"type": "uint256"
				},
				{
					"internalType": "address[]",
					"name": "_address",
					"type": "address[]"
				}
			],
			"name": "uploadStakeHolder",
			"outputs": [],
			"stateMutability": "nonpayable",
			"type": "function"
		},
		{
			"inputs": [
				{
					"internalType": "string",
					"name": "_category",
					"type": "string"
				},
				{
					"internalType": "uint256",
					"name": "_candidateID",
					"type": "uint256"
				}
			],
			"name": "vote",
			"outputs": [
				{
					"internalType": "string",
					"name": "",
					"type": "string"
				},
				{
					"internalType": "uint256",
					"name": "",
					"type": "uint256"
				}
			],
			"stateMutability": "nonpayable",
			"type": "function"
		},
		{
			"inputs": [
				{
					"internalType": "uint256",
					"name": "",
					"type": "uint256"
				},
				{
					"internalType": "address",
					"name": "",
					"type": "address"
				}
			],
			"name": "votedForCategory",
			"outputs": [
				{
					"internalType": "bool",
					"name": "",
					"type": "bool"
				}
			],
			"stateMutability": "view",
			"type": "function"
		},
		{
			"inputs": [
				{
					"internalType": "uint256",
					"name": "",
					"type": "uint256"
				},
				{
					"internalType": "uint256",
					"name": "",
					"type": "uint256"
				}
			],
			"name": "votesForCategory",
			"outputs": [
				{
					"internalType": "uint256",
					"name": "",
					"type": "uint256"
				}
			],
			"stateMutability": "view",
			"type": "function"
		},
		{
			"inputs": [],
			"name": "zstoken",
			"outputs": [
				{
					"internalType": "contract ZuriSchoolToken",
					"name": "",
					"type": "address"
				}
			],
			"stateMutability": "view",
			"type": "function"
		}
	]
}