{
	"data": {
		"bytecode": {
			"linkReferences": {},
			"object": "6080604052600060035560016006553480156200001b57600080fd5b50604051620041bc380380620041bc8339810160408190526200003e91620001be565b600180546001600160a01b03199081166001600160a01b03841617825560028054339216821790556040805160e081018252600860a082019081526731b430b4b936b0b760c11b60c08301528152602080820194909452600081830181905260608201819052600460808301529283526009845291208151805192939192620000cb928492019062000118565b506020820151600182018054604085015115156101000261ff00199315159390931661ffff199091161791909117905560608201516002820155608090910151600390910155506200022c565b8280546200012690620001f0565b90600052602060002090601f0160209004810192826200014a576000855562000195565b82601f106200016557805160ff191683800117855562000195565b8280016001018555821562000195579182015b828111156200019557825182559160200191906001019062000178565b50620001a3929150620001a7565b5090565b5b80821115620001a35760008155600101620001a8565b600060208284031215620001d157600080fd5b81516001600160a01b0381168114620001e957600080fd5b9392505050565b600181811c908216806200020557607f821691505b6020821081036200022657634e487b7160e01b600052602260045260246000fd5b50919050565b613f80806200023c6000396000f3fe608060405234801561001057600080fd5b50600436106101d95760003560e01c80635202d88711610104578063a6385803116100a2578063c6cdbe5e11610071578063c6cdbe5e1461049f578063e8101869146104bf578063f74e0eac146104d2578063fc177e301461050057600080fd5b8063a638580314610426578063a672601d14610447578063c00ce9ff1461045a578063c07cfca91461047b57600080fd5b8063764926db116100de578063764926db146103cd57806387f7b975146103e05780638b132066146103f35780638c1b0d511461041e57600080fd5b80635202d887146103875780636c5374711461038f5780637026fe9c146103ba57600080fd5b806316c61ccc1161017c57806332b773a51161014b57806332b773a5146103055780633477ee2e14610318578063402847531461033b57806344fb5a1a1461035c57600080fd5b806316c61ccc146102a957806319f3a50e146102c65780632d35a8a2146102db57806330a9e121146102f257600080fd5b80630b5f42da116101b85780630b5f42da146102435780630b92dfa01461026e5780630dbce4dd1461028357806316c38b3c1461029657600080fd5b8062d195fd146101de57806306a49fce1461020c578063073b1f5914610221575b600080fd5b6101f16101ec366004613392565b610513565b60405161020396959493929190613407565b60405180910390f35b6102146105f5565b60405161020391906134dc565b61023461022f3660046135a6565b610793565b604051610203939291906135e3565b600154610256906001600160a01b031681565b6040516001600160a01b039091168152602001610203565b61028161027c36600461360b565b610d0f565b005b6102816102913660046136a9565b610f99565b6102816102a436600461370d565b61114d565b6007546102b69060ff1681565b6040519015158152602001610203565b6102ce61118a565b60405161020391906137bf565b6102e460035481565b604051908152602001610203565b6102b6610300366004613958565b611420565b6101f16103133660046135a6565b611679565b61032b610326366004613392565b61169f565b6040516102039493929190613a34565b61034e6103493660046135a6565b611750565b604051610203929190613a60565b6102e461036a3660046135a6565b8051602081830181018051600d8252928201919093012091525481565b6102816119bd565b6102e461039d366004613a82565b600c60209081526000928352604080842090915290825290205481565b6102b66103c8366004613abb565b611bc3565b6102816103db3660046135a6565b611c9c565b600254610256906001600160a01b031681565b6102e46104013660046135a6565b805160208183018101805160108252928201919093012091525481565b610281611f2f565b610439610434366004613b09565b611f8a565b604051610203929190613b4e565b6102816104553660046135a6565b6124be565b61046d6104683660046135a6565b61275f565b604051610203929190613b61565b61048e610489366004613b86565b612a02565b604051610203959493929190613ba1565b6104b26104ad366004613392565b612abf565b6040516102039190613bd8565b6102816104cd366004613b86565b612b6b565b6102b66104e0366004613beb565b600b60209081526000928352604080842090915290825290205460ff1681565b6104b261050e3660046135a6565b612eff565b6008818154811061052357600080fd5b906000526020600020906005020160009150905080600001805461054690613c0e565b80601f016020809104026020016040519081016040528092919081815260200182805461057290613c0e565b80156105bf5780601f10610594576101008083540402835291602001916105bf565b820191906000526020600020905b8154815290600101906020018083116105a257829003601f168201915b5050506002840154600390940154929360ff80821694610100830482169450620100008304821693506301000000909204169086565b6060600060035467ffffffffffffffff811115610614576106146134ef565b60405190808252806020026020018201604052801561067057816020015b61065d6040518060800160405280600081526020016060815260200160008152602001600081525090565b8152602001906001900390816106325790505b50905060005b60035481101561078d576000600a81610690846001613c58565b8152602001908152602001600020905080604051806080016040529081600082015481526020016001820180546106c690613c0e565b80601f01602080910402602001604051908101604052809291908181526020018280546106f290613c0e565b801561073f5780601f106107145761010080835404028352916020019161073f565b820191906000526020600020905b81548152906001019060200180831161072257829003601f168201915b505050505081526020016002820154815260200160038201548152505083838151811061076e5761076e613c70565b602002602001018190525050808061078590613c86565b915050610676565b50919050565b60025460009081906060906001600160a01b03163314806108715750336000908152600960205260409020805461087191906107ce90613c0e565b80601f01602080910402602001604051908101604052809291908181526020018280546107fa90613c0e565b80156108475780601f1061081c57610100808354040283529160200191610847565b820191906000526020600020905b81548152906001019060200180831161082a57829003601f168201915b5050505050604051806040016040528060078152602001663a32b0b1b432b960c91b815250612ff9565b6108965760405162461bcd60e51b815260040161088d90613c9f565b60405180910390fd5b60075460ff16156108b95760405162461bcd60e51b815260040161088d90613ced565b600f846040516108c99190613d24565b9081526040519081900360200190206002015460ff6101009091041615156001146109465760405162461bcd60e51b815260206004820152602760248201527f546869732073657373696f6e206973207374696c6c2061637469766520666f7260448201526620766f74696e6760c81b606482015260840161088d565b60008060008060009050600060035467ffffffffffffffff81111561096d5761096d6134ef565b6040519080825280602002602001820160405280156109c957816020015b6109b66040518060800160405280600081526020016060815260200160008152602001600081525090565b81526020019060019003908161098b5790505b50905060005b600354811015610bd457600d8a6040516109e99190613d24565b90815260405190819003602001902054600a6000610a08846001613c58565b81526020019081526020016000206002015403610bc257600a6000610a2e836001613c58565b81526020019081526020016000206003015485610a4b9190613c58565b945085600a6000610a5d846001613c58565b8152602001908152602001600020600301541115610bc257600a6000610a84836001613c58565b81526020019081526020016000206003015495506000600a6000836001610aab9190613c58565b81526020019081526020016000206000015490508094506000600a600083815260200190815260200160002090508060405180608001604052908160008201548152602001600182018054610aff90613c0e565b80601f0160208091040260200160405190810160405280929190818152602001828054610b2b90613c0e565b8015610b785780601f10610b4d57610100808354040283529160200191610b78565b820191906000526020600020905b815481529060010190602001808311610b5b57829003601f168201915b5050505050815260200160028201548152602001600382015481525050848681518110610ba757610ba7613c70565b6020908102919091010152610bbd600186613c58565b945050505b80610bcc81613c86565b9150506109cf565b5083600f8a604051610be69190613d24565b9081526020016040518091039020600301819055506001600f8a604051610c0d9190613d24565b908152602001604051809103902060020160026101000a81548160ff021916908315150217905550600060108a604051610c479190613d24565b9081526020016040518091039020549050600160088281548110610c6d57610c6d613c70565b906000526020600020906005020160020160026101000a81548160ff021916908315150217905550600a6000858152602001908152602001600020600e8b604051610cb89190613d24565b908152604051908190036020019020815481556001808301805491830191610cdf90613c0e565b610cea929190613052565b5060028281015490820155600391820154910155509298939750919550919350505050565b6002546001600160a01b0316331480610d4257503360009081526009602052604090208054610d4291906107ce90613c0e565b610d5e5760405162461bcd60e51b815260040161088d90613c9f565b60075460ff1615610d815760405162461bcd60e51b815260040161088d90613ced565b80610dce5760405162461bcd60e51b815260206004820152601960248201527f55706c6f6164206172726179206f662061646472657373657300000000000000604482015260640161088d565b60005b81811015610f575760096000848484818110610def57610def613c70565b9050602002016020810190610e049190613b86565b6001600160a01b03168152602081019190915260400160009081206001015460ff1615159003610efd576040518060a00160405280868152602001600115158152602001600015158152602001600081526020018581525060096000858585818110610e7257610e72613c70565b9050602002016020810190610e879190613b86565b6001600160a01b03168152602080820192909252604001600020825180519192610eb6928492909101906130dd565b506020820151600182018054604085015115156101000261ff00199315159390931661ffff1990911617919091179055606082015160028201556080909101516003909101555b610f2785604051806040016040528060088152602001673234b932b1ba37b960c11b815250612ff9565b15610f4557600160126000828254610f3f9190613c58565b90915550505b80610f4f81613c86565b915050610dd1565b507fdb5c245ee0521674ade89200cc3647a9590af2330e581dd656dce39d2354107c848383604051610f8b93929190613d40565b60405180910390a150505050565b6002546001600160a01b0316331480610fcc57503360009081526009602052604090208054610fcc91906107ce90613c0e565b610fe85760405162461bcd60e51b815260040161088d90613c9f565b60075460ff161561100b5760405162461bcd60e51b815260040161088d90613ced565b600d8160405161101b9190613d24565b9081526020016040518091039020546000036110795760405162461bcd60e51b815260206004820152601a60248201527f43617465676f727920646f6573206e6f742065786973742e2e2e000000000000604482015260640161088d565b6003805490600061108983613c86565b919050555060405180608001604052806003548152602001838152602001600d836040516110b79190613d24565b908152604080516020928190038301902054835260009282018390526003548352600a82529091208251815582820151805191926110fd926001850192909101906130dd565b5060408281015160028301556060909201516003918201555490519081527ff23ce42eb3d2878c26ab610ef7d3edf80e07cfb6568d4028550637f27c73db41906020015b60405180910390a15050565b6002546001600160a01b031633146111775760405162461bcd60e51b815260040161088d90613da1565b6007805460ff1916911515919091179055565b60075460609060ff16156111b05760405162461bcd60e51b815260040161088d90613ced565b6008805480602002602001604051908101604052809291908181526020016000905b8282101561141757838290600052602060002090600502016040518061010001604052908160008201805461120690613c0e565b80601f016020809104026020016040519081016040528092919081815260200182805461123290613c0e565b801561127f5780601f106112545761010080835404028352916020019161127f565b820191906000526020600020905b81548152906001019060200180831161126257829003601f168201915b50505050508152602001600182018054806020026020016040519081016040528092919081815260200182805480156112d757602002820191906000526020600020905b8154815260200190600101908083116112c3575b5050509183525050600282015460ff8082161515602080850191909152610100830482161515604080860191909152620100008404831615156060860152630100000090930490911615156080840152600384015460a084015260048401805483518184028101840190945280845260c090940193909160009084015b8282101561140057838290600052602060002001805461137390613c0e565b80601f016020809104026020016040519081016040528092919081815260200182805461139f90613c0e565b80156113ec5780601f106113c1576101008083540402835291602001916113ec565b820191906000526020600020905b8154815290600101906020018083116113cf57829003601f168201915b505050505081526020019060010190611354565b5050505081525050815260200190600101906111d2565b50505050905090565b6002546000906001600160a01b03163314806114565750336000908152600960205260409020805461145691906107ce90613c0e565b6114725760405162461bcd60e51b815260040161088d90613c9f565b60075460ff16156114955760405162461bcd60e51b815260040161088d90613ced565b60085460405181906010906114ab908890613d24565b90815260408051918290036020908101832093909355610100820181528782528183018790526000908201819052606082018190526080820181905260a0820181905260c0820181905260e0820186905260088054600181018255915281518051929360059092027ff3f7a9fe364faab93b216da50a3214154f22a0a2b415b23a84c8169e8b636ee3019261154392849201906130dd565b50602082810151805161155c9260018501920190613151565b5060408201516002820180546060850151608086015160a0870151151563010000000263ff0000001991151562010000029190911663ffff0000199215156101000261ff00199615159690961661ffff199094169390931794909417161791909117905560c0820151600382015560e082015180516115e591600484019160209091019061318b565b50505060005b835181101561166d5760016011876040516116069190613d24565b908152602001604051809103902085838151811061162657611626613c70565b602002602001015160405161163b9190613d24565b908152604051908190036020019020805491151560ff199092169190911790558061166581613c86565b9150506115eb565b50600195945050505050565b8051602081830181018051600f8252928201919093012091528054819061054690613c0e565b600a60205260009081526040902080546001820180549192916116c190613c0e565b80601f01602080910402602001604051908101604052809291908181526020018280546116ed90613c0e565b801561173a5780601f1061170f5761010080835404028352916020019161173a565b820191906000526020600020905b81548152906001019060200180831161171d57829003601f168201915b5050505050908060020154908060030154905084565b61177b6040518060800160405280600081526020016060815260200160008152602001600081525090565b600082600f8160405161178e9190613d24565b9081526040516020918190039190910190206002015462010000900460ff1615156001146118115760405162461bcd60e51b815260206004820152602a60248201527f4f6e6c7920616c6c6f77656420616674657220766f7465732068617665206265604482015269195b8818dbdd5b9d195960b21b606482015260840161088d565b60075460ff16156118345760405162461bcd60e51b815260040161088d90613ced565b600f846040516118449190613d24565b908152604051602091819003919091019020600201546301000000900460ff1615156001146118b55760405162461bcd60e51b815260206004820152601860248201527f526573756c74206973206e6f7420796574207075626c69630000000000000000604482015260640161088d565b600e846040516118c59190613d24565b9081526020016040518091039020600f856040516118e39190613d24565b908152602001604051809103902060030154816040518060800160405290816000820154815260200160018201805461191b90613c0e565b80601f016020809104026020016040519081016040528092919081815260200182805461194790613c0e565b80156119945780601f1061196957610100808354040283529160200191611994565b820191906000526020600020905b81548152906001019060200180831161197757829003601f168201915b505050505081526020016002820154815260200160038201548152505091509250925050915091565b3360009081526009602052604090208054611a8091906119dc90613c0e565b80601f0160208091040260200160405190810160405280929190818152602001828054611a0890613c0e565b8015611a555780601f10611a2a57610100808354040283529160200191611a55565b820191906000526020600020905b815481529060010190602001808311611a3857829003601f168201915b5050505050604051806040016040528060088152602001673234b932b1ba37b960c11b815250612ff9565b611acc5760405162461bcd60e51b815260206004820152601a60248201527f4f6e6c79204469726563746f7273206861766520616363657373000000000000604482015260640161088d565b3360009081526013602052604090205460ff1615611b2c5760405162461bcd60e51b815260206004820152601c60248201527f596f75206861766520616c726561647920636f6e73656e7465642e2e00000000604482015260640161088d565b336000818152601360209081526040808320805460ff19166001908117909155835480820185559380527f290decd9548b62a8d60345a988386fc84ba6bc95484008f6362f93160ef3e56390930180546001600160a01b031916851790558051938452908301919091527f5070fce92b28b0b7307a321f7f22b3e0dcc2f59db3cc8d88dd30043edaaca80e910160405180910390a1565b60075460009060ff1615611be95760405162461bcd60e51b815260040161088d90613ced565b6001600160a01b03821660009081526009602052604090208054611c95918591611c1290613c0e565b80601f0160208091040260200160405190810160405280929190818152602001828054611c3e90613c0e565b8015611c8b5780601f10611c6057610100808354040283529160200191611c8b565b820191906000526020600020905b815481529060010190602001808311611c6e57829003601f168201915b5050505050612ff9565b9392505050565b6002546001600160a01b03163314611cc65760405162461bcd60e51b815260040161088d90613da1565b60075460ff1615611ce95760405162461bcd60e51b815260040161088d90613ced565b6000601082604051611cfb9190613d24565b9081526020016040518091039020541015611d515760405162461bcd60e51b81526020600482015260166024820152751b9bc81cdd58da0818d85d1959dbdc9e48195e1a5cdd60521b604482015260640161088d565b6000601082604051611d639190613d24565b908152602001604051809103902054905060088181548110611d8757611d87613c70565b9060005260206000209060050201600f83604051611da59190613d24565b908152604051908190036020019020815481908390611dc390613c0e565b611dce929190613052565b5060018281018054611de392840191906131e4565b5060028281018054918301805460ff938416151560ff19821681178355835461010090819004861615150261ff001990911661ffff19909216919091171780825582546201000090819004851615150262ff0000198216811783559254630100000090819004909416151590930263ff0000001990921663ffff000019909316929092171790556003808301549082015560048083018054611e889284019190613223565b50905050600160088281548110611ea157611ea1613c70565b906000526020600020906005020160020160006101000a81548160ff0219169083151502179055506001600f83604051611edb9190613d24565b908152604051908190036020018120600201805492151560ff19909316929092179091557f226e81a7d3388de1ec48d35e19f2946db8a13c1df85088428a21a00a75fbfcdc90611141908490600190613de4565b6002546001600160a01b03163314611f595760405162461bcd60e51b815260040161088d90613da1565b60075460ff1615611f7c5760405162461bcd60e51b815260040161088d90613ced565b611f8860086000613279565b565b336000908152600960205260408120600101546060919060ff16611ffc5760405162461bcd60e51b8152602060048201526024808201527f596f75206d75737420626520612072656769737465726564207374616b65686f604482015263363232b960e11b606482015260840161088d565b60075460ff161561201f5760405162461bcd60e51b815260040161088d90613ced565b600f8460405161202f9190613d24565b9081526040519081900360200190206002015460ff1615156001146120665760405162461bcd60e51b815260040161088d90613e08565b6011846040516120769190613d24565b908152604080519182900360209081018320336000908152600990925291902090916120a29190613e53565b9081526040519081900360200190205460ff16151560011461211f5760405162461bcd60e51b815260206004820152603060248201527f596f7520617265206e6f74205175616c696669656420746f20766f746520666f60448201526f039103a3434b99031b0ba32b3b7b93c960851b606482015260840161088d565b600f8460405161212f9190613d24565b9081526040519081900360200190206002015460ff61010090910416156121685760405162461bcd60e51b815260040161088d90613e08565b600d846040516121789190613d24565b908152602001604051809103902054600a600085815260200190815260200160002060020154146122005760405162461bcd60e51b815260206004820152602c60248201527f43616e646964617465206973206e6f74205265676973746572656420666f722060448201526b74686973204f66666963652160a01b606482015260840161088d565b600b6000600d866040516122149190613d24565b9081526040805160209281900383019020548352828201939093529082016000908120338252909152205460ff161561229a5760405162461bcd60e51b815260206004820152602260248201527f43616e6e6f7420766f746520747769636520666f7220612063617465676f7279604482015261171760f11b606482015260840161088d565b33600081815260096020526040908190206001908101805461ff0019166101001790555490516370a0823160e01b81526004810192909252670de0b6b3a7640000916001600160a01b03909116906370a0823190602401602060405180830381865afa15801561230e573d6000803e3d6000fd5b505050506040513d601f19601f820116820180604052508101906123329190613eee565b116123b15760405162461bcd60e51b815260206004820152604360248201527f596f75722062616c616e63652069732063757272656e746c79206e6f7420737560448201527f6666696369656e7420746f20766f74652e204e6f742061207374616b65686f6c6064820152623232b960e91b608482015260a40161088d565b33600090815260096020908152604080832060030154868452600c90925280832090518390600d906123e4908a90613d24565b908152602001604051809103902054815260200190815260200160002060008282546124109190613c58565b91829055506000868152600a60205260408082206003018390555191935060019250600b91600d90612443908a90613d24565b9081526040805160209281900383019020548352828201939093529082016000908120338083529252829020805460ff191693151593909317909255517f7cf072052f53d68961097943ed95e47f628a7e51e185d0fa17786de527f4d8ee916124ad918890613f07565b60405180910390a150929391925050565b6002546001600160a01b031633146124e85760405162461bcd60e51b815260040161088d90613da1565b60075460ff161561250b5760405162461bcd60e51b815260040161088d90613ced565b6001600f8260405161251d9190613d24565b908152602001604051809103902060020160016101000a81548160ff02191690831515021790555060006010826040516125579190613d24565b908152602001604051809103902054905060016008828154811061257d5761257d613c70565b906000526020600020906005020160020160016101000a81548160ff0219169083151502179055506000600f836040516125b79190613d24565b9081526020016040518091039020600401805480602002602001604051908101604052809291908181526020016000905b8282101561269457838290600052602060002001805461260790613c0e565b80601f016020809104026020016040519081016040528092919081815260200182805461263390613c0e565b80156126805780601f1061265557610100808354040283529160200191612680565b820191906000526020600020905b81548152906001019060200180831161266357829003601f168201915b5050505050815260200190600101906125e8565b50505050905060005b815181101561271f5760006011856040516126b89190613d24565b90815260200160405180910390208383815181106126d8576126d8613c70565b60200260200101516040516126ed9190613d24565b908152604051908190036020019020805491151560ff199092169190911790558061271781613c86565b91505061269d565b507f094a0eb701f9537e6884c310036f392249d21a74c75e75f5fc9987afc23f7758836001604051612752929190613de4565b60405180910390a1505050565b61278a6040518060800160405280600081526020016060815260200160008152602001600081525090565b6002546060906001600160a01b03163314806127c0575033600090815260096020526040902080546127c091906107ce90613c0e565b806127e5575033600090815260096020526040902080546127e591906119dc90613c0e565b6128575760405162461bcd60e51b815260206004820152603860248201527f416363657373206772616e74656420746f206f6e6c792074686520636861697260448201527f6d616e2c2074656163686572206f72206469726563746f720000000000000000606482015260840161088d565b60075460ff161561287a5760405162461bcd60e51b815260040161088d90613ced565b600f8360405161288a9190613d24565b9081526040516020918190039190910190206002015462010000900460ff1615156001146129205760405162461bcd60e51b815260206004820152603d60248201527f546869732073657373696f6e206973207374696c6c206163746976652c20766f60448201527f74696e6720686173206e6f7420796574206265656e20636f756e746564000000606482015260840161088d565b60006010846040516129329190613d24565b908152602001604051809103902054905060016008828154811061295857612958613c70565b906000526020600020906005020160020160036101000a81548160ff0219169083151502179055506001600f856040516129929190613d24565b908152604051908190036020018120600201805492151563010000000263ff0000001990931692909217909155600e906129cd908690613d24565b908152602001604051809103902084816040518060800160405290816000820154815260200160018201805461191b90613c0e565b600960205260009081526040902080548190612a1d90613c0e565b80601f0160208091040260200160405190810160405280929190818152602001828054612a4990613c0e565b8015612a965780601f10612a6b57610100808354040283529160200191612a96565b820191906000526020600020905b815481529060010190602001808311612a7957829003601f168201915b50505060018401546002850154600390950154939460ff80831695610100909304169350915085565b60058181548110612acf57600080fd5b906000526020600020016000915090508054612aea90613c0e565b80601f0160208091040260200160405190810160405280929190818152602001828054612b1690613c0e565b8015612b635780601f10612b3857610100808354040283529160200191612b63565b820191906000526020600020905b815481529060010190602001808311612b4657829003601f168201915b505050505081565b3360009081526009602052604090208054612b8a91906119dc90613c0e565b612bd65760405162461bcd60e51b815260206004820152601a60248201527f4f6e6c79204469726563746f7273206861766520616363657373000000000000604482015260640161088d565b60075460ff1615612bf95760405162461bcd60e51b815260040161088d90613ced565b6001600160a01b038116600090815260096020526040902060019081015460ff16151514612c875760405162461bcd60e51b815260206004820152603560248201527f43616e27742061737369676e206120726f6c65206f662063686169726d616e206044820152743a379030903737b71039ba30b5b2b437b63232b91760591b606482015260840161088d565b6000601254604b612c989190613f2b565b6000549091508190612cab906064613f2b565b11612d1e5760405162461bcd60e51b815260206004820152603a60248201527f52657175697265732047726561746572207468616e2037352520636f6e73656e60448201527f74206f66204469726563746f727320746f20617070726f766521000000000000606482015260840161088d565b604080518082018252600881526731b430b4b936b0b760c11b60208083019182526001600160a01b03861660009081526009909152929092209051612d6392906130dd565b5060408051808201825260088152673234b932b1ba37b960c11b60208083019182526002546001600160a01b031660009081526009909152929092209051612dab92906130dd565b50600280546001600160a01b0390811660009081526009602090815260408083206003908101819055938716808452818420600495019490945584546001600160a01b03191690931790935580548251818502810185019093528083529092839190830182828015612e4657602002820191906000526020600020905b81546001600160a01b03168152600190910190602001808311612e28575b5050505050905060005b8151811015612eb557600060136000848481518110612e7157612e71613c70565b6020908102919091018101516001600160a01b03168252810191909152604001600020805460ff191691151591909117905580612ead81613c86565b915050612e50565b50612ec160008061329d565b604080513381526001600160a01b03851660208201527f9f74f4499e58a849c37599cb9ca3e78131f42231af29d39292c4ccec633a07a39101612752565b6002546060906001600160a01b0316331480612f3557503360009081526009602052604090208054612f3591906107ce90613c0e565b612f515760405162461bcd60e51b815260040161088d90613c9f565b60075460ff1615612f745760405162461bcd60e51b815260040161088d90613ced565b600580546001810182556000919091528251612fb7917f036b6384b5eca791c62761152d0c79bb0604c104a5fb6f4eb0703f3154bb3db0019060208501906130dd565b50600654600d83604051612fcb9190613d24565b9081526040519081900360200190205560068054906000612feb83613c86565b91905055508190505b919050565b60008160405160200161300c9190613d24565b60405160208183030381529060405280519060200120836040516020016130339190613d24565b6040516020818303038152906040528051906020012014905092915050565b82805461305e90613c0e565b90600052602060002090601f01602090048101928261308057600085556130cd565b82601f1061309157805485556130cd565b828001600101855582156130cd57600052602060002091601f016020900482015b828111156130cd5782548255916001019190600101906130b2565b506130d99291506132b7565b5090565b8280546130e990613c0e565b90600052602060002090601f01602090048101928261310b57600085556130cd565b82601f1061312457805160ff19168380011785556130cd565b828001600101855582156130cd579182015b828111156130cd578251825591602001919060010190613136565b8280548282559060005260206000209081019282156130cd57916020028201828111156130cd578251825591602001919060010190613136565b8280548282559060005260206000209081019282156131d8579160200282015b828111156131d857825180516131c89184916020909101906130dd565b50916020019190600101906131ab565b506130d99291506132cc565b8280548282559060005260206000209081019282156130cd576000526020600020918201828111156130cd5782548255916001019190600101906130b2565b8280548282559060005260206000209081019282156131d85760005260206000209182015b828111156131d857828290805461325e90613c0e565b613269929190613052565b5091600101919060010190613248565b508054600082556005029060005260206000209081019061329a91906132e9565b50565b508054600082559060005260206000209081019061329a91905b5b808211156130d957600081556001016132b8565b808211156130d95760006132e0828261333a565b506001016132cc565b808211156130d95760006132fd828261333a565b61330b60018301600061329d565b60028201805463ffffffff19169055600060038301819055613331906004840190613374565b506005016132e9565b50805461334690613c0e565b6000825580601f10613356575050565b601f01602090049060005260206000209081019061329a91906132b7565b508054600082559060005260206000209081019061329a91906132cc565b6000602082840312156133a457600080fd5b5035919050565b60005b838110156133c65781810151838201526020016133ae565b838111156133d5576000848401525b50505050565b600081518084526133f38160208601602086016133ab565b601f01601f19169290920160200192915050565b60c08152600061341a60c08301896133db565b961515602083015250931515604085015291151560608401521515608083015260a090910152919050565b80518252600060208201516080602085015261346460808501826133db565b905060408301516040850152606083015160608501528091505092915050565b600082825180855260208086019550808260051b84010181860160005b848110156134cf57601f198684030189526134bd838351613445565b988401989250908301906001016134a1565b5090979650505050505050565b602081526000611c956020830184613484565b634e487b7160e01b600052604160045260246000fd5b604051601f8201601f1916810167ffffffffffffffff8111828210171561352e5761352e6134ef565b604052919050565b600082601f83011261354757600080fd5b813567ffffffffffffffff811115613561576135616134ef565b613574601f8201601f1916602001613505565b81815284602083860101111561358957600080fd5b816020850160208301376000918101602001919091529392505050565b6000602082840312156135b857600080fd5b813567ffffffffffffffff8111156135cf57600080fd5b6135db84828501613536565b949350505050565b8381528260208201526060604082015260006136026060830184613484565b95945050505050565b6000806000806060858703121561362157600080fd5b843567ffffffffffffffff8082111561363957600080fd5b61364588838901613536565b955060208701359450604087013591508082111561366257600080fd5b818701915087601f83011261367657600080fd5b81358181111561368557600080fd5b8860208260051b850101111561369a57600080fd5b95989497505060200194505050565b600080604083850312156136bc57600080fd5b823567ffffffffffffffff808211156136d457600080fd5b6136e086838701613536565b935060208501359150808211156136f657600080fd5b5061370385828601613536565b9150509250929050565b60006020828403121561371f57600080fd5b81358015158114611c9557600080fd5b600081518084526020808501945080840160005b8381101561375f57815187529582019590820190600101613743565b509495945050505050565b600081518084526020808501808196508360051b8101915082860160005b858110156137b25782840389526137a08483516133db565b98850198935090840190600101613788565b5091979650505050505050565b60006020808301818452808551808352604092508286019150828160051b87010184880160005b8381101561389657603f198984030185528151610100815181865261380d828701826133db565b915050888201518582038a870152613825828261372f565b915050878201516138398987018215159052565b5060608281015115159086015260808083015115159086015260a08083015115159086015260c0808301519086015260e09182015185820392860192909252613882818361376a565b9689019694505050908601906001016137e6565b509098975050505050505050565b600067ffffffffffffffff8211156138be576138be6134ef565b5060051b60200190565b600082601f8301126138d957600080fd5b813560206138ee6138e9836138a4565b613505565b82815260059290921b8401810191818101908684111561390d57600080fd5b8286015b8481101561394d57803567ffffffffffffffff8111156139315760008081fd5b61393f8986838b0101613536565b845250918301918301613911565b509695505050505050565b60008060006060848603121561396d57600080fd5b833567ffffffffffffffff8082111561398557600080fd5b61399187838801613536565b94506020915081860135818111156139a857600080fd5b8601601f810188136139b957600080fd5b80356139c76138e9826138a4565b81815260059190911b8201840190848101908a8311156139e657600080fd5b928501925b82841015613a04578335825292850192908501906139eb565b96505050506040860135915080821115613a1d57600080fd5b50613a2a868287016138c8565b9150509250925092565b848152608060208201526000613a4d60808301866133db565b6040830194909452506060015292915050565b604081526000613a736040830185613445565b90508260208301529392505050565b60008060408385031215613a9557600080fd5b50508035926020909101359150565b80356001600160a01b0381168114612ff457600080fd5b60008060408385031215613ace57600080fd5b823567ffffffffffffffff811115613ae557600080fd5b613af185828601613536565b925050613b0060208401613aa4565b90509250929050565b60008060408385031215613b1c57600080fd5b823567ffffffffffffffff811115613b3357600080fd5b613b3f85828601613536565b95602094909401359450505050565b604081526000613a7360408301856133db565b604081526000613b746040830185613445565b828103602084015261360281856133db565b600060208284031215613b9857600080fd5b611c9582613aa4565b60a081526000613bb460a08301886133db565b95151560208301525092151560408401526060830191909152608090910152919050565b602081526000611c9560208301846133db565b60008060408385031215613bfe57600080fd5b82359150613b0060208401613aa4565b600181811c90821680613c2257607f821691505b60208210810361078d57634e487b7160e01b600052602260045260246000fd5b634e487b7160e01b600052601160045260246000fd5b60008219821115613c6b57613c6b613c42565b500190565b634e487b7160e01b600052603260045260246000fd5b600060018201613c9857613c98613c42565b5060010190565b6020808252602e908201527f416363657373206772616e74656420746f206f6e6c792074686520636861697260408201526d36b0b71037b9103a32b0b1b432b960911b606082015260800190565b6020808252601c908201527f436f6e74726163742069732063757272656e746c792070617573656400000000604082015260600190565b60008251613d368184602087016133ab565b9190910192915050565b604081526000613d5360408301866133db565b8281036020848101919091528482528591810160005b86811015613d95576001600160a01b03613d8285613aa4565b1682529282019290820190600101613d69565b50979650505050505050565b60208082526023908201527f416363657373206772616e74656420746f206f6e6c792074686520636861697260408201526236b0b760e91b606082015260800190565b604081526000613df760408301856133db565b905082151560208301529392505050565b6020808252602b908201527f566f74696e6720686173206e6f7420636f6d6d6d656e63656420666f7220746860408201526a69732043617465676f727960a81b606082015260800190565b600080835481600182811c915080831680613e6f57607f831692505b60208084108203613e8e57634e487b7160e01b86526022600452602486fd5b818015613ea25760018114613eb357613ee0565b60ff19861689528489019650613ee0565b60008a81526020902060005b86811015613ed85781548b820152908501908301613ebf565b505084890196505b509498975050505050505050565b600060208284031215613f0057600080fd5b5051919050565b6001600160a01b03831681526040602082018190526000906135db908301846133db565b6000816000190483118215151615613f4557613f45613c42565b50029056fea2646970667358221220a1ec7369bac5e723f1c0909f53bbc832ada5d9bb048b3eb801cf80cc02ff7f3a64736f6c634300080d0033",
			"opcodes": "PUSH1 0x80 PUSH1 0x40 MSTORE PUSH1 0x0 PUSH1 0x3 SSTORE PUSH1 0x1 PUSH1 0x6 SSTORE CALLVALUE DUP1 ISZERO PUSH3 0x1B JUMPI PUSH1 0x0 DUP1 REVERT JUMPDEST POP PUSH1 0x40 MLOAD PUSH3 0x41BC CODESIZE SUB DUP1 PUSH3 0x41BC DUP4 CODECOPY DUP2 ADD PUSH1 0x40 DUP2 SWAP1 MSTORE PUSH3 0x3E SWAP2 PUSH3 0x1BE JUMP JUMPDEST PUSH1 0x1 DUP1 SLOAD PUSH1 0x1 PUSH1 0x1 PUSH1 0xA0 SHL SUB NOT SWAP1 DUP2 AND PUSH1 0x1 PUSH1 0x1 PUSH1 0xA0 SHL SUB DUP5 AND OR DUP3 SSTORE PUSH1 0x2 DUP1 SLOAD CALLER SWAP3 AND DUP3 OR SWAP1 SSTORE PUSH1 0x40 DUP1 MLOAD PUSH1 0xE0 DUP2 ADD DUP3 MSTORE PUSH1 0x8 PUSH1 0xA0 DUP3 ADD SWAP1 DUP2 MSTORE PUSH8 0x31B430B4B936B0B7 PUSH1 0xC1 SHL PUSH1 0xC0 DUP4 ADD MSTORE DUP2 MSTORE PUSH1 0x20 DUP1 DUP3 ADD SWAP5 SWAP1 SWAP5 MSTORE PUSH1 0x0 DUP2 DUP4 ADD DUP2 SWAP1 MSTORE PUSH1 0x60 DUP3 ADD DUP2 SWAP1 MSTORE PUSH1 0x4 PUSH1 0x80 DUP4 ADD MSTORE SWAP3 DUP4 MSTORE PUSH1 0x9 DUP5 MSTORE SWAP2 KECCAK256 DUP2 MLOAD DUP1 MLOAD SWAP3 SWAP4 SWAP2 SWAP3 PUSH3 0xCB SWAP3 DUP5 SWAP3 ADD SWAP1 PUSH3 0x118 JUMP JUMPDEST POP PUSH1 0x20 DUP3 ADD MLOAD PUSH1 0x1 DUP3 ADD DUP1 SLOAD PUSH1 0x40 DUP6 ADD MLOAD ISZERO ISZERO PUSH2 0x100 MUL PUSH2 0xFF00 NOT SWAP4 ISZERO ISZERO SWAP4 SWAP1 SWAP4 AND PUSH2 0xFFFF NOT SWAP1 SWAP2 AND OR SWAP2 SWAP1 SWAP2 OR SWAP1 SSTORE PUSH1 0x60 DUP3 ADD MLOAD PUSH1 0x2 DUP3 ADD SSTORE PUSH1 0x80 SWAP1 SWAP2 ADD MLOAD PUSH1 0x3 SWAP1 SWAP2 ADD SSTORE POP PUSH3 0x22C JUMP JUMPDEST DUP3 DUP1 SLOAD PUSH3 0x126 SWAP1 PUSH3 0x1F0 JUMP JUMPDEST SWAP1 PUSH1 0x0 MSTORE PUSH1 0x20 PUSH1 0x0 KECCAK256 SWAP1 PUSH1 0x1F ADD PUSH1 0x20 SWAP1 DIV DUP2 ADD SWAP3 DUP3 PUSH3 0x14A JUMPI PUSH1 0x0 DUP6 SSTORE PUSH3 0x195 JUMP JUMPDEST DUP3 PUSH1 0x1F LT PUSH3 0x165 JUMPI DUP1 MLOAD PUSH1 0xFF NOT AND DUP4 DUP1 ADD OR DUP6 SSTORE PUSH3 0x195 JUMP JUMPDEST DUP3 DUP1 ADD PUSH1 0x1 ADD DUP6 SSTORE DUP3 ISZERO PUSH3 0x195 JUMPI SWAP2 DUP3 ADD JUMPDEST DUP3 DUP2 GT ISZERO PUSH3 0x195 JUMPI DUP3 MLOAD DUP3 SSTORE SWAP2 PUSH1 0x20 ADD SWAP2 SWAP1 PUSH1 0x1 ADD SWAP1 PUSH3 0x178 JUMP JUMPDEST POP PUSH3 0x1A3 SWAP3 SWAP2 POP PUSH3 0x1A7 JUMP JUMPDEST POP SWAP1 JUMP JUMPDEST JUMPDEST DUP1 DUP3 GT ISZERO PUSH3 0x1A3 JUMPI PUSH1 0x0 DUP2 SSTORE PUSH1 0x1 ADD PUSH3 0x1A8 JUMP JUMPDEST PUSH1 0x0 PUSH1 0x20 DUP3 DUP5 SUB SLT ISZERO PUSH3 0x1D1 JUMPI PUSH1 0x0 DUP1 REVERT JUMPDEST DUP2 MLOAD PUSH1 0x1 PUSH1 0x1 PUSH1 0xA0 SHL SUB DUP2 AND DUP2 EQ PUSH3 0x1E9 JUMPI PUSH1 0x0 DUP1 REVERT JUMPDEST SWAP4 SWAP3 POP POP POP JUMP JUMPDEST PUSH1 0x1 DUP2 DUP2 SHR SWAP1 DUP3 AND DUP1 PUSH3 0x205 JUMPI PUSH1 0x7F DUP3 AND SWAP2 POP JUMPDEST PUSH1 0x20 DUP3 LT DUP2 SUB PUSH3 0x226 JUMPI PUSH4 0x4E487B71 PUSH1 0xE0 SHL PUSH1 0x0 MSTORE PUSH1 0x22 PUSH1 0x4 MSTORE PUSH1 0x24 PUSH1 0x0 REVERT JUMPDEST POP SWAP2 SWAP1 POP JUMP JUMPDEST PUSH2 0x3F80 DUP1 PUSH3 0x23C PUSH1 0x0 CODECOPY PUSH1 0x0 RETURN INVALID PUSH1 0x80 PUSH1 0x40 MSTORE CALLVALUE DUP1 ISZERO PUSH2 0x10 JUMPI PUSH1 0x0 DUP1 REVERT JUMPDEST POP PUSH1 0x4 CALLDATASIZE LT PUSH2 0x1D9 JUMPI PUSH1 0x0 CALLDATALOAD PUSH1 0xE0 SHR DUP1 PUSH4 0x5202D887 GT PUSH2 0x104 JUMPI DUP1 PUSH4 0xA6385803 GT PUSH2 0xA2 JUMPI DUP1 PUSH4 0xC6CDBE5E GT PUSH2 0x71 JUMPI DUP1 PUSH4 0xC6CDBE5E EQ PUSH2 0x49F JUMPI DUP1 PUSH4 0xE8101869 EQ PUSH2 0x4BF JUMPI DUP1 PUSH4 0xF74E0EAC EQ PUSH2 0x4D2 JUMPI DUP1 PUSH4 0xFC177E30 EQ PUSH2 0x500 JUMPI PUSH1 0x0 DUP1 REVERT JUMPDEST DUP1 PUSH4 0xA6385803 EQ PUSH2 0x426 JUMPI DUP1 PUSH4 0xA672601D EQ PUSH2 0x447 JUMPI DUP1 PUSH4 0xC00CE9FF EQ PUSH2 0x45A JUMPI DUP1 PUSH4 0xC07CFCA9 EQ PUSH2 0x47B JUMPI PUSH1 0x0 DUP1 REVERT JUMPDEST DUP1 PUSH4 0x764926DB GT PUSH2 0xDE JUMPI DUP1 PUSH4 0x764926DB EQ PUSH2 0x3CD JUMPI DUP1 PUSH4 0x87F7B975 EQ PUSH2 0x3E0 JUMPI DUP1 PUSH4 0x8B132066 EQ PUSH2 0x3F3 JUMPI DUP1 PUSH4 0x8C1B0D51 EQ PUSH2 0x41E JUMPI PUSH1 0x0 DUP1 REVERT JUMPDEST DUP1 PUSH4 0x5202D887 EQ PUSH2 0x387 JUMPI DUP1 PUSH4 0x6C537471 EQ PUSH2 0x38F JUMPI DUP1 PUSH4 0x7026FE9C EQ PUSH2 0x3BA JUMPI PUSH1 0x0 DUP1 REVERT JUMPDEST DUP1 PUSH4 0x16C61CCC GT PUSH2 0x17C JUMPI DUP1 PUSH4 0x32B773A5 GT PUSH2 0x14B JUMPI DUP1 PUSH4 0x32B773A5 EQ PUSH2 0x305 JUMPI DUP1 PUSH4 0x3477EE2E EQ PUSH2 0x318 JUMPI DUP1 PUSH4 0x40284753 EQ PUSH2 0x33B JUMPI DUP1 PUSH4 0x44FB5A1A EQ PUSH2 0x35C JUMPI PUSH1 0x0 DUP1 REVERT JUMPDEST DUP1 PUSH4 0x16C61CCC EQ PUSH2 0x2A9 JUMPI DUP1 PUSH4 0x19F3A50E EQ PUSH2 0x2C6 JUMPI DUP1 PUSH4 0x2D35A8A2 EQ PUSH2 0x2DB JUMPI DUP1 PUSH4 0x30A9E121 EQ PUSH2 0x2F2 JUMPI PUSH1 0x0 DUP1 REVERT JUMPDEST DUP1 PUSH4 0xB5F42DA GT PUSH2 0x1B8 JUMPI DUP1 PUSH4 0xB5F42DA EQ PUSH2 0x243 JUMPI DUP1 PUSH4 0xB92DFA0 EQ PUSH2 0x26E JUMPI DUP1 PUSH4 0xDBCE4DD EQ PUSH2 0x283 JUMPI DUP1 PUSH4 0x16C38B3C EQ PUSH2 0x296 JUMPI PUSH1 0x0 DUP1 REVERT JUMPDEST DUP1 PUSH3 0xD195FD EQ PUSH2 0x1DE JUMPI DUP1 PUSH4 0x6A49FCE EQ PUSH2 0x20C JUMPI DUP1 PUSH4 0x73B1F59 EQ PUSH2 0x221 JUMPI JUMPDEST PUSH1 0x0 DUP1 REVERT JUMPDEST PUSH2 0x1F1 PUSH2 0x1EC CALLDATASIZE PUSH1 0x4 PUSH2 0x3392 JUMP JUMPDEST PUSH2 0x513 JUMP JUMPDEST PUSH1 0x40 MLOAD PUSH2 0x203 SWAP7 SWAP6 SWAP5 SWAP4 SWAP3 SWAP2 SWAP1 PUSH2 0x3407 JUMP JUMPDEST PUSH1 0x40 MLOAD DUP1 SWAP2 SUB SWAP1 RETURN JUMPDEST PUSH2 0x214 PUSH2 0x5F5 JUMP JUMPDEST PUSH1 0x40 MLOAD PUSH2 0x203 SWAP2 SWAP1 PUSH2 0x34DC JUMP JUMPDEST PUSH2 0x234 PUSH2 0x22F CALLDATASIZE PUSH1 0x4 PUSH2 0x35A6 JUMP JUMPDEST PUSH2 0x793 JUMP JUMPDEST PUSH1 0x40 MLOAD PUSH2 0x203 SWAP4 SWAP3 SWAP2 SWAP1 PUSH2 0x35E3 JUMP JUMPDEST PUSH1 0x1 SLOAD PUSH2 0x256 SWAP1 PUSH1 0x1 PUSH1 0x1 PUSH1 0xA0 SHL SUB AND DUP2 JUMP JUMPDEST PUSH1 0x40 MLOAD PUSH1 0x1 PUSH1 0x1 PUSH1 0xA0 SHL SUB SWAP1 SWAP2 AND DUP2 MSTORE PUSH1 0x20 ADD PUSH2 0x203 JUMP JUMPDEST PUSH2 0x281 PUSH2 0x27C CALLDATASIZE PUSH1 0x4 PUSH2 0x360B JUMP JUMPDEST PUSH2 0xD0F JUMP JUMPDEST STOP JUMPDEST PUSH2 0x281 PUSH2 0x291 CALLDATASIZE PUSH1 0x4 PUSH2 0x36A9 JUMP JUMPDEST PUSH2 0xF99 JUMP JUMPDEST PUSH2 0x281 PUSH2 0x2A4 CALLDATASIZE PUSH1 0x4 PUSH2 0x370D JUMP JUMPDEST PUSH2 0x114D JUMP JUMPDEST PUSH1 0x7 SLOAD PUSH2 0x2B6 SWAP1 PUSH1 0xFF AND DUP2 JUMP JUMPDEST PUSH1 0x40 MLOAD SWAP1 ISZERO ISZERO DUP2 MSTORE PUSH1 0x20 ADD PUSH2 0x203 JUMP JUMPDEST PUSH2 0x2CE PUSH2 0x118A JUMP JUMPDEST PUSH1 0x40 MLOAD PUSH2 0x203 SWAP2 SWAP1 PUSH2 0x37BF JUMP JUMPDEST PUSH2 0x2E4 PUSH1 0x3 SLOAD DUP2 JUMP JUMPDEST PUSH1 0x40 MLOAD SWAP1 DUP2 MSTORE PUSH1 0x20 ADD PUSH2 0x203 JUMP JUMPDEST PUSH2 0x2B6 PUSH2 0x300 CALLDATASIZE PUSH1 0x4 PUSH2 0x3958 JUMP JUMPDEST PUSH2 0x1420 JUMP JUMPDEST PUSH2 0x1F1 PUSH2 0x313 CALLDATASIZE PUSH1 0x4 PUSH2 0x35A6 JUMP JUMPDEST PUSH2 0x1679 JUMP JUMPDEST PUSH2 0x32B PUSH2 0x326 CALLDATASIZE PUSH1 0x4 PUSH2 0x3392 JUMP JUMPDEST PUSH2 0x169F JUMP JUMPDEST PUSH1 0x40 MLOAD PUSH2 0x203 SWAP5 SWAP4 SWAP3 SWAP2 SWAP1 PUSH2 0x3A34 JUMP JUMPDEST PUSH2 0x34E PUSH2 0x349 CALLDATASIZE PUSH1 0x4 PUSH2 0x35A6 JUMP JUMPDEST PUSH2 0x1750 JUMP JUMPDEST PUSH1 0x40 MLOAD PUSH2 0x203 SWAP3 SWAP2 SWAP1 PUSH2 0x3A60 JUMP JUMPDEST PUSH2 0x2E4 PUSH2 0x36A CALLDATASIZE PUSH1 0x4 PUSH2 0x35A6 JUMP JUMPDEST DUP1 MLOAD PUSH1 0x20 DUP2 DUP4 ADD DUP2 ADD DUP1 MLOAD PUSH1 0xD DUP3 MSTORE SWAP3 DUP3 ADD SWAP2 SWAP1 SWAP4 ADD KECCAK256 SWAP2 MSTORE SLOAD DUP2 JUMP JUMPDEST PUSH2 0x281 PUSH2 0x19BD JUMP JUMPDEST PUSH2 0x2E4 PUSH2 0x39D CALLDATASIZE PUSH1 0x4 PUSH2 0x3A82 JUMP JUMPDEST PUSH1 0xC PUSH1 0x20 SWAP1 DUP2 MSTORE PUSH1 0x0 SWAP3 DUP4 MSTORE PUSH1 0x40 DUP1 DUP5 KECCAK256 SWAP1 SWAP2 MSTORE SWAP1 DUP3 MSTORE SWAP1 KECCAK256 SLOAD DUP2 JUMP JUMPDEST PUSH2 0x2B6 PUSH2 0x3C8 CALLDATASIZE PUSH1 0x4 PUSH2 0x3ABB JUMP JUMPDEST PUSH2 0x1BC3 JUMP JUMPDEST PUSH2 0x281 PUSH2 0x3DB CALLDATASIZE PUSH1 0x4 PUSH2 0x35A6 JUMP JUMPDEST PUSH2 0x1C9C JUMP JUMPDEST PUSH1 0x2 SLOAD PUSH2 0x256 SWAP1 PUSH1 0x1 PUSH1 0x1 PUSH1 0xA0 SHL SUB AND DUP2 JUMP JUMPDEST PUSH2 0x2E4 PUSH2 0x401 CALLDATASIZE PUSH1 0x4 PUSH2 0x35A6 JUMP JUMPDEST DUP1 MLOAD PUSH1 0x20 DUP2 DUP4 ADD DUP2 ADD DUP1 MLOAD PUSH1 0x10 DUP3 MSTORE SWAP3 DUP3 ADD SWAP2 SWAP1 SWAP4 ADD KECCAK256 SWAP2 MSTORE SLOAD DUP2 JUMP JUMPDEST PUSH2 0x281 PUSH2 0x1F2F JUMP JUMPDEST PUSH2 0x439 PUSH2 0x434 CALLDATASIZE PUSH1 0x4 PUSH2 0x3B09 JUMP JUMPDEST PUSH2 0x1F8A JUMP JUMPDEST PUSH1 0x40 MLOAD PUSH2 0x203 SWAP3 SWAP2 SWAP1 PUSH2 0x3B4E JUMP JUMPDEST PUSH2 0x281 PUSH2 0x455 CALLDATASIZE PUSH1 0x4 PUSH2 0x35A6 JUMP JUMPDEST PUSH2 0x24BE JUMP JUMPDEST PUSH2 0x46D PUSH2 0x468 CALLDATASIZE PUSH1 0x4 PUSH2 0x35A6 JUMP JUMPDEST PUSH2 0x275F JUMP JUMPDEST PUSH1 0x40 MLOAD PUSH2 0x203 SWAP3 SWAP2 SWAP1 PUSH2 0x3B61 JUMP JUMPDEST PUSH2 0x48E PUSH2 0x489 CALLDATASIZE PUSH1 0x4 PUSH2 0x3B86 JUMP JUMPDEST PUSH2 0x2A02 JUMP JUMPDEST PUSH1 0x40 MLOAD PUSH2 0x203 SWAP6 SWAP5 SWAP4 SWAP3 SWAP2 SWAP1 PUSH2 0x3BA1 JUMP JUMPDEST PUSH2 0x4B2 PUSH2 0x4AD CALLDATASIZE PUSH1 0x4 PUSH2 0x3392 JUMP JUMPDEST PUSH2 0x2ABF JUMP JUMPDEST PUSH1 0x40 MLOAD PUSH2 0x203 SWAP2 SWAP1 PUSH2 0x3BD8 JUMP JUMPDEST PUSH2 0x281 PUSH2 0x4CD CALLDATASIZE PUSH1 0x4 PUSH2 0x3B86 JUMP JUMPDEST PUSH2 0x2B6B JUMP JUMPDEST PUSH2 0x2B6 PUSH2 0x4E0 CALLDATASIZE PUSH1 0x4 PUSH2 0x3BEB JUMP JUMPDEST PUSH1 0xB PUSH1 0x20 SWAP1 DUP2 MSTORE PUSH1 0x0 SWAP3 DUP4 MSTORE PUSH1 0x40 DUP1 DUP5 KECCAK256 SWAP1 SWAP2 MSTORE SWAP1 DUP3 MSTORE SWAP1 KECCAK256 SLOAD PUSH1 0xFF AND DUP2 JUMP JUMPDEST PUSH2 0x4B2 PUSH2 0x50E CALLDATASIZE PUSH1 0x4 PUSH2 0x35A6 JUMP JUMPDEST PUSH2 0x2EFF JUMP JUMPDEST PUSH1 0x8 DUP2 DUP2 SLOAD DUP2 LT PUSH2 0x523 JUMPI PUSH1 0x0 DUP1 REVERT JUMPDEST SWAP1 PUSH1 0x0 MSTORE PUSH1 0x20 PUSH1 0x0 KECCAK256 SWAP1 PUSH1 0x5 MUL ADD PUSH1 0x0 SWAP2 POP SWAP1 POP DUP1 PUSH1 0x0 ADD DUP1 SLOAD PUSH2 0x546 SWAP1 PUSH2 0x3C0E JUMP JUMPDEST DUP1 PUSH1 0x1F ADD PUSH1 0x20 DUP1 SWAP2 DIV MUL PUSH1 0x20 ADD PUSH1 0x40 MLOAD SWAP1 DUP2 ADD PUSH1 0x40 MSTORE DUP1 SWAP3 SWAP2 SWAP1 DUP2 DUP2 MSTORE PUSH1 0x20 ADD DUP3 DUP1 SLOAD PUSH2 0x572 SWAP1 PUSH2 0x3C0E JUMP JUMPDEST DUP1 ISZERO PUSH2 0x5BF JUMPI DUP1 PUSH1 0x1F LT PUSH2 0x594 JUMPI PUSH2 0x100 DUP1 DUP4 SLOAD DIV MUL DUP4 MSTORE SWAP2 PUSH1 0x20 ADD SWAP2 PUSH2 0x5BF JUMP JUMPDEST DUP3 ADD SWAP2 SWAP1 PUSH1 0x0 MSTORE PUSH1 0x20 PUSH1 0x0 KECCAK256 SWAP1 JUMPDEST DUP2 SLOAD DUP2 MSTORE SWAP1 PUSH1 0x1 ADD SWAP1 PUSH1 0x20 ADD DUP1 DUP4 GT PUSH2 0x5A2 JUMPI DUP3 SWAP1 SUB PUSH1 0x1F AND DUP3 ADD SWAP2 JUMPDEST POP POP POP PUSH1 0x2 DUP5 ADD SLOAD PUSH1 0x3 SWAP1 SWAP5 ADD SLOAD SWAP3 SWAP4 PUSH1 0xFF DUP1 DUP3 AND SWAP5 PUSH2 0x100 DUP4 DIV DUP3 AND SWAP5 POP PUSH3 0x10000 DUP4 DIV DUP3 AND SWAP4 POP PUSH4 0x1000000 SWAP1 SWAP3 DIV AND SWAP1 DUP7 JUMP JUMPDEST PUSH1 0x60 PUSH1 0x0 PUSH1 0x3 SLOAD PUSH8 0xFFFFFFFFFFFFFFFF DUP2 GT ISZERO PUSH2 0x614 JUMPI PUSH2 0x614 PUSH2 0x34EF JUMP JUMPDEST PUSH1 0x40 MLOAD SWAP1 DUP1 DUP3 MSTORE DUP1 PUSH1 0x20 MUL PUSH1 0x20 ADD DUP3 ADD PUSH1 0x40 MSTORE DUP1 ISZERO PUSH2 0x670 JUMPI DUP2 PUSH1 0x20 ADD JUMPDEST PUSH2 0x65D PUSH1 0x40 MLOAD DUP1 PUSH1 0x80 ADD PUSH1 0x40 MSTORE DUP1 PUSH1 0x0 DUP2 MSTORE PUSH1 0x20 ADD PUSH1 0x60 DUP2 MSTORE PUSH1 0x20 ADD PUSH1 0x0 DUP2 MSTORE PUSH1 0x20 ADD PUSH1 0x0 DUP2 MSTORE POP SWAP1 JUMP JUMPDEST DUP2 MSTORE PUSH1 0x20 ADD SWAP1 PUSH1 0x1 SWAP1 SUB SWAP1 DUP2 PUSH2 0x632 JUMPI SWAP1 POP JUMPDEST POP SWAP1 POP PUSH1 0x0 JUMPDEST PUSH1 0x3 SLOAD DUP2 LT ISZERO PUSH2 0x78D JUMPI PUSH1 0x0 PUSH1 0xA DUP2 PUSH2 0x690 DUP5 PUSH1 0x1 PUSH2 0x3C58 JUMP JUMPDEST DUP2 MSTORE PUSH1 0x20 ADD SWAP1 DUP2 MSTORE PUSH1 0x20 ADD PUSH1 0x0 KECCAK256 SWAP1 POP DUP1 PUSH1 0x40 MLOAD DUP1 PUSH1 0x80 ADD PUSH1 0x40 MSTORE SWAP1 DUP2 PUSH1 0x0 DUP3 ADD SLOAD DUP2 MSTORE PUSH1 0x20 ADD PUSH1 0x1 DUP3 ADD DUP1 SLOAD PUSH2 0x6C6 SWAP1 PUSH2 0x3C0E JUMP JUMPDEST DUP1 PUSH1 0x1F ADD PUSH1 0x20 DUP1 SWAP2 DIV MUL PUSH1 0x20 ADD PUSH1 0x40 MLOAD SWAP1 DUP2 ADD PUSH1 0x40 MSTORE DUP1 SWAP3 SWAP2 SWAP1 DUP2 DUP2 MSTORE PUSH1 0x20 ADD DUP3 DUP1 SLOAD PUSH2 0x6F2 SWAP1 PUSH2 0x3C0E JUMP JUMPDEST DUP1 ISZERO PUSH2 0x73F JUMPI DUP1 PUSH1 0x1F LT PUSH2 0x714 JUMPI PUSH2 0x100 DUP1 DUP4 SLOAD DIV MUL DUP4 MSTORE SWAP2 PUSH1 0x20 ADD SWAP2 PUSH2 0x73F JUMP JUMPDEST DUP3 ADD SWAP2 SWAP1 PUSH1 0x0 MSTORE PUSH1 0x20 PUSH1 0x0 KECCAK256 SWAP1 JUMPDEST DUP2 SLOAD DUP2 MSTORE SWAP1 PUSH1 0x1 ADD SWAP1 PUSH1 0x20 ADD DUP1 DUP4 GT PUSH2 0x722 JUMPI DUP3 SWAP1 SUB PUSH1 0x1F AND DUP3 ADD SWAP2 JUMPDEST POP POP POP POP POP DUP2 MSTORE PUSH1 0x20 ADD PUSH1 0x2 DUP3 ADD SLOAD DUP2 MSTORE PUSH1 0x20 ADD PUSH1 0x3 DUP3 ADD SLOAD DUP2 MSTORE POP POP DUP4 DUP4 DUP2 MLOAD DUP2 LT PUSH2 0x76E JUMPI PUSH2 0x76E PUSH2 0x3C70 JUMP JUMPDEST PUSH1 0x20 MUL PUSH1 0x20 ADD ADD DUP2 SWAP1 MSTORE POP POP DUP1 DUP1 PUSH2 0x785 SWAP1 PUSH2 0x3C86 JUMP JUMPDEST SWAP2 POP POP PUSH2 0x676 JUMP JUMPDEST POP SWAP2 SWAP1 POP JUMP JUMPDEST PUSH1 0x2 SLOAD PUSH1 0x0 SWAP1 DUP2 SWAP1 PUSH1 0x60 SWAP1 PUSH1 0x1 PUSH1 0x1 PUSH1 0xA0 SHL SUB AND CALLER EQ DUP1 PUSH2 0x871 JUMPI POP CALLER PUSH1 0x0 SWAP1 DUP2 MSTORE PUSH1 0x9 PUSH1 0x20 MSTORE PUSH1 0x40 SWAP1 KECCAK256 DUP1 SLOAD PUSH2 0x871 SWAP2 SWAP1 PUSH2 0x7CE SWAP1 PUSH2 0x3C0E JUMP JUMPDEST DUP1 PUSH1 0x1F ADD PUSH1 0x20 DUP1 SWAP2 DIV MUL PUSH1 0x20 ADD PUSH1 0x40 MLOAD SWAP1 DUP2 ADD PUSH1 0x40 MSTORE DUP1 SWAP3 SWAP2 SWAP1 DUP2 DUP2 MSTORE PUSH1 0x20 ADD DUP3 DUP1 SLOAD PUSH2 0x7FA SWAP1 PUSH2 0x3C0E JUMP JUMPDEST DUP1 ISZERO PUSH2 0x847 JUMPI DUP1 PUSH1 0x1F LT PUSH2 0x81C JUMPI PUSH2 0x100 DUP1 DUP4 SLOAD DIV MUL DUP4 MSTORE SWAP2 PUSH1 0x20 ADD SWAP2 PUSH2 0x847 JUMP JUMPDEST DUP3 ADD SWAP2 SWAP1 PUSH1 0x0 MSTORE PUSH1 0x20 PUSH1 0x0 KECCAK256 SWAP1 JUMPDEST DUP2 SLOAD DUP2 MSTORE SWAP1 PUSH1 0x1 ADD SWAP1 PUSH1 0x20 ADD DUP1 DUP4 GT PUSH2 0x82A JUMPI DUP3 SWAP1 SUB PUSH1 0x1F AND DUP3 ADD SWAP2 JUMPDEST POP POP POP POP POP PUSH1 0x40 MLOAD DUP1 PUSH1 0x40 ADD PUSH1 0x40 MSTORE DUP1 PUSH1 0x7 DUP2 MSTORE PUSH1 0x20 ADD PUSH7 0x3A32B0B1B432B9 PUSH1 0xC9 SHL DUP2 MSTORE POP PUSH2 0x2FF9 JUMP JUMPDEST PUSH2 0x896 JUMPI PUSH1 0x40 MLOAD PUSH3 0x461BCD PUSH1 0xE5 SHL DUP2 MSTORE PUSH1 0x4 ADD PUSH2 0x88D SWAP1 PUSH2 0x3C9F JUMP JUMPDEST PUSH1 0x40 MLOAD DUP1 SWAP2 SUB SWAP1 REVERT JUMPDEST PUSH1 0x7 SLOAD PUSH1 0xFF AND ISZERO PUSH2 0x8B9 JUMPI PUSH1 0x40 MLOAD PUSH3 0x461BCD PUSH1 0xE5 SHL DUP2 MSTORE PUSH1 0x4 ADD PUSH2 0x88D SWAP1 PUSH2 0x3CED JUMP JUMPDEST PUSH1 0xF DUP5 PUSH1 0x40 MLOAD PUSH2 0x8C9 SWAP2 SWAP1 PUSH2 0x3D24 JUMP JUMPDEST SWAP1 DUP2 MSTORE PUSH1 0x40 MLOAD SWAP1 DUP2 SWAP1 SUB PUSH1 0x20 ADD SWAP1 KECCAK256 PUSH1 0x2 ADD SLOAD PUSH1 0xFF PUSH2 0x100 SWAP1 SWAP2 DIV AND ISZERO ISZERO PUSH1 0x1 EQ PUSH2 0x946 JUMPI PUSH1 0x40 MLOAD PUSH3 0x461BCD PUSH1 0xE5 SHL DUP2 MSTORE PUSH1 0x20 PUSH1 0x4 DUP3 ADD MSTORE PUSH1 0x27 PUSH1 0x24 DUP3 ADD MSTORE PUSH32 0x546869732073657373696F6E206973207374696C6C2061637469766520666F72 PUSH1 0x44 DUP3 ADD MSTORE PUSH7 0x20766F74696E67 PUSH1 0xC8 SHL PUSH1 0x64 DUP3 ADD MSTORE PUSH1 0x84 ADD PUSH2 0x88D JUMP JUMPDEST PUSH1 0x0 DUP1 PUSH1 0x0 DUP1 PUSH1 0x0 SWAP1 POP PUSH1 0x0 PUSH1 0x3 SLOAD PUSH8 0xFFFFFFFFFFFFFFFF DUP2 GT ISZERO PUSH2 0x96D JUMPI PUSH2 0x96D PUSH2 0x34EF JUMP JUMPDEST PUSH1 0x40 MLOAD SWAP1 DUP1 DUP3 MSTORE DUP1 PUSH1 0x20 MUL PUSH1 0x20 ADD DUP3 ADD PUSH1 0x40 MSTORE DUP1 ISZERO PUSH2 0x9C9 JUMPI DUP2 PUSH1 0x20 ADD JUMPDEST PUSH2 0x9B6 PUSH1 0x40 MLOAD DUP1 PUSH1 0x80 ADD PUSH1 0x40 MSTORE DUP1 PUSH1 0x0 DUP2 MSTORE PUSH1 0x20 ADD PUSH1 0x60 DUP2 MSTORE PUSH1 0x20 ADD PUSH1 0x0 DUP2 MSTORE PUSH1 0x20 ADD PUSH1 0x0 DUP2 MSTORE POP SWAP1 JUMP JUMPDEST DUP2 MSTORE PUSH1 0x20 ADD SWAP1 PUSH1 0x1 SWAP1 SUB SWAP1 DUP2 PUSH2 0x98B JUMPI SWAP1 POP JUMPDEST POP SWAP1 POP PUSH1 0x0 JUMPDEST PUSH1 0x3 SLOAD DUP2 LT ISZERO PUSH2 0xBD4 JUMPI PUSH1 0xD DUP11 PUSH1 0x40 MLOAD PUSH2 0x9E9 SWAP2 SWAP1 PUSH2 0x3D24 JUMP JUMPDEST SWAP1 DUP2 MSTORE PUSH1 0x40 MLOAD SWAP1 DUP2 SWAP1 SUB PUSH1 0x20 ADD SWAP1 KECCAK256 SLOAD PUSH1 0xA PUSH1 0x0 PUSH2 0xA08 DUP5 PUSH1 0x1 PUSH2 0x3C58 JUMP JUMPDEST DUP2 MSTORE PUSH1 0x20 ADD SWAP1 DUP2 MSTORE PUSH1 0x20 ADD PUSH1 0x0 KECCAK256 PUSH1 0x2 ADD SLOAD SUB PUSH2 0xBC2 JUMPI PUSH1 0xA PUSH1 0x0 PUSH2 0xA2E DUP4 PUSH1 0x1 PUSH2 0x3C58 JUMP JUMPDEST DUP2 MSTORE PUSH1 0x20 ADD SWAP1 DUP2 MSTORE PUSH1 0x20 ADD PUSH1 0x0 KECCAK256 PUSH1 0x3 ADD SLOAD DUP6 PUSH2 0xA4B SWAP2 SWAP1 PUSH2 0x3C58 JUMP JUMPDEST SWAP5 POP DUP6 PUSH1 0xA PUSH1 0x0 PUSH2 0xA5D DUP5 PUSH1 0x1 PUSH2 0x3C58 JUMP JUMPDEST DUP2 MSTORE PUSH1 0x20 ADD SWAP1 DUP2 MSTORE PUSH1 0x20 ADD PUSH1 0x0 KECCAK256 PUSH1 0x3 ADD SLOAD GT ISZERO PUSH2 0xBC2 JUMPI PUSH1 0xA PUSH1 0x0 PUSH2 0xA84 DUP4 PUSH1 0x1 PUSH2 0x3C58 JUMP JUMPDEST DUP2 MSTORE PUSH1 0x20 ADD SWAP1 DUP2 MSTORE PUSH1 0x20 ADD PUSH1 0x0 KECCAK256 PUSH1 0x3 ADD SLOAD SWAP6 POP PUSH1 0x0 PUSH1 0xA PUSH1 0x0 DUP4 PUSH1 0x1 PUSH2 0xAAB SWAP2 SWAP1 PUSH2 0x3C58 JUMP JUMPDEST DUP2 MSTORE PUSH1 0x20 ADD SWAP1 DUP2 MSTORE PUSH1 0x20 ADD PUSH1 0x0 KECCAK256 PUSH1 0x0 ADD SLOAD SWAP1 POP DUP1 SWAP5 POP PUSH1 0x0 PUSH1 0xA PUSH1 0x0 DUP4 DUP2 MSTORE PUSH1 0x20 ADD SWAP1 DUP2 MSTORE PUSH1 0x20 ADD PUSH1 0x0 KECCAK256 SWAP1 POP DUP1 PUSH1 0x40 MLOAD DUP1 PUSH1 0x80 ADD PUSH1 0x40 MSTORE SWAP1 DUP2 PUSH1 0x0 DUP3 ADD SLOAD DUP2 MSTORE PUSH1 0x20 ADD PUSH1 0x1 DUP3 ADD DUP1 SLOAD PUSH2 0xAFF SWAP1 PUSH2 0x3C0E JUMP JUMPDEST DUP1 PUSH1 0x1F ADD PUSH1 0x20 DUP1 SWAP2 DIV MUL PUSH1 0x20 ADD PUSH1 0x40 MLOAD SWAP1 DUP2 ADD PUSH1 0x40 MSTORE DUP1 SWAP3 SWAP2 SWAP1 DUP2 DUP2 MSTORE PUSH1 0x20 ADD DUP3 DUP1 SLOAD PUSH2 0xB2B SWAP1 PUSH2 0x3C0E JUMP JUMPDEST DUP1 ISZERO PUSH2 0xB78 JUMPI DUP1 PUSH1 0x1F LT PUSH2 0xB4D JUMPI PUSH2 0x100 DUP1 DUP4 SLOAD DIV MUL DUP4 MSTORE SWAP2 PUSH1 0x20 ADD SWAP2 PUSH2 0xB78 JUMP JUMPDEST DUP3 ADD SWAP2 SWAP1 PUSH1 0x0 MSTORE PUSH1 0x20 PUSH1 0x0 KECCAK256 SWAP1 JUMPDEST DUP2 SLOAD DUP2 MSTORE SWAP1 PUSH1 0x1 ADD SWAP1 PUSH1 0x20 ADD DUP1 DUP4 GT PUSH2 0xB5B JUMPI DUP3 SWAP1 SUB PUSH1 0x1F AND DUP3 ADD SWAP2 JUMPDEST POP POP POP POP POP DUP2 MSTORE PUSH1 0x20 ADD PUSH1 0x2 DUP3 ADD SLOAD DUP2 MSTORE PUSH1 0x20 ADD PUSH1 0x3 DUP3 ADD SLOAD DUP2 MSTORE POP POP DUP5 DUP7 DUP2 MLOAD DUP2 LT PUSH2 0xBA7 JUMPI PUSH2 0xBA7 PUSH2 0x3C70 JUMP JUMPDEST PUSH1 0x20 SWAP1 DUP2 MUL SWAP2 SWAP1 SWAP2 ADD ADD MSTORE PUSH2 0xBBD PUSH1 0x1 DUP7 PUSH2 0x3C58 JUMP JUMPDEST SWAP5 POP POP POP JUMPDEST DUP1 PUSH2 0xBCC DUP2 PUSH2 0x3C86 JUMP JUMPDEST SWAP2 POP POP PUSH2 0x9CF JUMP JUMPDEST POP DUP4 PUSH1 0xF DUP11 PUSH1 0x40 MLOAD PUSH2 0xBE6 SWAP2 SWAP1 PUSH2 0x3D24 JUMP JUMPDEST SWAP1 DUP2 MSTORE PUSH1 0x20 ADD PUSH1 0x40 MLOAD DUP1 SWAP2 SUB SWAP1 KECCAK256 PUSH1 0x3 ADD DUP2 SWAP1 SSTORE POP PUSH1 0x1 PUSH1 0xF DUP11 PUSH1 0x40 MLOAD PUSH2 0xC0D SWAP2 SWAP1 PUSH2 0x3D24 JUMP JUMPDEST SWAP1 DUP2 MSTORE PUSH1 0x20 ADD PUSH1 0x40 MLOAD DUP1 SWAP2 SUB SWAP1 KECCAK256 PUSH1 0x2 ADD PUSH1 0x2 PUSH2 0x100 EXP DUP2 SLOAD DUP2 PUSH1 0xFF MUL NOT AND SWAP1 DUP4 ISZERO ISZERO MUL OR SWAP1 SSTORE POP PUSH1 0x0 PUSH1 0x10 DUP11 PUSH1 0x40 MLOAD PUSH2 0xC47 SWAP2 SWAP1 PUSH2 0x3D24 JUMP JUMPDEST SWAP1 DUP2 MSTORE PUSH1 0x20 ADD PUSH1 0x40 MLOAD DUP1 SWAP2 SUB SWAP1 KECCAK256 SLOAD SWAP1 POP PUSH1 0x1 PUSH1 0x8 DUP3 DUP2 SLOAD DUP2 LT PUSH2 0xC6D JUMPI PUSH2 0xC6D PUSH2 0x3C70 JUMP JUMPDEST SWAP1 PUSH1 0x0 MSTORE PUSH1 0x20 PUSH1 0x0 KECCAK256 SWAP1 PUSH1 0x5 MUL ADD PUSH1 0x2 ADD PUSH1 0x2 PUSH2 0x100 EXP DUP2 SLOAD DUP2 PUSH1 0xFF MUL NOT AND SWAP1 DUP4 ISZERO ISZERO MUL OR SWAP1 SSTORE POP PUSH1 0xA PUSH1 0x0 DUP6 DUP2 MSTORE PUSH1 0x20 ADD SWAP1 DUP2 MSTORE PUSH1 0x20 ADD PUSH1 0x0 KECCAK256 PUSH1 0xE DUP12 PUSH1 0x40 MLOAD PUSH2 0xCB8 SWAP2 SWAP1 PUSH2 0x3D24 JUMP JUMPDEST SWAP1 DUP2 MSTORE PUSH1 0x40 MLOAD SWAP1 DUP2 SWAP1 SUB PUSH1 0x20 ADD SWAP1 KECCAK256 DUP2 SLOAD DUP2 SSTORE PUSH1 0x1 DUP1 DUP4 ADD DUP1 SLOAD SWAP2 DUP4 ADD SWAP2 PUSH2 0xCDF SWAP1 PUSH2 0x3C0E JUMP JUMPDEST PUSH2 0xCEA SWAP3 SWAP2 SWAP1 PUSH2 0x3052 JUMP JUMPDEST POP PUSH1 0x2 DUP3 DUP2 ADD SLOAD SWAP1 DUP3 ADD SSTORE PUSH1 0x3 SWAP2 DUP3 ADD SLOAD SWAP2 ADD SSTORE POP SWAP3 SWAP9 SWAP4 SWAP8 POP SWAP2 SWAP6 POP SWAP2 SWAP4 POP POP POP POP JUMP JUMPDEST PUSH1 0x2 SLOAD PUSH1 0x1 PUSH1 0x1 PUSH1 0xA0 SHL SUB AND CALLER EQ DUP1 PUSH2 0xD42 JUMPI POP CALLER PUSH1 0x0 SWAP1 DUP2 MSTORE PUSH1 0x9 PUSH1 0x20 MSTORE PUSH1 0x40 SWAP1 KECCAK256 DUP1 SLOAD PUSH2 0xD42 SWAP2 SWAP1 PUSH2 0x7CE SWAP1 PUSH2 0x3C0E JUMP JUMPDEST PUSH2 0xD5E JUMPI PUSH1 0x40 MLOAD PUSH3 0x461BCD PUSH1 0xE5 SHL DUP2 MSTORE PUSH1 0x4 ADD PUSH2 0x88D SWAP1 PUSH2 0x3C9F JUMP JUMPDEST PUSH1 0x7 SLOAD PUSH1 0xFF AND ISZERO PUSH2 0xD81 JUMPI PUSH1 0x40 MLOAD PUSH3 0x461BCD PUSH1 0xE5 SHL DUP2 MSTORE PUSH1 0x4 ADD PUSH2 0x88D SWAP1 PUSH2 0x3CED JUMP JUMPDEST DUP1 PUSH2 0xDCE JUMPI PUSH1 0x40 MLOAD PUSH3 0x461BCD PUSH1 0xE5 SHL DUP2 MSTORE PUSH1 0x20 PUSH1 0x4 DUP3 ADD MSTORE PUSH1 0x19 PUSH1 0x24 DUP3 ADD MSTORE PUSH32 0x55706C6F6164206172726179206F662061646472657373657300000000000000 PUSH1 0x44 DUP3 ADD MSTORE PUSH1 0x64 ADD PUSH2 0x88D JUMP JUMPDEST PUSH1 0x0 JUMPDEST DUP2 DUP2 LT ISZERO PUSH2 0xF57 JUMPI PUSH1 0x9 PUSH1 0x0 DUP5 DUP5 DUP5 DUP2 DUP2 LT PUSH2 0xDEF JUMPI PUSH2 0xDEF PUSH2 0x3C70 JUMP JUMPDEST SWAP1 POP PUSH1 0x20 MUL ADD PUSH1 0x20 DUP2 ADD SWAP1 PUSH2 0xE04 SWAP2 SWAP1 PUSH2 0x3B86 JUMP JUMPDEST PUSH1 0x1 PUSH1 0x1 PUSH1 0xA0 SHL SUB AND DUP2 MSTORE PUSH1 0x20 DUP2 ADD SWAP2 SWAP1 SWAP2 MSTORE PUSH1 0x40 ADD PUSH1 0x0 SWAP1 DUP2 KECCAK256 PUSH1 0x1 ADD SLOAD PUSH1 0xFF AND ISZERO ISZERO SWAP1 SUB PUSH2 0xEFD JUMPI PUSH1 0x40 MLOAD DUP1 PUSH1 0xA0 ADD PUSH1 0x40 MSTORE DUP1 DUP7 DUP2 MSTORE PUSH1 0x20 ADD PUSH1 0x1 ISZERO ISZERO DUP2 MSTORE PUSH1 0x20 ADD PUSH1 0x0 ISZERO ISZERO DUP2 MSTORE PUSH1 0x20 ADD PUSH1 0x0 DUP2 MSTORE PUSH1 0x20 ADD DUP6 DUP2 MSTORE POP PUSH1 0x9 PUSH1 0x0 DUP6 DUP6 DUP6 DUP2 DUP2 LT PUSH2 0xE72 JUMPI PUSH2 0xE72 PUSH2 0x3C70 JUMP JUMPDEST SWAP1 POP PUSH1 0x20 MUL ADD PUSH1 0x20 DUP2 ADD SWAP1 PUSH2 0xE87 SWAP2 SWAP1 PUSH2 0x3B86 JUMP JUMPDEST PUSH1 0x1 PUSH1 0x1 PUSH1 0xA0 SHL SUB AND DUP2 MSTORE PUSH1 0x20 DUP1 DUP3 ADD SWAP3 SWAP1 SWAP3 MSTORE PUSH1 0x40 ADD PUSH1 0x0 KECCAK256 DUP3 MLOAD DUP1 MLOAD SWAP2 SWAP3 PUSH2 0xEB6 SWAP3 DUP5 SWAP3 SWAP1 SWAP2 ADD SWAP1 PUSH2 0x30DD JUMP JUMPDEST POP PUSH1 0x20 DUP3 ADD MLOAD PUSH1 0x1 DUP3 ADD DUP1 SLOAD PUSH1 0x40 DUP6 ADD MLOAD ISZERO ISZERO PUSH2 0x100 MUL PUSH2 0xFF00 NOT SWAP4 ISZERO ISZERO SWAP4 SWAP1 SWAP4 AND PUSH2 0xFFFF NOT SWAP1 SWAP2 AND OR SWAP2 SWAP1 SWAP2 OR SWAP1 SSTORE PUSH1 0x60 DUP3 ADD MLOAD PUSH1 0x2 DUP3 ADD SSTORE PUSH1 0x80 SWAP1 SWAP2 ADD MLOAD PUSH1 0x3 SWAP1 SWAP2 ADD SSTORE JUMPDEST PUSH2 0xF27 DUP6 PUSH1 0x40 MLOAD DUP1 PUSH1 0x40 ADD PUSH1 0x40 MSTORE DUP1 PUSH1 0x8 DUP2 MSTORE PUSH1 0x20 ADD PUSH8 0x3234B932B1BA37B9 PUSH1 0xC1 SHL DUP2 MSTORE POP PUSH2 0x2FF9 JUMP JUMPDEST ISZERO PUSH2 0xF45 JUMPI PUSH1 0x1 PUSH1 0x12 PUSH1 0x0 DUP3 DUP3 SLOAD PUSH2 0xF3F SWAP2 SWAP1 PUSH2 0x3C58 JUMP JUMPDEST SWAP1 SWAP2 SSTORE POP POP JUMPDEST DUP1 PUSH2 0xF4F DUP2 PUSH2 0x3C86 JUMP JUMPDEST SWAP2 POP POP PUSH2 0xDD1 JUMP JUMPDEST POP PUSH32 0xDB5C245EE0521674ADE89200CC3647A9590AF2330E581DD656DCE39D2354107C DUP5 DUP4 DUP4 PUSH1 0x40 MLOAD PUSH2 0xF8B SWAP4 SWAP3 SWAP2 SWAP1 PUSH2 0x3D40 JUMP JUMPDEST PUSH1 0x40 MLOAD DUP1 SWAP2 SUB SWAP1 LOG1 POP POP POP POP JUMP JUMPDEST PUSH1 0x2 SLOAD PUSH1 0x1 PUSH1 0x1 PUSH1 0xA0 SHL SUB AND CALLER EQ DUP1 PUSH2 0xFCC JUMPI POP CALLER PUSH1 0x0 SWAP1 DUP2 MSTORE PUSH1 0x9 PUSH1 0x20 MSTORE PUSH1 0x40 SWAP1 KECCAK256 DUP1 SLOAD PUSH2 0xFCC SWAP2 SWAP1 PUSH2 0x7CE SWAP1 PUSH2 0x3C0E JUMP JUMPDEST PUSH2 0xFE8 JUMPI PUSH1 0x40 MLOAD PUSH3 0x461BCD PUSH1 0xE5 SHL DUP2 MSTORE PUSH1 0x4 ADD PUSH2 0x88D SWAP1 PUSH2 0x3C9F JUMP JUMPDEST PUSH1 0x7 SLOAD PUSH1 0xFF AND ISZERO PUSH2 0x100B JUMPI PUSH1 0x40 MLOAD PUSH3 0x461BCD PUSH1 0xE5 SHL DUP2 MSTORE PUSH1 0x4 ADD PUSH2 0x88D SWAP1 PUSH2 0x3CED JUMP JUMPDEST PUSH1 0xD DUP2 PUSH1 0x40 MLOAD PUSH2 0x101B SWAP2 SWAP1 PUSH2 0x3D24 JUMP JUMPDEST SWAP1 DUP2 MSTORE PUSH1 0x20 ADD PUSH1 0x40 MLOAD DUP1 SWAP2 SUB SWAP1 KECCAK256 SLOAD PUSH1 0x0 SUB PUSH2 0x1079 JUMPI PUSH1 0x40 MLOAD PUSH3 0x461BCD PUSH1 0xE5 SHL DUP2 MSTORE PUSH1 0x20 PUSH1 0x4 DUP3 ADD MSTORE PUSH1 0x1A PUSH1 0x24 DUP3 ADD MSTORE PUSH32 0x43617465676F727920646F6573206E6F742065786973742E2E2E000000000000 PUSH1 0x44 DUP3 ADD MSTORE PUSH1 0x64 ADD PUSH2 0x88D JUMP JUMPDEST PUSH1 0x3 DUP1 SLOAD SWAP1 PUSH1 0x0 PUSH2 0x1089 DUP4 PUSH2 0x3C86 JUMP JUMPDEST SWAP2 SWAP1 POP SSTORE POP PUSH1 0x40 MLOAD DUP1 PUSH1 0x80 ADD PUSH1 0x40 MSTORE DUP1 PUSH1 0x3 SLOAD DUP2 MSTORE PUSH1 0x20 ADD DUP4 DUP2 MSTORE PUSH1 0x20 ADD PUSH1 0xD DUP4 PUSH1 0x40 MLOAD PUSH2 0x10B7 SWAP2 SWAP1 PUSH2 0x3D24 JUMP JUMPDEST SWAP1 DUP2 MSTORE PUSH1 0x40 DUP1 MLOAD PUSH1 0x20 SWAP3 DUP2 SWAP1 SUB DUP4 ADD SWAP1 KECCAK256 SLOAD DUP4 MSTORE PUSH1 0x0 SWAP3 DUP3 ADD DUP4 SWAP1 MSTORE PUSH1 0x3 SLOAD DUP4 MSTORE PUSH1 0xA DUP3 MSTORE SWAP1 SWAP2 KECCAK256 DUP3 MLOAD DUP2 SSTORE DUP3 DUP3 ADD MLOAD DUP1 MLOAD SWAP2 SWAP3 PUSH2 0x10FD SWAP3 PUSH1 0x1 DUP6 ADD SWAP3 SWAP1 SWAP2 ADD SWAP1 PUSH2 0x30DD JUMP JUMPDEST POP PUSH1 0x40 DUP3 DUP2 ADD MLOAD PUSH1 0x2 DUP4 ADD SSTORE PUSH1 0x60 SWAP1 SWAP3 ADD MLOAD PUSH1 0x3 SWAP2 DUP3 ADD SSTORE SLOAD SWAP1 MLOAD SWAP1 DUP2 MSTORE PUSH32 0xF23CE42EB3D2878C26AB610EF7D3EDF80E07CFB6568D4028550637F27C73DB41 SWAP1 PUSH1 0x20 ADD JUMPDEST PUSH1 0x40 MLOAD DUP1 SWAP2 SUB SWAP1 LOG1 POP POP JUMP JUMPDEST PUSH1 0x2 SLOAD PUSH1 0x1 PUSH1 0x1 PUSH1 0xA0 SHL SUB AND CALLER EQ PUSH2 0x1177 JUMPI PUSH1 0x40 MLOAD PUSH3 0x461BCD PUSH1 0xE5 SHL DUP2 MSTORE PUSH1 0x4 ADD PUSH2 0x88D SWAP1 PUSH2 0x3DA1 JUMP JUMPDEST PUSH1 0x7 DUP1 SLOAD PUSH1 0xFF NOT AND SWAP2 ISZERO ISZERO SWAP2 SWAP1 SWAP2 OR SWAP1 SSTORE JUMP JUMPDEST PUSH1 0x7 SLOAD PUSH1 0x60 SWAP1 PUSH1 0xFF AND ISZERO PUSH2 0x11B0 JUMPI PUSH1 0x40 MLOAD PUSH3 0x461BCD PUSH1 0xE5 SHL DUP2 MSTORE PUSH1 0x4 ADD PUSH2 0x88D SWAP1 PUSH2 0x3CED JUMP JUMPDEST PUSH1 0x8 DUP1 SLOAD DUP1 PUSH1 0x20 MUL PUSH1 0x20 ADD PUSH1 0x40 MLOAD SWAP1 DUP2 ADD PUSH1 0x40 MSTORE DUP1 SWAP3 SWAP2 SWAP1 DUP2 DUP2 MSTORE PUSH1 0x20 ADD PUSH1 0x0 SWAP1 JUMPDEST DUP3 DUP3 LT ISZERO PUSH2 0x1417 JUMPI DUP4 DUP3 SWAP1 PUSH1 0x0 MSTORE PUSH1 0x20 PUSH1 0x0 KECCAK256 SWAP1 PUSH1 0x5 MUL ADD PUSH1 0x40 MLOAD DUP1 PUSH2 0x100 ADD PUSH1 0x40 MSTORE SWAP1 DUP2 PUSH1 0x0 DUP3 ADD DUP1 SLOAD PUSH2 0x1206 SWAP1 PUSH2 0x3C0E JUMP JUMPDEST DUP1 PUSH1 0x1F ADD PUSH1 0x20 DUP1 SWAP2 DIV MUL PUSH1 0x20 ADD PUSH1 0x40 MLOAD SWAP1 DUP2 ADD PUSH1 0x40 MSTORE DUP1 SWAP3 SWAP2 SWAP1 DUP2 DUP2 MSTORE PUSH1 0x20 ADD DUP3 DUP1 SLOAD PUSH2 0x1232 SWAP1 PUSH2 0x3C0E JUMP JUMPDEST DUP1 ISZERO PUSH2 0x127F JUMPI DUP1 PUSH1 0x1F LT PUSH2 0x1254 JUMPI PUSH2 0x100 DUP1 DUP4 SLOAD DIV MUL DUP4 MSTORE SWAP2 PUSH1 0x20 ADD SWAP2 PUSH2 0x127F JUMP JUMPDEST DUP3 ADD SWAP2 SWAP1 PUSH1 0x0 MSTORE PUSH1 0x20 PUSH1 0x0 KECCAK256 SWAP1 JUMPDEST DUP2 SLOAD DUP2 MSTORE SWAP1 PUSH1 0x1 ADD SWAP1 PUSH1 0x20 ADD DUP1 DUP4 GT PUSH2 0x1262 JUMPI DUP3 SWAP1 SUB PUSH1 0x1F AND DUP3 ADD SWAP2 JUMPDEST POP POP POP POP POP DUP2 MSTORE PUSH1 0x20 ADD PUSH1 0x1 DUP3 ADD DUP1 SLOAD DUP1 PUSH1 0x20 MUL PUSH1 0x20 ADD PUSH1 0x40 MLOAD SWAP1 DUP2 ADD PUSH1 0x40 MSTORE DUP1 SWAP3 SWAP2 SWAP1 DUP2 DUP2 MSTORE PUSH1 0x20 ADD DUP3 DUP1 SLOAD DUP1 ISZERO PUSH2 0x12D7 JUMPI PUSH1 0x20 MUL DUP3 ADD SWAP2 SWAP1 PUSH1 0x0 MSTORE PUSH1 0x20 PUSH1 0x0 KECCAK256 SWAP1 JUMPDEST DUP2 SLOAD DUP2 MSTORE PUSH1 0x20 ADD SWAP1 PUSH1 0x1 ADD SWAP1 DUP1 DUP4 GT PUSH2 0x12C3 JUMPI JUMPDEST POP POP POP SWAP2 DUP4 MSTORE POP POP PUSH1 0x2 DUP3 ADD SLOAD PUSH1 0xFF DUP1 DUP3 AND ISZERO ISZERO PUSH1 0x20 DUP1 DUP6 ADD SWAP2 SWAP1 SWAP2 MSTORE PUSH2 0x100 DUP4 DIV DUP3 AND ISZERO ISZERO PUSH1 0x40 DUP1 DUP7 ADD SWAP2 SWAP1 SWAP2 MSTORE PUSH3 0x10000 DUP5 DIV DUP4 AND ISZERO ISZERO PUSH1 0x60 DUP7 ADD MSTORE PUSH4 0x1000000 SWAP1 SWAP4 DIV SWAP1 SWAP2 AND ISZERO ISZERO PUSH1 0x80 DUP5 ADD MSTORE PUSH1 0x3 DUP5 ADD SLOAD PUSH1 0xA0 DUP5 ADD MSTORE PUSH1 0x4 DUP5 ADD DUP1 SLOAD DUP4 MLOAD DUP2 DUP5 MUL DUP2 ADD DUP5 ADD SWAP1 SWAP5 MSTORE DUP1 DUP5 MSTORE PUSH1 0xC0 SWAP1 SWAP5 ADD SWAP4 SWAP1 SWAP2 PUSH1 0x0 SWAP1 DUP5 ADD JUMPDEST DUP3 DUP3 LT ISZERO PUSH2 0x1400 JUMPI DUP4 DUP3 SWAP1 PUSH1 0x0 MSTORE PUSH1 0x20 PUSH1 0x0 KECCAK256 ADD DUP1 SLOAD PUSH2 0x1373 SWAP1 PUSH2 0x3C0E JUMP JUMPDEST DUP1 PUSH1 0x1F ADD PUSH1 0x20 DUP1 SWAP2 DIV MUL PUSH1 0x20 ADD PUSH1 0x40 MLOAD SWAP1 DUP2 ADD PUSH1 0x40 MSTORE DUP1 SWAP3 SWAP2 SWAP1 DUP2 DUP2 MSTORE PUSH1 0x20 ADD DUP3 DUP1 SLOAD PUSH2 0x139F SWAP1 PUSH2 0x3C0E JUMP JUMPDEST DUP1 ISZERO PUSH2 0x13EC JUMPI DUP1 PUSH1 0x1F LT PUSH2 0x13C1 JUMPI PUSH2 0x100 DUP1 DUP4 SLOAD DIV MUL DUP4 MSTORE SWAP2 PUSH1 0x20 ADD SWAP2 PUSH2 0x13EC JUMP JUMPDEST DUP3 ADD SWAP2 SWAP1 PUSH1 0x0 MSTORE PUSH1 0x20 PUSH1 0x0 KECCAK256 SWAP1 JUMPDEST DUP2 SLOAD DUP2 MSTORE SWAP1 PUSH1 0x1 ADD SWAP1 PUSH1 0x20 ADD DUP1 DUP4 GT PUSH2 0x13CF JUMPI DUP3 SWAP1 SUB PUSH1 0x1F AND DUP3 ADD SWAP2 JUMPDEST POP POP POP POP POP DUP2 MSTORE PUSH1 0x20 ADD SWAP1 PUSH1 0x1 ADD SWAP1 PUSH2 0x1354 JUMP JUMPDEST POP POP POP POP DUP2 MSTORE POP POP DUP2 MSTORE PUSH1 0x20 ADD SWAP1 PUSH1 0x1 ADD SWAP1 PUSH2 0x11D2 JUMP JUMPDEST POP POP POP POP SWAP1 POP SWAP1 JUMP JUMPDEST PUSH1 0x2 SLOAD PUSH1 0x0 SWAP1 PUSH1 0x1 PUSH1 0x1 PUSH1 0xA0 SHL SUB AND CALLER EQ DUP1 PUSH2 0x1456 JUMPI POP CALLER PUSH1 0x0 SWAP1 DUP2 MSTORE PUSH1 0x9 PUSH1 0x20 MSTORE PUSH1 0x40 SWAP1 KECCAK256 DUP1 SLOAD PUSH2 0x1456 SWAP2 SWAP1 PUSH2 0x7CE SWAP1 PUSH2 0x3C0E JUMP JUMPDEST PUSH2 0x1472 JUMPI PUSH1 0x40 MLOAD PUSH3 0x461BCD PUSH1 0xE5 SHL DUP2 MSTORE PUSH1 0x4 ADD PUSH2 0x88D SWAP1 PUSH2 0x3C9F JUMP JUMPDEST PUSH1 0x7 SLOAD PUSH1 0xFF AND ISZERO PUSH2 0x1495 JUMPI PUSH1 0x40 MLOAD PUSH3 0x461BCD PUSH1 0xE5 SHL DUP2 MSTORE PUSH1 0x4 ADD PUSH2 0x88D SWAP1 PUSH2 0x3CED JUMP JUMPDEST PUSH1 0x8 SLOAD PUSH1 0x40 MLOAD DUP2 SWAP1 PUSH1 0x10 SWAP1 PUSH2 0x14AB SWAP1 DUP9 SWAP1 PUSH2 0x3D24 JUMP JUMPDEST SWAP1 DUP2 MSTORE PUSH1 0x40 DUP1 MLOAD SWAP2 DUP3 SWAP1 SUB PUSH1 0x20 SWAP1 DUP2 ADD DUP4 KECCAK256 SWAP4 SWAP1 SWAP4 SSTORE PUSH2 0x100 DUP3 ADD DUP2 MSTORE DUP8 DUP3 MSTORE DUP2 DUP4 ADD DUP8 SWAP1 MSTORE PUSH1 0x0 SWAP1 DUP3 ADD DUP2 SWAP1 MSTORE PUSH1 0x60 DUP3 ADD DUP2 SWAP1 MSTORE PUSH1 0x80 DUP3 ADD DUP2 SWAP1 MSTORE PUSH1 0xA0 DUP3 ADD DUP2 SWAP1 MSTORE PUSH1 0xC0 DUP3 ADD DUP2 SWAP1 MSTORE PUSH1 0xE0 DUP3 ADD DUP7 SWAP1 MSTORE PUSH1 0x8 DUP1 SLOAD PUSH1 0x1 DUP2 ADD DUP3 SSTORE SWAP2 MSTORE DUP2 MLOAD DUP1 MLOAD SWAP3 SWAP4 PUSH1 0x5 SWAP1 SWAP3 MUL PUSH32 0xF3F7A9FE364FAAB93B216DA50A3214154F22A0A2B415B23A84C8169E8B636EE3 ADD SWAP3 PUSH2 0x1543 SWAP3 DUP5 SWAP3 ADD SWAP1 PUSH2 0x30DD JUMP JUMPDEST POP PUSH1 0x20 DUP3 DUP2 ADD MLOAD DUP1 MLOAD PUSH2 0x155C SWAP3 PUSH1 0x1 DUP6 ADD SWAP3 ADD SWAP1 PUSH2 0x3151 JUMP JUMPDEST POP PUSH1 0x40 DUP3 ADD MLOAD PUSH1 0x2 DUP3 ADD DUP1 SLOAD PUSH1 0x60 DUP6 ADD MLOAD PUSH1 0x80 DUP7 ADD MLOAD PUSH1 0xA0 DUP8 ADD MLOAD ISZERO ISZERO PUSH4 0x1000000 MUL PUSH4 0xFF000000 NOT SWAP2 ISZERO ISZERO PUSH3 0x10000 MUL SWAP2 SWAP1 SWAP2 AND PUSH4 0xFFFF0000 NOT SWAP3 ISZERO ISZERO PUSH2 0x100 MUL PUSH2 0xFF00 NOT SWAP7 ISZERO ISZERO SWAP7 SWAP1 SWAP7 AND PUSH2 0xFFFF NOT SWAP1 SWAP5 AND SWAP4 SWAP1 SWAP4 OR SWAP5 SWAP1 SWAP5 OR AND OR SWAP2 SWAP1 SWAP2 OR SWAP1 SSTORE PUSH1 0xC0 DUP3 ADD MLOAD PUSH1 0x3 DUP3 ADD SSTORE PUSH1 0xE0 DUP3 ADD MLOAD DUP1 MLOAD PUSH2 0x15E5 SWAP2 PUSH1 0x4 DUP5 ADD SWAP2 PUSH1 0x20 SWAP1 SWAP2 ADD SWAP1 PUSH2 0x318B JUMP JUMPDEST POP POP POP PUSH1 0x0 JUMPDEST DUP4 MLOAD DUP2 LT ISZERO PUSH2 0x166D JUMPI PUSH1 0x1 PUSH1 0x11 DUP8 PUSH1 0x40 MLOAD PUSH2 0x1606 SWAP2 SWAP1 PUSH2 0x3D24 JUMP JUMPDEST SWAP1 DUP2 MSTORE PUSH1 0x20 ADD PUSH1 0x40 MLOAD DUP1 SWAP2 SUB SWAP1 KECCAK256 DUP6 DUP4 DUP2 MLOAD DUP2 LT PUSH2 0x1626 JUMPI PUSH2 0x1626 PUSH2 0x3C70 JUMP JUMPDEST PUSH1 0x20 MUL PUSH1 0x20 ADD ADD MLOAD PUSH1 0x40 MLOAD PUSH2 0x163B SWAP2 SWAP1 PUSH2 0x3D24 JUMP JUMPDEST SWAP1 DUP2 MSTORE PUSH1 0x40 MLOAD SWAP1 DUP2 SWAP1 SUB PUSH1 0x20 ADD SWAP1 KECCAK256 DUP1 SLOAD SWAP2 ISZERO ISZERO PUSH1 0xFF NOT SWAP1 SWAP3 AND SWAP2 SWAP1 SWAP2 OR SWAP1 SSTORE DUP1 PUSH2 0x1665 DUP2 PUSH2 0x3C86 JUMP JUMPDEST SWAP2 POP POP PUSH2 0x15EB JUMP JUMPDEST POP PUSH1 0x1 SWAP6 SWAP5 POP POP POP POP POP JUMP JUMPDEST DUP1 MLOAD PUSH1 0x20 DUP2 DUP4 ADD DUP2 ADD DUP1 MLOAD PUSH1 0xF DUP3 MSTORE SWAP3 DUP3 ADD SWAP2 SWAP1 SWAP4 ADD KECCAK256 SWAP2 MSTORE DUP1 SLOAD DUP2 SWAP1 PUSH2 0x546 SWAP1 PUSH2 0x3C0E JUMP JUMPDEST PUSH1 0xA PUSH1 0x20 MSTORE PUSH1 0x0 SWAP1 DUP2 MSTORE PUSH1 0x40 SWAP1 KECCAK256 DUP1 SLOAD PUSH1 0x1 DUP3 ADD DUP1 SLOAD SWAP2 SWAP3 SWAP2 PUSH2 0x16C1 SWAP1 PUSH2 0x3C0E JUMP JUMPDEST DUP1 PUSH1 0x1F ADD PUSH1 0x20 DUP1 SWAP2 DIV MUL PUSH1 0x20 ADD PUSH1 0x40 MLOAD SWAP1 DUP2 ADD PUSH1 0x40 MSTORE DUP1 SWAP3 SWAP2 SWAP1 DUP2 DUP2 MSTORE PUSH1 0x20 ADD DUP3 DUP1 SLOAD PUSH2 0x16ED SWAP1 PUSH2 0x3C0E JUMP JUMPDEST DUP1 ISZERO PUSH2 0x173A JUMPI DUP1 PUSH1 0x1F LT PUSH2 0x170F JUMPI PUSH2 0x100 DUP1 DUP4 SLOAD DIV MUL DUP4 MSTORE SWAP2 PUSH1 0x20 ADD SWAP2 PUSH2 0x173A JUMP JUMPDEST DUP3 ADD SWAP2 SWAP1 PUSH1 0x0 MSTORE PUSH1 0x20 PUSH1 0x0 KECCAK256 SWAP1 JUMPDEST DUP2 SLOAD DUP2 MSTORE SWAP1 PUSH1 0x1 ADD SWAP1 PUSH1 0x20 ADD DUP1 DUP4 GT PUSH2 0x171D JUMPI DUP3 SWAP1 SUB PUSH1 0x1F AND DUP3 ADD SWAP2 JUMPDEST POP POP POP POP POP SWAP1 DUP1 PUSH1 0x2 ADD SLOAD SWAP1 DUP1 PUSH1 0x3 ADD SLOAD SWAP1 POP DUP5 JUMP JUMPDEST PUSH2 0x177B PUSH1 0x40 MLOAD DUP1 PUSH1 0x80 ADD PUSH1 0x40 MSTORE DUP1 PUSH1 0x0 DUP2 MSTORE PUSH1 0x20 ADD PUSH1 0x60 DUP2 MSTORE PUSH1 0x20 ADD PUSH1 0x0 DUP2 MSTORE PUSH1 0x20 ADD PUSH1 0x0 DUP2 MSTORE POP SWAP1 JUMP JUMPDEST PUSH1 0x0 DUP3 PUSH1 0xF DUP2 PUSH1 0x40 MLOAD PUSH2 0x178E SWAP2 SWAP1 PUSH2 0x3D24 JUMP JUMPDEST SWAP1 DUP2 MSTORE PUSH1 0x40 MLOAD PUSH1 0x20 SWAP2 DUP2 SWAP1 SUB SWAP2 SWAP1 SWAP2 ADD SWAP1 KECCAK256 PUSH1 0x2 ADD SLOAD PUSH3 0x10000 SWAP1 DIV PUSH1 0xFF AND ISZERO ISZERO PUSH1 0x1 EQ PUSH2 0x1811 JUMPI PUSH1 0x40 MLOAD PUSH3 0x461BCD PUSH1 0xE5 SHL DUP2 MSTORE PUSH1 0x20 PUSH1 0x4 DUP3 ADD MSTORE PUSH1 0x2A PUSH1 0x24 DUP3 ADD MSTORE PUSH32 0x4F6E6C7920616C6C6F77656420616674657220766F7465732068617665206265 PUSH1 0x44 DUP3 ADD MSTORE PUSH10 0x195B8818DBDD5B9D1959 PUSH1 0xB2 SHL PUSH1 0x64 DUP3 ADD MSTORE PUSH1 0x84 ADD PUSH2 0x88D JUMP JUMPDEST PUSH1 0x7 SLOAD PUSH1 0xFF AND ISZERO PUSH2 0x1834 JUMPI PUSH1 0x40 MLOAD PUSH3 0x461BCD PUSH1 0xE5 SHL DUP2 MSTORE PUSH1 0x4 ADD PUSH2 0x88D SWAP1 PUSH2 0x3CED JUMP JUMPDEST PUSH1 0xF DUP5 PUSH1 0x40 MLOAD PUSH2 0x1844 SWAP2 SWAP1 PUSH2 0x3D24 JUMP JUMPDEST SWAP1 DUP2 MSTORE PUSH1 0x40 MLOAD PUSH1 0x20 SWAP2 DUP2 SWAP1 SUB SWAP2 SWAP1 SWAP2 ADD SWAP1 KECCAK256 PUSH1 0x2 ADD SLOAD PUSH4 0x1000000 SWAP1 DIV PUSH1 0xFF AND ISZERO ISZERO PUSH1 0x1 EQ PUSH2 0x18B5 JUMPI PUSH1 0x40 MLOAD PUSH3 0x461BCD PUSH1 0xE5 SHL DUP2 MSTORE PUSH1 0x20 PUSH1 0x4 DUP3 ADD MSTORE PUSH1 0x18 PUSH1 0x24 DUP3 ADD MSTORE PUSH32 0x526573756C74206973206E6F7420796574207075626C69630000000000000000 PUSH1 0x44 DUP3 ADD MSTORE PUSH1 0x64 ADD PUSH2 0x88D JUMP JUMPDEST PUSH1 0xE DUP5 PUSH1 0x40 MLOAD PUSH2 0x18C5 SWAP2 SWAP1 PUSH2 0x3D24 JUMP JUMPDEST SWAP1 DUP2 MSTORE PUSH1 0x20 ADD PUSH1 0x40 MLOAD DUP1 SWAP2 SUB SWAP1 KECCAK256 PUSH1 0xF DUP6 PUSH1 0x40 MLOAD PUSH2 0x18E3 SWAP2 SWAP1 PUSH2 0x3D24 JUMP JUMPDEST SWAP1 DUP2 MSTORE PUSH1 0x20 ADD PUSH1 0x40 MLOAD DUP1 SWAP2 SUB SWAP1 KECCAK256 PUSH1 0x3 ADD SLOAD DUP2 PUSH1 0x40 MLOAD DUP1 PUSH1 0x80 ADD PUSH1 0x40 MSTORE SWAP1 DUP2 PUSH1 0x0 DUP3 ADD SLOAD DUP2 MSTORE PUSH1 0x20 ADD PUSH1 0x1 DUP3 ADD DUP1 SLOAD PUSH2 0x191B SWAP1 PUSH2 0x3C0E JUMP JUMPDEST DUP1 PUSH1 0x1F ADD PUSH1 0x20 DUP1 SWAP2 DIV MUL PUSH1 0x20 ADD PUSH1 0x40 MLOAD SWAP1 DUP2 ADD PUSH1 0x40 MSTORE DUP1 SWAP3 SWAP2 SWAP1 DUP2 DUP2 MSTORE PUSH1 0x20 ADD DUP3 DUP1 SLOAD PUSH2 0x1947 SWAP1 PUSH2 0x3C0E JUMP JUMPDEST DUP1 ISZERO PUSH2 0x1994 JUMPI DUP1 PUSH1 0x1F LT PUSH2 0x1969 JUMPI PUSH2 0x100 DUP1 DUP4 SLOAD DIV MUL DUP4 MSTORE SWAP2 PUSH1 0x20 ADD SWAP2 PUSH2 0x1994 JUMP JUMPDEST DUP3 ADD SWAP2 SWAP1 PUSH1 0x0 MSTORE PUSH1 0x20 PUSH1 0x0 KECCAK256 SWAP1 JUMPDEST DUP2 SLOAD DUP2 MSTORE SWAP1 PUSH1 0x1 ADD SWAP1 PUSH1 0x20 ADD DUP1 DUP4 GT PUSH2 0x1977 JUMPI DUP3 SWAP1 SUB PUSH1 0x1F AND DUP3 ADD SWAP2 JUMPDEST POP POP POP POP POP DUP2 MSTORE PUSH1 0x20 ADD PUSH1 0x2 DUP3 ADD SLOAD DUP2 MSTORE PUSH1 0x20 ADD PUSH1 0x3 DUP3 ADD SLOAD DUP2 MSTORE POP POP SWAP2 POP SWAP3 POP SWAP3 POP POP SWAP2 POP SWAP2 JUMP JUMPDEST CALLER PUSH1 0x0 SWAP1 DUP2 MSTORE PUSH1 0x9 PUSH1 0x20 MSTORE PUSH1 0x40 SWAP1 KECCAK256 DUP1 SLOAD PUSH2 0x1A80 SWAP2 SWAP1 PUSH2 0x19DC SWAP1 PUSH2 0x3C0E JUMP JUMPDEST DUP1 PUSH1 0x1F ADD PUSH1 0x20 DUP1 SWAP2 DIV MUL PUSH1 0x20 ADD PUSH1 0x40 MLOAD SWAP1 DUP2 ADD PUSH1 0x40 MSTORE DUP1 SWAP3 SWAP2 SWAP1 DUP2 DUP2 MSTORE PUSH1 0x20 ADD DUP3 DUP1 SLOAD PUSH2 0x1A08 SWAP1 PUSH2 0x3C0E JUMP JUMPDEST DUP1 ISZERO PUSH2 0x1A55 JUMPI DUP1 PUSH1 0x1F LT PUSH2 0x1A2A JUMPI PUSH2 0x100 DUP1 DUP4 SLOAD DIV MUL DUP4 MSTORE SWAP2 PUSH1 0x20 ADD SWAP2 PUSH2 0x1A55 JUMP JUMPDEST DUP3 ADD SWAP2 SWAP1 PUSH1 0x0 MSTORE PUSH1 0x20 PUSH1 0x0 KECCAK256 SWAP1 JUMPDEST DUP2 SLOAD DUP2 MSTORE SWAP1 PUSH1 0x1 ADD SWAP1 PUSH1 0x20 ADD DUP1 DUP4 GT PUSH2 0x1A38 JUMPI DUP3 SWAP1 SUB PUSH1 0x1F AND DUP3 ADD SWAP2 JUMPDEST POP POP POP POP POP PUSH1 0x40 MLOAD DUP1 PUSH1 0x40 ADD PUSH1 0x40 MSTORE DUP1 PUSH1 0x8 DUP2 MSTORE PUSH1 0x20 ADD PUSH8 0x3234B932B1BA37B9 PUSH1 0xC1 SHL DUP2 MSTORE POP PUSH2 0x2FF9 JUMP JUMPDEST PUSH2 0x1ACC JUMPI PUSH1 0x40 MLOAD PUSH3 0x461BCD PUSH1 0xE5 SHL DUP2 MSTORE PUSH1 0x20 PUSH1 0x4 DUP3 ADD MSTORE PUSH1 0x1A PUSH1 0x24 DUP3 ADD MSTORE PUSH32 0x4F6E6C79204469726563746F7273206861766520616363657373000000000000 PUSH1 0x44 DUP3 ADD MSTORE PUSH1 0x64 ADD PUSH2 0x88D JUMP JUMPDEST CALLER PUSH1 0x0 SWAP1 DUP2 MSTORE PUSH1 0x13 PUSH1 0x20 MSTORE PUSH1 0x40 SWAP1 KECCAK256 SLOAD PUSH1 0xFF AND ISZERO PUSH2 0x1B2C JUMPI PUSH1 0x40 MLOAD PUSH3 0x461BCD PUSH1 0xE5 SHL DUP2 MSTORE PUSH1 0x20 PUSH1 0x4 DUP3 ADD MSTORE PUSH1 0x1C PUSH1 0x24 DUP3 ADD MSTORE PUSH32 0x596F75206861766520616C726561647920636F6E73656E7465642E2E00000000 PUSH1 0x44 DUP3 ADD MSTORE PUSH1 0x64 ADD PUSH2 0x88D JUMP JUMPDEST CALLER PUSH1 0x0 DUP2 DUP2 MSTORE PUSH1 0x13 PUSH1 0x20 SWAP1 DUP2 MSTORE PUSH1 0x40 DUP1 DUP4 KECCAK256 DUP1 SLOAD PUSH1 0xFF NOT AND PUSH1 0x1 SWAP1 DUP2 OR SWAP1 SWAP2 SSTORE DUP4 SLOAD DUP1 DUP3 ADD DUP6 SSTORE SWAP4 DUP1 MSTORE PUSH32 0x290DECD9548B62A8D60345A988386FC84BA6BC95484008F6362F93160EF3E563 SWAP1 SWAP4 ADD DUP1 SLOAD PUSH1 0x1 PUSH1 0x1 PUSH1 0xA0 SHL SUB NOT AND DUP6 OR SWAP1 SSTORE DUP1 MLOAD SWAP4 DUP5 MSTORE SWAP1 DUP4 ADD SWAP2 SWAP1 SWAP2 MSTORE PUSH32 0x5070FCE92B28B0B7307A321F7F22B3E0DCC2F59DB3CC8D88DD30043EDAACA80E SWAP2 ADD PUSH1 0x40 MLOAD DUP1 SWAP2 SUB SWAP1 LOG1 JUMP JUMPDEST PUSH1 0x7 SLOAD PUSH1 0x0 SWAP1 PUSH1 0xFF AND ISZERO PUSH2 0x1BE9 JUMPI PUSH1 0x40 MLOAD PUSH3 0x461BCD PUSH1 0xE5 SHL DUP2 MSTORE PUSH1 0x4 ADD PUSH2 0x88D SWAP1 PUSH2 0x3CED JUMP JUMPDEST PUSH1 0x1 PUSH1 0x1 PUSH1 0xA0 SHL SUB DUP3 AND PUSH1 0x0 SWAP1 DUP2 MSTORE PUSH1 0x9 PUSH1 0x20 MSTORE PUSH1 0x40 SWAP1 KECCAK256 DUP1 SLOAD PUSH2 0x1C95 SWAP2 DUP6 SWAP2 PUSH2 0x1C12 SWAP1 PUSH2 0x3C0E JUMP JUMPDEST DUP1 PUSH1 0x1F ADD PUSH1 0x20 DUP1 SWAP2 DIV MUL PUSH1 0x20 ADD PUSH1 0x40 MLOAD SWAP1 DUP2 ADD PUSH1 0x40 MSTORE DUP1 SWAP3 SWAP2 SWAP1 DUP2 DUP2 MSTORE PUSH1 0x20 ADD DUP3 DUP1 SLOAD PUSH2 0x1C3E SWAP1 PUSH2 0x3C0E JUMP JUMPDEST DUP1 ISZERO PUSH2 0x1C8B JUMPI DUP1 PUSH1 0x1F LT PUSH2 0x1C60 JUMPI PUSH2 0x100 DUP1 DUP4 SLOAD DIV MUL DUP4 MSTORE SWAP2 PUSH1 0x20 ADD SWAP2 PUSH2 0x1C8B JUMP JUMPDEST DUP3 ADD SWAP2 SWAP1 PUSH1 0x0 MSTORE PUSH1 0x20 PUSH1 0x0 KECCAK256 SWAP1 JUMPDEST DUP2 SLOAD DUP2 MSTORE SWAP1 PUSH1 0x1 ADD SWAP1 PUSH1 0x20 ADD DUP1 DUP4 GT PUSH2 0x1C6E JUMPI DUP3 SWAP1 SUB PUSH1 0x1F AND DUP3 ADD SWAP2 JUMPDEST POP POP POP POP POP PUSH2 0x2FF9 JUMP JUMPDEST SWAP4 SWAP3 POP POP POP JUMP JUMPDEST PUSH1 0x2 SLOAD PUSH1 0x1 PUSH1 0x1 PUSH1 0xA0 SHL SUB AND CALLER EQ PUSH2 0x1CC6 JUMPI PUSH1 0x40 MLOAD PUSH3 0x461BCD PUSH1 0xE5 SHL DUP2 MSTORE PUSH1 0x4 ADD PUSH2 0x88D SWAP1 PUSH2 0x3DA1 JUMP JUMPDEST PUSH1 0x7 SLOAD PUSH1 0xFF AND ISZERO PUSH2 0x1CE9 JUMPI PUSH1 0x40 MLOAD PUSH3 0x461BCD PUSH1 0xE5 SHL DUP2 MSTORE PUSH1 0x4 ADD PUSH2 0x88D SWAP1 PUSH2 0x3CED JUMP JUMPDEST PUSH1 0x0 PUSH1 0x10 DUP3 PUSH1 0x40 MLOAD PUSH2 0x1CFB SWAP2 SWAP1 PUSH2 0x3D24 JUMP JUMPDEST SWAP1 DUP2 MSTORE PUSH1 0x20 ADD PUSH1 0x40 MLOAD DUP1 SWAP2 SUB SWAP1 KECCAK256 SLOAD LT ISZERO PUSH2 0x1D51 JUMPI PUSH1 0x40 MLOAD PUSH3 0x461BCD PUSH1 0xE5 SHL DUP2 MSTORE PUSH1 0x20 PUSH1 0x4 DUP3 ADD MSTORE PUSH1 0x16 PUSH1 0x24 DUP3 ADD MSTORE PUSH22 0x1B9BC81CDD58DA0818D85D1959DBDC9E48195E1A5CDD PUSH1 0x52 SHL PUSH1 0x44 DUP3 ADD MSTORE PUSH1 0x64 ADD PUSH2 0x88D JUMP JUMPDEST PUSH1 0x0 PUSH1 0x10 DUP3 PUSH1 0x40 MLOAD PUSH2 0x1D63 SWAP2 SWAP1 PUSH2 0x3D24 JUMP JUMPDEST SWAP1 DUP2 MSTORE PUSH1 0x20 ADD PUSH1 0x40 MLOAD DUP1 SWAP2 SUB SWAP1 KECCAK256 SLOAD SWAP1 POP PUSH1 0x8 DUP2 DUP2 SLOAD DUP2 LT PUSH2 0x1D87 JUMPI PUSH2 0x1D87 PUSH2 0x3C70 JUMP JUMPDEST SWAP1 PUSH1 0x0 MSTORE PUSH1 0x20 PUSH1 0x0 KECCAK256 SWAP1 PUSH1 0x5 MUL ADD PUSH1 0xF DUP4 PUSH1 0x40 MLOAD PUSH2 0x1DA5 SWAP2 SWAP1 PUSH2 0x3D24 JUMP JUMPDEST SWAP1 DUP2 MSTORE PUSH1 0x40 MLOAD SWAP1 DUP2 SWAP1 SUB PUSH1 0x20 ADD SWAP1 KECCAK256 DUP2 SLOAD DUP2 SWAP1 DUP4 SWAP1 PUSH2 0x1DC3 SWAP1 PUSH2 0x3C0E JUMP JUMPDEST PUSH2 0x1DCE SWAP3 SWAP2 SWAP1 PUSH2 0x3052 JUMP JUMPDEST POP PUSH1 0x1 DUP3 DUP2 ADD DUP1 SLOAD PUSH2 0x1DE3 SWAP3 DUP5 ADD SWAP2 SWAP1 PUSH2 0x31E4 JUMP JUMPDEST POP PUSH1 0x2 DUP3 DUP2 ADD DUP1 SLOAD SWAP2 DUP4 ADD DUP1 SLOAD PUSH1 0xFF SWAP4 DUP5 AND ISZERO ISZERO PUSH1 0xFF NOT DUP3 AND DUP2 OR DUP4 SSTORE DUP4 SLOAD PUSH2 0x100 SWAP1 DUP2 SWAP1 DIV DUP7 AND ISZERO ISZERO MUL PUSH2 0xFF00 NOT SWAP1 SWAP2 AND PUSH2 0xFFFF NOT SWAP1 SWAP3 AND SWAP2 SWAP1 SWAP2 OR OR DUP1 DUP3 SSTORE DUP3 SLOAD PUSH3 0x10000 SWAP1 DUP2 SWAP1 DIV DUP6 AND ISZERO ISZERO MUL PUSH3 0xFF0000 NOT DUP3 AND DUP2 OR DUP4 SSTORE SWAP3 SLOAD PUSH4 0x1000000 SWAP1 DUP2 SWAP1 DIV SWAP1 SWAP5 AND ISZERO ISZERO SWAP1 SWAP4 MUL PUSH4 0xFF000000 NOT SWAP1 SWAP3 AND PUSH4 0xFFFF0000 NOT SWAP1 SWAP4 AND SWAP3 SWAP1 SWAP3 OR OR SWAP1 SSTORE PUSH1 0x3 DUP1 DUP4 ADD SLOAD SWAP1 DUP3 ADD SSTORE PUSH1 0x4 DUP1 DUP4 ADD DUP1 SLOAD PUSH2 0x1E88 SWAP3 DUP5 ADD SWAP2 SWAP1 PUSH2 0x3223 JUMP JUMPDEST POP SWAP1 POP POP PUSH1 0x1 PUSH1 0x8 DUP3 DUP2 SLOAD DUP2 LT PUSH2 0x1EA1 JUMPI PUSH2 0x1EA1 PUSH2 0x3C70 JUMP JUMPDEST SWAP1 PUSH1 0x0 MSTORE PUSH1 0x20 PUSH1 0x0 KECCAK256 SWAP1 PUSH1 0x5 MUL ADD PUSH1 0x2 ADD PUSH1 0x0 PUSH2 0x100 EXP DUP2 SLOAD DUP2 PUSH1 0xFF MUL NOT AND SWAP1 DUP4 ISZERO ISZERO MUL OR SWAP1 SSTORE POP PUSH1 0x1 PUSH1 0xF DUP4 PUSH1 0x40 MLOAD PUSH2 0x1EDB SWAP2 SWAP1 PUSH2 0x3D24 JUMP JUMPDEST SWAP1 DUP2 MSTORE PUSH1 0x40 MLOAD SWAP1 DUP2 SWAP1 SUB PUSH1 0x20 ADD DUP2 KECCAK256 PUSH1 0x2 ADD DUP1 SLOAD SWAP3 ISZERO ISZERO PUSH1 0xFF NOT SWAP1 SWAP4 AND SWAP3 SWAP1 SWAP3 OR SWAP1 SWAP2 SSTORE PUSH32 0x226E81A7D3388DE1EC48D35E19F2946DB8A13C1DF85088428A21A00A75FBFCDC SWAP1 PUSH2 0x1141 SWAP1 DUP5 SWAP1 PUSH1 0x1 SWAP1 PUSH2 0x3DE4 JUMP JUMPDEST PUSH1 0x2 SLOAD PUSH1 0x1 PUSH1 0x1 PUSH1 0xA0 SHL SUB AND CALLER EQ PUSH2 0x1F59 JUMPI PUSH1 0x40 MLOAD PUSH3 0x461BCD PUSH1 0xE5 SHL DUP2 MSTORE PUSH1 0x4 ADD PUSH2 0x88D SWAP1 PUSH2 0x3DA1 JUMP JUMPDEST PUSH1 0x7 SLOAD PUSH1 0xFF AND ISZERO PUSH2 0x1F7C JUMPI PUSH1 0x40 MLOAD PUSH3 0x461BCD PUSH1 0xE5 SHL DUP2 MSTORE PUSH1 0x4 ADD PUSH2 0x88D SWAP1 PUSH2 0x3CED JUMP JUMPDEST PUSH2 0x1F88 PUSH1 0x8 PUSH1 0x0 PUSH2 0x3279 JUMP JUMPDEST JUMP JUMPDEST CALLER PUSH1 0x0 SWAP1 DUP2 MSTORE PUSH1 0x9 PUSH1 0x20 MSTORE PUSH1 0x40 DUP2 KECCAK256 PUSH1 0x1 ADD SLOAD PUSH1 0x60 SWAP2 SWAP1 PUSH1 0xFF AND PUSH2 0x1FFC JUMPI PUSH1 0x40 MLOAD PUSH3 0x461BCD PUSH1 0xE5 SHL DUP2 MSTORE PUSH1 0x20 PUSH1 0x4 DUP3 ADD MSTORE PUSH1 0x24 DUP1 DUP3 ADD MSTORE PUSH32 0x596F75206D75737420626520612072656769737465726564207374616B65686F PUSH1 0x44 DUP3 ADD MSTORE PUSH4 0x363232B9 PUSH1 0xE1 SHL PUSH1 0x64 DUP3 ADD MSTORE PUSH1 0x84 ADD PUSH2 0x88D JUMP JUMPDEST PUSH1 0x7 SLOAD PUSH1 0xFF AND ISZERO PUSH2 0x201F JUMPI PUSH1 0x40 MLOAD PUSH3 0x461BCD PUSH1 0xE5 SHL DUP2 MSTORE PUSH1 0x4 ADD PUSH2 0x88D SWAP1 PUSH2 0x3CED JUMP JUMPDEST PUSH1 0xF DUP5 PUSH1 0x40 MLOAD PUSH2 0x202F SWAP2 SWAP1 PUSH2 0x3D24 JUMP JUMPDEST SWAP1 DUP2 MSTORE PUSH1 0x40 MLOAD SWAP1 DUP2 SWAP1 SUB PUSH1 0x20 ADD SWAP1 KECCAK256 PUSH1 0x2 ADD SLOAD PUSH1 0xFF AND ISZERO ISZERO PUSH1 0x1 EQ PUSH2 0x2066 JUMPI PUSH1 0x40 MLOAD PUSH3 0x461BCD PUSH1 0xE5 SHL DUP2 MSTORE PUSH1 0x4 ADD PUSH2 0x88D SWAP1 PUSH2 0x3E08 JUMP JUMPDEST PUSH1 0x11 DUP5 PUSH1 0x40 MLOAD PUSH2 0x2076 SWAP2 SWAP1 PUSH2 0x3D24 JUMP JUMPDEST SWAP1 DUP2 MSTORE PUSH1 0x40 DUP1 MLOAD SWAP2 DUP3 SWAP1 SUB PUSH1 0x20 SWAP1 DUP2 ADD DUP4 KECCAK256 CALLER PUSH1 0x0 SWAP1 DUP2 MSTORE PUSH1 0x9 SWAP1 SWAP3 MSTORE SWAP2 SWAP1 KECCAK256 SWAP1 SWAP2 PUSH2 0x20A2 SWAP2 SWAP1 PUSH2 0x3E53 JUMP JUMPDEST SWAP1 DUP2 MSTORE PUSH1 0x40 MLOAD SWAP1 DUP2 SWAP1 SUB PUSH1 0x20 ADD SWAP1 KECCAK256 SLOAD PUSH1 0xFF AND ISZERO ISZERO PUSH1 0x1 EQ PUSH2 0x211F JUMPI PUSH1 0x40 MLOAD PUSH3 0x461BCD PUSH1 0xE5 SHL DUP2 MSTORE PUSH1 0x20 PUSH1 0x4 DUP3 ADD MSTORE PUSH1 0x30 PUSH1 0x24 DUP3 ADD MSTORE PUSH32 0x596F7520617265206E6F74205175616C696669656420746F20766F746520666F PUSH1 0x44 DUP3 ADD MSTORE PUSH16 0x39103A3434B99031B0BA32B3B7B93C9 PUSH1 0x85 SHL PUSH1 0x64 DUP3 ADD MSTORE PUSH1 0x84 ADD PUSH2 0x88D JUMP JUMPDEST PUSH1 0xF DUP5 PUSH1 0x40 MLOAD PUSH2 0x212F SWAP2 SWAP1 PUSH2 0x3D24 JUMP JUMPDEST SWAP1 DUP2 MSTORE PUSH1 0x40 MLOAD SWAP1 DUP2 SWAP1 SUB PUSH1 0x20 ADD SWAP1 KECCAK256 PUSH1 0x2 ADD SLOAD PUSH1 0xFF PUSH2 0x100 SWAP1 SWAP2 DIV AND ISZERO PUSH2 0x2168 JUMPI PUSH1 0x40 MLOAD PUSH3 0x461BCD PUSH1 0xE5 SHL DUP2 MSTORE PUSH1 0x4 ADD PUSH2 0x88D SWAP1 PUSH2 0x3E08 JUMP JUMPDEST PUSH1 0xD DUP5 PUSH1 0x40 MLOAD PUSH2 0x2178 SWAP2 SWAP1 PUSH2 0x3D24 JUMP JUMPDEST SWAP1 DUP2 MSTORE PUSH1 0x20 ADD PUSH1 0x40 MLOAD DUP1 SWAP2 SUB SWAP1 KECCAK256 SLOAD PUSH1 0xA PUSH1 0x0 DUP6 DUP2 MSTORE PUSH1 0x20 ADD SWAP1 DUP2 MSTORE PUSH1 0x20 ADD PUSH1 0x0 KECCAK256 PUSH1 0x2 ADD SLOAD EQ PUSH2 0x2200 JUMPI PUSH1 0x40 MLOAD PUSH3 0x461BCD PUSH1 0xE5 SHL DUP2 MSTORE PUSH1 0x20 PUSH1 0x4 DUP3 ADD MSTORE PUSH1 0x2C PUSH1 0x24 DUP3 ADD MSTORE PUSH32 0x43616E646964617465206973206E6F74205265676973746572656420666F7220 PUSH1 0x44 DUP3 ADD MSTORE PUSH12 0x74686973204F666669636521 PUSH1 0xA0 SHL PUSH1 0x64 DUP3 ADD MSTORE PUSH1 0x84 ADD PUSH2 0x88D JUMP JUMPDEST PUSH1 0xB PUSH1 0x0 PUSH1 0xD DUP7 PUSH1 0x40 MLOAD PUSH2 0x2214 SWAP2 SWAP1 PUSH2 0x3D24 JUMP JUMPDEST SWAP1 DUP2 MSTORE PUSH1 0x40 DUP1 MLOAD PUSH1 0x20 SWAP3 DUP2 SWAP1 SUB DUP4 ADD SWAP1 KECCAK256 SLOAD DUP4 MSTORE DUP3 DUP3 ADD SWAP4 SWAP1 SWAP4 MSTORE SWAP1 DUP3 ADD PUSH1 0x0 SWAP1 DUP2 KECCAK256 CALLER DUP3 MSTORE SWAP1 SWAP2 MSTORE KECCAK256 SLOAD PUSH1 0xFF AND ISZERO PUSH2 0x229A JUMPI PUSH1 0x40 MLOAD PUSH3 0x461BCD PUSH1 0xE5 SHL DUP2 MSTORE PUSH1 0x20 PUSH1 0x4 DUP3 ADD MSTORE PUSH1 0x22 PUSH1 0x24 DUP3 ADD MSTORE PUSH32 0x43616E6E6F7420766F746520747769636520666F7220612063617465676F7279 PUSH1 0x44 DUP3 ADD MSTORE PUSH2 0x1717 PUSH1 0xF1 SHL PUSH1 0x64 DUP3 ADD MSTORE PUSH1 0x84 ADD PUSH2 0x88D JUMP JUMPDEST CALLER PUSH1 0x0 DUP2 DUP2 MSTORE PUSH1 0x9 PUSH1 0x20 MSTORE PUSH1 0x40 SWAP1 DUP2 SWAP1 KECCAK256 PUSH1 0x1 SWAP1 DUP2 ADD DUP1 SLOAD PUSH2 0xFF00 NOT AND PUSH2 0x100 OR SWAP1 SSTORE SLOAD SWAP1 MLOAD PUSH4 0x70A08231 PUSH1 0xE0 SHL DUP2 MSTORE PUSH1 0x4 DUP2 ADD SWAP3 SWAP1 SWAP3 MSTORE PUSH8 0xDE0B6B3A7640000 SWAP2 PUSH1 0x1 PUSH1 0x1 PUSH1 0xA0 SHL SUB SWAP1 SWAP2 AND SWAP1 PUSH4 0x70A08231 SWAP1 PUSH1 0x24 ADD PUSH1 0x20 PUSH1 0x40 MLOAD DUP1 DUP4 SUB DUP2 DUP7 GAS STATICCALL ISZERO DUP1 ISZERO PUSH2 0x230E JUMPI RETURNDATASIZE PUSH1 0x0 DUP1 RETURNDATACOPY RETURNDATASIZE PUSH1 0x0 REVERT JUMPDEST POP POP POP POP PUSH1 0x40 MLOAD RETURNDATASIZE PUSH1 0x1F NOT PUSH1 0x1F DUP3 ADD AND DUP3 ADD DUP1 PUSH1 0x40 MSTORE POP DUP2 ADD SWAP1 PUSH2 0x2332 SWAP2 SWAP1 PUSH2 0x3EEE JUMP JUMPDEST GT PUSH2 0x23B1 JUMPI PUSH1 0x40 MLOAD PUSH3 0x461BCD PUSH1 0xE5 SHL DUP2 MSTORE PUSH1 0x20 PUSH1 0x4 DUP3 ADD MSTORE PUSH1 0x43 PUSH1 0x24 DUP3 ADD MSTORE PUSH32 0x596F75722062616C616E63652069732063757272656E746C79206E6F74207375 PUSH1 0x44 DUP3 ADD MSTORE PUSH32 0x6666696369656E7420746F20766F74652E204E6F742061207374616B65686F6C PUSH1 0x64 DUP3 ADD MSTORE PUSH3 0x3232B9 PUSH1 0xE9 SHL PUSH1 0x84 DUP3 ADD MSTORE PUSH1 0xA4 ADD PUSH2 0x88D JUMP JUMPDEST CALLER PUSH1 0x0 SWAP1 DUP2 MSTORE PUSH1 0x9 PUSH1 0x20 SWAP1 DUP2 MSTORE PUSH1 0x40 DUP1 DUP4 KECCAK256 PUSH1 0x3 ADD SLOAD DUP7 DUP5 MSTORE PUSH1 0xC SWAP1 SWAP3 MSTORE DUP1 DUP4 KECCAK256 SWAP1 MLOAD DUP4 SWAP1 PUSH1 0xD SWAP1 PUSH2 0x23E4 SWAP1 DUP11 SWAP1 PUSH2 0x3D24 JUMP JUMPDEST SWAP1 DUP2 MSTORE PUSH1 0x20 ADD PUSH1 0x40 MLOAD DUP1 SWAP2 SUB SWAP1 KECCAK256 SLOAD DUP2 MSTORE PUSH1 0x20 ADD SWAP1 DUP2 MSTORE PUSH1 0x20 ADD PUSH1 0x0 KECCAK256 PUSH1 0x0 DUP3 DUP3 SLOAD PUSH2 0x2410 SWAP2 SWAP1 PUSH2 0x3C58 JUMP JUMPDEST SWAP2 DUP3 SWAP1 SSTORE POP PUSH1 0x0 DUP7 DUP2 MSTORE PUSH1 0xA PUSH1 0x20 MSTORE PUSH1 0x40 DUP1 DUP3 KECCAK256 PUSH1 0x3 ADD DUP4 SWAP1 SSTORE MLOAD SWAP2 SWAP4 POP PUSH1 0x1 SWAP3 POP PUSH1 0xB SWAP2 PUSH1 0xD SWAP1 PUSH2 0x2443 SWAP1 DUP11 SWAP1 PUSH2 0x3D24 JUMP JUMPDEST SWAP1 DUP2 MSTORE PUSH1 0x40 DUP1 MLOAD PUSH1 0x20 SWAP3 DUP2 SWAP1 SUB DUP4 ADD SWAP1 KECCAK256 SLOAD DUP4 MSTORE DUP3 DUP3 ADD SWAP4 SWAP1 SWAP4 MSTORE SWAP1 DUP3 ADD PUSH1 0x0 SWAP1 DUP2 KECCAK256 CALLER DUP1 DUP4 MSTORE SWAP3 MSTORE DUP3 SWAP1 KECCAK256 DUP1 SLOAD PUSH1 0xFF NOT AND SWAP4 ISZERO ISZERO SWAP4 SWAP1 SWAP4 OR SWAP1 SWAP3 SSTORE MLOAD PUSH32 0x7CF072052F53D68961097943ED95E47F628A7E51E185D0FA17786DE527F4D8EE SWAP2 PUSH2 0x24AD SWAP2 DUP9 SWAP1 PUSH2 0x3F07 JUMP JUMPDEST PUSH1 0x40 MLOAD DUP1 SWAP2 SUB SWAP1 LOG1 POP SWAP3 SWAP4 SWAP2 SWAP3 POP POP JUMP JUMPDEST PUSH1 0x2 SLOAD PUSH1 0x1 PUSH1 0x1 PUSH1 0xA0 SHL SUB AND CALLER EQ PUSH2 0x24E8 JUMPI PUSH1 0x40 MLOAD PUSH3 0x461BCD PUSH1 0xE5 SHL DUP2 MSTORE PUSH1 0x4 ADD PUSH2 0x88D SWAP1 PUSH2 0x3DA1 JUMP JUMPDEST PUSH1 0x7 SLOAD PUSH1 0xFF AND ISZERO PUSH2 0x250B JUMPI PUSH1 0x40 MLOAD PUSH3 0x461BCD PUSH1 0xE5 SHL DUP2 MSTORE PUSH1 0x4 ADD PUSH2 0x88D SWAP1 PUSH2 0x3CED JUMP JUMPDEST PUSH1 0x1 PUSH1 0xF DUP3 PUSH1 0x40 MLOAD PUSH2 0x251D SWAP2 SWAP1 PUSH2 0x3D24 JUMP JUMPDEST SWAP1 DUP2 MSTORE PUSH1 0x20 ADD PUSH1 0x40 MLOAD DUP1 SWAP2 SUB SWAP1 KECCAK256 PUSH1 0x2 ADD PUSH1 0x1 PUSH2 0x100 EXP DUP2 SLOAD DUP2 PUSH1 0xFF MUL NOT AND SWAP1 DUP4 ISZERO ISZERO MUL OR SWAP1 SSTORE POP PUSH1 0x0 PUSH1 0x10 DUP3 PUSH1 0x40 MLOAD PUSH2 0x2557 SWAP2 SWAP1 PUSH2 0x3D24 JUMP JUMPDEST SWAP1 DUP2 MSTORE PUSH1 0x20 ADD PUSH1 0x40 MLOAD DUP1 SWAP2 SUB SWAP1 KECCAK256 SLOAD SWAP1 POP PUSH1 0x1 PUSH1 0x8 DUP3 DUP2 SLOAD DUP2 LT PUSH2 0x257D JUMPI PUSH2 0x257D PUSH2 0x3C70 JUMP JUMPDEST SWAP1 PUSH1 0x0 MSTORE PUSH1 0x20 PUSH1 0x0 KECCAK256 SWAP1 PUSH1 0x5 MUL ADD PUSH1 0x2 ADD PUSH1 0x1 PUSH2 0x100 EXP DUP2 SLOAD DUP2 PUSH1 0xFF MUL NOT AND SWAP1 DUP4 ISZERO ISZERO MUL OR SWAP1 SSTORE POP PUSH1 0x0 PUSH1 0xF DUP4 PUSH1 0x40 MLOAD PUSH2 0x25B7 SWAP2 SWAP1 PUSH2 0x3D24 JUMP JUMPDEST SWAP1 DUP2 MSTORE PUSH1 0x20 ADD PUSH1 0x40 MLOAD DUP1 SWAP2 SUB SWAP1 KECCAK256 PUSH1 0x4 ADD DUP1 SLOAD DUP1 PUSH1 0x20 MUL PUSH1 0x20 ADD PUSH1 0x40 MLOAD SWAP1 DUP2 ADD PUSH1 0x40 MSTORE DUP1 SWAP3 SWAP2 SWAP1 DUP2 DUP2 MSTORE PUSH1 0x20 ADD PUSH1 0x0 SWAP1 JUMPDEST DUP3 DUP3 LT ISZERO PUSH2 0x2694 JUMPI DUP4 DUP3 SWAP1 PUSH1 0x0 MSTORE PUSH1 0x20 PUSH1 0x0 KECCAK256 ADD DUP1 SLOAD PUSH2 0x2607 SWAP1 PUSH2 0x3C0E JUMP JUMPDEST DUP1 PUSH1 0x1F ADD PUSH1 0x20 DUP1 SWAP2 DIV MUL PUSH1 0x20 ADD PUSH1 0x40 MLOAD SWAP1 DUP2 ADD PUSH1 0x40 MSTORE DUP1 SWAP3 SWAP2 SWAP1 DUP2 DUP2 MSTORE PUSH1 0x20 ADD DUP3 DUP1 SLOAD PUSH2 0x2633 SWAP1 PUSH2 0x3C0E JUMP JUMPDEST DUP1 ISZERO PUSH2 0x2680 JUMPI DUP1 PUSH1 0x1F LT PUSH2 0x2655 JUMPI PUSH2 0x100 DUP1 DUP4 SLOAD DIV MUL DUP4 MSTORE SWAP2 PUSH1 0x20 ADD SWAP2 PUSH2 0x2680 JUMP JUMPDEST DUP3 ADD SWAP2 SWAP1 PUSH1 0x0 MSTORE PUSH1 0x20 PUSH1 0x0 KECCAK256 SWAP1 JUMPDEST DUP2 SLOAD DUP2 MSTORE SWAP1 PUSH1 0x1 ADD SWAP1 PUSH1 0x20 ADD DUP1 DUP4 GT PUSH2 0x2663 JUMPI DUP3 SWAP1 SUB PUSH1 0x1F AND DUP3 ADD SWAP2 JUMPDEST POP POP POP POP POP DUP2 MSTORE PUSH1 0x20 ADD SWAP1 PUSH1 0x1 ADD SWAP1 PUSH2 0x25E8 JUMP JUMPDEST POP POP POP POP SWAP1 POP PUSH1 0x0 JUMPDEST DUP2 MLOAD DUP2 LT ISZERO PUSH2 0x271F JUMPI PUSH1 0x0 PUSH1 0x11 DUP6 PUSH1 0x40 MLOAD PUSH2 0x26B8 SWAP2 SWAP1 PUSH2 0x3D24 JUMP JUMPDEST SWAP1 DUP2 MSTORE PUSH1 0x20 ADD PUSH1 0x40 MLOAD DUP1 SWAP2 SUB SWAP1 KECCAK256 DUP4 DUP4 DUP2 MLOAD DUP2 LT PUSH2 0x26D8 JUMPI PUSH2 0x26D8 PUSH2 0x3C70 JUMP JUMPDEST PUSH1 0x20 MUL PUSH1 0x20 ADD ADD MLOAD PUSH1 0x40 MLOAD PUSH2 0x26ED SWAP2 SWAP1 PUSH2 0x3D24 JUMP JUMPDEST SWAP1 DUP2 MSTORE PUSH1 0x40 MLOAD SWAP1 DUP2 SWAP1 SUB PUSH1 0x20 ADD SWAP1 KECCAK256 DUP1 SLOAD SWAP2 ISZERO ISZERO PUSH1 0xFF NOT SWAP1 SWAP3 AND SWAP2 SWAP1 SWAP2 OR SWAP1 SSTORE DUP1 PUSH2 0x2717 DUP2 PUSH2 0x3C86 JUMP JUMPDEST SWAP2 POP POP PUSH2 0x269D JUMP JUMPDEST POP PUSH32 0x94A0EB701F9537E6884C310036F392249D21A74C75E75F5FC9987AFC23F7758 DUP4 PUSH1 0x1 PUSH1 0x40 MLOAD PUSH2 0x2752 SWAP3 SWAP2 SWAP1 PUSH2 0x3DE4 JUMP JUMPDEST PUSH1 0x40 MLOAD DUP1 SWAP2 SUB SWAP1 LOG1 POP POP POP JUMP JUMPDEST PUSH2 0x278A PUSH1 0x40 MLOAD DUP1 PUSH1 0x80 ADD PUSH1 0x40 MSTORE DUP1 PUSH1 0x0 DUP2 MSTORE PUSH1 0x20 ADD PUSH1 0x60 DUP2 MSTORE PUSH1 0x20 ADD PUSH1 0x0 DUP2 MSTORE PUSH1 0x20 ADD PUSH1 0x0 DUP2 MSTORE POP SWAP1 JUMP JUMPDEST PUSH1 0x2 SLOAD PUSH1 0x60 SWAP1 PUSH1 0x1 PUSH1 0x1 PUSH1 0xA0 SHL SUB AND CALLER EQ DUP1 PUSH2 0x27C0 JUMPI POP CALLER PUSH1 0x0 SWAP1 DUP2 MSTORE PUSH1 0x9 PUSH1 0x20 MSTORE PUSH1 0x40 SWAP1 KECCAK256 DUP1 SLOAD PUSH2 0x27C0 SWAP2 SWAP1 PUSH2 0x7CE SWAP1 PUSH2 0x3C0E JUMP JUMPDEST DUP1 PUSH2 0x27E5 JUMPI POP CALLER PUSH1 0x0 SWAP1 DUP2 MSTORE PUSH1 0x9 PUSH1 0x20 MSTORE PUSH1 0x40 SWAP1 KECCAK256 DUP1 SLOAD PUSH2 0x27E5 SWAP2 SWAP1 PUSH2 0x19DC SWAP1 PUSH2 0x3C0E JUMP JUMPDEST PUSH2 0x2857 JUMPI PUSH1 0x40 MLOAD PUSH3 0x461BCD PUSH1 0xE5 SHL DUP2 MSTORE PUSH1 0x20 PUSH1 0x4 DUP3 ADD MSTORE PUSH1 0x38 PUSH1 0x24 DUP3 ADD MSTORE PUSH32 0x416363657373206772616E74656420746F206F6E6C7920746865206368616972 PUSH1 0x44 DUP3 ADD MSTORE PUSH32 0x6D616E2C2074656163686572206F72206469726563746F720000000000000000 PUSH1 0x64 DUP3 ADD MSTORE PUSH1 0x84 ADD PUSH2 0x88D JUMP JUMPDEST PUSH1 0x7 SLOAD PUSH1 0xFF AND ISZERO PUSH2 0x287A JUMPI PUSH1 0x40 MLOAD PUSH3 0x461BCD PUSH1 0xE5 SHL DUP2 MSTORE PUSH1 0x4 ADD PUSH2 0x88D SWAP1 PUSH2 0x3CED JUMP JUMPDEST PUSH1 0xF DUP4 PUSH1 0x40 MLOAD PUSH2 0x288A SWAP2 SWAP1 PUSH2 0x3D24 JUMP JUMPDEST SWAP1 DUP2 MSTORE PUSH1 0x40 MLOAD PUSH1 0x20 SWAP2 DUP2 SWAP1 SUB SWAP2 SWAP1 SWAP2 ADD SWAP1 KECCAK256 PUSH1 0x2 ADD SLOAD PUSH3 0x10000 SWAP1 DIV PUSH1 0xFF AND ISZERO ISZERO PUSH1 0x1 EQ PUSH2 0x2920 JUMPI PUSH1 0x40 MLOAD PUSH3 0x461BCD PUSH1 0xE5 SHL DUP2 MSTORE PUSH1 0x20 PUSH1 0x4 DUP3 ADD MSTORE PUSH1 0x3D PUSH1 0x24 DUP3 ADD MSTORE PUSH32 0x546869732073657373696F6E206973207374696C6C206163746976652C20766F PUSH1 0x44 DUP3 ADD MSTORE PUSH32 0x74696E6720686173206E6F7420796574206265656E20636F756E746564000000 PUSH1 0x64 DUP3 ADD MSTORE PUSH1 0x84 ADD PUSH2 0x88D JUMP JUMPDEST PUSH1 0x0 PUSH1 0x10 DUP5 PUSH1 0x40 MLOAD PUSH2 0x2932 SWAP2 SWAP1 PUSH2 0x3D24 JUMP JUMPDEST SWAP1 DUP2 MSTORE PUSH1 0x20 ADD PUSH1 0x40 MLOAD DUP1 SWAP2 SUB SWAP1 KECCAK256 SLOAD SWAP1 POP PUSH1 0x1 PUSH1 0x8 DUP3 DUP2 SLOAD DUP2 LT PUSH2 0x2958 JUMPI PUSH2 0x2958 PUSH2 0x3C70 JUMP JUMPDEST SWAP1 PUSH1 0x0 MSTORE PUSH1 0x20 PUSH1 0x0 KECCAK256 SWAP1 PUSH1 0x5 MUL ADD PUSH1 0x2 ADD PUSH1 0x3 PUSH2 0x100 EXP DUP2 SLOAD DUP2 PUSH1 0xFF MUL NOT AND SWAP1 DUP4 ISZERO ISZERO MUL OR SWAP1 SSTORE POP PUSH1 0x1 PUSH1 0xF DUP6 PUSH1 0x40 MLOAD PUSH2 0x2992 SWAP2 SWAP1 PUSH2 0x3D24 JUMP JUMPDEST SWAP1 DUP2 MSTORE PUSH1 0x40 MLOAD SWAP1 DUP2 SWAP1 SUB PUSH1 0x20 ADD DUP2 KECCAK256 PUSH1 0x2 ADD DUP1 SLOAD SWAP3 ISZERO ISZERO PUSH4 0x1000000 MUL PUSH4 0xFF000000 NOT SWAP1 SWAP4 AND SWAP3 SWAP1 SWAP3 OR SWAP1 SWAP2 SSTORE PUSH1 0xE SWAP1 PUSH2 0x29CD SWAP1 DUP7 SWAP1 PUSH2 0x3D24 JUMP JUMPDEST SWAP1 DUP2 MSTORE PUSH1 0x20 ADD PUSH1 0x40 MLOAD DUP1 SWAP2 SUB SWAP1 KECCAK256 DUP5 DUP2 PUSH1 0x40 MLOAD DUP1 PUSH1 0x80 ADD PUSH1 0x40 MSTORE SWAP1 DUP2 PUSH1 0x0 DUP3 ADD SLOAD DUP2 MSTORE PUSH1 0x20 ADD PUSH1 0x1 DUP3 ADD DUP1 SLOAD PUSH2 0x191B SWAP1 PUSH2 0x3C0E JUMP JUMPDEST PUSH1 0x9 PUSH1 0x20 MSTORE PUSH1 0x0 SWAP1 DUP2 MSTORE PUSH1 0x40 SWAP1 KECCAK256 DUP1 SLOAD DUP2 SWAP1 PUSH2 0x2A1D SWAP1 PUSH2 0x3C0E JUMP JUMPDEST DUP1 PUSH1 0x1F ADD PUSH1 0x20 DUP1 SWAP2 DIV MUL PUSH1 0x20 ADD PUSH1 0x40 MLOAD SWAP1 DUP2 ADD PUSH1 0x40 MSTORE DUP1 SWAP3 SWAP2 SWAP1 DUP2 DUP2 MSTORE PUSH1 0x20 ADD DUP3 DUP1 SLOAD PUSH2 0x2A49 SWAP1 PUSH2 0x3C0E JUMP JUMPDEST DUP1 ISZERO PUSH2 0x2A96 JUMPI DUP1 PUSH1 0x1F LT PUSH2 0x2A6B JUMPI PUSH2 0x100 DUP1 DUP4 SLOAD DIV MUL DUP4 MSTORE SWAP2 PUSH1 0x20 ADD SWAP2 PUSH2 0x2A96 JUMP JUMPDEST DUP3 ADD SWAP2 SWAP1 PUSH1 0x0 MSTORE PUSH1 0x20 PUSH1 0x0 KECCAK256 SWAP1 JUMPDEST DUP2 SLOAD DUP2 MSTORE SWAP1 PUSH1 0x1 ADD SWAP1 PUSH1 0x20 ADD DUP1 DUP4 GT PUSH2 0x2A79 JUMPI DUP3 SWAP1 SUB PUSH1 0x1F AND DUP3 ADD SWAP2 JUMPDEST POP POP POP PUSH1 0x1 DUP5 ADD SLOAD PUSH1 0x2 DUP6 ADD SLOAD PUSH1 0x3 SWAP1 SWAP6 ADD SLOAD SWAP4 SWAP5 PUSH1 0xFF DUP1 DUP4 AND SWAP6 PUSH2 0x100 SWAP1 SWAP4 DIV AND SWAP4 POP SWAP2 POP DUP6 JUMP JUMPDEST PUSH1 0x5 DUP2 DUP2 SLOAD DUP2 LT PUSH2 0x2ACF JUMPI PUSH1 0x0 DUP1 REVERT JUMPDEST SWAP1 PUSH1 0x0 MSTORE PUSH1 0x20 PUSH1 0x0 KECCAK256 ADD PUSH1 0x0 SWAP2 POP SWAP1 POP DUP1 SLOAD PUSH2 0x2AEA SWAP1 PUSH2 0x3C0E JUMP JUMPDEST DUP1 PUSH1 0x1F ADD PUSH1 0x20 DUP1 SWAP2 DIV MUL PUSH1 0x20 ADD PUSH1 0x40 MLOAD SWAP1 DUP2 ADD PUSH1 0x40 MSTORE DUP1 SWAP3 SWAP2 SWAP1 DUP2 DUP2 MSTORE PUSH1 0x20 ADD DUP3 DUP1 SLOAD PUSH2 0x2B16 SWAP1 PUSH2 0x3C0E JUMP JUMPDEST DUP1 ISZERO PUSH2 0x2B63 JUMPI DUP1 PUSH1 0x1F LT PUSH2 0x2B38 JUMPI PUSH2 0x100 DUP1 DUP4 SLOAD DIV MUL DUP4 MSTORE SWAP2 PUSH1 0x20 ADD SWAP2 PUSH2 0x2B63 JUMP JUMPDEST DUP3 ADD SWAP2 SWAP1 PUSH1 0x0 MSTORE PUSH1 0x20 PUSH1 0x0 KECCAK256 SWAP1 JUMPDEST DUP2 SLOAD DUP2 MSTORE SWAP1 PUSH1 0x1 ADD SWAP1 PUSH1 0x20 ADD DUP1 DUP4 GT PUSH2 0x2B46 JUMPI DUP3 SWAP1 SUB PUSH1 0x1F AND DUP3 ADD SWAP2 JUMPDEST POP POP POP POP POP DUP2 JUMP JUMPDEST CALLER PUSH1 0x0 SWAP1 DUP2 MSTORE PUSH1 0x9 PUSH1 0x20 MSTORE PUSH1 0x40 SWAP1 KECCAK256 DUP1 SLOAD PUSH2 0x2B8A SWAP2 SWAP1 PUSH2 0x19DC SWAP1 PUSH2 0x3C0E JUMP JUMPDEST PUSH2 0x2BD6 JUMPI PUSH1 0x40 MLOAD PUSH3 0x461BCD PUSH1 0xE5 SHL DUP2 MSTORE PUSH1 0x20 PUSH1 0x4 DUP3 ADD MSTORE PUSH1 0x1A PUSH1 0x24 DUP3 ADD MSTORE PUSH32 0x4F6E6C79204469726563746F7273206861766520616363657373000000000000 PUSH1 0x44 DUP3 ADD MSTORE PUSH1 0x64 ADD PUSH2 0x88D JUMP JUMPDEST PUSH1 0x7 SLOAD PUSH1 0xFF AND ISZERO PUSH2 0x2BF9 JUMPI PUSH1 0x40 MLOAD PUSH3 0x461BCD PUSH1 0xE5 SHL DUP2 MSTORE PUSH1 0x4 ADD PUSH2 0x88D SWAP1 PUSH2 0x3CED JUMP JUMPDEST PUSH1 0x1 PUSH1 0x1 PUSH1 0xA0 SHL SUB DUP2 AND PUSH1 0x0 SWAP1 DUP2 MSTORE PUSH1 0x9 PUSH1 0x20 MSTORE PUSH1 0x40 SWAP1 KECCAK256 PUSH1 0x1 SWAP1 DUP2 ADD SLOAD PUSH1 0xFF AND ISZERO ISZERO EQ PUSH2 0x2C87 JUMPI PUSH1 0x40 MLOAD PUSH3 0x461BCD PUSH1 0xE5 SHL DUP2 MSTORE PUSH1 0x20 PUSH1 0x4 DUP3 ADD MSTORE PUSH1 0x35 PUSH1 0x24 DUP3 ADD MSTORE PUSH32 0x43616E27742061737369676E206120726F6C65206F662063686169726D616E20 PUSH1 0x44 DUP3 ADD MSTORE PUSH21 0x3A379030903737B71039BA30B5B2B437B63232B917 PUSH1 0x59 SHL PUSH1 0x64 DUP3 ADD MSTORE PUSH1 0x84 ADD PUSH2 0x88D JUMP JUMPDEST PUSH1 0x0 PUSH1 0x12 SLOAD PUSH1 0x4B PUSH2 0x2C98 SWAP2 SWAP1 PUSH2 0x3F2B JUMP JUMPDEST PUSH1 0x0 SLOAD SWAP1 SWAP2 POP DUP2 SWAP1 PUSH2 0x2CAB SWAP1 PUSH1 0x64 PUSH2 0x3F2B JUMP JUMPDEST GT PUSH2 0x2D1E JUMPI PUSH1 0x40 MLOAD PUSH3 0x461BCD PUSH1 0xE5 SHL DUP2 MSTORE PUSH1 0x20 PUSH1 0x4 DUP3 ADD MSTORE PUSH1 0x3A PUSH1 0x24 DUP3 ADD MSTORE PUSH32 0x52657175697265732047726561746572207468616E2037352520636F6E73656E PUSH1 0x44 DUP3 ADD MSTORE PUSH32 0x74206F66204469726563746F727320746F20617070726F766521000000000000 PUSH1 0x64 DUP3 ADD MSTORE PUSH1 0x84 ADD PUSH2 0x88D JUMP JUMPDEST PUSH1 0x40 DUP1 MLOAD DUP1 DUP3 ADD DUP3 MSTORE PUSH1 0x8 DUP2 MSTORE PUSH8 0x31B430B4B936B0B7 PUSH1 0xC1 SHL PUSH1 0x20 DUP1 DUP4 ADD SWAP2 DUP3 MSTORE PUSH1 0x1 PUSH1 0x1 PUSH1 0xA0 SHL SUB DUP7 AND PUSH1 0x0 SWAP1 DUP2 MSTORE PUSH1 0x9 SWAP1 SWAP2 MSTORE SWAP3 SWAP1 SWAP3 KECCAK256 SWAP1 MLOAD PUSH2 0x2D63 SWAP3 SWAP1 PUSH2 0x30DD JUMP JUMPDEST POP PUSH1 0x40 DUP1 MLOAD DUP1 DUP3 ADD DUP3 MSTORE PUSH1 0x8 DUP2 MSTORE PUSH8 0x3234B932B1BA37B9 PUSH1 0xC1 SHL PUSH1 0x20 DUP1 DUP4 ADD SWAP2 DUP3 MSTORE PUSH1 0x2 SLOAD PUSH1 0x1 PUSH1 0x1 PUSH1 0xA0 SHL SUB AND PUSH1 0x0 SWAP1 DUP2 MSTORE PUSH1 0x9 SWAP1 SWAP2 MSTORE SWAP3 SWAP1 SWAP3 KECCAK256 SWAP1 MLOAD PUSH2 0x2DAB SWAP3 SWAP1 PUSH2 0x30DD JUMP JUMPDEST POP PUSH1 0x2 DUP1 SLOAD PUSH1 0x1 PUSH1 0x1 PUSH1 0xA0 SHL SUB SWAP1 DUP2 AND PUSH1 0x0 SWAP1 DUP2 MSTORE PUSH1 0x9 PUSH1 0x20 SWAP1 DUP2 MSTORE PUSH1 0x40 DUP1 DUP4 KECCAK256 PUSH1 0x3 SWAP1 DUP2 ADD DUP2 SWAP1 SSTORE SWAP4 DUP8 AND DUP1 DUP5 MSTORE DUP2 DUP5 KECCAK256 PUSH1 0x4 SWAP6 ADD SWAP5 SWAP1 SWAP5 SSTORE DUP5 SLOAD PUSH1 0x1 PUSH1 0x1 PUSH1 0xA0 SHL SUB NOT AND SWAP1 SWAP4 OR SWAP1 SWAP4 SSTORE DUP1 SLOAD DUP3 MLOAD DUP2 DUP6 MUL DUP2 ADD DUP6 ADD SWAP1 SWAP4 MSTORE DUP1 DUP4 MSTORE SWAP1 SWAP3 DUP4 SWAP2 SWAP1 DUP4 ADD DUP3 DUP3 DUP1 ISZERO PUSH2 0x2E46 JUMPI PUSH1 0x20 MUL DUP3 ADD SWAP2 SWAP1 PUSH1 0x0 MSTORE PUSH1 0x20 PUSH1 0x0 KECCAK256 SWAP1 JUMPDEST DUP2 SLOAD PUSH1 0x1 PUSH1 0x1 PUSH1 0xA0 SHL SUB AND DUP2 MSTORE PUSH1 0x1 SWAP1 SWAP2 ADD SWAP1 PUSH1 0x20 ADD DUP1 DUP4 GT PUSH2 0x2E28 JUMPI JUMPDEST POP POP POP POP POP SWAP1 POP PUSH1 0x0 JUMPDEST DUP2 MLOAD DUP2 LT ISZERO PUSH2 0x2EB5 JUMPI PUSH1 0x0 PUSH1 0x13 PUSH1 0x0 DUP5 DUP5 DUP2 MLOAD DUP2 LT PUSH2 0x2E71 JUMPI PUSH2 0x2E71 PUSH2 0x3C70 JUMP JUMPDEST PUSH1 0x20 SWAP1 DUP2 MUL SWAP2 SWAP1 SWAP2 ADD DUP2 ADD MLOAD PUSH1 0x1 PUSH1 0x1 PUSH1 0xA0 SHL SUB AND DUP3 MSTORE DUP2 ADD SWAP2 SWAP1 SWAP2 MSTORE PUSH1 0x40 ADD PUSH1 0x0 KECCAK256 DUP1 SLOAD PUSH1 0xFF NOT AND SWAP2 ISZERO ISZERO SWAP2 SWAP1 SWAP2 OR SWAP1 SSTORE DUP1 PUSH2 0x2EAD DUP2 PUSH2 0x3C86 JUMP JUMPDEST SWAP2 POP POP PUSH2 0x2E50 JUMP JUMPDEST POP PUSH2 0x2EC1 PUSH1 0x0 DUP1 PUSH2 0x329D JUMP JUMPDEST PUSH1 0x40 DUP1 MLOAD CALLER DUP2 MSTORE PUSH1 0x1 PUSH1 0x1 PUSH1 0xA0 SHL SUB DUP6 AND PUSH1 0x20 DUP3 ADD MSTORE PUSH32 0x9F74F4499E58A849C37599CB9CA3E78131F42231AF29D39292C4CCEC633A07A3 SWAP2 ADD PUSH2 0x2752 JUMP JUMPDEST PUSH1 0x2 SLOAD PUSH1 0x60 SWAP1 PUSH1 0x1 PUSH1 0x1 PUSH1 0xA0 SHL SUB AND CALLER EQ DUP1 PUSH2 0x2F35 JUMPI POP CALLER PUSH1 0x0 SWAP1 DUP2 MSTORE PUSH1 0x9 PUSH1 0x20 MSTORE PUSH1 0x40 SWAP1 KECCAK256 DUP1 SLOAD PUSH2 0x2F35 SWAP2 SWAP1 PUSH2 0x7CE SWAP1 PUSH2 0x3C0E JUMP JUMPDEST PUSH2 0x2F51 JUMPI PUSH1 0x40 MLOAD PUSH3 0x461BCD PUSH1 0xE5 SHL DUP2 MSTORE PUSH1 0x4 ADD PUSH2 0x88D SWAP1 PUSH2 0x3C9F JUMP JUMPDEST PUSH1 0x7 SLOAD PUSH1 0xFF AND ISZERO PUSH2 0x2F74 JUMPI PUSH1 0x40 MLOAD PUSH3 0x461BCD PUSH1 0xE5 SHL DUP2 MSTORE PUSH1 0x4 ADD PUSH2 0x88D SWAP1 PUSH2 0x3CED JUMP JUMPDEST PUSH1 0x5 DUP1 SLOAD PUSH1 0x1 DUP2 ADD DUP3 SSTORE PUSH1 0x0 SWAP2 SWAP1 SWAP2 MSTORE DUP3 MLOAD PUSH2 0x2FB7 SWAP2 PUSH32 0x36B6384B5ECA791C62761152D0C79BB0604C104A5FB6F4EB0703F3154BB3DB0 ADD SWAP1 PUSH1 0x20 DUP6 ADD SWAP1 PUSH2 0x30DD JUMP JUMPDEST POP PUSH1 0x6 SLOAD PUSH1 0xD DUP4 PUSH1 0x40 MLOAD PUSH2 0x2FCB SWAP2 SWAP1 PUSH2 0x3D24 JUMP JUMPDEST SWAP1 DUP2 MSTORE PUSH1 0x40 MLOAD SWAP1 DUP2 SWAP1 SUB PUSH1 0x20 ADD SWAP1 KECCAK256 SSTORE PUSH1 0x6 DUP1 SLOAD SWAP1 PUSH1 0x0 PUSH2 0x2FEB DUP4 PUSH2 0x3C86 JUMP JUMPDEST SWAP2 SWAP1 POP SSTORE POP DUP2 SWAP1 POP JUMPDEST SWAP2 SWAP1 POP JUMP JUMPDEST PUSH1 0x0 DUP2 PUSH1 0x40 MLOAD PUSH1 0x20 ADD PUSH2 0x300C SWAP2 SWAP1 PUSH2 0x3D24 JUMP JUMPDEST PUSH1 0x40 MLOAD PUSH1 0x20 DUP2 DUP4 SUB SUB DUP2 MSTORE SWAP1 PUSH1 0x40 MSTORE DUP1 MLOAD SWAP1 PUSH1 0x20 ADD KECCAK256 DUP4 PUSH1 0x40 MLOAD PUSH1 0x20 ADD PUSH2 0x3033 SWAP2 SWAP1 PUSH2 0x3D24 JUMP JUMPDEST PUSH1 0x40 MLOAD PUSH1 0x20 DUP2 DUP4 SUB SUB DUP2 MSTORE SWAP1 PUSH1 0x40 MSTORE DUP1 MLOAD SWAP1 PUSH1 0x20 ADD KECCAK256 EQ SWAP1 POP SWAP3 SWAP2 POP POP JUMP JUMPDEST DUP3 DUP1 SLOAD PUSH2 0x305E SWAP1 PUSH2 0x3C0E JUMP JUMPDEST SWAP1 PUSH1 0x0 MSTORE PUSH1 0x20 PUSH1 0x0 KECCAK256 SWAP1 PUSH1 0x1F ADD PUSH1 0x20 SWAP1 DIV DUP2 ADD SWAP3 DUP3 PUSH2 0x3080 JUMPI PUSH1 0x0 DUP6 SSTORE PUSH2 0x30CD JUMP JUMPDEST DUP3 PUSH1 0x1F LT PUSH2 0x3091 JUMPI DUP1 SLOAD DUP6 SSTORE PUSH2 0x30CD JUMP JUMPDEST DUP3 DUP1 ADD PUSH1 0x1 ADD DUP6 SSTORE DUP3 ISZERO PUSH2 0x30CD JUMPI PUSH1 0x0 MSTORE PUSH1 0x20 PUSH1 0x0 KECCAK256 SWAP2 PUSH1 0x1F ADD PUSH1 0x20 SWAP1 DIV DUP3 ADD JUMPDEST DUP3 DUP2 GT ISZERO PUSH2 0x30CD JUMPI DUP3 SLOAD DUP3 SSTORE SWAP2 PUSH1 0x1 ADD SWAP2 SWAP1 PUSH1 0x1 ADD SWAP1 PUSH2 0x30B2 JUMP JUMPDEST POP PUSH2 0x30D9 SWAP3 SWAP2 POP PUSH2 0x32B7 JUMP JUMPDEST POP SWAP1 JUMP JUMPDEST DUP3 DUP1 SLOAD PUSH2 0x30E9 SWAP1 PUSH2 0x3C0E JUMP JUMPDEST SWAP1 PUSH1 0x0 MSTORE PUSH1 0x20 PUSH1 0x0 KECCAK256 SWAP1 PUSH1 0x1F ADD PUSH1 0x20 SWAP1 DIV DUP2 ADD SWAP3 DUP3 PUSH2 0x310B JUMPI PUSH1 0x0 DUP6 SSTORE PUSH2 0x30CD JUMP JUMPDEST DUP3 PUSH1 0x1F LT PUSH2 0x3124 JUMPI DUP1 MLOAD PUSH1 0xFF NOT AND DUP4 DUP1 ADD OR DUP6 SSTORE PUSH2 0x30CD JUMP JUMPDEST DUP3 DUP1 ADD PUSH1 0x1 ADD DUP6 SSTORE DUP3 ISZERO PUSH2 0x30CD JUMPI SWAP2 DUP3 ADD JUMPDEST DUP3 DUP2 GT ISZERO PUSH2 0x30CD JUMPI DUP3 MLOAD DUP3 SSTORE SWAP2 PUSH1 0x20 ADD SWAP2 SWAP1 PUSH1 0x1 ADD SWAP1 PUSH2 0x3136 JUMP JUMPDEST DUP3 DUP1 SLOAD DUP3 DUP3 SSTORE SWAP1 PUSH1 0x0 MSTORE PUSH1 0x20 PUSH1 0x0 KECCAK256 SWAP1 DUP2 ADD SWAP3 DUP3 ISZERO PUSH2 0x30CD JUMPI SWAP2 PUSH1 0x20 MUL DUP3 ADD DUP3 DUP2 GT ISZERO PUSH2 0x30CD JUMPI DUP3 MLOAD DUP3 SSTORE SWAP2 PUSH1 0x20 ADD SWAP2 SWAP1 PUSH1 0x1 ADD SWAP1 PUSH2 0x3136 JUMP JUMPDEST DUP3 DUP1 SLOAD DUP3 DUP3 SSTORE SWAP1 PUSH1 0x0 MSTORE PUSH1 0x20 PUSH1 0x0 KECCAK256 SWAP1 DUP2 ADD SWAP3 DUP3 ISZERO PUSH2 0x31D8 JUMPI SWAP2 PUSH1 0x20 MUL DUP3 ADD JUMPDEST DUP3 DUP2 GT ISZERO PUSH2 0x31D8 JUMPI DUP3 MLOAD DUP1 MLOAD PUSH2 0x31C8 SWAP2 DUP5 SWAP2 PUSH1 0x20 SWAP1 SWAP2 ADD SWAP1 PUSH2 0x30DD JUMP JUMPDEST POP SWAP2 PUSH1 0x20 ADD SWAP2 SWAP1 PUSH1 0x1 ADD SWAP1 PUSH2 0x31AB JUMP JUMPDEST POP PUSH2 0x30D9 SWAP3 SWAP2 POP PUSH2 0x32CC JUMP JUMPDEST DUP3 DUP1 SLOAD DUP3 DUP3 SSTORE SWAP1 PUSH1 0x0 MSTORE PUSH1 0x20 PUSH1 0x0 KECCAK256 SWAP1 DUP2 ADD SWAP3 DUP3 ISZERO PUSH2 0x30CD JUMPI PUSH1 0x0 MSTORE PUSH1 0x20 PUSH1 0x0 KECCAK256 SWAP2 DUP3 ADD DUP3 DUP2 GT ISZERO PUSH2 0x30CD JUMPI DUP3 SLOAD DUP3 SSTORE SWAP2 PUSH1 0x1 ADD SWAP2 SWAP1 PUSH1 0x1 ADD SWAP1 PUSH2 0x30B2 JUMP JUMPDEST DUP3 DUP1 SLOAD DUP3 DUP3 SSTORE SWAP1 PUSH1 0x0 MSTORE PUSH1 0x20 PUSH1 0x0 KECCAK256 SWAP1 DUP2 ADD SWAP3 DUP3 ISZERO PUSH2 0x31D8 JUMPI PUSH1 0x0 MSTORE PUSH1 0x20 PUSH1 0x0 KECCAK256 SWAP2 DUP3 ADD JUMPDEST DUP3 DUP2 GT ISZERO PUSH2 0x31D8 JUMPI DUP3 DUP3 SWAP1 DUP1 SLOAD PUSH2 0x325E SWAP1 PUSH2 0x3C0E JUMP JUMPDEST PUSH2 0x3269 SWAP3 SWAP2 SWAP1 PUSH2 0x3052 JUMP JUMPDEST POP SWAP2 PUSH1 0x1 ADD SWAP2 SWAP1 PUSH1 0x1 ADD SWAP1 PUSH2 0x3248 JUMP JUMPDEST POP DUP1 SLOAD PUSH1 0x0 DUP3 SSTORE PUSH1 0x5 MUL SWAP1 PUSH1 0x0 MSTORE PUSH1 0x20 PUSH1 0x0 KECCAK256 SWAP1 DUP2 ADD SWAP1 PUSH2 0x329A SWAP2 SWAP1 PUSH2 0x32E9 JUMP JUMPDEST POP JUMP JUMPDEST POP DUP1 SLOAD PUSH1 0x0 DUP3 SSTORE SWAP1 PUSH1 0x0 MSTORE PUSH1 0x20 PUSH1 0x0 KECCAK256 SWAP1 DUP2 ADD SWAP1 PUSH2 0x329A SWAP2 SWAP1 JUMPDEST JUMPDEST DUP1 DUP3 GT ISZERO PUSH2 0x30D9 JUMPI PUSH1 0x0 DUP2 SSTORE PUSH1 0x1 ADD PUSH2 0x32B8 JUMP JUMPDEST DUP1 DUP3 GT ISZERO PUSH2 0x30D9 JUMPI PUSH1 0x0 PUSH2 0x32E0 DUP3 DUP3 PUSH2 0x333A JUMP JUMPDEST POP PUSH1 0x1 ADD PUSH2 0x32CC JUMP JUMPDEST DUP1 DUP3 GT ISZERO PUSH2 0x30D9 JUMPI PUSH1 0x0 PUSH2 0x32FD DUP3 DUP3 PUSH2 0x333A JUMP JUMPDEST PUSH2 0x330B PUSH1 0x1 DUP4 ADD PUSH1 0x0 PUSH2 0x329D JUMP JUMPDEST PUSH1 0x2 DUP3 ADD DUP1 SLOAD PUSH4 0xFFFFFFFF NOT AND SWAP1 SSTORE PUSH1 0x0 PUSH1 0x3 DUP4 ADD DUP2 SWAP1 SSTORE PUSH2 0x3331 SWAP1 PUSH1 0x4 DUP5 ADD SWAP1 PUSH2 0x3374 JUMP JUMPDEST POP PUSH1 0x5 ADD PUSH2 0x32E9 JUMP JUMPDEST POP DUP1 SLOAD PUSH2 0x3346 SWAP1 PUSH2 0x3C0E JUMP JUMPDEST PUSH1 0x0 DUP3 SSTORE DUP1 PUSH1 0x1F LT PUSH2 0x3356 JUMPI POP POP JUMP JUMPDEST PUSH1 0x1F ADD PUSH1 0x20 SWAP1 DIV SWAP1 PUSH1 0x0 MSTORE PUSH1 0x20 PUSH1 0x0 KECCAK256 SWAP1 DUP2 ADD SWAP1 PUSH2 0x329A SWAP2 SWAP1 PUSH2 0x32B7 JUMP JUMPDEST POP DUP1 SLOAD PUSH1 0x0 DUP3 SSTORE SWAP1 PUSH1 0x0 MSTORE PUSH1 0x20 PUSH1 0x0 KECCAK256 SWAP1 DUP2 ADD SWAP1 PUSH2 0x329A SWAP2 SWAP1 PUSH2 0x32CC JUMP JUMPDEST PUSH1 0x0 PUSH1 0x20 DUP3 DUP5 SUB SLT ISZERO PUSH2 0x33A4 JUMPI PUSH1 0x0 DUP1 REVERT JUMPDEST POP CALLDATALOAD SWAP2 SWAP1 POP JUMP JUMPDEST PUSH1 0x0 JUMPDEST DUP4 DUP2 LT ISZERO PUSH2 0x33C6 JUMPI DUP2 DUP2 ADD MLOAD DUP4 DUP3 ADD MSTORE PUSH1 0x20 ADD PUSH2 0x33AE JUMP JUMPDEST DUP4 DUP2 GT ISZERO PUSH2 0x33D5 JUMPI PUSH1 0x0 DUP5 DUP5 ADD MSTORE JUMPDEST POP POP POP POP JUMP JUMPDEST PUSH1 0x0 DUP2 MLOAD DUP1 DUP5 MSTORE PUSH2 0x33F3 DUP2 PUSH1 0x20 DUP7 ADD PUSH1 0x20 DUP7 ADD PUSH2 0x33AB JUMP JUMPDEST PUSH1 0x1F ADD PUSH1 0x1F NOT AND SWAP3 SWAP1 SWAP3 ADD PUSH1 0x20 ADD SWAP3 SWAP2 POP POP JUMP JUMPDEST PUSH1 0xC0 DUP2 MSTORE PUSH1 0x0 PUSH2 0x341A PUSH1 0xC0 DUP4 ADD DUP10 PUSH2 0x33DB JUMP JUMPDEST SWAP7 ISZERO ISZERO PUSH1 0x20 DUP4 ADD MSTORE POP SWAP4 ISZERO ISZERO PUSH1 0x40 DUP6 ADD MSTORE SWAP2 ISZERO ISZERO PUSH1 0x60 DUP5 ADD MSTORE ISZERO ISZERO PUSH1 0x80 DUP4 ADD MSTORE PUSH1 0xA0 SWAP1 SWAP2 ADD MSTORE SWAP2 SWAP1 POP JUMP JUMPDEST DUP1 MLOAD DUP3 MSTORE PUSH1 0x0 PUSH1 0x20 DUP3 ADD MLOAD PUSH1 0x80 PUSH1 0x20 DUP6 ADD MSTORE PUSH2 0x3464 PUSH1 0x80 DUP6 ADD DUP3 PUSH2 0x33DB JUMP JUMPDEST SWAP1 POP PUSH1 0x40 DUP4 ADD MLOAD PUSH1 0x40 DUP6 ADD MSTORE PUSH1 0x60 DUP4 ADD MLOAD PUSH1 0x60 DUP6 ADD MSTORE DUP1 SWAP2 POP POP SWAP3 SWAP2 POP POP JUMP JUMPDEST PUSH1 0x0 DUP3 DUP3 MLOAD DUP1 DUP6 MSTORE PUSH1 0x20 DUP1 DUP7 ADD SWAP6 POP DUP1 DUP3 PUSH1 0x5 SHL DUP5 ADD ADD DUP2 DUP7 ADD PUSH1 0x0 JUMPDEST DUP5 DUP2 LT ISZERO PUSH2 0x34CF JUMPI PUSH1 0x1F NOT DUP7 DUP5 SUB ADD DUP10 MSTORE PUSH2 0x34BD DUP4 DUP4 MLOAD PUSH2 0x3445 JUMP JUMPDEST SWAP9 DUP5 ADD SWAP9 SWAP3 POP SWAP1 DUP4 ADD SWAP1 PUSH1 0x1 ADD PUSH2 0x34A1 JUMP JUMPDEST POP SWAP1 SWAP8 SWAP7 POP POP POP POP POP POP POP JUMP JUMPDEST PUSH1 0x20 DUP2 MSTORE PUSH1 0x0 PUSH2 0x1C95 PUSH1 0x20 DUP4 ADD DUP5 PUSH2 0x3484 JUMP JUMPDEST PUSH4 0x4E487B71 PUSH1 0xE0 SHL PUSH1 0x0 MSTORE PUSH1 0x41 PUSH1 0x4 MSTORE PUSH1 0x24 PUSH1 0x0 REVERT JUMPDEST PUSH1 0x40 MLOAD PUSH1 0x1F DUP3 ADD PUSH1 0x1F NOT AND DUP2 ADD PUSH8 0xFFFFFFFFFFFFFFFF DUP2 GT DUP3 DUP3 LT OR ISZERO PUSH2 0x352E JUMPI PUSH2 0x352E PUSH2 0x34EF JUMP JUMPDEST PUSH1 0x40 MSTORE SWAP2 SWAP1 POP JUMP JUMPDEST PUSH1 0x0 DUP3 PUSH1 0x1F DUP4 ADD SLT PUSH2 0x3547 JUMPI PUSH1 0x0 DUP1 REVERT JUMPDEST DUP2 CALLDATALOAD PUSH8 0xFFFFFFFFFFFFFFFF DUP2 GT ISZERO PUSH2 0x3561 JUMPI PUSH2 0x3561 PUSH2 0x34EF JUMP JUMPDEST PUSH2 0x3574 PUSH1 0x1F DUP3 ADD PUSH1 0x1F NOT AND PUSH1 0x20 ADD PUSH2 0x3505 JUMP JUMPDEST DUP2 DUP2 MSTORE DUP5 PUSH1 0x20 DUP4 DUP7 ADD ADD GT ISZERO PUSH2 0x3589 JUMPI PUSH1 0x0 DUP1 REVERT JUMPDEST DUP2 PUSH1 0x20 DUP6 ADD PUSH1 0x20 DUP4 ADD CALLDATACOPY PUSH1 0x0 SWAP2 DUP2 ADD PUSH1 0x20 ADD SWAP2 SWAP1 SWAP2 MSTORE SWAP4 SWAP3 POP POP POP JUMP JUMPDEST PUSH1 0x0 PUSH1 0x20 DUP3 DUP5 SUB SLT ISZERO PUSH2 0x35B8 JUMPI PUSH1 0x0 DUP1 REVERT JUMPDEST DUP2 CALLDATALOAD PUSH8 0xFFFFFFFFFFFFFFFF DUP2 GT ISZERO PUSH2 0x35CF JUMPI PUSH1 0x0 DUP1 REVERT JUMPDEST PUSH2 0x35DB DUP5 DUP3 DUP6 ADD PUSH2 0x3536 JUMP JUMPDEST SWAP5 SWAP4 POP POP POP POP JUMP JUMPDEST DUP4 DUP2 MSTORE DUP3 PUSH1 0x20 DUP3 ADD MSTORE PUSH1 0x60 PUSH1 0x40 DUP3 ADD MSTORE PUSH1 0x0 PUSH2 0x3602 PUSH1 0x60 DUP4 ADD DUP5 PUSH2 0x3484 JUMP JUMPDEST SWAP6 SWAP5 POP POP POP POP POP JUMP JUMPDEST PUSH1 0x0 DUP1 PUSH1 0x0 DUP1 PUSH1 0x60 DUP6 DUP8 SUB SLT ISZERO PUSH2 0x3621 JUMPI PUSH1 0x0 DUP1 REVERT JUMPDEST DUP5 CALLDATALOAD PUSH8 0xFFFFFFFFFFFFFFFF DUP1 DUP3 GT ISZERO PUSH2 0x3639 JUMPI PUSH1 0x0 DUP1 REVERT JUMPDEST PUSH2 0x3645 DUP9 DUP4 DUP10 ADD PUSH2 0x3536 JUMP JUMPDEST SWAP6 POP PUSH1 0x20 DUP8 ADD CALLDATALOAD SWAP5 POP PUSH1 0x40 DUP8 ADD CALLDATALOAD SWAP2 POP DUP1 DUP3 GT ISZERO PUSH2 0x3662 JUMPI PUSH1 0x0 DUP1 REVERT JUMPDEST DUP2 DUP8 ADD SWAP2 POP DUP8 PUSH1 0x1F DUP4 ADD SLT PUSH2 0x3676 JUMPI PUSH1 0x0 DUP1 REVERT JUMPDEST DUP2 CALLDATALOAD DUP2 DUP2 GT ISZERO PUSH2 0x3685 JUMPI PUSH1 0x0 DUP1 REVERT JUMPDEST DUP9 PUSH1 0x20 DUP3 PUSH1 0x5 SHL DUP6 ADD ADD GT ISZERO PUSH2 0x369A JUMPI PUSH1 0x0 DUP1 REVERT JUMPDEST SWAP6 SWAP9 SWAP5 SWAP8 POP POP PUSH1 0x20 ADD SWAP5 POP POP POP JUMP JUMPDEST PUSH1 0x0 DUP1 PUSH1 0x40 DUP4 DUP6 SUB SLT ISZERO PUSH2 0x36BC JUMPI PUSH1 0x0 DUP1 REVERT JUMPDEST DUP3 CALLDATALOAD PUSH8 0xFFFFFFFFFFFFFFFF DUP1 DUP3 GT ISZERO PUSH2 0x36D4 JUMPI PUSH1 0x0 DUP1 REVERT JUMPDEST PUSH2 0x36E0 DUP7 DUP4 DUP8 ADD PUSH2 0x3536 JUMP JUMPDEST SWAP4 POP PUSH1 0x20 DUP6 ADD CALLDATALOAD SWAP2 POP DUP1 DUP3 GT ISZERO PUSH2 0x36F6 JUMPI PUSH1 0x0 DUP1 REVERT JUMPDEST POP PUSH2 0x3703 DUP6 DUP3 DUP7 ADD PUSH2 0x3536 JUMP JUMPDEST SWAP2 POP POP SWAP3 POP SWAP3 SWAP1 POP JUMP JUMPDEST PUSH1 0x0 PUSH1 0x20 DUP3 DUP5 SUB SLT ISZERO PUSH2 0x371F JUMPI PUSH1 0x0 DUP1 REVERT JUMPDEST DUP2 CALLDATALOAD DUP1 ISZERO ISZERO DUP2 EQ PUSH2 0x1C95 JUMPI PUSH1 0x0 DUP1 REVERT JUMPDEST PUSH1 0x0 DUP2 MLOAD DUP1 DUP5 MSTORE PUSH1 0x20 DUP1 DUP6 ADD SWAP5 POP DUP1 DUP5 ADD PUSH1 0x0 JUMPDEST DUP4 DUP2 LT ISZERO PUSH2 0x375F JUMPI DUP2 MLOAD DUP8 MSTORE SWAP6 DUP3 ADD SWAP6 SWAP1 DUP3 ADD SWAP1 PUSH1 0x1 ADD PUSH2 0x3743 JUMP JUMPDEST POP SWAP5 SWAP6 SWAP5 POP POP POP POP POP JUMP JUMPDEST PUSH1 0x0 DUP2 MLOAD DUP1 DUP5 MSTORE PUSH1 0x20 DUP1 DUP6 ADD DUP1 DUP2 SWAP7 POP DUP4 PUSH1 0x5 SHL DUP2 ADD SWAP2 POP DUP3 DUP7 ADD PUSH1 0x0 JUMPDEST DUP6 DUP2 LT ISZERO PUSH2 0x37B2 JUMPI DUP3 DUP5 SUB DUP10 MSTORE PUSH2 0x37A0 DUP5 DUP4 MLOAD PUSH2 0x33DB JUMP JUMPDEST SWAP9 DUP6 ADD SWAP9 SWAP4 POP SWAP1 DUP5 ADD SWAP1 PUSH1 0x1 ADD PUSH2 0x3788 JUMP JUMPDEST POP SWAP2 SWAP8 SWAP7 POP POP POP POP POP POP POP JUMP JUMPDEST PUSH1 0x0 PUSH1 0x20 DUP1 DUP4 ADD DUP2 DUP5 MSTORE DUP1 DUP6 MLOAD DUP1 DUP4 MSTORE PUSH1 0x40 SWAP3 POP DUP3 DUP7 ADD SWAP2 POP DUP3 DUP2 PUSH1 0x5 SHL DUP8 ADD ADD DUP5 DUP9 ADD PUSH1 0x0 JUMPDEST DUP4 DUP2 LT ISZERO PUSH2 0x3896 JUMPI PUSH1 0x3F NOT DUP10 DUP5 SUB ADD DUP6 MSTORE DUP2 MLOAD PUSH2 0x100 DUP2 MLOAD DUP2 DUP7 MSTORE PUSH2 0x380D DUP3 DUP8 ADD DUP3 PUSH2 0x33DB JUMP JUMPDEST SWAP2 POP POP DUP9 DUP3 ADD MLOAD DUP6 DUP3 SUB DUP11 DUP8 ADD MSTORE PUSH2 0x3825 DUP3 DUP3 PUSH2 0x372F JUMP JUMPDEST SWAP2 POP POP DUP8 DUP3 ADD MLOAD PUSH2 0x3839 DUP10 DUP8 ADD DUP3 ISZERO ISZERO SWAP1 MSTORE JUMP JUMPDEST POP PUSH1 0x60 DUP3 DUP2 ADD MLOAD ISZERO ISZERO SWAP1 DUP7 ADD MSTORE PUSH1 0x80 DUP1 DUP4 ADD MLOAD ISZERO ISZERO SWAP1 DUP7 ADD MSTORE PUSH1 0xA0 DUP1 DUP4 ADD MLOAD ISZERO ISZERO SWAP1 DUP7 ADD MSTORE PUSH1 0xC0 DUP1 DUP4 ADD MLOAD SWAP1 DUP7 ADD MSTORE PUSH1 0xE0 SWAP2 DUP3 ADD MLOAD DUP6 DUP3 SUB SWAP3 DUP7 ADD SWAP3 SWAP1 SWAP3 MSTORE PUSH2 0x3882 DUP2 DUP4 PUSH2 0x376A JUMP JUMPDEST SWAP7 DUP10 ADD SWAP7 SWAP5 POP POP POP SWAP1 DUP7 ADD SWAP1 PUSH1 0x1 ADD PUSH2 0x37E6 JUMP JUMPDEST POP SWAP1 SWAP9 SWAP8 POP POP POP POP POP POP POP POP JUMP JUMPDEST PUSH1 0x0 PUSH8 0xFFFFFFFFFFFFFFFF DUP3 GT ISZERO PUSH2 0x38BE JUMPI PUSH2 0x38BE PUSH2 0x34EF JUMP JUMPDEST POP PUSH1 0x5 SHL PUSH1 0x20 ADD SWAP1 JUMP JUMPDEST PUSH1 0x0 DUP3 PUSH1 0x1F DUP4 ADD SLT PUSH2 0x38D9 JUMPI PUSH1 0x0 DUP1 REVERT JUMPDEST DUP2 CALLDATALOAD PUSH1 0x20 PUSH2 0x38EE PUSH2 0x38E9 DUP4 PUSH2 0x38A4 JUMP JUMPDEST PUSH2 0x3505 JUMP JUMPDEST DUP3 DUP2 MSTORE PUSH1 0x5 SWAP3 SWAP1 SWAP3 SHL DUP5 ADD DUP2 ADD SWAP2 DUP2 DUP2 ADD SWAP1 DUP7 DUP5 GT ISZERO PUSH2 0x390D JUMPI PUSH1 0x0 DUP1 REVERT JUMPDEST DUP3 DUP7 ADD JUMPDEST DUP5 DUP2 LT ISZERO PUSH2 0x394D JUMPI DUP1 CALLDATALOAD PUSH8 0xFFFFFFFFFFFFFFFF DUP2 GT ISZERO PUSH2 0x3931 JUMPI PUSH1 0x0 DUP1 DUP2 REVERT JUMPDEST PUSH2 0x393F DUP10 DUP7 DUP4 DUP12 ADD ADD PUSH2 0x3536 JUMP JUMPDEST DUP5 MSTORE POP SWAP2 DUP4 ADD SWAP2 DUP4 ADD PUSH2 0x3911 JUMP JUMPDEST POP SWAP7 SWAP6 POP POP POP POP POP POP JUMP JUMPDEST PUSH1 0x0 DUP1 PUSH1 0x0 PUSH1 0x60 DUP5 DUP7 SUB SLT ISZERO PUSH2 0x396D JUMPI PUSH1 0x0 DUP1 REVERT JUMPDEST DUP4 CALLDATALOAD PUSH8 0xFFFFFFFFFFFFFFFF DUP1 DUP3 GT ISZERO PUSH2 0x3985 JUMPI PUSH1 0x0 DUP1 REVERT JUMPDEST PUSH2 0x3991 DUP8 DUP4 DUP9 ADD PUSH2 0x3536 JUMP JUMPDEST SWAP5 POP PUSH1 0x20 SWAP2 POP DUP2 DUP7 ADD CALLDATALOAD DUP2 DUP2 GT ISZERO PUSH2 0x39A8 JUMPI PUSH1 0x0 DUP1 REVERT JUMPDEST DUP7 ADD PUSH1 0x1F DUP2 ADD DUP9 SGT PUSH2 0x39B9 JUMPI PUSH1 0x0 DUP1 REVERT JUMPDEST DUP1 CALLDATALOAD PUSH2 0x39C7 PUSH2 0x38E9 DUP3 PUSH2 0x38A4 JUMP JUMPDEST DUP2 DUP2 MSTORE PUSH1 0x5 SWAP2 SWAP1 SWAP2 SHL DUP3 ADD DUP5 ADD SWAP1 DUP5 DUP2 ADD SWAP1 DUP11 DUP4 GT ISZERO PUSH2 0x39E6 JUMPI PUSH1 0x0 DUP1 REVERT JUMPDEST SWAP3 DUP6 ADD SWAP3 JUMPDEST DUP3 DUP5 LT ISZERO PUSH2 0x3A04 JUMPI DUP4 CALLDATALOAD DUP3 MSTORE SWAP3 DUP6 ADD SWAP3 SWAP1 DUP6 ADD SWAP1 PUSH2 0x39EB JUMP JUMPDEST SWAP7 POP POP POP POP PUSH1 0x40 DUP7 ADD CALLDATALOAD SWAP2 POP DUP1 DUP3 GT ISZERO PUSH2 0x3A1D JUMPI PUSH1 0x0 DUP1 REVERT JUMPDEST POP PUSH2 0x3A2A DUP7 DUP3 DUP8 ADD PUSH2 0x38C8 JUMP JUMPDEST SWAP2 POP POP SWAP3 POP SWAP3 POP SWAP3 JUMP JUMPDEST DUP5 DUP2 MSTORE PUSH1 0x80 PUSH1 0x20 DUP3 ADD MSTORE PUSH1 0x0 PUSH2 0x3A4D PUSH1 0x80 DUP4 ADD DUP7 PUSH2 0x33DB JUMP JUMPDEST PUSH1 0x40 DUP4 ADD SWAP5 SWAP1 SWAP5 MSTORE POP PUSH1 0x60 ADD MSTORE SWAP3 SWAP2 POP POP JUMP JUMPDEST PUSH1 0x40 DUP2 MSTORE PUSH1 0x0 PUSH2 0x3A73 PUSH1 0x40 DUP4 ADD DUP6 PUSH2 0x3445 JUMP JUMPDEST SWAP1 POP DUP3 PUSH1 0x20 DUP4 ADD MSTORE SWAP4 SWAP3 POP POP POP JUMP JUMPDEST PUSH1 0x0 DUP1 PUSH1 0x40 DUP4 DUP6 SUB SLT ISZERO PUSH2 0x3A95 JUMPI PUSH1 0x0 DUP1 REVERT JUMPDEST POP POP DUP1 CALLDATALOAD SWAP3 PUSH1 0x20 SWAP1 SWAP2 ADD CALLDATALOAD SWAP2 POP JUMP JUMPDEST DUP1 CALLDATALOAD PUSH1 0x1 PUSH1 0x1 PUSH1 0xA0 SHL SUB DUP2 AND DUP2 EQ PUSH2 0x2FF4 JUMPI PUSH1 0x0 DUP1 REVERT JUMPDEST PUSH1 0x0 DUP1 PUSH1 0x40 DUP4 DUP6 SUB SLT ISZERO PUSH2 0x3ACE JUMPI PUSH1 0x0 DUP1 REVERT JUMPDEST DUP3 CALLDATALOAD PUSH8 0xFFFFFFFFFFFFFFFF DUP2 GT ISZERO PUSH2 0x3AE5 JUMPI PUSH1 0x0 DUP1 REVERT JUMPDEST PUSH2 0x3AF1 DUP6 DUP3 DUP7 ADD PUSH2 0x3536 JUMP JUMPDEST SWAP3 POP POP PUSH2 0x3B00 PUSH1 0x20 DUP5 ADD PUSH2 0x3AA4 JUMP JUMPDEST SWAP1 POP SWAP3 POP SWAP3 SWAP1 POP JUMP JUMPDEST PUSH1 0x0 DUP1 PUSH1 0x40 DUP4 DUP6 SUB SLT ISZERO PUSH2 0x3B1C JUMPI PUSH1 0x0 DUP1 REVERT JUMPDEST DUP3 CALLDATALOAD PUSH8 0xFFFFFFFFFFFFFFFF DUP2 GT ISZERO PUSH2 0x3B33 JUMPI PUSH1 0x0 DUP1 REVERT JUMPDEST PUSH2 0x3B3F DUP6 DUP3 DUP7 ADD PUSH2 0x3536 JUMP JUMPDEST SWAP6 PUSH1 0x20 SWAP5 SWAP1 SWAP5 ADD CALLDATALOAD SWAP5 POP POP POP POP JUMP JUMPDEST PUSH1 0x40 DUP2 MSTORE PUSH1 0x0 PUSH2 0x3A73 PUSH1 0x40 DUP4 ADD DUP6 PUSH2 0x33DB JUMP JUMPDEST PUSH1 0x40 DUP2 MSTORE PUSH1 0x0 PUSH2 0x3B74 PUSH1 0x40 DUP4 ADD DUP6 PUSH2 0x3445 JUMP JUMPDEST DUP3 DUP2 SUB PUSH1 0x20 DUP5 ADD MSTORE PUSH2 0x3602 DUP2 DUP6 PUSH2 0x33DB JUMP JUMPDEST PUSH1 0x0 PUSH1 0x20 DUP3 DUP5 SUB SLT ISZERO PUSH2 0x3B98 JUMPI PUSH1 0x0 DUP1 REVERT JUMPDEST PUSH2 0x1C95 DUP3 PUSH2 0x3AA4 JUMP JUMPDEST PUSH1 0xA0 DUP2 MSTORE PUSH1 0x0 PUSH2 0x3BB4 PUSH1 0xA0 DUP4 ADD DUP9 PUSH2 0x33DB JUMP JUMPDEST SWAP6 ISZERO ISZERO PUSH1 0x20 DUP4 ADD MSTORE POP SWAP3 ISZERO ISZERO PUSH1 0x40 DUP5 ADD MSTORE PUSH1 0x60 DUP4 ADD SWAP2 SWAP1 SWAP2 MSTORE PUSH1 0x80 SWAP1 SWAP2 ADD MSTORE SWAP2 SWAP1 POP JUMP JUMPDEST PUSH1 0x20 DUP2 MSTORE PUSH1 0x0 PUSH2 0x1C95 PUSH1 0x20 DUP4 ADD DUP5 PUSH2 0x33DB JUMP JUMPDEST PUSH1 0x0 DUP1 PUSH1 0x40 DUP4 DUP6 SUB SLT ISZERO PUSH2 0x3BFE JUMPI PUSH1 0x0 DUP1 REVERT JUMPDEST DUP3 CALLDATALOAD SWAP2 POP PUSH2 0x3B00 PUSH1 0x20 DUP5 ADD PUSH2 0x3AA4 JUMP JUMPDEST PUSH1 0x1 DUP2 DUP2 SHR SWAP1 DUP3 AND DUP1 PUSH2 0x3C22 JUMPI PUSH1 0x7F DUP3 AND SWAP2 POP JUMPDEST PUSH1 0x20 DUP3 LT DUP2 SUB PUSH2 0x78D JUMPI PUSH4 0x4E487B71 PUSH1 0xE0 SHL PUSH1 0x0 MSTORE PUSH1 0x22 PUSH1 0x4 MSTORE PUSH1 0x24 PUSH1 0x0 REVERT JUMPDEST PUSH4 0x4E487B71 PUSH1 0xE0 SHL PUSH1 0x0 MSTORE PUSH1 0x11 PUSH1 0x4 MSTORE PUSH1 0x24 PUSH1 0x0 REVERT JUMPDEST PUSH1 0x0 DUP3 NOT DUP3 GT ISZERO PUSH2 0x3C6B JUMPI PUSH2 0x3C6B PUSH2 0x3C42 JUMP JUMPDEST POP ADD SWAP1 JUMP JUMPDEST PUSH4 0x4E487B71 PUSH1 0xE0 SHL PUSH1 0x0 MSTORE PUSH1 0x32 PUSH1 0x4 MSTORE PUSH1 0x24 PUSH1 0x0 REVERT JUMPDEST PUSH1 0x0 PUSH1 0x1 DUP3 ADD PUSH2 0x3C98 JUMPI PUSH2 0x3C98 PUSH2 0x3C42 JUMP JUMPDEST POP PUSH1 0x1 ADD SWAP1 JUMP JUMPDEST PUSH1 0x20 DUP1 DUP3 MSTORE PUSH1 0x2E SWAP1 DUP3 ADD MSTORE PUSH32 0x416363657373206772616E74656420746F206F6E6C7920746865206368616972 PUSH1 0x40 DUP3 ADD MSTORE PUSH14 0x36B0B71037B9103A32B0B1B432B9 PUSH1 0x91 SHL PUSH1 0x60 DUP3 ADD MSTORE PUSH1 0x80 ADD SWAP1 JUMP JUMPDEST PUSH1 0x20 DUP1 DUP3 MSTORE PUSH1 0x1C SWAP1 DUP3 ADD MSTORE PUSH32 0x436F6E74726163742069732063757272656E746C792070617573656400000000 PUSH1 0x40 DUP3 ADD MSTORE PUSH1 0x60 ADD SWAP1 JUMP JUMPDEST PUSH1 0x0 DUP3 MLOAD PUSH2 0x3D36 DUP2 DUP5 PUSH1 0x20 DUP8 ADD PUSH2 0x33AB JUMP JUMPDEST SWAP2 SWAP1 SWAP2 ADD SWAP3 SWAP2 POP POP JUMP JUMPDEST PUSH1 0x40 DUP2 MSTORE PUSH1 0x0 PUSH2 0x3D53 PUSH1 0x40 DUP4 ADD DUP7 PUSH2 0x33DB JUMP JUMPDEST DUP3 DUP2 SUB PUSH1 0x20 DUP5 DUP2 ADD SWAP2 SWAP1 SWAP2 MSTORE DUP5 DUP3 MSTORE DUP6 SWAP2 DUP2 ADD PUSH1 0x0 JUMPDEST DUP7 DUP2 LT ISZERO PUSH2 0x3D95 JUMPI PUSH1 0x1 PUSH1 0x1 PUSH1 0xA0 SHL SUB PUSH2 0x3D82 DUP6 PUSH2 0x3AA4 JUMP JUMPDEST AND DUP3 MSTORE SWAP3 DUP3 ADD SWAP3 SWAP1 DUP3 ADD SWAP1 PUSH1 0x1 ADD PUSH2 0x3D69 JUMP JUMPDEST POP SWAP8 SWAP7 POP POP POP POP POP POP POP JUMP JUMPDEST PUSH1 0x20 DUP1 DUP3 MSTORE PUSH1 0x23 SWAP1 DUP3 ADD MSTORE PUSH32 0x416363657373206772616E74656420746F206F6E6C7920746865206368616972 PUSH1 0x40 DUP3 ADD MSTORE PUSH3 0x36B0B7 PUSH1 0xE9 SHL PUSH1 0x60 DUP3 ADD MSTORE PUSH1 0x80 ADD SWAP1 JUMP JUMPDEST PUSH1 0x40 DUP2 MSTORE PUSH1 0x0 PUSH2 0x3DF7 PUSH1 0x40 DUP4 ADD DUP6 PUSH2 0x33DB JUMP JUMPDEST SWAP1 POP DUP3 ISZERO ISZERO PUSH1 0x20 DUP4 ADD MSTORE SWAP4 SWAP3 POP POP POP JUMP JUMPDEST PUSH1 0x20 DUP1 DUP3 MSTORE PUSH1 0x2B SWAP1 DUP3 ADD MSTORE PUSH32 0x566F74696E6720686173206E6F7420636F6D6D6D656E63656420666F72207468 PUSH1 0x40 DUP3 ADD MSTORE PUSH11 0x69732043617465676F7279 PUSH1 0xA8 SHL PUSH1 0x60 DUP3 ADD MSTORE PUSH1 0x80 ADD SWAP1 JUMP JUMPDEST PUSH1 0x0 DUP1 DUP4 SLOAD DUP2 PUSH1 0x1 DUP3 DUP2 SHR SWAP2 POP DUP1 DUP4 AND DUP1 PUSH2 0x3E6F JUMPI PUSH1 0x7F DUP4 AND SWAP3 POP JUMPDEST PUSH1 0x20 DUP1 DUP5 LT DUP3 SUB PUSH2 0x3E8E JUMPI PUSH4 0x4E487B71 PUSH1 0xE0 SHL DUP7 MSTORE PUSH1 0x22 PUSH1 0x4 MSTORE PUSH1 0x24 DUP7 REVERT JUMPDEST DUP2 DUP1 ISZERO PUSH2 0x3EA2 JUMPI PUSH1 0x1 DUP2 EQ PUSH2 0x3EB3 JUMPI PUSH2 0x3EE0 JUMP JUMPDEST PUSH1 0xFF NOT DUP7 AND DUP10 MSTORE DUP5 DUP10 ADD SWAP7 POP PUSH2 0x3EE0 JUMP JUMPDEST PUSH1 0x0 DUP11 DUP2 MSTORE PUSH1 0x20 SWAP1 KECCAK256 PUSH1 0x0 JUMPDEST DUP7 DUP2 LT ISZERO PUSH2 0x3ED8 JUMPI DUP2 SLOAD DUP12 DUP3 ADD MSTORE SWAP1 DUP6 ADD SWAP1 DUP4 ADD PUSH2 0x3EBF JUMP JUMPDEST POP POP DUP5 DUP10 ADD SWAP7 POP JUMPDEST POP SWAP5 SWAP9 SWAP8 POP POP POP POP POP POP POP POP JUMP JUMPDEST PUSH1 0x0 PUSH1 0x20 DUP3 DUP5 SUB SLT ISZERO PUSH2 0x3F00 JUMPI PUSH1 0x0 DUP1 REVERT JUMPDEST POP MLOAD SWAP2 SWAP1 POP JUMP JUMPDEST PUSH1 0x1 PUSH1 0x1 PUSH1 0xA0 SHL SUB DUP4 AND DUP2 MSTORE PUSH1 0x40 PUSH1 0x20 DUP3 ADD DUP2 SWAP1 MSTORE PUSH1 0x0 SWAP1 PUSH2 0x35DB SWAP1 DUP4 ADD DUP5 PUSH2 0x33DB JUMP JUMPDEST PUSH1 0x0 DUP2 PUSH1 0x0 NOT DIV DUP4 GT DUP3 ISZERO ISZERO AND ISZERO PUSH2 0x3F45 JUMPI PUSH2 0x3F45 PUSH2 0x3C42 JUMP JUMPDEST POP MUL SWAP1 JUMP INVALID LOG2 PUSH5 0x6970667358 0x22 SLT KECCAK256 LOG1 0xEC PUSH20 0x69BAC5E723F1C0909F53BBC832ADA5D9BB048B3E 0xB8 ADD 0xCF DUP1 0xCC MUL SELFDESTRUCT PUSH32 0x3A64736F6C634300080D00330000000000000000000000000000000000000000 "
		},
		"gasEstimates": {
			"creation": {
				"codeDepositCost": "3251200",
				"executionCost": "infinite",
				"totalCost": "infinite"
			},
			"external": {
				"Category(string)": "infinite",
				"_paused()": "2356",
				"activeElectionArrays(uint256)": "infinite",
				"activeElections(string)": "infinite",
				"activeModify(string)": "infinite",
				"addCategories(string)": "infinite",
				"candidates(uint256)": "infinite",
				"candidatesCount()": "2385",
				"categories(uint256)": "infinite",
				"chairman()": "2404",
				"changeChairman(address)": "infinite",
				"checkRole(string,address)": "infinite",
				"clearElectionQueue()": "infinite",
				"compileVotes(string)": "infinite",
				"concensusVote()": "infinite",
				"endVotingSession(string)": "infinite",
				"fetchElection()": "infinite",
				"getCandidates()": "infinite",
				"getWinningCandidate(string)": "infinite",
				"makeResultPublic(string)": "infinite",
				"registerCandidate(string,string)": "infinite",
				"setPaused(bool)": "26746",
				"setUpElection(string,uint256[],string[])": "infinite",
				"stakeholders(address)": "infinite",
				"startVotingSession(string)": "infinite",
				"uploadStakeHolder(string,uint256,address[])": "infinite",
				"vote(string,uint256)": "infinite",
				"votedForCategory(uint256,address)": "2717",
				"votesForCategory(uint256,uint256)": "2601",
				"zstoken()": "2383"
			},
			"internal": {
				"compareStrings(string memory,string memory)": "infinite"
			}
		},
		"methodIdentifiers": {
			"Category(string)": "44fb5a1a",
			"_paused()": "16c61ccc",
			"activeElectionArrays(uint256)": "00d195fd",
			"activeElections(string)": "32b773a5",
			"activeModify(string)": "8b132066",
			"addCategories(string)": "fc177e30",
			"candidates(uint256)": "3477ee2e",
			"candidatesCount()": "2d35a8a2",
			"categories(uint256)": "c6cdbe5e",
			"chairman()": "87f7b975",
			"changeChairman(address)": "e8101869",
			"checkRole(string,address)": "7026fe9c",
			"clearElectionQueue()": "8c1b0d51",
			"compileVotes(string)": "073b1f59",
			"concensusVote()": "5202d887",
			"endVotingSession(string)": "a672601d",
			"fetchElection()": "19f3a50e",
			"getCandidates()": "06a49fce",
			"getWinningCandidate(string)": "40284753",
			"makeResultPublic(string)": "c00ce9ff",
			"registerCandidate(string,string)": "0dbce4dd",
			"setPaused(bool)": "16c38b3c",
			"setUpElection(string,uint256[],string[])": "30a9e121",
			"stakeholders(address)": "c07cfca9",
			"startVotingSession(string)": "764926db",
			"uploadStakeHolder(string,uint256,address[])": "0b92dfa0",
			"vote(string,uint256)": "a6385803",
			"votedForCategory(uint256,address)": "f74e0eac",
			"votesForCategory(uint256,uint256)": "6c537471",
			"zstoken()": "0b5f42da"
		}
	},
	"abi": [
		{
			"inputs": [
				{
					"internalType": "address",
					"name": "_tokenAddr",
					"type": "address"
				}
			],
			"stateMutability": "nonpayable",
			"type": "constructor"
		},
		{
			"anonymous": false,
			"inputs": [
				{
					"indexed": false,
					"internalType": "uint256",
					"name": "candidateId",
					"type": "uint256"
				}
			],
			"name": "CandidateRegisteredEvent",
			"type": "event"
		},
		{
			"anonymous": false,
			"inputs": [
				{
					"indexed": false,
					"internalType": "address",
					"name": "adder",
					"type": "address"
				},
				{
					"indexed": false,
					"internalType": "address",
					"name": "newChairman",
					"type": "address"
				}
			],
			"name": "ChangeChairman",
			"type": "event"
		},
		{
			"anonymous": false,
			"inputs": [
				{
					"indexed": false,
					"internalType": "address",
					"name": "director",
					"type": "address"
				},
				{
					"indexed": false,
					"internalType": "bool",
					"name": "consent",
					"type": "bool"
				}
			],
			"name": "ConcensusVote",
			"type": "event"
		},
		{
			"anonymous": false,
			"inputs": [
				{
					"indexed": false,
					"internalType": "string",
					"name": "_role",
					"type": "string"
				},
				{
					"indexed": false,
					"internalType": "address[]",
					"name": "stakeholderAddress",
					"type": "address[]"
				}
			],
			"name": "StakeholderRegisteredEvent",
			"type": "event"
		},
		{
			"anonymous": false,
			"inputs": [
				{
					"indexed": false,
					"internalType": "address",
					"name": "stakeholder",
					"type": "address"
				},
				{
					"indexed": false,
					"internalType": "string",
					"name": "category",
					"type": "string"
				}
			],
			"name": "VotedEvent",
			"type": "event"
		},
		{
			"anonymous": false,
			"inputs": [
				{
					"indexed": false,
					"internalType": "string",
					"name": "category",
					"type": "string"
				},
				{
					"indexed": false,
					"internalType": "uint256",
					"name": "totalVotes",
					"type": "uint256"
				}
			],
			"name": "VotesCountedEvent",
			"type": "event"
		},
		{
			"anonymous": false,
			"inputs": [
				{
					"indexed": false,
					"internalType": "string",
					"name": "category",
					"type": "string"
				},
				{
					"indexed": false,
					"internalType": "bool",
					"name": "status",
					"type": "bool"
				}
			],
			"name": "VotingEndedEvent",
			"type": "event"
		},
		{
			"anonymous": false,
			"inputs": [
				{
					"indexed": false,
					"internalType": "string",
					"name": "category",
					"type": "string"
				},
				{
					"indexed": false,
					"internalType": "bool",
					"name": "status",
					"type": "bool"
				}
			],
			"name": "VotingStartedEvent",
			"type": "event"
		},
		{
			"inputs": [
				{
					"internalType": "string",
					"name": "",
					"type": "string"
				}
			],
			"name": "Category",
			"outputs": [
				{
					"internalType": "uint256",
					"name": "",
					"type": "uint256"
				}
			],
			"stateMutability": "view",
			"type": "function"
		},
		{
			"inputs": [],
			"name": "_paused",
			"outputs": [
				{
					"internalType": "bool",
					"name": "",
					"type": "bool"
				}
			],
			"stateMutability": "view",
			"type": "function"
		},
		{
			"inputs": [
				{
					"internalType": "uint256",
					"name": "",
					"type": "uint256"
				}
			],
			"name": "activeElectionArrays",
			"outputs": [
				{
					"internalType": "string",
					"name": "category",
					"type": "string"
				},
				{
					"internalType": "bool",
					"name": "VotingStarted",
					"type": "bool"
				},
				{
					"internalType": "bool",
					"name": "VotingEnded",
					"type": "bool"
				},
				{
					"internalType": "bool",
					"name": "VotesCounted",
					"type": "bool"
				},
				{
					"internalType": "bool",
					"name": "isResultPublic",
					"type": "bool"
				},
				{
					"internalType": "uint256",
					"name": "totalVotesCasted",
					"type": "uint256"
				}
			],
			"stateMutability": "view",
			"type": "function"
		},
		{
			"inputs": [
				{
					"internalType": "string",
					"name": "",
					"type": "string"
				}
			],
			"name": "activeElections",
			"outputs": [
				{
					"internalType": "string",
					"name": "category",
					"type": "string"
				},
				{
					"internalType": "bool",
					"name": "VotingStarted",
					"type": "bool"
				},
				{
					"internalType": "bool",
					"name": "VotingEnded",
					"type": "bool"
				},
				{
					"internalType": "bool",
					"name": "VotesCounted",
					"type": "bool"
				},
				{
					"internalType": "bool",
					"name": "isResultPublic",
					"type": "bool"
				},
				{
					"internalType": "uint256",
					"name": "totalVotesCasted",
					"type": "uint256"
				}
			],
			"stateMutability": "view",
			"type": "function"
		},
		{
			"inputs": [
				{
					"internalType": "string",
					"name": "",
					"type": "string"
				}
			],
			"name": "activeModify",
			"outputs": [
				{
					"internalType": "uint256",
					"name": "",
					"type": "uint256"
				}
			],
			"stateMutability": "view",
			"type": "function"
		},
		{
			"inputs": [
				{
					"internalType": "string",
					"name": "_category",
					"type": "string"
				}
			],
			"name": "addCategories",
			"outputs": [
				{
					"internalType": "string",
					"name": "",
					"type": "string"
				}
			],
			"stateMutability": "nonpayable",
			"type": "function"
		},
		{
			"inputs": [
				{
					"internalType": "uint256",
					"name": "",
					"type": "uint256"
				}
			],
			"name": "candidates",
			"outputs": [
				{
					"internalType": "uint256",
					"name": "id",
					"type": "uint256"
				},
				{
					"internalType": "string",
					"name": "name",
					"type": "string"
				},
				{
					"internalType": "uint256",
					"name": "category",
					"type": "uint256"
				},
				{
					"internalType": "uint256",
					"name": "voteCount",
					"type": "uint256"
				}
			],
			"stateMutability": "view",
			"type": "function"
		},
		{
			"inputs": [],
			"name": "candidatesCount",
			"outputs": [
				{
					"internalType": "uint256",
					"name": "",
					"type": "uint256"
				}
			],
			"stateMutability": "view",
			"type": "function"
		},
		{
			"inputs": [
				{
					"internalType": "uint256",
					"name": "",
					"type": "uint256"
				}
			],
			"name": "categories",
			"outputs": [
				{
					"internalType": "string",
					"name": "",
					"type": "string"
				}
			],
			"stateMutability": "view",
			"type": "function"
		},
		{
			"inputs": [],
			"name": "chairman",
			"outputs": [
				{
					"internalType": "address",
					"name": "",
					"type": "address"
				}
			],
			"stateMutability": "view",
			"type": "function"
		},
		{
			"inputs": [
				{
					"internalType": "address",
					"name": "_stakeHolder",
					"type": "address"
				}
			],
			"name": "changeChairman",
			"outputs": [],
			"stateMutability": "nonpayable",
			"type": "function"
		},
		{
			"inputs": [
				{
					"internalType": "string",
					"name": "_role",
					"type": "string"
				},
				{
					"internalType": "address",
					"name": "_address",
					"type": "address"
				}
			],
			"name": "checkRole",
			"outputs": [
				{
					"internalType": "bool",
					"name": "",
					"type": "bool"
				}
			],
			"stateMutability": "view",
			"type": "function"
		},
		{
			"inputs": [],
			"name": "clearElectionQueue",
			"outputs": [],
			"stateMutability": "nonpayable",
			"type": "function"
		},
		{
			"inputs": [
				{
					"internalType": "string",
					"name": "_position",
					"type": "string"
				}
			],
			"name": "compileVotes",
			"outputs": [
				{
					"internalType": "uint256",
					"name": "total",
					"type": "uint256"
				},
				{
					"internalType": "uint256",
					"name": "winnigVotes",
					"type": "uint256"
				},
				{
					"components": [
						{
							"internalType": "uint256",
							"name": "id",
							"type": "uint256"
						},
						{
							"internalType": "string",
							"name": "name",
							"type": "string"
						},
						{
							"internalType": "uint256",
							"name": "category",
							"type": "uint256"
						},
						{
							"internalType": "uint256",
							"name": "voteCount",
							"type": "uint256"
						}
					],
					"internalType": "struct ZuriSchool.Candidate[]",
					"name": "",
					"type": "tuple[]"
				}
			],
			"stateMutability": "nonpayable",
			"type": "function"
		},
		{
			"inputs": [],
			"name": "concensusVote",
			"outputs": [],
			"stateMutability": "nonpayable",
			"type": "function"
		},
		{
			"inputs": [
				{
					"internalType": "string",
					"name": "_category",
					"type": "string"
				}
			],
			"name": "endVotingSession",
			"outputs": [],
			"stateMutability": "nonpayable",
			"type": "function"
		},
		{
			"inputs": [],
			"name": "fetchElection",
			"outputs": [
				{
					"components": [
						{
							"internalType": "string",
							"name": "category",
							"type": "string"
						},
						{
							"internalType": "uint256[]",
							"name": "candidatesID",
							"type": "uint256[]"
						},
						{
							"internalType": "bool",
							"name": "VotingStarted",
							"type": "bool"
						},
						{
							"internalType": "bool",
							"name": "VotingEnded",
							"type": "bool"
						},
						{
							"internalType": "bool",
							"name": "VotesCounted",
							"type": "bool"
						},
						{
							"internalType": "bool",
							"name": "isResultPublic",
							"type": "bool"
						},
						{
							"internalType": "uint256",
							"name": "totalVotesCasted",
							"type": "uint256"
						},
						{
							"internalType": "string[]",
							"name": "allowedVoters",
							"type": "string[]"
						}
					],
					"internalType": "struct ZuriSchool.Election[]",
					"name": "",
					"type": "tuple[]"
				}
			],
			"stateMutability": "view",
			"type": "function"
		},
		{
			"inputs": [],
			"name": "getCandidates",
			"outputs": [
				{
					"components": [
						{
							"internalType": "uint256",
							"name": "id",
							"type": "uint256"
						},
						{
							"internalType": "string",
							"name": "name",
							"type": "string"
						},
						{
							"internalType": "uint256",
							"name": "category",
							"type": "uint256"
						},
						{
							"internalType": "uint256",
							"name": "voteCount",
							"type": "uint256"
						}
					],
					"internalType": "struct ZuriSchool.Candidate[]",
					"name": "",
					"type": "tuple[]"
				}
			],
			"stateMutability": "view",
			"type": "function"
		},
		{
			"inputs": [
				{
					"internalType": "string",
					"name": "_category",
					"type": "string"
				}
			],
			"name": "getWinningCandidate",
			"outputs": [
				{
					"components": [
						{
							"internalType": "uint256",
							"name": "id",
							"type": "uint256"
						},
						{
							"internalType": "string",
							"name": "name",
							"type": "string"
						},
						{
							"internalType": "uint256",
							"name": "category",
							"type": "uint256"
						},
						{
							"internalType": "uint256",
							"name": "voteCount",
							"type": "uint256"
						}
					],
					"internalType": "struct ZuriSchool.Candidate",
					"name": "",
					"type": "tuple"
				},
				{
					"internalType": "uint256",
					"name": "",
					"type": "uint256"
				}
			],
			"stateMutability": "view",
			"type": "function"
		},
		{
			"inputs": [
				{
					"internalType": "string",
					"name": "_category",
					"type": "string"
				}
			],
			"name": "makeResultPublic",
			"outputs": [
				{
					"components": [
						{
							"internalType": "uint256",
							"name": "id",
							"type": "uint256"
						},
						{
							"internalType": "string",
							"name": "name",
							"type": "string"
						},
						{
							"internalType": "uint256",
							"name": "category",
							"type": "uint256"
						},
						{
							"internalType": "uint256",
							"name": "voteCount",
							"type": "uint256"
						}
					],
					"internalType": "struct ZuriSchool.Candidate",
					"name": "",
					"type": "tuple"
				},
				{
					"internalType": "string",
					"name": "",
					"type": "string"
				}
			],
			"stateMutability": "nonpayable",
			"type": "function"
		},
		{
			"inputs": [
				{
					"internalType": "string",
					"name": "candidateName",
					"type": "string"
				},
				{
					"internalType": "string",
					"name": "_category",
					"type": "string"
				}
			],
			"name": "registerCandidate",
			"outputs": [],
			"stateMutability": "nonpayable",
			"type": "function"
		},
		{
			"inputs": [
				{
					"internalType": "bool",
					"name": "_value",
					"type": "bool"
				}
			],
			"name": "setPaused",
			"outputs": [],
			"stateMutability": "nonpayable",
			"type": "function"
		},
		{
			"inputs": [
				{
					"internalType": "string",
					"name": "_category",
					"type": "string"
				},
				{
					"internalType": "uint256[]",
					"name": "_candidateID",
					"type": "uint256[]"
				},
				{
					"internalType": "string[]",
					"name": "_allowedVoters",
					"type": "string[]"
				}
			],
			"name": "setUpElection",
			"outputs": [
				{
					"internalType": "bool",
					"name": "",
					"type": "bool"
				}
			],
			"stateMutability": "nonpayable",
			"type": "function"
		},
		{
			"inputs": [
				{
					"internalType": "address",
					"name": "",
					"type": "address"
				}
			],
			"name": "stakeholders",
			"outputs": [
				{
					"internalType": "string",
					"name": "role",
					"type": "string"
				},
				{
					"internalType": "bool",
					"name": "isRegistered",
					"type": "bool"
				},
				{
					"internalType": "bool",
					"name": "hasVoted",
					"type": "bool"
				},
				{
					"internalType": "uint256",
					"name": "votedCandidateId",
					"type": "uint256"
				},
				{
					"internalType": "uint256",
					"name": "votingPower",
					"type": "uint256"
				}
			],
			"stateMutability": "view",
			"type": "function"
		},
		{
			"inputs": [
				{
					"internalType": "string",
					"name": "_category",
					"type": "string"
				}
			],
			"name": "startVotingSession",
			"outputs": [],
			"stateMutability": "nonpayable",
			"type": "function"
		},
		{
			"inputs": [
				{
					"internalType": "string",
					"name": "_role",
					"type": "string"
				},
				{
					"internalType": "uint256",
					"name": "votingPower",
					"type": "uint256"
				},
				{
					"internalType": "address[]",
					"name": "_address",
					"type": "address[]"
				}
			],
			"name": "uploadStakeHolder",
			"outputs": [],
			"stateMutability": "nonpayable",
			"type": "function"
		},
		{
			"inputs": [
				{
					"internalType": "string",
					"name": "_category",
					"type": "string"
				},
				{
					"internalType": "uint256",
					"name": "_candidateID",
					"type": "uint256"
				}
			],
			"name": "vote",
			"outputs": [
				{
					"internalType": "string",
					"name": "",
					"type": "string"
				},
				{
					"internalType": "uint256",
					"name": "",
					"type": "uint256"
				}
			],
			"stateMutability": "nonpayable",
			"type": "function"
		},
		{
			"inputs": [
				{
					"internalType": "uint256",
					"name": "",
					"type": "uint256"
				},
				{
					"internalType": "address",
					"name": "",
					"type": "address"
				}
			],
			"name": "votedForCategory",
			"outputs": [
				{
					"internalType": "bool",
					"name": "",
					"type": "bool"
				}
			],
			"stateMutability": "view",
			"type": "function"
		},
		{
			"inputs": [
				{
					"internalType": "uint256",
					"name": "",
					"type": "uint256"
				},
				{
					"internalType": "uint256",
					"name": "",
					"type": "uint256"
				}
			],
			"name": "votesForCategory",
			"outputs": [
				{
					"internalType": "uint256",
					"name": "",
					"type": "uint256"
				}
			],
			"stateMutability": "view",
			"type": "function"
		},
		{
			"inputs": [],
			"name": "zstoken",
			"outputs": [
				{
					"internalType": "contract ZuriSchoolToken",
					"name": "",
					"type": "address"
				}
			],
			"stateMutability": "view",
			"type": "function"
		}
	]
}